:1000000014C10000E5C40000B8C400008BC40000A7
:100010005EC4000031C4000004C40000D7C3000067
:10002000AAC3000032C1000030C100002EC1000090
:100030002CC100002AC1000028C1000026C1000018
:1000400024C1000022C1000020C100001EC1000028
:100050001CC100001AC1000018C1000042C300000A
:1000600014C10000FAC50000CFC500000EC1000099
:100070000CC100000AC1000008C1000006C1000058
:1000800004C1000002C1000000C10000FEC0000069
:10009000FCC00000FAC00000F8C00000F6C000007C
:1000A000F4C00000F2C00000F0C00000EEC000008C
:1000B000ECC00000EAC00000E8C00000E6C000009C
:1000C000E4C00000E2C00000E0C00000DEC00000AC
:1000D000DCC00000DAC00000D8C00000D6C00000BC
:1000E000D4C00000C502C802B702BB02C102FF02B1
:1000F000CC02D002D602DA02DE02E402E802EC020E
:10010000FF02F202F602FA0200002100240027009A
:100110002A002D0030003300010100000401070116
:100120000A01000020002300260029002C002F00D7
:100130003200000100000301060109010000220055
:10014000250028002B002E003100340002010000A1
:10015000050108010B010505050507050808080844
:10016000020202020A0A080804040404010101014F
:10017000010101010303030303030303040707074A
:100180000C0C0C0C0C0C0C0C0202020206060606EF
:10019000060606060B0B0B0B0B0B0B0B01021020BC
:1001A00020080810204010204080020102010804AD
:1001B0000201010204081020408080402010080441
:1001C000020180040201804020100804020108049A
:1001D00002010102040810204080010204081020DE
:1001E000408000000A0B02090C0D0E0807030401F1
:1001F00000000000000000000000000000000000FF
:1002000000000000000000000000000000001211CB
:1002100010000000000000000000000000000000CE
:100220000000000000000000EE0911241FBECFEF07
:10023000D1E2DEBFCDBF00E00CBF23E0AAE6B2E012
:1002400001C01D92A238B207E1F712E0A0E0B2E0CF
:10025000ECE1F7E100E00BBF02C007900D92AA3677
:10026000B107D9F711E0C5E1D1E000E006C0219760
:100270000109802FFE010E945F0AC431D10780E08E
:100280000807A9F7F5D50C948C0BBACEFC01538D59
:10029000448D252F30E0842F90E0821B930B541760
:1002A00010F0CF96089501970895FC01918D828DED
:1002B000981761F0828DDF01A80FB11D5D968C91BA
:1002C000928D9F5F9F73928F90E008958FEF9FEFC5
:1002D0000895FC01918D828D981731F0828DE80F81
:1002E000F11D858D90E008958FEF9FEF0895FC013B
:1002F000918D228D892F90E0805C9F4F821B910908
:100300008F739927089580E090E0892B19F073D4BA
:10031000811125C080E090E0892B41F080E090E0E1
:10032000892B21F00E94000081111CC080E090E028
:10033000892B41F080E090E0892B21F00E940000A1
:10034000811113C080E090E0892BA1F080E090E063
:10035000892B81F00E94000081110AC008950E943B
:100360000000D8CF0E940000E1CF0E940000EACF39
:100370000C94000008950895DC01ED91FD918081B9
:10038000ED91FD919081ED91FD916C9163708E23C3
:1003900009F064609F2309F06860E9EDF1E0E60F81
:1003A000F11D659565956D936D917D918D919D91F3
:1003B000099423C01AC012C016C010C01EC009C0C4
:1003C00014C013C006C019C009C00DC007C00DC0BD
:1003D00014C062507040804090400BC0615070402B
:1003E0008040904006C06E5F01C06F5F7F4F8F4FAF
:1003F0009F4F9E938E937E936E9308958091740287
:1004000090917502B9CF8091720290917302B4CF2E
:100410008091700290917102AFCF80916E029091A5
:100420006F02AACF80916C0290916D02A5CF80914E
:100430006A0290916B02A0CFFC01848DDF01A80FAE
:10044000B11DA35ABF4F2C91848D90E001968F73FC
:100450009927848FA689B7892C93A089B1898C911B
:10046000837080648C93938D848D981306C002886A
:10047000F389E02D80818F7D80830895EF92FF9234
:100480000F931F93CF93DF93EC0181E0888F9B8DB7
:100490008C8D981305C0E889F989808185FD25C078
:1004A000F62E0B8D10E00F5F1F4F0F731127E02EFC
:1004B0008C8DE8120BC00FB607FCFACFE889F989DA
:1004C000808185FFF5CFCE01B7DFF2CF8B8DFE01A6
:1004D000E80FF11DE35AFF4FF0829FB7F8940B8F9E
:1004E000EA89FB89808180620AC09FB7F894EE890F
:1004F000FF896083E889F9898081837080648083C3
:100500009FBF81E090E0DF91CF911F910F91FF900D
:10051000EF900895CF93DF93EC01888D8823C1F08D
:10052000EA89FB89808185FD05C0A889B9898C91FC
:1005300086FD0EC00FB607FCF5CF808185FFF2CF98
:10054000A889B9898C9185FFEDCFCE0175DFE8CF01
:10055000DF91CF91089590E0FC013197E231F105F0
:1005600008F04DC08827EE58FF4F8F4FA8C78091E5
:1005700080008F7703C0809180008F7D8093800002
:10058000089580918000877FF9CF84B58F7702C06E
:1005900084B58F7D84BD08958091B0008F7703C0AE
:1005A0008091B0008F7D8093B0000895809190007D
:1005B0008F7707C0809190008F7D03C0809190005D
:1005C000877F8093900008958091A0008F7707C067
:1005D0008091A0008F7D03C08091A000877F8093D1
:1005E000A0000895809120018F7707C0809120019D
:1005F0008F7D03C080912001877F80932001089523
:10060000CF93DF93FC01218530E0F901EE51FE4FDD
:100610008491F901E456FE4FD491F901EA5AFE4F54
:10062000C491CC2371F0811196DFEC2FF0E0EE0F36
:10063000FF1FEE5DFE4FA591B491EC91ED2381E09B
:1006400009F480E08170DF91CF910895CF93DF931B
:1006500090E0FC01E456FE4F2491FC01EA5AFE4F63
:100660008491882361F190E0880F991FFC01E85F75
:10067000FE4FC591D491FC01E45CFE4FA591B4916D
:10068000611109C09FB7F8948881209582238883DF
:10069000EC912E230BC0623061F49FB7F8948881EF
:1006A000322F309583238883EC912E2B2C939FBF80
:1006B00006C08FB7F894E8812E2B28838FBFDF9177
:1006C000CF910895862F642FC1CF2FB7F8946091F2
:1006D0007B0270917C0280917D0290917E022FBFFF
:1006E00008951F920F920FB60F9211242F933F93EC
:1006F0008F939F93AF93BF9380917B0290917C02E5
:10070000A0917D02B0917E0230917A0223E0230F06
:100710002D3720F40196A11DB11D05C026E8230F39
:100720000296A11DB11D20937A0280937B029093C3
:100730007C02A0937D02B0937E028091760290911C
:100740007702A0917802B09179020196A11DB11DA6
:100750008093760290937702A0937802B093790207
:10076000BF91AF919F918F913F912F910F900FBEAD
:100770000F901F9018951F920F920FB60F92112491
:100780000BB60F922F933F934F935F936F937F938B
:100790008F939F93AF93BF93EF93FF93E0910E02DC
:1007A000F0910F021995FF91EF91BF91AF919F9139
:1007B0008F917F916F915F914F913F912F910F900A
:1007C0000BBE0F900FBE0F901F9018951F920F92A7
:1007D0000FB60F9211240BB60F922F933F934F93A6
:1007E0005F936F937F938F939F93AF93BF93EF9399
:1007F000FF93E0910C02F0910D021995FF91EF919A
:10080000BF91AF919F918F917F916F915F914F9128
:100810003F912F910F900BBE0F900FBE0F901F9026
:1008200018951F920F920FB60F9211240BB60F92CC
:100830002F933F934F935F936F937F938F939F93E8
:10084000AF93BF93EF93FF93E0910202F091030205
:100850001995FF91EF91BF91AF919F918F917F91EA
:100860006F915F914F913F912F910F900BBE0F9021
:100870000FBE0F901F9018951F920F920FB60F92F8
:1008800011240BB60F922F933F934F935F936F9367
:100890007F938F939F93AF93BF93EF93FF93E091D9
:1008A0000002F09101021995FF91EF91BF91AF9174
:1008B0009F918F917F916F915F914F913F912F9178
:1008C0000F900BBE0F900FBE0F901F9018951F92A8
:1008D0000F920FB60F9211240BB60F922F933F93E6
:1008E0004F935F936F937F938F939F93AF93BF9338
:1008F000EF93FF93E0910A02F0910B021995FF919B
:10090000EF91BF91AF919F918F917F916F915F9187
:100910004F913F912F910F900BBE0F900FBE0F90F4
:100920001F9018951F920F920FB60F9211240BB6BD
:100930000F922F933F934F935F936F937F938F9378
:100940009F93AF93BF93EF93FF93E0910802F091D1
:1009500009021995FF91EF91BF91AF919F918F91EE
:100960007F916F915F914F913F912F910F900BBEAF
:100970000F900FBE0F901F9018951F920F920FB6F9
:100980000F9211240BB60F922F933F934F935F93C7
:100990006F937F938F939F93AF93BF93EF93FF9347
:1009A000E0910602F09107021995FF91EF91BF9136
:1009B000AF919F918F917F916F915F914F913F91F7
:1009C0002F910F900BBE0F900FBE0F901F90189598
:1009D0001F920F920FB60F9211240BB60F922F9306
:1009E0003F934F935F936F937F938F939F93AF93B7
:1009F000BF93EF93FF93E0910402F09105021995E4
:100A0000FF91EF91BF91AF919F918F917F916F91E6
:100A10005F914F913F912F910F900BBE0F900FBEA2
:100A20000F901F901895CF92DF92EF92FF920F9345
:100A30001F93CF93DF93EC0188858B7F8887E881B4
:100A4000F9810190F081E02DCE011995182F88854C
:100A500086958170181751F038DE6A837B838C830A
:100A60009D83988582E08927888736C02EDECA80DC
:100A7000DB80EC80FD80AB01BC014C195D096E0987
:100A80007F098E819F81A0E0B0E0481759076A076F
:100A90007B0710F1888581701817F1F016DE6A83E4
:100AA0007B838C839D83988581E0892784608887F8
:100AB0000CDE0A851B852C853D85DC01CB01801B66
:100AC000910BA20BB30B8E879F87A88BB98BFDDD93
:100AD0006A877B878C879D87888582FB882780F93A
:100AE000DF91CF911F910F91FF90EF90DF90CF900A
:100AF0000895823109F466C0B8F4823069F1833018
:100B000009F073C070936D0260936C0282E192E011
:100B1000909303028093020280916A00837F846035
:100B200080936A00ED9A5FC0843141F1C8F185314C
:100B300009F05BC070936F0260936E028DE092E0EB
:100B40009093050280930402809169008C7F8160FC
:100B500080936900E89A47C070936B0260936A02C1
:100B600087E192E0909301028093000280916A00F5
:100B70008C7F816080936A00EC9A35C0709371021B
:100B80006093700288E092E09093070280930602DF
:100B900080916900837F846080936900E99A23C013
:100BA000709373026093720283E092E09093090263
:100BB00080930802809169008F7C80618093690036
:100BC000EA9A11C070937502609374028EEF91E0FF
:100BD00090930B0280930A02809169008F73806466
:100BE00080936900EB9A81E0089580E0089508956C
:100BF00080E090E0089587E892E079DB21E0892B9E
:100C000009F420E0822F08951F920F920FB60F92E1
:100C100011240BB60F922F933F934F935F936F93D3
:100C20007F938F939F93AF93BF93EF93FF9387E847
:100C300092E002DCFF91EF91BF91AF919F918F9174
:100C40007F916F915F914F913F912F910F900BBECC
:100C50000F900FBE0F901F9018951F920F920FB616
:100C60000F9211240BB60F922F938F939F93EF93B4
:100C7000FF93E0919702F09198028081E0919D02AC
:100C8000F0919E0282FD12C090818091A0028F5F40
:100C90008F732091A102821751F0E091A002F0E041
:100CA000E957FD4F958F8093A00201C08081FF918D
:100CB000EF919F918F912F910F900BBE0F900FBED0
:100CC0000F901F901895CF92DF92EF92FF920F93A3
:100CD0001F93CF93DF936C017A018B01C0E0D0E0CA
:100CE000CE15DF0581F0D8016D918D01D601ED9112
:100CF000FC910190F081E02DC6011995892B11F02E
:100D00002196EECF7E01C701DF91CF911F910F9108
:100D1000FF90EF90DF90CF900895FAD4E7E8F2E0EB
:100D2000A089B18982E08C93A485B5851C92A685A3
:100D3000B78580E18C93108EA489B58986E08C9369
:100D4000A289B3898C9180618C93A289B3898C919B
:100D500088608C93A289B3898C9180688C93028877
:100D6000F389E02D80818F7D80830895CF93DF9379
:100D7000282F30E0F901EE51FE4F8491F901E4563D
:100D8000FE4FD491F901EA5AFE4FC491CC2389F069
:100D90008111E1DBEC2FF0E0EE0FFF1FE45CFE4F72
:100DA000A591B4919FB7F8948C91D095D823DC93FA
:100DB0009FBFDF91CF9108956115710579F0FB0117
:100DC00001900020E9F73197AF01461B570BDC017A
:100DD000ED91FC910280F381E02D199480E090E088
:100DE00008958F929F92AF92BF92EF92FF920F93CE
:100DF0001F93CF93DF93CDB7DEB7A1970FB6F894CB
:100E0000DEBF0FBECDBF7C01FA01CB0119A222309B
:100E100008F42AE08E010F5D1F4F822E912CA12C29
:100E2000B12CBF01A501940128D3F901CA010150D9
:100E300011096A3014F4605D01C0695CD8016C93DB
:100E4000232B242B252B69F7B801C701B5DFA19609
:100E50000FB6F894DEBF0FBECDBFDF91CF911F91CB
:100E60000F91FF90EF90BF90AF909F908F9008955B
:100E7000789484B5826084BD84B5816084BD85B575
:100E8000826085BD85B5816085BD80916E00816081
:100E900080936E0010928100809181008260809327
:100EA0008100809181008160809381008091800029
:100EB0008160809380008091B10084608093B10054
:100EC0008091B00081608093B00080919100826039
:100ED0008093910080919100816080939100809136
:100EE00090008160809390008091A1008260809347
:100EF000A1008091A10081608093A1008091A00059
:100F000081608093A0008091210182608093210103
:100F10008091210181608093210180912001816075
:100F20008093200180917A00846080937A00809180
:100F30007A00826080937A0080917A008160809349
:100F40007A0080917A00806880937A001092C100C4
:100F5000109268031092690310926A0310926B0357
:100F6000109226031092270310922803109229034F
:100F7000ACDB6B017C014B015C0188EB880E8BE0E4
:100F8000981EA11CB11CA1DB6C157D058E059F056B
:100F900028F086169706A806B906A8F787E892E013
:100FA0009093670380936603B9DE8FDB609326031B
:100FB00070932703809328039093290360E372E0E2
:100FC0008091660390916703F7DE7FDB6B017C0104
:100FD0004B015C01AAE08A0E911CA11CB11C75DBBF
:100FE0006C157D058E059F0528F086169706A806C8
:100FF000B906A8F781E080933A0386E190E067D2D2
:10100000EC018CE292E0998388831A821B821C8215
:101010001D828AE090E09F838E83188619861D8A40
:1010200087E090E09B8B8A8B60E010DB87E089870C
:101030001886E881F9810190F081E02DCE011995A3
:10104000882319F08885836088873FDB6A837B83E8
:101050008C839D8384E190E09F838E83CE01E3DCCB
:101060008D8B888581708C8BD0938002C0937F029A
:1010700080E190E02CD28C01FC011782168216864A
:10108000178681E090E09587848784E090E01FD206
:10109000EC011982188285E08A8386E08B8361E007
:1010A00085E0D4DA61E08B81D1DA8A815FDE8B81E1
:1010B0005DDED8011396DC93CE9312978CE090E01E
:1010C00006D2EC0162E082E0C1DA62E083E0BEDADF
:1010D000E8E5F1E0E491F0E0EE0FFF1FEE5DFE4F7A
:1010E000A591B491B983A883EEE9F1E084918C8352
:1010F000E9E5F1E0E491F0E0EE0FFF1FEE5DFE4F59
:10110000259134913B832A83EFE9F1E094919D830B
:101110001F82188619861A86EBE3FFE13197F1F7F3
:10112000EC91E82381E009F480E0D901EC91E92316
:1011300009F082608E83BE0182E0DBDC8B87BE011A
:1011400083E0D7DC9B85890F8B87F801D583C48327
:101150001093820200938102E1DD62E472E087E88D
:1011600092E02ADE6FE372E087E892E025DE84EF0A
:10117000C82EDD24D394E12CF12CA7DA672B682B41
:10118000692B39F4A2DA623071058105910508F402
:10119000FAC09BDA009183021091840220918502AB
:1011A00030918602601771078207930740F46093BD
:1011B000830270938402809385029093860200914B
:1011C00083021091840220918502309186024B01A6
:1011D0005C01801A910AA20AB30A950184010A3FB0
:1011E00011052105310508F4CEC060938302709388
:1011F00084028093850290938602C0923203D0923B
:101200003303E0923403F0923503109236031092C8
:101210003703109238031092390380912A0390917A
:101220002B03A0912C03B0912D0380932E03909358
:101230002F03A0933003B093310347DA60932A035E
:1012400070932B0380932C0390932D033EDA6093CD
:10125000260370932703809328039093290335DA9C
:101260004B015C0166E572E0809166039091670333
:10127000A3DD2AE041E050E060E070E08091660389
:1012800090916703AEDD6DE572E080916603909109
:10129000670392DD2AE0B501A40180916603909175
:1012A00067039FDD6FE572E08091660390916703AD
:1012B00083DD80912A0390912B03A0912C03B091A0
:1012C0002D03B501A401481B590B6A0B7B0B2AE0C7
:1012D000809166039091670384DD6FE572E08091F1
:1012E00066039091670368DD40912A0350912B03B8
:1012F00060912C0370912D0380912E0390912F0308
:10130000A0913003B0913103481B590B6A0B7B0B42
:101310002AE0809166039091670363DD61E672E0E5
:10132000809166039091670347DDCFD9AB01BC0183
:101330002AE0809166039091670353DDC0916603B4
:10134000D091670363E672E0CE0136DD6FE372E0B1
:10135000CE0132DDBAD94B015C012B013C0185E0A5
:10136000480E511C611C711CB0D9681579058A059D
:101370009B0570F5AAD960932A0370932B03809381
:101380002C0390932D03E0918102F09182028081E1
:10139000918149DBE0918102F09182020190F0811C
:1013A000E02D408540FD04C042FB442740F901C0C8
:1013B00040E050E060E070E02AE087E892E011DD74
:1013C0006FE372E087E892E0F7DC0E948301D5CEFC
:1013D000461657066806790638F6CCCFE7E8F2E0FD
:1013E0001382128288EE93E0A0E0B0E084839583BC
:1013F000A683B7838AE192E09183808385EC90E0B5
:101400009587848784EC90E09787868780EC90E0CE
:10141000918B808B81EC90E0938B828B82EC90E0BF
:10142000958B848B86EC90E0978B868B118E128E39
:10143000138E148EE4E2F3E0168217821086118672
:10144000128613861486158616861786108A118AC8
:10145000128A138A148A158AECE6F3E08CE292E091
:101460009183808312821382148215828AE090E035
:1014700097838683108611860895A1E21A2EAA1BEF
:10148000BB1BFD010DC0AA1FBB1FEE1FFF1FA21734
:10149000B307E407F50720F0A21BB30BE40BF50B31
:1014A000661F771F881F991F1A9469F760957095BA
:1014B000809590959B01AC01BD01CF010895EE0F81
:1014C000FF1F881F8BBF0790F691E02D19940F9393
:1014D0001F93CF93DF938230910510F482E090E068
:1014E000E0918003F091810320E030E0A0E0B0E0E3
:1014F000309719F1408151810281138148175907B2
:10150000C8F08417950769F4109731F012960C9380
:10151000129713961C9327C00093800310938103A6
:1015200022C02115310519F04217530718F49A010A
:10153000BD01EF01DF01F801DBCF21153105F9F025
:10154000281B390B2430310580F48A819B81611579
:10155000710521F0FB019383828304C09093810382
:1015600080938003FE01329644C0FE01E20FF31F18
:101570008193919322503109398328833AC0209175
:101580007E0330917F03232B41F42091120230918E
:10159000130230937F0320937E0320911002309139
:1015A00011022115310541F42DB73EB740911402C7
:1015B00050911502241B350BE0917E03F0917F03BF
:1015C000E217F307A0F42E1B3F0B2817390778F01A
:1015D000AC014E5F5F4F2417350748F04E0F5F1F79
:1015E00050937F0340937E038193919302C0E0E088
:1015F000F0E0CF01DF91CF911F910F910895CF932C
:10160000DF93009709F481C0FC01329713821282A4
:10161000A0918003B0918103109781F420813181E2
:10162000820F931F20917E0330917F032817390783
:1016300051F5F0937F03E0937E0367C0ED0120E056
:1016400030E0CE17DF0740F44A815B819E014115EF
:101650005105F1F0EA01F5CFD383C2834081518176
:10166000840F951FC817D90759F488819981840F71
:10167000951F0296918380838A819B8193838283C5
:101680002115310529F4F0938103E09380033DC0D7
:10169000E901FB83EA8349915991C40FD51FEC17E7
:1016A000FD0761F480819181840F951F0296E90105
:1016B00099838883828193819B838A83E0E0F0E031
:1016C00012968D919C911397009719F0FD01DC0102
:1016D000F7CF8D919C9111979D012E5F3F4F820F07
:1016E000931F20917E0330917F032817390769F4F7
:1016F000309729F4109281031092800302C0138264
:101700001282B0937F03A0937E03DF91CF9108955F
:0C17100081E090E0F89400C0F894FFCF56
:10171C00BB01BB01BB01BB01BB01BB01BB01BB01DD
:10172C00000082038000000000003E0263064601B8
:10173C008A02770155016901000000000003620371
:10174C00564D4450565F317C315F564D4450560DCA
:10175C000A00506F6C61722042454152206973201F
:10176C00726561647900564D4450455F003A323AD7
:0A177C00007C005F564D445045000C
:00000001FF
