:1000000026C1000005C70000D8C60000ABC600002E
:100010007EC6000051C6000024C60000F7C50000DF
:10002000CAC5000045C1000043C1000041C1000035
:100030003FC100003DC100003BC1000039C10000CC
:1000400037C1000035C1000033C1000031C10000DC
:100050002FC100002DC100002BC1000062C50000AF
:1000600027C100000C94470B0C941E0B21C100000B
:100070001FC100001DC100001BC1000019C100000C
:1000800017C1000015C1000013C1000011C100001C
:100090000FC100000DC100000BC1000009C100002C
:1000A00007C1000005C1000003C1000001C100003C
:1000B000FFC00000FDC00000FBC00000F9C0000050
:1000C000F7C00000F5C00000F3C00000F1C0000060
:1000D000EFC00000EDC00000EBC00000E9C0000070
:1000E000E7C00000E901EC01DB01DF01E5012302CB
:1000F000F001F401FA01FE01020208020C021002F2
:10010000230216021A021E02E204E704EC04F604BB
:10011000000579050A0512051A0524052E0538057E
:100120004705510579055B0565056F050000200051
:100130002300260029002C002F00320000010000BF
:1001400003010601090100002100240027002A0004
:100150002D003000330001010000040107010A01F5
:1001600000002200250028002B002E003100340062
:1001700002010000050108010B0105050505070541
:1001800008080808020202020A0A08080404040413
:10019000010101010101010103030303030303033F
:1001A000040707070C0C0C0C0C0C0C0C02020202CE
:1001B00006060606060606060B0B0B0B0B0B0B0BB7
:1001C0000102102020080810204010204080020169
:1001D000020108040201010204081020408080404E
:1001E000201008040201800402018040201008044D
:1001F00002010804020101020408102040800102EB
:1002000004081020408000000A0B02090C0D0E08A3
:1002100007030401000000000000000000000000CF
:1002200000000000000000000000000000000000CE
:10023000000012111000000000000000000000008B
:10024000000000000000000000000000D30F112497
:100250001FBECFEFD1E2DEBFCDBF00E00CBF23E079
:10026000A6EFB2E001C01D92AC3FB207E1F712E089
:10027000A0E0B2E0E8EAF7E200E00BBF02C00790BE
:100280000D92A63FB107D9F711E0C7E2D1E000E037
:1002900006C021970109802FFE010E94A512C632D7
:1002A000D10780E00807A9F70E94680D0C94D213CB
:1002B000A7CEFC01538D448D252F30E0842F90E094
:1002C000821B930B541710F0CF9608950197089551
:1002D000FC01918D828D981761F0828DDF01A80F4E
:1002E000B11D5D968C91928D9F5F9F73928F90E070
:1002F00008958FEF9FEF0895FC01918D828D9817DF
:1003000031F0828DE80FF11D858D90E008958FEF1B
:100310009FEF0895FC01918D228D892F90E0805CE4
:100320009F4F821B91098F739927089580E090E079
:10033000892B19F035D7811125C080E090E0892BF9
:1003400041F080E090E0892B21F00E9400008111B3
:100350001CC080E090E0892B41F080E090E0892B88
:1003600021F00E940000811113C080E090E0892BF1
:10037000A1F080E090E0892B81F00E9400008111C3
:100380000AC008950E940000D8CF0E940000E1CF6B
:100390000E940000EACF0C940000089590E0FC0158
:1003A0003197E231F10508F04EC08827EE58FF4F33
:1003B0008F4F0C94A512809180008F7703C080919D
:1003C00080008F7D80938000089580918000877FDA
:1003D000F9CF84B58F7702C084B58F7D84BD089531
:1003E0008091B0008F7703C08091B0008F7D8093A3
:1003F000B0000895809190008F7707C080919000A1
:100400008F7D03C080919000877F80939000089536
:100410008091A0008F7707C08091A0008F7D03C0DE
:100420008091A000877F8093A00008958091200193
:100430008F7707C0809120018F7D03C080912001BC
:10044000877F8093200108953FB7F8948091070338
:1004500090910803A0910903B0910A0326B5A89BC7
:1004600005C02F3F19F00196A11DB11D3FBFBA2F46
:10047000A92F982F8827820F911DA11DB11DBC01A6
:10048000CD0142E0660F771F881F991F4A95D1F76B
:1004900008950895CF93DF93FC01218530E0F901A1
:1004A000EA5FFD4F8491F901E054FE4FD491F901C8
:1004B000E658FE4FC491CC2371F081116FDFEC2F11
:1004C000F0E0EE0FFF1FE45DFE4FA591B491EC91BB
:1004D000ED2381E009F480E08170DF91CF910895F0
:1004E000DC01ED91FC910190F081E02D62E070E083
:1004F0001994FC01738362830895FC017383628302
:10050000672B11F4158614860895823109F466C0AC
:10051000B8F4823069F1833009F073C07093F90246
:100520006093F80289E593E09093030280930202BE
:1005300080916A00837F846080936A00ED9A5FC037
:10054000843141F1C8F1853109F05BC07093FB0241
:100550006093FA0284E593E090930502809304028D
:10056000809169008C7F816080936900E89A47C020
:100570007093F7026093F6028EE593E09093010288
:100580008093000280916A008C7F816080936A0072
:10059000EC9A35C07093FD026093FC028FE493E007
:1005A000909307028093060280916900837F8460A4
:1005B00080936900E99A23C07093FF026093FE0262
:1005C0008AE493E090930902809308028091690085
:1005D0008F7C806180936900EA9A11C07093010357
:1005E0006093000385E493E090930B0280930A02EA
:1005F000809169008F73806480936900EB9A81E039
:10060000089580E00895DC01ED91FD918081ED91E8
:10061000FD919081ED91FD916C9163708E2309F0B5
:1006200064609F2309F06860E0E2F3E0E60FF11DEB
:10063000659565956D936D917D918D919D910994D1
:1006400023C01AC012C016C010C01EC009C014C0FA
:1006500013C006C019C009C00DC007C00DC014C02A
:1006600062507040804090400BC0615070408040AC
:10067000904006C06E5F01C06F5F7F4F8F4F9F4FEE
:100680009E938E937E936E93089580910003909134
:100690000103B9CF8091FE029091FF02B4CF809107
:1006A000FC029091FD02AFCF8091FA029091FB0283
:1006B000AACF8091F8029091F902A5CF8091F6021D
:1006C0009091F702A0CF0E94CE13CF93DF93FC014D
:1006D00024853585232B69F4EC016289738941E017
:1006E00050E00E943C0D882321F081E090E09D873E
:1006F0008C87DF91CF910895FC01848DDF01A80FD5
:10070000B11DA35ABF4F2C91848D90E001968F7339
:100710009927848FA689B7892C93A089B1898C9158
:10072000837080648C93938D848D981306C00288A7
:10073000F389E02D80818F7D80830895CF93DF93AF
:10074000EC01888D8823C1F0EA89FB89808185FDD1
:1007500005C0A889B9898C9186FD0EC00FB607FC2B
:10076000F5CF808185FFF2CFA889B9898C9185FF6B
:10077000EDCFCE01C1DFE8CFDF91CF9108951F9378
:10078000CF93DF93282F30E0F901EA5FFD4F84918A
:10079000F901E054FE4FD491F901E658FE4FC4919F
:1007A000CC23B9F0162F8111F9DDEC2FF0E0EE0F1C
:1007B000FF1FE05AFE4FA591B4919FB7F894111115
:1007C00004C08C91D095D82302C0EC91DE2BDC9331
:1007D0009FBFDF91CF911F9108954F925F926F92CB
:1007E0007F928F929F92AF92BF92CF92DF92EF92C1
:1007F000FF920F931F93CF93DF93DC011496CD905C
:10080000DC9015971E96ED90FC901F97CE14DF0498
:10081000C1F4ED91FC910190F081E02D62E070E077
:10082000DF91CF911F910F91FF90EF90DF90CF90CC
:10083000BF90AF909F908F907F906F905F904F9000
:10084000199411E0EC14FD040CF010E0EC01F894A4
:1008500061E08A8594DFF8DD2B013C018AE0882E77
:10086000912CA12CB12CF0DDDC01CB018419950970
:10087000A609B709883E9340A105B105A0F3B1E0F0
:100880008B1A9108A108B108E8EE4E0EE3E05E1E57
:10089000611C711C81149104A104B10421F7612F22
:1008A00088856DDF61E08E816ADF0BE91FE0C8019A
:1008B0000197F1F760E08E8162DFC8010197F1F7DF
:1008C00060E08A855CDF78948E859F85EC14FD045A
:1008D00014F4019601C001979F878E87DF91CF9115
:1008E0001F910F91FF90EF90DF90CF90BF90AF904E
:1008F0009F908F907F906F905F904F900895CF93CF
:10090000DF9390E0FC01E054FE4F2491FC01E65897
:10091000FE4F8491882361F190E0880F991FFC01BC
:10092000EA5BFE4FC591D491FC01E05AFE4FA591C0
:10093000B491611109C09FB7F894888120958223F2
:100940008883EC912E230BC0623061F49FB7F8943A
:100950008881322F309583238883EC912E2B2C9322
:100960009FBF06C08FB7F894E8812E2B28838FBFD6
:10097000DF91CF9108951F93CF93DF93182FEB0151
:1009800061E0BDDF209711F460E004C0CF3FD105E6
:1009900031F461E0812FDF91CF911F91F0CEE12FF3
:1009A000F0E0EA5FFD4FE4918E2F90E0FC0131977B
:1009B000E231F10508F09DC08827EC57FF4F8F4FBB
:1009C0000C94A51284B5806884BDC7BD97C084B55A
:1009D000806284BDC8BD92C0809180008068809391
:1009E0008000D0938900C093880088C080918000E7
:1009F000806280938000D0938B00C0938A007EC079
:100A000080918000886080938000D0938D00C09397
:100A10008C0074C08091B00080688093B000C09357
:100A2000B3006CC08091B00080628093B000C0932E
:100A3000B40064C080919000806880939000D0934F
:100A40009900C09398005AC0809190008062809372
:100A50009000D0939B00C0939A0050C0809190006A
:100A6000886080939000D0939D00C0939C0046C006
:100A70008091A00080688093A0008091A0008F7B6F
:100A80008093A000D093A900C093A80037C08091A4
:100A9000A00080628093A000D093AB00C093AA0016
:100AA0002DC08091A00088608093A000D093AD00FD
:100AB000C093AC0023C08091200180688093200106
:100AC000D0932901C093280119C080912001806230
:100AD00080932001D0932B01C0932A010FC08091F5
:100AE0002001886080932001D0932D01C0932C01B8
:100AF00005C0C038D1050CF04CCF46CFDF91CF9167
:100B00001F910895862F642FFACE2FB7F894609125
:100B100003037091040380910503909106032FBF96
:100B200008951F920F920FB60F9211242F933F93A7
:100B30008F939F93AF93BF9380910303909104038E
:100B4000A0910503B09106033091020323E0230F27
:100B50002D3720F40196A11DB11D05C026E8230FF5
:100B60000296A11DB11D209302038093030390936D
:100B70000403A0930503B0930603809107039091AB
:100B80000803A0910903B0910A030196A11DB11DAC
:100B90008093070390930803A0930903B0930A037B
:100BA000BF91AF919F918F913F912F910F900FBE69
:100BB0000F901F9018951F920F920FB60F9211244D
:100BC0000BB60F922F933F934F935F936F937F9347
:100BD0008F939F93AF93BF93EF93FF93E0910E0298
:100BE000F0910F021995FF91EF91BF91AF919F91F5
:100BF0008F917F916F915F914F913F912F910F90C6
:100C00000BBE0F900FBE0F901F9018951F920F9262
:100C10000FB60F9211240BB60F922F933F934F9361
:100C20005F936F937F938F939F93AF93BF93EF9354
:100C3000FF93E0910C02F0910D021995FF91EF9155
:100C4000BF91AF919F918F917F916F915F914F91E4
:100C50003F912F910F900BBE0F900FBE0F901F90E2
:100C600018951F920F920FB60F9211240BB60F9288
:100C70002F933F934F935F936F937F938F939F93A4
:100C8000AF93BF93EF93FF93E0910202F0910302C1
:100C90001995FF91EF91BF91AF919F918F917F91A6
:100CA0006F915F914F913F912F910F900BBE0F90DD
:100CB0000FBE0F901F9018951F920F920FB60F92B4
:100CC00011240BB60F922F933F934F935F936F9323
:100CD0007F938F939F93AF93BF93EF93FF93E09195
:100CE0000002F09101021995FF91EF91BF91AF9130
:100CF0009F918F917F916F915F914F913F912F9134
:100D00000F900BBE0F900FBE0F901F9018951F9263
:100D10000F920FB60F9211240BB60F922F933F93A1
:100D20004F935F936F937F938F939F93AF93BF93F3
:100D3000EF93FF93E0910A02F0910B021995FF9156
:100D4000EF91BF91AF919F918F917F916F915F9143
:100D50004F913F912F910F900BBE0F900FBE0F90B0
:100D60001F9018951F920F920FB60F9211240BB679
:100D70000F922F933F934F935F936F937F938F9334
:100D80009F93AF93BF93EF93FF93E0910802F0918D
:100D900009021995FF91EF91BF91AF919F918F91AA
:100DA0007F916F915F914F913F912F910F900BBE6B
:100DB0000F900FBE0F901F9018951F920F920FB6B5
:100DC0000F9211240BB60F922F933F934F935F9383
:100DD0006F937F938F939F93AF93BF93EF93FF9303
:100DE000E0910602F09107021995FF91EF91BF91F2
:100DF000AF919F918F917F916F915F914F913F91B3
:100E00002F910F900BBE0F900FBE0F901F90189553
:100E10001F920F920FB60F9211240BB60F922F93C1
:100E20003F934F935F936F937F938F939F93AF9372
:100E3000BF93EF93FF93E0910402F091050219959F
:100E4000FF91EF91BF91AF919F918F917F916F91A2
:100E50005F914F913F912F910F900BBE0F900FBE5E
:100E60000F901F9018950F931F93CF93DF938C01D2
:100E700061308FEF780714F461E07FEFEB016F3F93
:100E8000710519F014F0CFEFD0E0F8018081918165
:100E9000009719F00197C1F030C0D7FD06C0BE0120
:100EA000F801828168DD60E008C0662777276C1B47
:100EB0007D0BF80182815FDD61E0F8018381DF91C4
:100EC000CF911F910F915BCCD7FD07C0BE01F801F8
:100ED000828151DD60E070E009C060E070E0F801FF
:100EE000828149DD662777276C1B7D0BF8018381A2
:100EF000DF91CF911F910F913ECDDF91CF911F9147
:100F00000F910895CF93DF93EC018B85823020F40D
:100F1000F894CE0178DB01C0F8946F8178858985DB
:100F20009A857894DF91CF910895CF93DF93FC0158
:100F3000228533852115310521F02130310529F035
:100F400016C0FC01628973890FC0EC018089918908
:100F5000D9DF28853985621773071CF46A897B8974
:100F600002C06C897D89CE01DF91CF916EC1DF9186
:100F7000CF910895CF93DF93EC018AE192E09983BA
:100F800088831A821B821C821D828AE090E09F83E4
:100F90008E8318866987CE017DDA882319F08885CB
:100FA00083608887B2DD6A837B838C839D8384E141
:100FB00090E09F838E83DF91CF9108956F927F920F
:100FC0008F929F92AF92BF92CF92DF92EF92FF9259
:100FD0000F931F93CF93DF93EC01762E642E49017C
:100FE00082E090E09B838A8382E292E09983888307
:100FF0001B861A861D861C8684E090E00E94AD1236
:101000005C01DC0111961C921E9212967C92129742
:1010100013966C9261E0872D72DC61E0F5018381AB
:101020006EDC60E0D50112968C91A9DB60E0F501E1
:101030008381A5DBBF86AE868CE090E00E94AD1276
:101040005C0162E0882D5BDC62E0802F58DCA4014B
:101050005527FA01E658FE4FE491F0E0EE0FFF1F2E
:10106000E45DFE4FA591B491F501B183A083FA012F
:10107000E054FE4F4491F5014483C8019927FC01D7
:10108000E658FE4FE491F0E0EE0FFF1FE45DFE4FE7
:1010900025913491F50133832283FC01E054FE4F06
:1010A0008491F50185831782108611861286EBE301
:1010B000FFE13197F1F7EC914E2391E009F490E0D4
:1010C000D901EC91E82309F09260F5019683B5010E
:1010D000882D1BDAD5011B968C93B501802F15DA6C
:1010E000F5019385890F8387B98AA88A82E190E008
:1010F0000E94AD128C01B7013DDF1B8B0A8BFFEF05
:10110000CF16DF0671F082E190E00E94AD128C01F3
:10111000B60130DF1D8B0C8B81E090E09B878A87C6
:1011200002C01B861A86DF91CF911F910F91FF900D
:10113000EF90DF90CF90BF90AF909F908F907F9077
:101140006F900895CF92DF92EF92FF920F931F93CB
:10115000CF93DF936C017A018B01C0E0D0E0CE1514
:10116000DF0581F0D8016D918D01D601ED91FC91E3
:101170000190F081E02DC6011995892B11F021967F
:10118000EECF7E01C701DF91CF911F910F91FF90AC
:10119000EF90DF90CF900895089580E090E008955B
:1011A00083E193E0B7D821E0892B09F420E0822F76
:1011B0000895EF92FF920F931F93CF93DF93EC016B
:1011C00081E0888F9B8D8C8D981305C0E889F98903
:1011D000808185FD25C0F62E0B8D10E00F5F1F4F1F
:1011E0000F731127E02E8C8DE8120BC00FB607FC91
:1011F000FACFE889F989808185FFF5CFCE017CDAC5
:10120000F2CF8B8DFE01E80FF11DE35AFF4FF08204
:101210009FB7F8940B8FEA89FB89808180620AC0AE
:101220009FB7F894EE89FF896083E889F989808106
:101230008370806480839FBF81E090E0DF91CF91D5
:101240001F910F91FF90EF900895EF92FF920F93EF
:101250001F93CF93DF93EC018B018889998952DE2C
:10126000AB0128853985621B730B665F7F4F653143
:10127000710578F4E881F9810190F081E02D62E058
:1012800070E0CE01DF91CF911F910F91FF90EF9011
:1012900019944217530724F0EE24EA94FE2C03C05D
:1012A000EE24E394F12CC80154D3F80180858570B5
:1012B000853051F0A701B801CE01DF91CF911F9188
:1012C0000F91FF90EF90D8C3F1E0EF16F10481F495
:1012D0002FEF3FEF4AE050E0B801CE019CD38111DF
:1012E000E9CFDF91CF911F910F91FF90EF9008957B
:1012F00021E030E0EFCF6115710579F0FB0101903D
:101300000020E9F73197AF01461B570BDC01ED9147
:10131000FC910280F381E02D199480E090E0089523
:101320008F929F92AF92BF92EF92FF920F931F9373
:10133000CF93DF93CDB7DEB7A1970FB6F894DEBF9A
:101340000FBECDBF7C01FA01CB0119A2223008F4F7
:101350002AE08E010F5D1F4F822E912CA12CB12C03
:10136000BF01A501940177D7F901CA010150110904
:101370006A3014F4605D01C0695CD8016C93232B62
:10138000242B252B69F7B801C701B5DFA1960FB64D
:10139000F894DEBF0FBECDBFDF91CF911F910F91AB
:1013A000FF90EF90BF90AF909F908F9008950F9314
:1013B0001F93CF93DF93EC019EDF8C0163EC72E00F
:1013C000CE0199DF800F911FDF91CF911F910F9177
:1013D000089591CF4F925F926F927F928F929F92DA
:1013E000AF92BF92CF92DF92EF92FF920F931F9333
:1013F000CF93DF93EC0182E090E00E94AD128C016C
:101400006EE472E083E193E0E4DF61E070E080E0AD
:1014100090E070D264E572E083E193E0DADF61E0AE
:1014200070E080E090E066D263EC72E083E193E0EC
:1014300062DF8A859B85009781F1019709F05EC084
:101440006A897B8941E050E0CE0116D38823C1F33D
:101450006A897B892FEF3FEF4AE050E0CE01DBD273
:101460008823B1F3E889F989F894178210861186E8
:10147000128678946C897D894FEF5FEFCE01FCD2A4
:101480008823C1F36C897D8921E030E049E150E097
:10149000CE01C1D28823B1F32CC06A897B8941E097
:1014A00050E0CE01E9D28823C1F36A897B892FEF0E
:1014B0003FEF4AE050E0CE01AED28823B1F3E88995
:1014C000F989F894178210861186128678946A89B1
:1014D0007B894FEF5FEFCE01CFD28823C1F36A89BA
:1014E0007B8921E030E04AE050E0CE0194D28823AD
:1014F000B1F38889998906DD6B0102C0C12CD12C1A
:10150000F801D182C08269E572E083E193E061DF96
:1015100061E070E080E090E0EDD16CE972E083E1A1
:1015200093E057DF0D2C000CEE08FF08C701B60151
:10153000E1D160E672E083E193E04BDFC701B601E1
:1015400077D54B015C0127EC3BEC45E456E40AD728
:1015500020E030E044EB53E4CAD542E0F6D069E63F
:1015600072E083E193E023DFA501940160E070E085
:10157000CB0194D66B017C019B01AC01C501B40188
:101580008CD69B01AC01B3D520E030E0A90186D612
:101590004B015C0183D72B013C0162E772E083E1E0
:1015A00093E017DFC701B60196D162E872E083E1EC
:1015B00093E00FDF27EC3BEC45E456E4C701B601AE
:1015C000D1D620E030E044EB53E491D584D164E9F6
:1015D00072E083E193E0FDDEC501B4017CD16FE9E7
:1015E00072E083E193E0F5DEC301B20174D101152D
:1015F000110599F0C801DF91CF911F910F91FF90D4
:10160000EF90DF90CF90BF90AF909F908F907F90A2
:101610006F905F904F900C944513DF91CF911F9185
:101620000F91FF90EF90DF90CF90BF90AF909F9081
:101630008F907F906F905F904F9008951F920F92C0
:101640000FB60F9211240BB60F922F933F934F9327
:101650005F936F937F938F939F93AF93BF93EF931A
:10166000FF9383E193E048D8FF91EF91BF91AF9151
:101670009F918F917F916F915F914F913F912F91AA
:101680000F900BBE0F900FBE0F901F9018951F92DA
:101690000F920FB60F9211240BB60F922F938F93C8
:1016A0009F93EF93FF93E0912303F09124038081B4
:1016B000E0912903F0912A0382FD12C0908180916C
:1016C0002C038F5F8F7320912D03821751F0E091CF
:1016D0002C03F0E0ED5EFC4F958F80932C0301C04E
:1016E0008081FF91EF919F918F912F910F900BBE71
:1016F0000F900FBE0F901F901895E3E1F3E0A089C3
:10170000B18982E08C93A485B5851C92A685B785A6
:101710008FEC8C93108EA489B58986E08C93A28976
:10172000B3898C9180618C93A289B3898C918860F4
:101730008C93A289B3898C9180688C930288F389F9
:10174000E02D80818F7D808308958F929F92AF924C
:10175000BF92CF92DF92EF92FF920F931F93CF939E
:10176000DF936B017C01142F9B01AC01D5D688233C
:1017700019F069EE72E024C046015701E894B7F809
:101780002FEF3FEF4FE75FE7C501B401C5D68111E9
:101790000CC02FEF3FEF4FE75FE7C501B40142D424
:1017A00018161CF46DEE72E00BC02FEF3FEF4FE701
:1017B0005FE4C701B6016AD618168CF461EF72E0D7
:1017C00083E193E0DF91CF911F910F91FF90EF9014
:1017D000DF90CF90BF90AF909F908F908CCD2FEFE8
:1017E0003FEF4FE75FECC701B6011CD487FDE6CFA2
:1017F00020E030E0A901C701B60114D487FF0AC078
:101800006DE283E193E0D5DCEC01F7FAF094F7F8B0
:10181000F09402C0C0E0D0E000E060E070E080E062
:101820009FE3101739F020E030E040E251E49AD510
:101830000F5FF7CFA701960131D56B017C01FAD577
:101840004B015C012AE0AB01BC0183E193E068DD60
:10185000C80FD91F112389F1C501B401E7D39B013A
:10186000AC01C701B60119D56B017C016EE283E1C1
:1018700093E09FDCC80FD91F20E030E040E251E444
:10188000C701B60134D44B015C01D4D56B01E12C06
:10189000F12C2AE0B701A60183E193E041DDC80FF6
:1018A000D91FC701B601C2D39B01AC01C501B40168
:1018B000F4D46B017C011150F9F6CE01DF91CF9188
:1018C0001F910F91FF90EF90DF90CF90BF90AF905E
:1018D0009F908F900895CF93DF9342E036DFEC0125
:1018E00063EC72E083E193E006DD8C0F9D1FDF91D6
:1018F000CF910895CF92DF92EF92FF92CF93DF9333
:10190000AB01BC0177FF1BC06A017B016DE283E183
:1019100093E04FDCEC0144275527BA014C195D09CF
:101920006E097F092AE083E193E0FADC8C0F9D1FAA
:10193000DF91CF91FF90EF90DF90CF9008952AE054
:1019400083E193E0DF91CF91FF90EF90DF90CF9014
:10195000E7CCCF92DF92EF92FF920F931F93CF933A
:10196000DF93EC0188858B7F8887CE010E944A0235
:10197000182F888586958170181751F0C6D86A830C
:101980007B838C839D83988582E08927888736C0F6
:10199000BCD8CA80DB80EC80FD80AB01BC014C1957
:1019A0005D096E097F098E819F81A0E0B0E0481734
:1019B00059076A077B0710F1888581701817F1F0C5
:1019C000A4D86A837B838C839D83988581E0892753
:1019D000846088879AD80A851B852C853D85DC0123
:1019E000CB01801B910BA20BB30B8E879F87A88B1B
:1019F000B98B8BD86A877B878C879D87888582FB8C
:101A0000882780F9DF91CF911F910F91FF90EF9080
:101A1000DF90CF900895CF92DF92EF92FF920F93D5
:101A20001F93CF93DF93EC016B017A018901CB0106
:101A300090DFF60120858E859F8520FD09C022FF5D
:101A400007C01F821E8260E070E00DDA81E00BC0EB
:101A5000E09EB001E19E700DF09E700D11247F8319
:101A60006E8301DA80E0DF91CF911F910F91FF909B
:101A7000EF90DF90CF900895EF92FF920F931F9316
:101A8000CF93DF93EC017B018A01CB0162DFF70189
:101A9000908595702E853F85953041F41F821E827A
:101AA00060E070E0C901DFD981E00BC089E1809F6F
:101AB000B001819F700D11247F836E83C901D3D93A
:101AC00080E0DF91CF911F910F91FF90EF900895EB
:101AD000789484B5826084BD84B5816084BD85B509
:101AE000826085BD85B5816085BD80916E00816015
:101AF00080936E00109281008091810082608093BB
:101B000081008091810081608093810080918000BC
:101B10008160809380008091B10084608093B100E7
:101B20008091B00081608093B000809191008260CC
:101B300080939100809191008160809391008091C9
:101B400090008160809390008091A10082608093DA
:101B5000A1008091A10081608093A1008091A000EC
:101B600081608093A0008091210182608093210197
:101B70008091210181608093210180912001816009
:101B80008093200180917A00846080937A00809114
:101B90007A00826080937A0080917A0081608093DD
:101BA0007A0080917A00806880937A001092C10058
:101BB0001092F4031092F5031092F6031092F703BB
:101BC0001092B2031092B3031092B4031092B503B3
:101BD0000E9485056B017C014B015C0128EB820EA4
:101BE0002BE0921EA11CB11C0E9485056C157D0581
:101BF0008E059F0528F086169706A806B906A0F759
:101C000083E193E09093F3038093F20376DD0E94E7
:101C100085056093B2037093B3038093B4039093EC
:101C2000B50364EB72E08091F2039091F303D1DB92
:101C30000E9485056B017C014B015C013AE0830E3B
:101C4000911CA11CB11C0E9485056C157D058E059B
:101C50009F0528F086169706A806B906A0F781E02A
:101C60008093C6034ADD86E190E077D4EC018DE0F5
:101C7000C82ED12C9CE0E92EF12C06E210E028E2DF
:101C800030E045E050E066E070E0CE0197D9D093B7
:101C90000E03C0930D0386E190E05FD4EC01CC24E9
:101CA000CA94DC2C37E0E32EF12C02E210E024E2AF
:101CB00030E049E050E06AE070E080D9D0930C0356
:101CC000C0930B0382E190E048D4EC0182E090E005
:101CD0009B838A838CE292E09983888388E190E0F9
:101CE0009F838E8386E190E0998788878EE290E0DB
:101CF0009B878A878CE290E09D878C8761E088E1F2
:101D00000E947F0461E086E10E947F0461E08EE230
:101D10000E947F0461E08CE20E947F0460E088E121
:101D20000E94BF0360E086E10E94BF0360E08EE294
:101D30000E94BF0361E08CE20E94BF0382E190E059
:101D40000CD47C016AE170E015D9F98AE88A1D8219
:101D50001C8266EC72E083E193E029DB80910D0345
:101D600090910E0337DB80910B0390910C0332DBD3
:101D700044EF842E99249394A12CB12C0E948505C4
:101D8000672B682B692B41F40E9485056230710531
:101D90008105910508F4FEC00E948505C0900F03DF
:101DA000D0901003E0901103F09012036C157D05A4
:101DB0008E059F0540F460930F037093100380938A
:101DC000110390931203C0900F03D0901003E09082
:101DD0001103F09012039B01AC012C193D094E092F
:101DE0005F0969017A013AEFC316D104E104F104F5
:101DF00008F4D0C060930F03709310038093110315
:101E0000909312038092BE039092BF03A092C003EE
:101E1000B092C1031092C2031092C3031092C40384
:101E20001092C5038091B6039091B703A091B803B7
:101E3000B091B9038093BA039093BB03A093BC0302
:101E4000B093BD030E9485056093B6037093B703FA
:101E50008093B8039093B9030E9485056093B20301
:101E60007093B3038093B4039093B5030E948505E8
:101E70006B017C0165ED72E08091F2039091F303B8
:101E8000A8DA2AE041E050E060E070E08091F203DF
:101E90009091F30345DA6CED72E08091F20390913A
:101EA000F30397DA2AE0B701A6018091F20390913B
:101EB000F30336DA6EED72E08091F2039091F30352
:101EC00088DA8091B6039091B703A091B803B091DE
:101ED000B903B701A601481B590B6A0B7B0B2AE01B
:101EE0008091F2039091F3031BDA6EED72E0809122
:101EF000F2039091F3036DDA4091B6035091B7036A
:101F00006091B8037091B9038091BA039091BB03BB
:101F1000A091BC03B091BD03481B590B6A0B7B0B0E
:101F20002AE08091F2039091F303FAD960EE72E017
:101F30008091F2039091F3034CDA0E948505AB0186
:101F4000BC012AE08091F2039091F303E9D962EE9B
:101F500072E08091F2039091F30329DA0E948505E3
:101F60006B017C012B013C0145E0440E511C611CBE
:101F7000711C0E9485056C157D058E059F0568F412
:101F80000E9485056093B6037093B7038093B803EE
:101F90009093B9030E949601F1CE46165706680643
:101FA000790638F7EDCFE3E1F3E01382128288EE91
:101FB00093E0A0E0B0E084839583A683B78380E4B8
:101FC00092E09183808385EC90E09587848784EC10
:101FD00090E09787868780EC90E0918B808B81ECF6
:101FE00090E0938B828B82EC90E0958B848B86ECD7
:101FF00090E0978B868B118E128E138E148EE0EBF1
:10200000F3E01682178210861186128613861486D4
:10201000158616861786108A118A128A138A148AE0
:10202000158A089540D008F481E00895E89409C025
:1020300097FB3EF490958095709561957F4F8F4FFB
:102040009F4F9923A9F0F92F96E9BB279395F69511
:10205000879577956795B795F111F8CFFAF4BB0F8F
:1020600011F460FF1BC06F5F7F4F8F4F9F4F16C0F3
:10207000882311F096E911C0772321F09EE8872F7D
:10208000762F05C0662371F096E8862F70E060E039
:102090002AF09A95660F771F881FDAF7880F9695B2
:1020A000879597F90895990F0008550FAA0BE0E856
:1020B000FEEF16161706E807F907C0F0121613060A
:1020C000E407F50798F0621B730B840B950B39F44A
:1020D0000A2661F0232B242B252B21F408950A26B0
:1020E00009F4A140A6958FEF811D811D08950BD0A5
:1020F00078C069D028F06ED018F0952309F05AC046
:102100005FC01124A2C07ED0A0F3959FD1F3950F9C
:1021100050E0551F629FF001729FBB27F00DB11D6B
:10212000639FAA27F00DB11DAA1F649F6627B00DFB
:10213000A11D661F829F2227B00DA11D621F739FE4
:10214000B00DA11D621F839FA00D611D221F749FF2
:102150003327A00D611D231F849F600D211D822F39
:10216000762F6A2F11249F5750408AF0E1F0882380
:102170004AF0EE0FFF1FBB1F661F771F881F91508D
:102180005040A9F79E3F510570F014C05EC05F3FFC
:10219000ECF3983EDCF3869577956795B795F795C0
:1021A000E7959F5FC1F7FE2B880F911D9695879548
:1021B00097F9089597F99F6780E870E060E00895C7
:1021C0009FEF80EC089500240A941616170618064F
:1021D0000906089500240A9412161306140605062B
:1021E0000895092E0394000C11F4882352F0BB0FBC
:1021F00040F4BF2B11F460FF04C06F5F7F4F8F4F1F
:102200009F4F089557FD9058440F551F59F05F3F59
:1022100071F04795880F97FB991F61F09F3F79F008
:1022200087950895121613061406551FF2CF46958A
:10223000F1DF08C0161617061806991FF1CF86950C
:102240007105610508940895E894BB2766277727F0
:10225000CB0197F90895A1E21A2EAA1BBB1BFD0121
:102260000DC0AA1FBB1FEE1FFF1FA217B307E40775
:10227000F50720F0A21BB30BE40BF50B661F771FCD
:10228000881F991F1A9469F76095709580959095AD
:102290009B01AC01BD01CF0108955058BB27AA276F
:1022A0000ED09FCF90DF30F095DF20F031F49F3FCC
:1022B00011F41EF485CF0EF4E095E7FB7BCFE92FF8
:1022C000A1DF80F3BA17620773078407950718F038
:1022D00071F49EF5B9CF0EF4E0950B2EBA2FA02D18
:1022E0000B01B90190010C01CA01A0011124FF27C3
:1022F000591B99F0593F50F4503E68F11A16F040BE
:10230000A22F232F342F4427585FF3CF46953795BC
:102310002795A795F0405395C9F77EF41F16BA0B81
:10232000620B730B840BBAF09150A1F0FF0FBB1F2F
:10233000661F771F881FC2F70EC0BA0F621F731F78
:10234000841F48F4879577956795B795F7959E3FD5
:1023500008F0B3CF9395880F08F09927EE0F979563
:10236000879508950CD03DCF35DF40F02CDF30F05D
:1023700021F45F3F19F01ECF511167CF21CF42DF0B
:1023800098F39923C9F35523B1F3951B550BBB273C
:10239000AA2762177307840738F09F5F5F4F220FE9
:1023A000331F441FAA1FA9F333D00E2E3AF0E0E8E2
:1023B00030D091505040E695001CCAF729D0FE2F2E
:1023C00027D0660F771F881FBB1F261737074807C0
:1023D000AB07B0E809F0BB0B802DBF01FF27935876
:1023E0005F4F2AF09E3F510568F0E4CE2ECF5F3F4D
:1023F000ECF3983EDCF3869577956795B795F7955E
:102400009F5FC9F7880F911D9695879597F9089555
:10241000E1E0660F771F881FBB1F621773078407F1
:10242000BA0720F0621B730B840BBA0BEE1F88F700
:10243000E0950895EFDE88F09F5790F0B92F992727
:10244000B751A0F0D1F0660F771F881F991F1AF0BF
:10245000BA95C9F712C0B13081F0F6DEB1E0089547
:10246000F3CE672F782F8827B85F39F0B93FCCF3C8
:10247000869577956795B395D9F73EF490958095B5
:10248000709561957F4F8F4F9F4F08950CDE08F434
:102490008FEF089511F40EF493CE42C0BBDED0F35B
:1024A0009923D9F3CEF39F57550B87FF47D00024CC
:1024B000A0E640EA900180585695979528F4805CF4
:1024C000660F771F881F20F026173707480730F45C
:1024D000621B730B840B202931294A2BA695179474
:1024E0000794202531254A2758F7660F771F881F44
:1024F00020F026173707480730F4620B730B840B64
:10250000200D311D411DA09581F7B901842F9158EF
:10251000880F969587950895C6DD880B990B0895C9
:102520009F3F31F0915020F4879577956795B79547
:10253000880F911D9695879597F908959150504071
:10254000660F771F881FD2F70895EE0FFF1F881FB1
:102550008BBF0790F691E02D19940F931F93CF93A3
:10256000DF938230910510F482E090E0E091FA036D
:10257000F091FB0320E030E0A0E0B0E0309719F1EB
:10258000408151810281138148175907C8F084178F
:10259000950769F4109731F012960C9312971396E1
:1025A0001C9327C00093FA031093FB0322C021154C
:1025B000310519F04217530718F49A01BD01EF01D4
:1025C000DF01F801DBCF21153105F9F0281B390BAC
:1025D0002430310580F48A819B816115710521F0D9
:1025E000FB019383828304C09093FB038093FA03DF
:1025F000FE01329644C0FE01E20FF31F81939193D6
:1026000022503109398328833AC02091F803309150
:10261000F903232B41F420911202309113023093DD
:10262000F9032093F8032091100230911102211533
:10263000310541F42DB73EB7409114025091150277
:10264000241B350BE091F803F091F903E217F3072F
:10265000A0F42E1B3F0B2817390778F0AC014E5F12
:102660005F4F2417350748F04E0F5F1F5093F90353
:102670004093F8038193919302C0E0E0F0E0CF0132
:10268000DF91CF911F910F910895CF93DF93009722
:1026900009F481C0FC01329713821282A091FA03DF
:1026A000B091FB03109781F420813181820F931F39
:1026B0002091F8033091F9032817390751F5F09369
:1026C000F903E093F80367C0ED0120E030E0CE1796
:1026D000DF0740F44A815B819E0141155105F1F00D
:1026E000EA01F5CFD383C28340815181840F951FC6
:1026F000C817D90759F488819981840F951F0296CC
:10270000918380838A819B81938382832115310504
:1027100029F4F093FB03E093FA033DC0E901FB8346
:10272000EA8349915991C40FD51FEC17FD0761F455
:1027300080819181840F951F0296E9019983888396
:10274000828193819B838A83E0E0F0E012968D91F1
:102750009C911397009719F0FD01DC01F7CF8D9143
:102760009C9111979D012E5F3F4F820F931F2091E7
:10277000F8033091F9032817390769F4309729F4E1
:102780001092FB031092FA0302C013821282B093DC
:10279000F903A093F803DF91CF91089581E090E0D1
:0827A000F89400C0F894FFCF8B
:1027A80049024902490249024902490249024902C9
:1027B8000000FC038000000000004A0282050000BF
:1027C80000007D0295076503000000007902ED0313
:1027D8007002000000007902630363030000000038
:1027E800D908A20859019E038A0168017C01546531
:1027F80073742000206F66200054657374202300D2
:102808002073746570732C20002064656772656599
:102818007300417665726167652053746570733A19
:102828002000417665726167652044656772656559
:10283800733A200056617269616E63653A200053ED
:1028480074616E6461726420446576696174696F4D
:102858006E3A2000564D4450565F317C315F564DDC
:102868004450560D0A00536574757020436F6D709F
:102878006C65746500564D4450455F003A323A0025
:102888007C005F564D445045006E616E00696E666F
:06289800006F76660000EF
:020000023000CC
:10E000000D9489F10D94B2F10D94B2F10D94B2F129
:10E010000D94B2F10D94B2F10D94B2F10D94B2F1F0
:10E020000D94B2F10D94B2F10D94B2F10D94B2F1E0
:10E030000D94B2F10D94B2F10D94B2F10D94B2F1D0
:10E040000D94B2F10D94B2F10D94B2F10D94B2F1C0
:10E050000D94B2F10D94B2F10D94B2F10D94B2F1B0
:10E060000D94B2F10D94B2F10D94B2F10D94B2F1A0
:10E070000D94B2F10D94B2F10D94B2F10D94B2F190
:10E080000D94B2F10D94B2F10D94B2F10D94B2F180
:10E090000D94B2F10D94B2F10D94B2F10D94B2F170
:10E0A0000D94B2F10D94B2F10D94B2F10D94B2F160
:10E0B0000D94B2F10D94B2F10D94B2F10D94B2F150
:10E0C0000D94B2F10D94B2F10D94B2F10D94B2F140
:10E0D0000D94B2F10D94B2F10D94B2F10D94B2F130
:10E0E0000D94B2F141546D656761323536300041AF
:10E0F000726475696E6F206578706C6F72657220DE
:10E1000073746B3530305632206279204D4C530099
:10E11000426F6F746C6F616465723E004875683F52
:10E1200000436F6D70696C6564206F6E203D200048
:10E130004350552054797065202020203D20005FF9
:10E140005F4156525F415243485F5F3D2000415658
:10E1500052204C696243205665723D20004743437C
:10E160002056657273696F6E203D20004350552024
:10E1700049442020202020203D20004C6F7720663D
:10E18000757365202020203D20004869676820665F
:10E190007573652020203D200045787420667573D6
:10E1A00065202020203D20004C6F636B2066757336
:10E1B000652020203D20004D617220203720323024
:10E1C000313300312E362E3800342E332E350056A2
:10E1D00023202020414444522020206F7020636F70
:10E1E00064652020202020696E73747275637469E1
:10E1F0006F6E2061646472202020496E74657272B3
:10E20000757074006E6F20766563746F7200726A49
:10E210006D702020006A6D70200057686174207056
:10E220006F72743A00506F7274206E6F7420737541
:10E2300070706F72746564004D7573742062652030
:10E2400061206C6574746572002000577269747483
:10E25000696E672045450052656164696E672045B7
:10E26000450045452065727220636E743D00504F35
:10E27000525400303D5A65726F2061646472003FF1
:10E280003D43505520737461747300403D454550C3
:10E29000524F4D207465737400423D426C696E6B41
:10E2A000204C454400453D44756D70204545505215
:10E2B0004F4D00463D44756D7020464C415348001B
:10E2C000483D48656C70004C3D4C69737420492F83
:10E2D0004F20506F72747300513D51756974005234
:10E2E0003D44756D702052414D00563D73686F7707
:10E2F00020696E7465727275707420566563746FF0
:10E30000727300593D506F727420626C696E6B00BD
:10E310002A0011241FBECFEFD1E2DEBFCDBF01E046
:10E320000CBF12E0A0E0B2E0EEE1FDEF03E00BBFB6
:10E3300002C007900D92A030B107D9F712E0A0E01B
:10E34000B2E001C01D92AE30B107E1F70F9460F367
:10E350000D948DFE01E20EBF0FEF0DBF11241FBE05
:10E360000D9460F30D9400F020E030E040ED57E0B4
:10E3700005C0FA013197F1F72F5F3F4F2817390792
:10E38000C0F308959C01260F311DC901A0E0B0E043
:10E390002F5F3F4FABBFFC018791882361F08093D3
:10E3A000C6008091C00086FFFCCF8091C0008064D1
:10E3B0008093C000EACF08958DE08093C6008091DD
:10E3C000C00086FFFCCF8091C00080648093C000B5
:10E3D0008AE08093C6008091C00086FFFCCF8091C8
:10E3E000C00080648093C00008950F94C2F10F9420
:10E3F000DCF10895FC019081992359F09093C600B7
:10E400008091C00086FFFCCF8091C0008064809323
:10E41000C0003196992379F70895282F982F929567
:10E420009F70892F805D8A3308F0895F8093C600D2
:10E430008091C00086FFFCCF8091C00080648093F3
:10E44000C000822F8F70982F905D9A3308F0995FEB
:10E450009093C6008091C00086FFFCCF8091C000E1
:10E4600080648093C00008959C01FB01853691056E
:10E470001CF46330710594F0C90164E670E00F94F8
:10E480002EFE605D7F4F6093C6008091C00086FFC6
:10E49000FCCF8091C00080648093C0002B30310598
:10E4A00014F43297B4F0C90164E670E00F942EFEC4
:10E4B0006AE070E00F942EFE605D7F4F6093C600AF
:10E4C0008091C00086FFFCCF8091C0008064809363
:10E4D000C000C9016AE070E00F942EFEC0968093E0
:10E4E000C6008091C00086FFFCCF8091C000806490
:10E4F0008093C00008951F93182F8EE692EE60E07F
:10E500000F94C2F11093C6008091C00086FFFCCF2B
:10E510008091C00080648093C0000F94DCF11F9153
:10E5200008952F923F924F925F926F927F928F92B7
:10E530009F92AF92BF92CF92DF92EF92FF920F9392
:10E540001F93DF93CF93CDB7DEB762970FB6F894E2
:10E55000DEBF0FBECDBF382E622ECA01DB015C01CB
:10E560006D01772420E2222E2E010894411C511CBB
:10E570008BC081E0A81680E0B80681E0C80680E084
:10E58000D80628F0C601AA27BB270F940DF2BB2797
:10E59000AD2D9C2D8B2D0F940DF28A2D0F940DF225
:10E5A0002092C6008091C00086FFFCCF8091C00001
:10E5B00080648093C0009DE29093C6008091C0006B
:10E5C00086FFFCCF8091C00080648093C0002092C1
:10E5D000C6008091C00086FFFCCF8091C00080649F
:10E5E0008093C00019828601750188249924A1E0D6
:10E5F0003A1651F03A1620F0B2E03B1661F409C029
:10E600000BBFF701779007C0C7010F9477FE782EF4
:10E6100002C0F7017080872D0F940DF22092C60082
:10E620008091C00086FFFCCF8091C0008064809301
:10E63000C000872D8052F401EF70F0708F3520F408
:10E64000E40DF51D708204C0E40DF51D8EE280839B
:10E650000894E11CF11C011D111D0894811C911CE2
:10E6600090E18916910409F0C2CF80E190E0A0E02A
:10E67000B0E0A80EB91ECA1EDB1E198AC2010F9493
:10E68000FAF10F94DCF16A94662009F072CF629679
:10E690000FB6F894DEBF0FBECDBFCF91DF911F91B3
:10E6A0000F91FF90EF90DF90CF90BF90AF909F9031
:10E6B0008F907F906F905F904F903F902F90089534
:10E6C0002F923F924F925F926F927F928F929F9282
:10E6D000AF92BF92CF92DF92EF92FF920F931F9370
:10E6E000DF93CF93CDB7DEB7CD53D1400FB6F894BB
:10E6F000DEBF0FBECDBF01E20EBF0FEF0DBF94B75F
:10E70000F894A89514BE80916000886180936000A1
:10E7100010926000789493FF05C0E0910002F091A0
:10E7200001021995279A2F9A8091C00082608093E8
:10E73000C00080E18093C40088E18093C1000000A4
:10E74000EE24FF24870144E0A42EB12CCC24DD2448
:10E7500024C0C5010197F1F70894E11CF11C011DCB
:10E76000111D21E2E2162EE4F20620E0020720E06D
:10E77000120718F031E0C32ED12CC801B70127ECE5
:10E780003BE140E050E00F9441FE611571058105C9
:10E79000910519F485B1805885B98091C00087FD35
:10E7A00003C0C114D104A9F2A6014F5F5F4FC25E3E
:10E7B000DE4F59834883CE51D140C25EDE4F8881FF
:10E7C0009981CE51D140019711F00D9410FEC05D9A
:10E7D000DE4F19821882C053D14060E0C15DDE4F28
:10E7E0001882CF52D14088249924C35DDE4F19820C
:10E7F0001882CD52D140C05EDE4F188219821A8233
:10E800001B82C052D140CE5CDE4F188219821A8220
:10E810001B82C253D140EE24FF2487010BBFF701B6
:10E8200007911691C45CDE4F19830883CC53D14005
:10E830000D940BFEC25EDE4F28813981CE51D1404E
:10E840002130310509F52091C600C25EDE4F1982E4
:10E850001882CE51D14022C02F5F3F4F4F4F5F4FA4
:10E86000213082E138078AE7480780E0580780F0C6
:10E87000C45CDE4FE881F981CC53D140EF5FFF4F9C
:10E8800019F0EE27FF27099420E030E040E050E047
:10E890008091C00087FFE0CF2091C600C35DDE4FAE
:10E8A00048815981CD52D1404F5F5F4FC35DDE4FEC
:10E8B00059834883CD52D140213209F063C64A3092
:10E8C000510508F05FC60894811C911C53E0851621
:10E8D000910409F059C600E010E018C081E280936D
:10E8E000C6008091C00086FFFCCF8091C00080648C
:10E8F0008093C0002F5F3F4F2931310579F70F9486
:10E90000DCF10F5F1F4F0530110519F020E030E0FA
:10E91000E5CF10920A0210920B0210920C02109294
:10E920000D02109206021092070210920802109235
:10E930000902109202021092030210920402109235
:10E9400005028FEE90EE60E00F94F5F180E191EE1C
:10E9500060E00F94C2F18091C00087FFFCCF9091DE
:10E96000C600903608F09F759032B8F09093C600BC
:10E970008091C00086FFFCCF8091C00080648093AE
:10E98000C000A0E2A093C6008091C00086FFFCCF2B
:10E990008091C00080648093C000983409F4D7C18E
:10E9A0009934B8F4923409F459C1933458F490333B
:10E9B00019F1903308F4E3C59F33A1F1903409F0C5
:10E9C000DEC5BDC0953409F470C1963409F0D7C5D1
:10E9D00098C1923509F42BC2933538F49C3409F46C
:10E9E000F5C1913509F0CBC518C2963509F445C279
:10E9F000993509F0C4C567C483E792EE62E00F94CD
:10EA0000F5F110920602109207021092080210927D
:10EA1000090210920A0210920B0210920C0210923C
:10EA20000D0213C18FE792EE62E00F94F5F18FEEC5
:10EA300090EE60E00F94F5F181E291EE60E00F94CA
:10EA4000C2F187EB91EE60E00F94F5F180E391EE77
:10EA500060E00F94C2F184EE90EE60E00F94F5F167
:10EA60008FE391EE60E00F94C2F186E090E061E008
:10EA700070E00F9434F20F94DCF18DE591EE60E0DC
:10EA80000F94C2F189EC91EE60E00F94F5F18EE401
:10EA900091EE60E00F94C2F183EC91EE60E00F9490
:10EAA000F5F18CE691EE60E00F94C2F18EE10F94E7
:10EAB0000DF288E90F940DF281E00F940DF20F949E
:10EAC000DCF18BE791EE60E00F94C2F119E0E0E039
:10EAD000F0E010935700E4918E2F0F940DF20F94F5
:10EAE000DCF18AE891EE60E00F94C2F1E3E0F0E03F
:10EAF00010935700E4918E2F0F940DF20F94DCF1D8
:10EB000089E991EE60E00F94C2F1E2E0F0E0109349
:10EB10005700E4918E2F0F940DF20F94DCF188EAE8
:10EB200091EE60E00F94C2F1E1E0F0E01093570045
:10EB30001491812F0F940DF20F94DCF107CF8BE825
:10EB400092EE62E00F94F5F18BE492EE60E00F94A8
:10EB5000F5F10F94DCF100E010E019C0C8016F2D51
:10EB60000F947FFEFF2031F489E492EE60E00F9471
:10EB7000C2F10BC0F092C6008091C00086FFFCCFAE
:10EB80008091C00080648093C0000F5F1F4FC80158
:10EB900081519F41A0E0B0E0ABBFFC01F790BAE229
:10EBA000FB1621F0E2E000301E07C1F60F94DCF105
:10EBB0000F94DCF187E592EE60E00F94F5F10F948D
:10EBC000DCF1CC24DD2400E010E01EC0C8010F946D
:10EBD00077FEF82E882331F489E492EE60E00F94FA
:10EBE000C2F10BC08093C6008091C00086FFFCCFAD
:10EBF0008091C00080648093C000FE1419F00894D6
:10EC0000C11CD11C0F5F1F4FC80181519F41A0E063
:10EC1000B0E0ABBFFC01E790FAE2EF1621F022E092
:10EC20000030120799F60F94DCF10F94DCF182E6C4
:10EC300092EE60E00F94C2F1C60161E070E00F94C3
:10EC400034F20F94DCF10F94DCF110920202109276
:10EC50000302109204021092050278CE89E992EE26
:10EC600062E00F94F5F1279A2F9A16C02F9880E052
:10EC700090E0E0EDF7E03197F1F7019684369105E9
:10EC8000C1F72F9A80E090E0E0EDF7E03197F1F7DF
:10EC9000019684369105C1F78091C00087FFE6CFC9
:10ECA0008091C00087FFFCCF64C485EA92EE62E0E9
:10ECB0000F94F5F140910202509103026091040219
:10ECC0007091050281E020E10F9491F2809102029F
:10ECD00090910302A0910402B091050280509F4FD1
:10ECE000AF4FBF4F8093020290930302A0930402A0
:10ECF000B093050280509041A040B04008F426CE69
:10ED0000A4CF83EB92EE62E00F94F5F140910602FE
:10ED100050910702609108027091090280E020E1A1
:10ED20000F9491F28091060290910702A09108023F
:10ED3000B091090280509F4FAF4FBF4F80930602A2
:10ED400090930702A0930802B0930902FFCD80ECD4
:10ED500092EE62E00F94F5F183E792EE60E00F949B
:10ED6000F5F18FE792EE60E00F94F5F18BE892EE0B
:10ED700060E00F94F5F189E992EE60E00F94F5F10F
:10ED800085EA92EE60E00F94F5F183EB92EE60E09D
:10ED90000F94F5F180EC92EE60E00F94F5F187ECC2
:10EDA00092EE60E00F94F5F188ED92EE60E00F9442
:10EDB000F5F18FED92EE60E00F94F5F18AEE92EEB0
:10EDC00060E00F94F5F183E093EEBDCD87EC92EE19
:10EDD00062E00F94F5F181E40F947BF282E40F94EA
:10EDE0007BF283E40F947BF284E40F947BF285E45E
:10EDF0000F947BF286E40F947BF287E40F947BF20E
:10EE000088E40F947BF28AE40F947BF28BE40F94F6
:10EE10007BF28CE40F947BF299CD88ED92EE62E068
:10EE20000F94F5F1772473948824992409C48FED05
:10EE300092EE62E00F94F5F140910A0250910B02BC
:10EE400060910C0270910D0282E020E10F9491F22A
:10EE500080910A0290910B02A0910C02B0910D02D8
:10EE600080509F4FAF4FBF4F80930A0290930B0289
:10EE7000A0930C02B0930D0269CD8AEE92EE62E08F
:10EE80000F94F5F184EE90EE60E00F94F5F18FECC5
:10EE900091EE60E00F94F5F1662477244301CC5D98
:10EEA000DE4F19821882C452D140D401C301B695F5
:10EEB000A79597958795CA5DDE4F88839983AA8326
:10EEC000BB83C652D140CC5DDE4FA881B981C4520C
:10EED000D1401196CC5DDE4FB983A883C452D14096
:10EEE000CD0162E070E00F9434F2B0E2B093C6005E
:10EEF0008091C00086FFFCCF8091C0008064809329
:10EF0000C000EDE2E093C6008091C00086FFFCCF18
:10EF10008091C00080648093C000F0E2F093C6004E
:10EF20008091C00086FFFCCF8091C00080648093F8
:10EF3000C000CA5DDE4FE880F9800A811B81C6529D
:10EF4000D140BB27A12F902F8F2D0F940DF2CA5DBA
:10EF5000DE4F8881C652D1400F940DF2B0E2FB2EF5
:10EF6000F092C6008091C00086FFFCCF8091C00067
:10EF700080648093C0000DE30093C6008091C000C0
:10EF800086FFFCCF8091C00080648093C00010E2B7
:10EF90001093C6008091C00086FFFCCF8091C00016
:10EFA00080648093C0008BBEF3012791C65DDE4F65
:10EFB0002883CA52D140A22EBB24CC24DD2408943D
:10EFC000611C711C811C911C8BBEF3018791282E42
:10EFD0003324442455240894611C711C811C911C09
:10EFE0008BBEF3013791C55DDE4F3883CB52D140E4
:10EFF0000894611C711C811C911C8BBEF30147910C
:10F00000C45DDE4F4883CC52D140ADEFEA2EAFEF66
:10F01000FA2EAFEF0A2FAFEF1A2F6E0C7F1C801E57
:10F02000911E142D032DF22CEE24EA0CFB1C0C1D5A
:10F030001D1D0F940DF220E22093C6008091C000A8
:10F0400086FFFCCF8091C00080648093C000C65DC5
:10F05000DE4F8881CA52D1400F940DF230E23093D6
:10F06000C6008091C00086FFFCCF8091C000806404
:10F070008093C000C45DDE4F8881CC52D1400F9494
:10F080000DF240E24093C6008091C00086FFFCCFA5
:10F090008091C00080648093C000C55DDE4F888190
:10F0A000CB52D1400F940DF250E25093C6008091A4
:10F0B000C00086FFFCCF8091C00080648093C000B8
:10F0C0008FEFE8168FEFF80680E0080780E018075A
:10F0D00031F484E092EE60E00F94C2F1DFC0D80119
:10F0E000C7018070907CA070B0708050904CA040A0
:10F0F000B040D1F52FEF3FE340E050E0E222F322B1
:10F1000004231523CA5DDE4FA880B980CA80DB8046
:10F11000C652D140AE0CBF1CC01ED11EAA0CBB1CD7
:10F12000CC1CDD1C8EE092EE60E00F94C2F1BB2798
:10F13000A12F902F8F2D0F940DF28E2D0F940DF285
:10F1400030E23093C6008091C00086FFFCCF8091F2
:10F15000C00080648093C0004EE34093C60080915D
:10F16000C00086FFFCCF87C08EE09EEFA0E0B0E03D
:10F17000E822F9220A231B239CE0E91694E9F90608
:10F1800090E0090790E0190709F088C0C45DDE4FE0
:10F19000A881CC52D140EA2EFF2400E010E0102FCD
:10F1A0000F2DFE2CEE24C55DDE4FB881CB52D14031
:10F1B000EB0EF11C011D111DD601C501817090706F
:10F1C000A070B070DC0199278827E80EF91E0A1F8D
:10F1D0001B1F20EF30E040E050E0A222B322C42207
:10F1E000D52241E1AA0CBB1CCC1CDD1C4A95D1F7F1
:10F1F000EA0CFB1C0C1D1D1D81E090E0A0E0B0E0BE
:10F20000282239224A225B2235E1220C331C441C7D
:10F21000551C3A95D1F7E20CF31C041D151D57013E
:10F220006801AA0CBB1CCC1CDD1C85E192EE60E0E1
:10F230000F94C2F1C801AA27BB270F940DF2BB2778
:10F24000A12F902F8F2D0F940DF28E2D0F940DF274
:10F2500090E29093C6008091C00086FFFCCF809121
:10F26000C00080648093C000AEE3A093C60080918C
:10F27000C00086FFFCCF8091C00080648093C000F6
:10F28000C601AA27BB270F940DF2BB27AD2D9C2DDD
:10F290008B2D0F940DF28A2D0F940DF20F94DCF14B
:10F2A000CC5DDE4FE881F981C452D140F99709F471
:10F2B0004DCBF4E0EF2EF12C012D112D6E0C7F1CA7
:10F2C000801E911EF2CD83E093EE62E00F94F5F183
:10F2D0008AE192EE60E00F94C2F18091C00087FF56
:10F2E000FCCF1091C6001F751093C6008091C0001E
:10F2F00086FFFCCF8091C00080648093C0000F9493
:10F30000DCF1812F81548A3108F036C1163409F4BA
:10F3100095C0173490F4133409F44EC0143430F40B
:10F320001134F1F0123409F01DC130C0143409F465
:10F3300059C0153409F016C16BC01A3409F4C4C0A1
:10F340001B3438F4173409F48FC0183409F00AC19B
:10F35000A1C01B3409F4D2C01C3409F003C1E8C0B9
:10F360008FEF81B90DC082B1809582B980E090E0C5
:10F37000E0EDF7E03197F1F70196883C9105C1F790
:10F380008091C00087FFEFCF12B8EFC08FEF84B934
:10F390000DC085B1809585B980E090E0E0EDF7E0A3
:10F3A0003197F1F70196883C9105C1F78091C00033
:10F3B00087FFEFCF15B8D9C08FEF87B90DC088B1DF
:10F3C000809588B980E090E0E0EDF7E03197F1F7C3
:10F3D0000196883C9105C1F78091C00087FFEFCF6F
:10F3E00018B8C3C08FEF8AB90DC08BB180958BB9A7
:10F3F00080E090E0E0EDF7E03197F1F70196883C8E
:10F400009105C1F78091C00087FFEFCF1BB8ADC059
:10F410008FEF8DB90DC08EB180958EB980E090E0F0
:10F42000E0EDF7E03197F1F70196883C9105C1F7DF
:10F430008091C00087FFEFCF1EB897C08FEF80BBD1
:10F440000DC081B3809581BB80E090E0E0EDF7E0F6
:10F450003197F1F70196883C9105C1F78091C00082
:10F4600087FFEFCF11BA81C08FEF83BB0DC084B38C
:10F47000809584BB80E090E0E0EDF7E03197F1F714
:10F480000196883C9105C1F78091C00087FFEFCFBE
:10F4900014BA6BC08FEF809301010FC080910201FD
:10F4A00080958093020180E090E0E0EDF7E03197F5
:10F4B000F1F70196883C9105C1F78091C00087FF64
:10F4C000EDCF1092020151C08FEF809304010FC065
:10F4D0008091050180958093050180E090E0E0ED4A
:10F4E000F7E03197F1F70196883C9105C1F78091DB
:10F4F000C00087FFEDCF1092050137C08FEF8093DA
:10F5000007010FC08091080180958093080180E079
:10F5100090E0E0EDF7E03197F1F70196883C910536
:10F52000C1F78091C00087FFEDCF109208011DC088
:10F530008FEF80930A010FC080910B01809580931B
:10F540000B0180E090E0E0EDF7E03197F1F70196F4
:10F55000883C9105C1F78091C00087FFEDCF1092E4
:10F560000B0103C085E292EEEEC98091C00087FFD7
:10F57000FCCF8091C600EAC988E392EEE4C98CE131
:10F5800091EEE1C988249924933011F1943028F444
:10F59000913089F09230B8F408C0953061F195301F
:10F5A000F0F0963009F048C043C02B3109F042C951
:10F5B00091E06BE13FC96227C15DDE4F2883CF52E6
:10F5C000D14092E037C9B22FA0E0622793E032C960
:10F5D000822F90E0A82BB92B622794E02BC92E3004
:10F5E00009F039C3622795E0C05DDE4F19821882A9
:10F5F000C053D1401FC9E1E0F0E0EC0FFD1FC05D3A
:10F60000DE4F08811981C053D140E00FF11F2083E4
:10F610000F5F1F4FC05DDE4F19830883C053D14079
:10F6200062270A171B0709F005C9D80196E002C92D
:10F63000261709F010C303C0973009F0FBC87724E0
:10F640009981933109F412C19431C8F4963009F4C8
:10F65000D8C0973050F4923009F406C1933009F4C1
:10F660006DC0913009F059C253C0913109F477C08F
:10F67000923108F0BBC0903109F04FC2F5C098310B
:10F6800009F487C0993150F4953109F4EFC09531F0
:10F6900008F4C6C1963109F040C2C2C19A3109F4DA
:10F6A0006CC09A3108F491C09B3109F45BC09D3164
:10F6B00009F033C29D81903359F48F81882311F46E
:10F6C0009EE11CC0813011F091E018C098E916C08D
:10F6D000892F807591F0903539F4E0E0F0E089E011
:10F6E0008093570094910AC0983539F4E3E0F0E034
:10F6F00089E080935700949101C090E01A821B82A8
:10F700008D818C831D829E831F8227E030E009C299
:10F710001A8288E08B8381E48C8386E58D8382E581
:10F720008E8389E48F8383E5888780E589878FE5E9
:10F730008A8782E38B872BE030E0F3C18A818139AD
:10F7400041F0823941F0803911F48FE005C080E04A
:10F7500003C082E001C08AE01A828B8344C0772410
:10F76000739482C08D81882311F48EE12CC0813086
:10F7700011F081E028C088E926C01A82E1E0F0E0BB
:10F7800089E08093570084918B831C8224E030E0D1
:10F79000C8C18B81803589F48C81883039F4E2E0EE
:10F7A000F0E089E08093570084910DC0E0E0F0E044
:10F7B00089E080935700849106C0E3E0F0E089E09F
:10F7C0008093570084911A82DFCF8D81836C99E0FA
:10F7D000E1E0F0E0082E90935700E89507B600FCB2
:10F7E000FDCF1A821B8223E030E09BC180EC8A832C
:10F7F000CE5CDE4F188219821A821B82C253D1401E
:10F800008EC18A8190E0A0E0B0E0582F44273327D2
:10F8100022278B8190E0A0E0B0E0DC0199278827C7
:10F82000282B392B4A2B5B2B8D8190E0A0E0B0E098
:10F83000282B392B4A2B5B2B8C8190E0A0E0B0E089
:10F84000BA2FA92F982F8827282B392B4A2B5B2BCF
:10F85000220F331F441F551FC05EDE4F288339839C
:10F860004A835B83C052D1401A8259C13A81C95C34
:10F87000DE4F3883C753D140CA5CDE4F1882C6536F
:10F88000D1408B81C82EDD24CA5CDE4F488159816E
:10F89000C653D140C42AD52A933109F082C0CE5C28
:10F8A000DE4F88819981AA81BB81C253D1408050AB
:10F8B000904CA340B04030F583E0CE5CDE4FE88052
:10F8C000F9800A811B81C253D140F70100935B008C
:10F8D00080935700E89507B600FCFDCFCE5CDE4F65
:10F8E000088119812A813B81C253D14000501F4FAA
:10F8F0002F4F3F4FCE5CDE4F088319832A833B8313
:10F90000C253D140C05EDE4F488159816A817B81FC
:10F91000C052D140DE011B9631E08C9111962C91A2
:10F9200011971296C75CDE4F2883C953D140C85C3B
:10F93000DE4F1882C853D14090E0C85CDE4FE881AA
:10F94000F981C853D1408E2B9F2B0C01FA01609393
:10F950005B0030935700E89511244E5F5F4F6F4F67
:10F960007F4F0EEFE02E0FEFF02ECE0CDF1CC114F8
:10F97000D10499F685E0C05EDE4F088119812A81A5
:10F980003B81C052D140F80120935B008093570027
:10F99000E89507B600FCFDCF81E180935700E8951C
:10F9A00035C0C05EDE4F88819981AA81BB81C0527B
:10F9B000D140B695A795979587957C018601ABE0D8
:10F9C000AA2EB12CAC0EBD1E0BC0D5016D915D01F0
:10F9D000C7010F947FFE0894E11CF11C01501040F8
:10F9E0000115110591F7A60160E070E0440F551F65
:10F9F000661F771FC05EDE4FE880F9800A811B8199
:10FA0000C052D1404E0D5F1D601F711F1A82C05E33
:10FA1000DE4F488359836A837B83C052D1407FC0C5
:10FA2000FA80C55CDE4FF882CB53D140C65CDE4F16
:10FA30001882CA53D1408B81C82EDD24C65CDE4FAC
:10FA400008811981CA53D140C02AD12A1A828981DA
:10FA5000BE016D5F7F4F843121F59601C05EDE4FA0
:10FA6000E880F9800A811B81C052D1400BBFF701A9
:10FA700087919691DB018C9311969C936E5F7F4FDB
:10FA8000D801C7010296A11DB11DC05EDE4F88835B
:10FA90009983AA83BB83C052D14022503040F1F6F3
:10FAA00036C0C05EDE4F288139814A815B81C052F9
:10FAB000D1400894C108D108760100E010E0089414
:10FAC000C11CD11C0894E11CF11C011D111DE20E8A
:10FAD000F31E041F151F21BDBB27A52F942F832FB5
:10FAE00082BD2F5F3F4F4F4F5F4FF89A80B5DB01CC
:10FAF0008D93BD012E153F054007510761F7C05E8C
:10FB0000DE4F288339834A835B83C052D1409601FC
:10FB10002D5F3F4FFB01108204C080EC8A8322E0FE
:10FB200030E08BE18093C6008091C00086FFFCCF5F
:10FB30008091C00080648093C000C15DDE4FF88179
:10FB4000CF52D140F093C6008091C00086FFFCCF19
:10FB50008091C00080648093C000432F3093C60022
:10FB60008091C00086FFFCCF8091C00080648093AC
:10FB7000C000922F2093C6008091C00086FFFCCF6A
:10FB80008091C00080648093C0008EE08093C600A6
:10FB90008091C00086FFFCCF8091C000806480937C
:10FBA000C00065E1C15DDE4FE880CF52D1406E25D7
:10FBB00069276427FE01319610C090819093C6009A
:10FBC0008091C00086FFFCCF31968091C000806498
:10FBD0008093C0006927215030402115310569F715
:10FBE0006093C6008091C00086FFFCCF8091C0006A
:10FBF00080648093C00085B1805885B9772081F4F6
:10FC0000C15DDE4F0881CF52D1400F5FC15DDE4F35
:10FC10000883CF52D14090E0A0E0B0E00D941AF4F8
:10FC200027982F9880E090E020ED37E0F901319798
:10FC3000F1F7019684369105C9F700008091C00064
:10FC40008D7F8093C00081E180935700E895EE2777
:10FC5000FF270994FFCF90E00D941AF497FB092E2B
:10FC600007260AD077FD04D02ED006D000201AF443
:10FC7000709561957F4F0895F6F7909581959F4F08
:10FC80000895A1E21A2EAA1BBB1BFD010DC0AA1FDD
:10FC9000BB1FEE1FFF1FA217B307E407F50720F0F5
:10FCA000A21BB30BE40BF50B661F771F881F991F70
:10FCB0001A9469F760957095809590959B01AC01B9
:10FCC000BD01CF010895AA1BBB1B51E107C0AA1FAC
:10FCD000BB1FA617B70710F0A61BB70B881F991FED
:10FCE0005A95A9F780959095BC01CD010895F99991
:10FCF000FECF92BD81BDF89A992780B50895262F31
:10FD0000F999FECF1FBA92BD81BD20BD0FB6F89400
:0EFD1000FA9AF99A0FBE01960895F894FFCF63
:040000033000E000E9
:00000001FF