:1000000026C10000B8C500008BC500005EC5000019
:1000100031C5000004C50000D7C40000AAC4000018
:100020007DC4000045C1000043C1000041C1000083
:100030003FC100003DC100003BC1000039C10000CC
:1000400037C1000035C1000033C1000031C10000DC
:100050002FC100002DC100002BC1000015C40000FD
:1000600027C10000CBC70000A0C7000021C10000CD
:100070001FC100001DC100001BC1000019C100000C
:1000800017C1000015C1000013C1000011C100001C
:100090000FC100000DC100000BC1000009C100002C
:1000A00007C1000005C1000003C1000001C100003C
:1000B000FFC00000FDC00000FBC00000F9C0000050
:1000C000F7C00000F5C00000F3C00000F1C0000060
:1000D000EFC00000EDC00000EBC00000E9C0000070
:1000E000E7C00000DA01DD01CC01D001D601140225
:1000F000E101E501EB01EF01F301F901FD0101026D
:10010000140207020B020F025D036203670371030F
:100110007B03F40385038D0395039F03A903B303B6
:10012000C203CC03F403D603E003EA03000021007A
:10013000240027002A002D003000330001010000B8
:10014000040107010A0100002200250028002B00FD
:100150002E003100340002010000050108010B01EE
:1001600000000A0B02090C0D0E0807030401000031
:10017000000000000000000000000000000000007F
:10018000000000000000000000000000121110003C
:10019000000000000000000000000000000000005F
:1001A000000000000000010210202008081020407C
:1001B000102040800201020108040201010204082B
:1001C00010204080804020100804020180040201B9
:1001D0008040201008040201080402010102040802
:1001E0001020408001020408102040800000200000
:1001F0002300260029002C002F00320000010000FF
:100200000301060109010505050507050808080899
:10021000020202020A0A080804040404010101019E
:100220000101010103030303030303030407070799
:100230000C0C0C0C0C0C0C0C02020202060606063E
:10024000060606060B0B0B0B0B0B0B0B8C0D112470
:100250001FBECFEFD1E2DEBFCDBF00E00CBF23E079
:10026000A4EDB2E001C01D92AA3DB207E1F712E091
:10027000A0E0B2E0E8E3FEE100E00BBF02C00790BF
:100280000D92A43DB107D9F711E0C7E2D1E000E03B
:1002900006C021970109802FFE010E94ED0DC63294
:1002A000D10780E00807A9F70E941C0B0C941A0FD5
:1002B000A7CEFC01918D828D981761F0828DDF01B0
:1002C000A80FB11D5D968C91928D9F5F9F73928F49
:1002D00090E008958FEF9FEF0895FC01918D828D3E
:1002E000981731F0828DE80FF11D858D90E008950B
:1002F0008FEF9FEF0895FC01918D228D892F90E063
:10030000805C9F4F821B91098F739927089580E02D
:1003100090E0892B19F0D3D5811125C080E090E0C1
:10032000892B41F080E090E0892B21F00E940000B1
:1003300081111CC080E090E0892B41F080E090E0CA
:10034000892B21F00E940000811113C080E090E011
:10035000892BA1F080E090E0892B81F00E940000C1
:1003600081110AC008950E940000D8CF0E940000A9
:10037000E1CF0E940000EACF0C940000089590E0C5
:10038000FC013197E231F10508F04EC08827EE58A4
:10039000FF4F8F4F0C94ED0D809180008F7703C03D
:1003A000809180008F7D80938000089580918000EF
:1003B000877FF9CF84B58F7702C084B58F7D84BDE8
:1003C00008958091B0008F7703C08091B0008F7D39
:1003D0008093B0000895809190008F7707C080913E
:1003E00090008F7D03C080919000877F8093900064
:1003F00008958091A0008F7707C08091A0008F7D25
:1004000003C08091A000877F8093A0000895809111
:1004100020018F7707C0809120018F7D03C08091DC
:100420002001877F8093200108953FB7F894809141
:10043000E5029091E602A091E702B091E80226B5AC
:10044000A89B05C02F3F19F00196A11DB11D3FBF0C
:10045000BA2FA92F982F8827820F911DA11DB11D9A
:10046000BC01CD0142E0660F771F881F991F4A9596
:10047000D1F708950895CF93DF93FC01218530E0F3
:10048000F901E05AFE4F8491F901EA55FE4FD491EB
:10049000F901EA5FFD4FC491CC2371F081116FDF48
:1004A000EC2FF0E0EE0FFF1FE451FE4FA591B49149
:1004B000EC91ED2381E009F480E08170DF91CF9130
:1004C0000895DC01ED91FC910190F081E02D62E056
:1004D00070E01994FC01758364830895FC017583B1
:1004E0006483672B11F41786168608950E94160FF1
:1004F000DC0116964D915C91179750962D913C9189
:1005000051974217530741F4ED91FC910190F0810E
:10051000E02D62E070E0199461E070E02417350787
:1005200014F060E070E09CC7CF93DF93FC01268558
:100530003785232B61F4EC016489758941E050E033
:10054000C6D7882321F081E090E09F878E87DF91D6
:10055000CF910895FC01848DDF01A80FB11DA35A2E
:10056000BF4F2C91848D90E001968F739927848FD3
:10057000A689B7892C93A089B1898C9183708064F6
:100580008C93938D848D981306C00288F389E02D97
:1005900080818F7D808308951F93CF93DF93282FD1
:1005A00030E0F901E05AFE4F8491F901EA55FE4F1F
:1005B000D491F901EA5FFD4FC491CC23B9F0162F15
:1005C0008111DDDEEC2FF0E0EE0FFF1FEA5BFE4F46
:1005D000A591B4919FB7F894111104C08C91D09556
:1005E000D82302C0EC91DE2BDC939FBFDF91CF912B
:1005F0001F910895CF93DF9390E0FC01EA55FE4FE1
:100600002491FC01EA5FFD4F8491882361F190E021
:10061000880F991FFC01E45DFE4FC591D491FC0148
:10062000EA5BFE4FA591B491611109C09FB7F894A0
:100630008881209582238883EC912E230BC0623021
:1006400061F49FB7F8948881322F30958323888393
:10065000EC912E2B2C939FBF06C08FB7F894E881A6
:100660002E2B28838FBFDF91CF9108951F93CF93B7
:10067000DF93182FEB0161E0BDDF209711F460E0FC
:1006800004C0CF3FD10531F461E0812FDF91CF91DC
:100690001F9182CFE12FF0E0E05AFE4FE4918E2FC0
:1006A00090E0FC013197E231F10508F09DC0882708
:1006B000EC57FF4F8F4F0C94ED0D84B5806884BDCF
:1006C000C7BD97C084B5806284BDC8BD92C080910B
:1006D0008000806880938000D0938900C093880058
:1006E00088C080918000806280938000D0938B00CE
:1006F000C0938A007EC080918000886080938000D3
:10070000D0938D00C0938C0074C08091B00080683D
:100710008093B000C093B3006CC08091B000806241
:100720008093B000C093B40064C080919000806852
:1007300080939000D0939900C09398005AC0809104
:100740009000806280939000D0939B00C0939A00A9
:1007500050C080919000886080939000D0939D005D
:10076000C0939C0046C08091A00080688093A00048
:100770008091A0008F7B8093A000D093A900C093AC
:10078000A80037C08091A00080628093A000D09321
:10079000AB00C093AA002DC08091A0008860809318
:1007A000A000D093AD00C093AC0023C08091200185
:1007B000806880932001D0932901C093280119C03B
:1007C00080912001806280932001D0932B01C093FF
:1007D0002A010FC080912001886080932001D0936E
:1007E0002D01C0932C0105C0C038D1050CF04CCFB1
:1007F00046CFDF91CF911F910895862F642FFACEB7
:100800008F929F92AF92BF92CF92DF92EF92FF9220
:100810006B017C010ADE4B015C01C114D104E104CF
:10082000F104E9F002DEDC01CB0188199909AA097B
:10083000BB09883E9340A105B10578F321E0C21AB7
:10084000D108E108F10888EE880E83E0981EA11C0B
:10085000B11CC114D104E104F10421F7DECFFF90F3
:10086000EF90DF90CF90BF90AF909F908F900895C2
:100870002FB7F8946091E1027091E2028091E30257
:100880009091E4022FBF08951F920F920FB60F921E
:1008900011242F933F938F939F93AF93BF93809196
:1008A000E1029091E202A091E302B091E402309162
:1008B000E00223E0230F2D3720F40196A11DB11D86
:1008C00005C026E8230F0296A11DB11D2093E0026A
:1008D0008093E1029093E202A093E302B093E402DA
:1008E0008091E5029091E602A091E702B091E802C2
:1008F0000196A11DB11D8093E5029093E602A0939D
:10090000E702B093E802BF91AF919F918F913F9121
:100910002F910F900FBE0F901F9018951F920F925E
:100920000FB60F9211240BB60F922F933F934F9354
:100930005F936F937F938F939F93AF93BF93EF9347
:10094000FF93E0910E02F0910F021995FF91EF9144
:10095000BF91AF919F918F917F916F915F914F91D7
:100960003F912F910F900BBE0F900FBE0F901F90D5
:1009700018951F920F920FB60F9211240BB60F927B
:100980002F933F934F935F936F937F938F939F9397
:10099000AF93BF93EF93FF93E0910C02F0910D02A0
:1009A0001995FF91EF91BF91AF919F918F917F9199
:1009B0006F915F914F913F912F910F900BBE0F90D0
:1009C0000FBE0F901F9018951F920F920FB60F92A7
:1009D00011240BB60F922F933F934F935F936F9316
:1009E0007F938F939F93AF93BF93EF93FF93E09188
:1009F0000202F09103021995FF91EF91BF91AF911F
:100A00009F918F917F916F915F914F913F912F9126
:100A10000F900BBE0F900FBE0F901F9018951F9256
:100A20000F920FB60F9211240BB60F922F933F9394
:100A30004F935F936F937F938F939F93AF93BF93E6
:100A4000EF93FF93E0910002F09101021995FF915D
:100A5000EF91BF91AF919F918F917F916F915F9136
:100A60004F913F912F910F900BBE0F900FBE0F90A3
:100A70001F9018951F920F920FB60F9211240BB66C
:100A80000F922F933F934F935F936F937F938F9327
:100A90009F93AF93BF93EF93FF93E0910A02F0917E
:100AA0000B021995FF91EF91BF91AF919F918F919B
:100AB0007F916F915F914F913F912F910F900BBE5E
:100AC0000F900FBE0F901F9018951F920F920FB6A8
:100AD0000F9211240BB60F922F933F934F935F9376
:100AE0006F937F938F939F93AF93BF93EF93FF93F6
:100AF000E0910802F09109021995FF91EF91BF91E1
:100B0000AF919F918F917F916F915F914F913F91A5
:100B10002F910F900BBE0F900FBE0F901F90189546
:100B20001F920F920FB60F9211240BB60F922F93B4
:100B30003F934F935F936F937F938F939F93AF9365
:100B4000BF93EF93FF93E0910602F091070219958E
:100B5000FF91EF91BF91AF919F918F917F916F9195
:100B60005F914F913F912F910F900BBE0F900FBE51
:100B70000F901F9018951F920F920FB60F9211248D
:100B80000BB60F922F933F934F935F936F937F9387
:100B90008F939F93AF93BF93EF93FF93E0910402E2
:100BA000F09105021995FF91EF91BF91AF919F913F
:100BB0008F917F916F915F914F913F912F910F9006
:100BC0000BBE0F900FBE0F901F9018950F931F93A1
:100BD000CF93DF938C0161308FEF780714F461E0DD
:100BE0007FEFEB016F3F710519F014F0CFEFD0E00C
:100BF000F80180819181009719F00197C1F030C010
:100C0000D7FD06C0BE01F801828130DD60E008C07A
:100C1000662777276C1B7D0BF801828127DD61E059
:100C2000F8018381DF91CF911F910F91B5CCD7FD52
:100C300007C0BE01F801828119DD60E070E009C0E3
:100C400060E070E0F801828111DD662777276C1B78
:100C50007D0BF8018381DF91CF911F910F9106CD1C
:100C6000DF91CF911F910F910895823109F466C0F1
:100C7000B8F4823069F1833009F073C07093D70201
:100C80006093D60282E497E090930302809302027D
:100C900080916A00837F846080936A00ED9A5FC0D0
:100CA000843141F1C8F1853109F05BC07093D902FC
:100CB0006093D8028DE397E090930502809304023D
:100CC000809169008C7F816080936900E89A47C0B9
:100CD0007093D5026093D40287E497E09093010269
:100CE0008093000280916A008C7F816080936A000B
:100CF000EC9A35C07093DB026093DA0288E397E0E8
:100D0000909307028093060280916900837F84603C
:100D100080936900E99A23C07093DD026093DC023E
:100D200083E397E090930902809308028091690021
:100D30008F7C806180936900EA9A11C07093DF0212
:100D40006093DE028EE297E090930B0280930A029A
:100D5000809169008F73806480936900EB9A81E0D1
:100D6000089580E00895DC01ED91FD918081ED9181
:100D7000FD919081ED91FD916C9163708E2309F04E
:100D800064609F2309F06860E0EDF6E0E60FF11D76
:100D9000659565956D936D917D918D919D9109946A
:100DA00023C01AC012C016C010C01EC009C014C093
:100DB00013C006C019C009C00DC007C00DC014C0C3
:100DC00062507040804090400BC061507040804045
:100DD000904006C06E5F01C06F5F7F4F8F4F9F4F87
:100DE0009E938E937E936E9308950F931F93CF934C
:100DF000DF93FC01248535852115310521F0213053
:100E0000310529F026C0FC01648975891DC0EC01FB
:100E100002891389F8018385823020F4F894C8018F
:100E2000A2DF01C0F894F80187819085A185B28581
:100E300078942A853B85821793071CF46C897D89F9
:100E400002C06E897F89CE01DF91CF911F910F91F2
:100E50006BC3DF91CF911F910F9108958091DE02B6
:100E60009091DF0280CF8091DC029091DD027BCFF8
:100E70008091DA029091DB0276CF8091D802909136
:100E8000D90271CF8091D6029091D7026CCF809118
:100E9000D4029091D50267CF089580E090E0089544
:100EA000FC01538D448D252F30E0842F90E0821B70
:100EB000930B541710F0CF9608950197089583EF80
:100EC00092E019DA21E0892B09F420E0822F0895BD
:100ED000EF92FF920F931F93CF93DF93EC0181E08A
:100EE000888F9B8D8C8D981305C0E889F989808146
:100EF00085FD25C0F62E0B8D10E00F5F1F4F0F7381
:100F00001127E02E8C8DE8120BC00FB607FCFACF2C
:100F1000E889F989808185FFF5CFCE011BDBF2CF0F
:100F20008B8DFE01E80FF11DE35AFF4FF0829FB752
:100F3000F8940B8FEA89FB89808180620AC09FB791
:100F4000F894EE89FF896083E889F989808183704C
:100F5000806480839FBF81E090E0DF91CF911F91FB
:100F60000F91FF90EF900895CF93DF93EC01888D60
:100F70008823C1F0EA89FB89808185FD05C0A889A5
:100F8000B9898C9186FD0EC00FB607FCF5CF808124
:100F900085FFF2CFA889B9898C9185FFEDCFCE016D
:100FA000D9DAE8CFDF91CF9108951F920F920FB653
:100FB0000F9211240BB60F922F933F934F935F9391
:100FC0006F937F938F939F93AF93BF93EF93FF9311
:100FD00083EF92E0BFDAFF91EF91BF91AF919F91C4
:100FE0008F917F916F915F914F913F912F910F90D2
:100FF0000BBE0F900FBE0F901F9018951F920F926F
:101000000FB60F9211240BB60F922F938F939F93CD
:10101000EF93FF93E0910303F09104038081E0914B
:101020000903F0910A0382FD12C0908180910C03A4
:101030008F5F8F7320910D03821751F0E0910C03A5
:10104000F0E0ED50FD4F958F80930C0301C080813F
:10105000FF91EF919F918F912F910F900BBE0F9069
:101060000FBE0F901F901895CF92DF92EF92FF92D4
:101070000F931F93CF93DF936C017A018B01C0E034
:10108000D0E0CE15DF0581F0D8016D918D01D6013C
:10109000ED91FC910190F081E02DC6011995892B0D
:1010A00011F02196EECF7E01C701DF91CF911F9104
:1010B0000F91FF90EF90DF90CF900895CF92DF9245
:1010C000EF92FF920F931F93CF93DF93EC018885EC
:1010D0008B7F8887CE01CFD9182F88858695817020
:1010E000181751F0C5DB6A837B838C839D839885B9
:1010F00082E08927888736C0BBDBCA80DB80EC8032
:10110000FD80AB01BC014C195D096E097F098E8120
:101110009F81A0E0B0E0481759076A077B0710F1EC
:10112000888581701817F1F0A3DB6A837B838C8339
:101130009D83988581E089278460888799DB0A856B
:101140001B852C853D85DC01CB01801B910BA20BFF
:10115000B30B8E879F87A88BB98B8ADB6A877B87C7
:101160008C879D87888582FB882780F9DF91CF91C6
:101170001F910F91FF90EF90DF90CF900895E3EFD4
:10118000F2E0A089B18982E08C93A485B5851C9298
:10119000A685B7858FEC8C93108EA489B58986E0DF
:1011A0008C93A289B3898C9180618C93A289B38935
:1011B0008C9188608C93A289B3898C9180688C9380
:1011C0000288F389E02D80818F7D808308950097C8
:1011D00061F0FC0101900020E9F73197AF01481B55
:1011E000590BBC0183EF92E03FCF80E090E008957F
:1011F000CF93DF93ECDFEC018DE592E0E8DF8C0F1D
:101200009D1FDF91CF910895CF93DF93EC0185EB84
:1012100092E09983888388E392E09B838A831C828F
:101220001D821E821F828AE090E0998788871A8635
:101230006B87CE0102961FD9882319F08A858360B7
:101240008A8716DB6C837D838E839F8384E190E0A5
:1012500099878887DF91CF9108956F927F928F92BF
:101260009F92AF92BF92CF92DF92EF92FF920F9335
:101270001F93CF93DF93EC01762E642E490182EC0D
:1012800092E09B838A8382E090E09D838C838EE250
:1012900092E0998388831D861C861F861E8684E0C3
:1012A00090E0A3D45C01DC0111961C921E92129670
:1012B0007C92129713966C9261E0872D9BD961E026
:1012C000F501838197D960E0D50112968C9164D99C
:1012D00060E0F501838160D9B98AA88A8CE090E04A
:1012E00084D45C0162E0882D85D962E0802F82D9A8
:1012F000A4015527FA01EA5FFD4FE491F0E0EE0FFB
:10130000FF1FE451FE4FA591B491F501B183A08375
:10131000FA01EA55FE4F4491F5014483C80199272B
:10132000FC01EA5FFD4FE491F0E0EE0FFF1FE45196
:10133000FE4F25913491F50133832283FC01EA5558
:10134000FE4F8491F50185831782108611861286DF
:10135000EBE3FFE13197F1F7EC914E2391E009F4D3
:1013600090E0D901EC91E82309F09260F5019683B1
:10137000B501882D7ADCD5011B968C93B501802FA1
:1013800074DCF5019385890F8387BB8AAA8A84E17F
:1013900090E02BD48C01B70137DF1D8B0C8BFFEF56
:1013A000CF16DF0669F084E190E01FD48C01B6010E
:1013B0002BDF1F8B0E8B81E090E09D878C8702C016
:1013C0001D861C86DF91CF911F910F91FF90EF90AA
:1013D000DF90CF90BF90AF909F908F907F906F9055
:1013E00008958F929F92AF92BF920F931F93CF93C6
:1013F000DF93CDB7DEB7A1970FB6F894DEBF0FBE6F
:10140000CDBF19A2423008F44AE08E010F5D1F4F94
:10141000842E912CA12CB12CA5019401BCD3E62FD4
:10142000B901CA0101501109EA3014F4E05D01C0AC
:10143000E95CD801EC93232B242B252B69F7C801F9
:10144000C6DEA1960FB6F894DEBF0FBECDBFDF910A
:10145000CF911F910F91BF90AF909F908F90089563
:10146000EF92FF920F931F93CF93DF93EC017B01D9
:10147000F89461E08C8590D86AE070E080E090E0BC
:10148000BFD96E2D8A8588D861E0888585D80BE91B
:101490001FE0C8010197F1F760E088857DD8C80199
:1014A0000197F1F760E08C8577D8789488899989DD
:1014B000EA94EF2811F4019601C00197998B888B6B
:1014C000DF91CF911F910F91FF90EF900895EF92D0
:1014D000FF920F931F93CF93DF93EC017B018A015F
:1014E000CB010296EBDDF701928595702889398949
:1014F000953041F41986188660E070E0C90166DB1A
:1015000081E00BC089E1809FB001819F700D1124A3
:1015100079876887C9015ADB80E0DF91CF911F91FD
:101520000F91FF90EF900895AF92BF92CF92DF920C
:10153000EF92FF920F931F93CF93DF93EC018B01F8
:10154000EA88FB88F7018385823020F4F894C7018C
:101550000ADC01C0F894F70187819085A185B285E6
:101560007894AC012A853B85821B930B0A9645979C
:1015700098F4E881F9810190F081E02D62E070E05B
:10158000CE01DF91CF911F910F91FF90EF90DF90EF
:10159000CF90BF90AF9019944217530724F0EE24D8
:1015A000EA94FE2C03C0EE24E394F12C5801F2E0FF
:1015B000AF0EB11CC50182DDF801828585708530D2
:1015C000B1F4F1E0EF16F10401F5CC24CA94DC2C5F
:1015D000C50174DDF80122858889998920FD19C02B
:1015E00022FF17C01986188660E070E0EFDAA701C5
:1015F000B801CE01DF91CF911F910F91FF90EF9035
:10160000DF90CF90BF90AF9062CFCC24C394D12C09
:10161000DFCF2AE02C9DB0012D9D700D112479871C
:101620006887DF91CF911F910F91FF90EF90DF902E
:10163000CF90BF90AF90CACA789484B5826084BDC1
:1016400084B5816084BD85B5826085BD85B58160C6
:1016500085BD80916E00816080936E001092810044
:1016600080918100826080938100809181008160FF
:1016700080938100809180008160809380008091C0
:10168000B10084608093B1008091B000816080934C
:10169000B0008091910082608093910080919100D0
:1016A0008160809391008091900081608093900090
:1016B0008091A10082608093A1008091A10081604F
:1016C0008093A1008091A00081608093A000809110
:1016D00021018260809321018091210181608093AA
:1016E00021018091200181608093200180917A0006
:1016F000846080937A0080917A00826080937A007F
:1017000080917A00816080937A0080917A0080686D
:1017100080937A001092C1001092D2031092D303EA
:101720001092D4031092D503109292031092930357
:1017300010929403109295039BD86B017C014B018E
:101740005C0128EB820E2BE0921EA11CB11C90D8EC
:101750006C157D058E059F0528F086169706A80650
:10176000B906A8F760ED77E080E090E049D807DDA2
:101770007FD8609392037093930380939403909324
:1017800095038EE492E023DD73D86B017C014B015D
:101790005C013AE0830E911CA11CB11C69D86C1548
:1017A0007D058E059F0528F086169706A806B906C2
:1017B000A8F781E08093A603E2DC88E190E015D2EF
:1017C0004C018DE0C82ED12C9CE0E92EF12C06E2D4
:1017D00010E028E230E045E050E066E070E0C4014F
:1017E0003CDD9092EC028092EB0288E190E0FDD12A
:1017F0005C01CC24CA94DC2C37E0E32EF12C02E20D
:1018000010E024E230E049E050E06AE070E025DDDD
:10181000B092EA02A092E90284E190E0E6D1EC0104
:1018200080E692E09B838A8382E090E09D838C83B4
:101830008AE192E09983888388E190E0998788879C
:1018400086E190E09B878A878EE290E09D878C8777
:101850008CE290E09F878E8761E088E10E94FA0227
:1018600061E086E10E94FA0261E08EE20E94FA02E3
:1018700061E08CE20E94FA0260E088E10E94CC0202
:1018800060E086E10E94CC0260E08EE20E94CC0221
:1018900061E08CE20E94CC0284E190E0A6D18C0150
:1018A0006AE170E0B1DC1B8B0A8B1F821E82D09331
:1018B000EE02C093ED0286E090E097D1FC019182A8
:1018C0008082B382A282D583C4838EE692E090DCCC
:1018D00044EF842E99249394A12CB12C0E943804B7
:1018E000672B682B692B41F40E9438046230710524
:1018F0008105910508F4D4C00E9438040091EF02DC
:101900001091F0022091F1023091F20260177107FC
:101910008207930740F46093EF027093F002809384
:10192000F1029093F2020091EF021091F0022091E7
:10193000F1023091F2026B017C01C01AD10AE20A75
:10194000F30A970186010A3F11052105310508F4C4
:10195000A7C06093EF027093F0028093F10290931E
:10196000F20280929E0390929F03A092A003B092F5
:10197000A1031092A2031092A3031092A403109249
:10198000A5038091960390919703A0919803B0913D
:10199000990380939A0390939B03A0939C03B09325
:1019A0009D030E943804609396037093970380937D
:1019B0009803909399030E94380460939203709364
:1019C000930380939403909395030E9438046B01D2
:1019D0007C018DE792E0FBDB4AE061E070E080E0B3
:1019E00090E0FFDC84E892E0F2DB4AE0C701B60158
:1019F000F8DC86E892E0EBDB809196039091970308
:101A0000A0919803B0919903A7019601281B390B67
:101A10004A0B5B0BCA01B9014AE0E3DC86E892E0BD
:101A2000D6DB8091960390919703A0919803B09193
:101A3000990300919A0310919B0320919C0330918C
:101A40009D03BC01CD01601B710B820B930B4AE01F
:101A5000C8DC88E892E0BBDB0E9438044AE0C1DCC5
:101A60008AE892E0C5DB0E9438046B017C012B01FF
:101A70003C0135E0430E511C611C711C0E9438046E
:101A80006C157D058E059F0508F03FC00E94380447
:101A900060939603709397038093980390939903B0
:101AA000E090ED02F090EE0283EF92E00E947B0165
:101AB000892B41F183EF92E00E945901C82F8636AD
:101AC00019F481E992E004C0823619F480EA92E0C8
:101AD0008FDB05E610E0C63619F461E070E004C063
:101AE000C23621F460E070E0C701BADC0150110990
:101AF00091F764EF71E080E090E00E94000480EBD9
:101B000092E076DB0E948701E9CE4616570668060A
:101B1000790608F0B3CFBACFE3EFF2E01382128276
:101B200088EE93E0A0E0B0E084839583A683B7833A
:101B300080E492E09183808385EC90E095878487B0
:101B400084EC90E09787868780EC90E0918B808B87
:101B500081EC90E0938B828B82EC90E0958B848B70
:101B600086EC90E0978B868B118E128E138E148EDE
:101B7000E0E9F3E01682178210861186128613863A
:101B80001486158616861786108A118A128A138A79
:101B9000148A158A0895A1E21A2EAA1BBB1BFD0107
:101BA0000DC0AA1FBB1FEE1FFF1FA217B307E4073C
:101BB000F50720F0A21BB30BE40BF50B661F771F94
:101BC000881F991F1A9469F7609570958095909574
:101BD0009B01AC01BD01CF010895EE0FFF1F881FCF
:101BE0008BBF0790F691E02D19940F931F93CF931D
:101BF000DF938230910510F482E090E0E091D80309
:101C0000F091D90320E030E0A0E0B0E0309719F186
:101C1000408151810281138148175907C8F0841708
:101C2000950769F4109731F012960C93129713965A
:101C30001C9327C00093D8031093D90322C0211509
:101C4000310519F04217530718F49A01BD01EF014D
:101C5000DF01F801DBCF21153105F9F0281B390B25
:101C60002430310580F48A819B816115710521F052
:101C7000FB019383828304C09093D9038093D8039C
:101C8000FE01329644C0FE01E20FF31F819391934F
:101C900022503109398328833AC02091D6033091EC
:101CA000D703232B41F42091120230911302309379
:101CB000D7032093D60320911002309111022115F1
:101CC000310541F42DB73EB74091140250911502F1
:101CD000241B350BE091D603F091D703E217F307ED
:101CE000A0F42E1B3F0B2817390778F0AC014E5F8C
:101CF0005F4F2417350748F04E0F5F1F5093D703EF
:101D00004093D6038193919302C0E0E0F0E0CF01CD
:101D1000DF91CF911F910F910895CF93DF9300979B
:101D200009F481C0FC01329713821282A091D8037A
:101D3000B091D903109781F420813181820F931FD4
:101D40002091D6033091D7032817390751F5F09326
:101D5000D703E093D60367C0ED0120E030E0CE1753
:101D6000DF0740F44A815B819E0141155105F1F086
:101D7000EA01F5CFD383C28340815181840F951F3F
:101D8000C817D90759F488819981840F951F029645
:101D9000918380838A819B8193838283211531057E
:101DA00029F4F093D903E093D8033DC0E901FB8304
:101DB000EA8349915991C40FD51FEC17FD0761F4CF
:101DC00080819181840F951F0296E9019983888310
:101DD000828193819B838A83E0E0F0E012968D916B
:101DE0009C911397009719F0FD01DC01F7CF8D91BD
:101DF0009C9111979D012E5F3F4F820F931F209161
:101E0000D6033091D7032817390769F4309729F49E
:101E10001092D9031092D80302C013821282B09399
:101E2000D703A093D603DF91CF91089581E090E08E
:081E3000F89400C0F894FFCF04
:101E38003A023A023A023A023A023A023A023A02BA
:101E48000000DA038000000000006A0278026102E4
:101E5800000000006A0276027602000000006E02AE
:101E6800F5069402000000003B02FD03000000009C
:101E7800680734085007B4077B0159016D01564DB6
:101E88004450565F317C315F564D4450560D0A0020
:101E980053746570706572204D6F746F720053656E
:101EA80074757020436F6D706C65746500564D4491
:101EB80050455F003A323A007C005F564D44504529
:101EC800004D6F76696E6720666F72776172640085
:101ED8004D6F76696E67204261636B77617264004B
:101EE800446F6E65004C696D69742053776974633B
:101EF800680051756164726174757265204D6F7404
:041F08006F720000F4
:00000001FF
