:1000000026C100000C94E60B0C94BB0B0C94900BD7
:100010000C94650B0C943A0B0C940F0B0C94E40AA3
:100020000C94B90A45C1000043C1000041C1000061
:100030003FC100003DC100003BC1000039C10000CC
:1000400037C100000C94140E33C1000031C1000010
:100050002FC100002DC100002BC100000C946F0ABD
:1000600027C100006EC7000043C7000021C1000087
:100070001FC100001DC100001BC1000019C100000C
:100080000C94E70D15C1000013C1000011C1000060
:100090000FC100000DC100000BC1000009C100002C
:1000A00007C1000005C100000C94BA0D01C1000099
:1000B000FFC00000FDC00000FBC000000C948D0DCF
:1000C000F7C00000F5C00000F3C00000F1C0000060
:1000D000EFC00000EDC00000EBC00000E9C0000070
:1000E000E7C00000D406D706C606CA06D0060E072B
:1000F000DB06DF06E506E906ED06F306F706FB0676
:100100000E070107050709072D09320937094109BB
:100110004B09C40955095D0965096F097909830906
:1001200092099C09C409A609B009BA090000210076
:10013000240027002A002D003000330001010000B8
:10014000040107010A0100002200250028002B00FD
:100150002E003100340002010000050108010B01EE
:1001600000000A0B02090C0D0E0807030401000031
:10017000000000000000000000000000000000007F
:10018000000000000000000000000000121110003C
:10019000000000000000000000000000000000005F
:1001A000000000000000010210202008081020407C
:1001B000102040800201020108040201010204082B
:1001C00010204080804020100804020180040201B9
:1001D0008040201008040201080402010102040802
:1001E0001020408001020408102040800000200000
:1001F0002300260029002C002F00320000010000FF
:100200000301060109010505050507050808080899
:10021000020202020A0A080804040404010101019E
:100220000101010103030303030303030407070799
:100230000C0C0C0C0C0C0C0C02020202060606063E
:10024000060606060B0B0B0B0B0B0B0BC71E112424
:100250001FBECFEFD1E2DEBFCDBF00E00CBF14E088
:10026000A0E0B2E0E0ECF5E400E00BBF02C00790D4
:100270000D92A233B107D9F725E0A2E3B4E001C0A3
:100280001D92A738B207E1F711E0C7E2D1E000E024
:1002900006C021970109802FFE010E948B21C632E2
:1002A000D10780E00807A9F70E9475190C94DE2297
:1002B000A7CEFC01758364830895823109F466C07A
:1002C000B8F4823069F1833009F073C07093DD04B3
:1002D0006093DC048CE39FE090930302809302021E
:1002E00080916A00837F846080936A00ED9A5FC08A
:1002F000843141F1C8F1853109F05BC07093DF04AE
:100300006093DE0486E39FE09093050280930402ED
:10031000809169008C7F816080936900E89A47C072
:100320007093DB046093DA0482E49FE0909301020F
:100330008093000280916A008C7F816080936A00C4
:10034000EC9A35C07093E1046093E00480E39FE091
:10035000909307028093060280916900837F8460F6
:1003600080936900E99A23C07093E3046093E204E8
:100370008AE29FE0909309028093080280916900CD
:100380008F7C806180936900EA9A11C07093E504C4
:100390006093E40484E29FE090930B0280930A024E
:1003A000809169008F73806480936900EB9A81E08B
:1003B000089580E00895DC01ED91FD918081ED913B
:1003C000FD919081ED91FD916C9163708E2309F008
:1003D00064609F2309F06860E8EFF1E0E60FF11D2B
:1003E000659565956D936D917D918D919D91099424
:1003F00023C01AC012C016C010C01EC009C014C04D
:1004000013C006C019C009C00DC007C00DC014C07C
:1004100062507040804090400BC0615070408040FE
:10042000904006C06E5F01C06F5F7F4F8F4F9F4F40
:100430009E938E937E936E9308950F931F93CF9305
:10044000DF93EC018B012097D9F06E817F816017DB
:100450007107B1F00115110541F06115710529F021
:10046000C8010E94D522882359F08D81882331F05C
:1004700098E08902C00DD11D1124E5CFC0E0D0E085
:10048000CE01DF91CF911F910F9108954F925F920E
:100490006F927F928F929F92AF92BF92DF92EF9274
:1004A000FF920F931F93CF93DF938C01EB01888111
:1004B0008B3231F08D3229F42196EE24E39402C080
:1004C0002196E12C888190ED980F9A3018F08E32A9
:1004D00009F0D4C060E070E0CB01FE012191A0EDF5
:1004E0008A2E820E39E0381508F16A3929E9720737
:1004F000820729E19207E0F4AAE0B0E09B01AC0199
:100500000E942920912CA12CB12C2401350140946A
:10051000509460947094461657066806790640F029
:10052000680D791D8A1D9B1DEF01D7CF222339F05D
:10053000F12CEAE08E2E912CA12CB12C13C0F801E5
:1005400060837183828393830E94F81EF801648321
:10055000758386839783EE2011F08AE001C088E0DE
:10056000F801D7C061157105F0E88F07910540F0DB
:10057000A50194010E943920CA01B901F394F2CF78
:10058000FE01299130ED320F3A3010F4F394F8CF98
:100590002E32F1F4EF012196FE012196208150EDDB
:1005A000D52ED20E29E02D1598F06C3C3CEC73074B
:1005B0003CE08307910580F7AAE0B0E09B01AC0125
:1005C0000E9429206D0D711D811D911DFA94E4CFAB
:1005D00020812F7D253409F04CC021812D3221F45A
:1005E0003296BB24B39406C02B3211F0319601C071
:1005F0003296B12CDF01C0E0D0E04AE0A42E2F2DCE
:100600000F2C000C330BFD01DD9040ED4D0D4A30F9
:1006100050F5AC9EA001AD9E500D1124CD2DDD0CEA
:10062000DD0BE097C40FD51FA9014C0F5D1F4732AA
:1006300051054CF3BB2059F0EE2029F080E090E00A
:10064000A0E0B0E860C080E090E0DC015CC0E110B8
:1006500005C080E090E0A0E8BFE755C080E090E0F2
:10066000A0E8BFEF50C0BB2031F0D195C195D109B2
:1006700002C0C0E0D0E02081222359F0F8011082AE
:1006800011821282138214821582168217821086BA
:1006900041C0CF0DD11DF7FCDA950E94F81E1C1643
:1006A0001D06ACF4F12CC0FF0CC024E0F29EF0015A
:1006B0001124E45BFD4F20813181428153810E94EE
:1006C000591FD595C795F394209769F718C0D19510
:1006D000C195D109F12C209791F0C0FF0CC024E006
:1006E000F29EF0011124EC5CFD4F208131814281AA
:1006F00053810E94591FD595C795F394ECCFDC0127
:10070000CB01E110B058F80184839583A683B783A9
:100710008CE08087C801DF91CF911F910F91FF90EE
:10072000EF90DF90BF90AF909F908F907F906F90F1
:100730005F904F900895009729F0FC01808191818E
:100740007CCE089580E090E00895CF93DF93CDB7FD
:10075000DEB729970FB6F894DEBF0FBECDBF009766
:1007600009F441C0FC0184818F77863051F018F480
:100770008430A0F438C08A3049F08C3079F1883068
:1007800091F5608171818281938120C06081718146
:10079000828193810E94F81E905828C060817181E7
:1007A000CE01019673DE69817A818B819C812985D6
:1007B0002A3029F02C3069F02830A9F407C0909530
:1007C0008095709561957F4F8F4F9F4F0E94F81EC7
:1007D0000DC06D817E818F81988508C06081718197
:1007E0008281938103C060E070E0CB0129960FB64F
:1007F000F894DEBF0FBECDBFDF91CF910895FC010D
:10080000892B41F094819F779450923018F4808125
:100810009181089580E090E00895FC01168660EAD9
:1008200073E0808591850C94680FCF93DF93DC0192
:10083000EB01EC81FD818A819B810896E817F9071D
:1008400018F480E090E021C03897FD83EC83309766
:10085000C1F31296CD91DC911397209751F0CF01FF
:100860008C1B9D0B23E0959587952A95E1F78D8349
:1008700003C01196FC93EE931396FC93EE9312979C
:100880001582148217821682CF01DF91CF910895CD
:10089000CF93DF93DB01FC016081718161157105EC
:1008A000F9F0FB0101900020E9F7AF01461B570B5F
:1008B0001296CD91DC911397CE01840F951F14965B
:1008C0002D913C9115972817390750F013969C935A
:1008D0008E931297209731F0CE010E94CC2202C055
:1008E000C0E0D0E0CE01DF91CF9108958F929F922A
:1008F000AF92BF92CF92DF92EF92FF920F931F932E
:10090000CF93DF931F921F92CDB7DEB78C017B018F
:100910005A01FB0164816F7704966C016530B9F070
:1009200018F4633041F159C0603219F0603411F0AD
:1009300054C060E2C6010E94740EF8011182108258
:1009400013821282A501B701C80164D054C0F70117
:10095000808191819A838983BA01CE01019698DFC3
:100960007C01892BA1F165E0C6010E94740EF8019B
:10097000F182E0823FC0F7018280938060817181C3
:1009800061157105A9F0FA01E280F380C701880DB5
:10099000991D248135812817390750F0938382836C
:1009A000E114F10439F0A401C7010E94CC2202C075
:1009B000E12CF12CE114F10451F063E0C6010E9436
:1009C000740EF801F182E0829382828213C060E0AB
:1009D000C6010E94740E80E00EC0C6010E94740E13
:1009E000F70180819181A281B381F8018083918395
:1009F000A283B38381E00F900F90DF91CF911F917D
:100A00000F91FF90EF90DF90CF90BF90AF909F90AD
:100A10008F9008958F929F92AF92BF92CF92DF9264
:100A2000EF92FF920F931F93CF93DF931F921F922A
:100A3000CDB7DEB77C016A01FC01118210821382FE
:100A40001282FB01008111810115110509F442C0D8
:100A5000F801A680B780A114B10429F18481B60100
:100A600087FF16C0C701E1DE4C01BA82A982892B3B
:100A700099F1B601CE0101960BDF9C01892B61F142
:100A8000F40194819068948337832683C40110C055
:100A9000C701CBDE009751F0FC0124812F7724831E
:100AA000B782A68203C0B601C701BFDE0097A1F0DE
:100AB000A601B8011BDF882379F0F8018581811137
:100AC00003C000E010E0C0CFF8E08F02000D111D60
:100AD0001124BACF81E001C080E00F900F90DF9128
:100AE000CF911F910F91FF90EF90DF90CF90BF902B
:100AF000AF909F908F900895CF93DF93EC01E881A2
:100B0000F9810280F381E02D199528853985820FBE
:100B1000931F9F838E83DF91CF910895DC011496FC
:100B20002D913C9115972115310521F0213031058A
:100B300041F00895DC01ED91FC910680F781E02DF4
:100B400006C0DC01ED91FC910480F581E02D199443
:100B5000089580E090E00895FC01538D448D252F89
:100B600030E0842F90E0821B930B541710F0CF9647
:100B7000089501970895FC01918D828D981761F079
:100B8000828DDF01A80FB11D5D968C91928D9F5FC4
:100B90009F73928F90E008958FEF9FEF0895FC016F
:100BA000918D828D981731F0828DE80FF11D858D22
:100BB00090E008958FEF9FEF0895FC01918D228DB5
:100BC000892F90E0805C9F4F821B91098F7399273A
:100BD000089586EE94E0F1DF21E0892B09F420E00E
:100BE000822F0895FC01848DDF01A80FB11DA35A47
:100BF000BF4F2C91848D90E001968F739927848F3D
:100C0000A689B7892C93A089B1898C91837080645F
:100C10008C93938D848D981306C00288F389E02D00
:100C200080818F7D80830895EF92FF920F931F93B1
:100C3000CF93DF93EC0181E0888F9B8D8C8D98138F
:100C400005C0E889F989808185FD25C0F62E0B8DC8
:100C500010E00F5F1F4F0F731127E02E8C8DE812ED
:100C60000BC00FB607FCFACFE889F989808185FFB0
:100C7000F5CFCE01B7DFF2CF8B8DFE01E80FF11D6E
:100C8000E35AFF4FF0829FB7F8940B8FEA89FB89F4
:100C9000808180620AC09FB7F894EE89FF896083E3
:100CA000E889F98980818370806480839FBF81E0B7
:100CB00090E0DF91CF911F910F91FF90EF900895F9
:100CC000CF93DF93EC01888D8823C1F0EA89FB89FB
:100CD000808185FD05C0A889B9898C9186FD0EC0EB
:100CE0000FB607FCF5CF808185FFF2CFA889B989BF
:100CF0008C9185FFEDCFCE0175DFE8CFDF91CF91ED
:100D0000089580E090E0892B19F063DF811125C000
:100D100080E090E0892B41F080E090E0892B21F089
:100D20000E94000081111CC080E090E0892B41F0FE
:100D300080E090E0892B21F00E940000811113C017
:100D400080E090E0892BA1F080E090E0892B81F099
:100D50000E94000081110AC008950E940000D8CFAF
:100D60000E940000E1CF0E940000EACF0C94000036
:100D7000089590E0FC013197E231F10508F04EC092
:100D80008827EE58FF4F8F4F0C948B218091800065
:100D90008F7703C0809180008F7D809380000895BD
:100DA00080918000877FF9CF84B58F7702C084B5AA
:100DB0008F7D84BD08958091B0008F7703C08091AE
:100DC000B0008F7D8093B0000895809190008F7760
:100DD00007C0809190008F7D03C080919000877F35
:100DE0008093900008958091A0008F7707C0809134
:100DF000A0008F7D03C08091A000877F8093A0001A
:100E00000895809120018F7707C0809120018F7D08
:100E100003C080912001877F8093200108953FB710
:100E2000F8948091D6049091D704A091D804B09101
:100E3000D90426B5A89B05C02F3F19F00196A11D26
:100E4000B11D3FBFBA2FA92F982F8827820F911D60
:100E5000A11DB11DBC01CD0142E0660F771F881FA7
:100E6000991F4A95D1F708950895CF93DF93FC0118
:100E7000218530E0F901E05AFE4F8491F901EA55ED
:100E8000FE4FD491F901EA5FFD4FC491CC2371F07C
:100E900081116FDFEC2FF0E0EE0FFF1FE451FE4FEA
:100EA000A591B491EC91ED2381E009F480E081708B
:100EB000DF91CF910895DC01ED91FC910190F081DB
:100EC000E02D62E070E01994CB01BA0120E030E03F
:100ED00044EB53E40E94CF2020E030E048E453E4A8
:100EE0000E94591F0E943721CB0108950E94C822F9
:100EF0001F920F920FB60F9211240BB60F922F93E1
:100F00003F934F935F936F937F938F939F93AF9391
:100F1000BF93EF93FF9386EE94E064DEFF91EF9131
:100F2000BF91AF919F918F917F916F915F914F9101
:100F30003F912F910F900BBE0F900FBE0F901F90FF
:100F400018951F920F920FB60F9211240BB60F92A5
:100F50002F938F939F93EF93FF93E091F604F0917B
:100F6000F7048081E091FC04F091FD0482FD12C041
:100F700090818091FF048F5F8F732091000582170D
:100F800051F0E091FF04F0E0EA51FB4F958F809320
:100F9000FF0401C08081FF91EF919F918F912F916C
:100FA0000F900BBE0F900FBE0F901F9018951F93C0
:100FB000CF93DF93282F30E0F901E05AFE4F849160
:100FC000F901EA55FE4FD491F901EA5FFD4FC49152
:100FD000CC23B9F0162F8111CCDEEC2FF0E0EE0F10
:100FE000FF1FEA5BFE4FA591B4919FB7F8941111D2
:100FF00004C08C91D095D82302C0EC91DE2BDC93F9
:101000009FBFDF91CF911F910895CF92DF92EF9212
:10101000FF920F931F93CF93DF936C018B017A01A3
:10102000EC01C353DB4F888187FF04C0FB011182B1
:10103000108224C02CE02C9DC0012D9D900D112408
:101040002881AC01420F511D27FD5A952091C20401
:1010500030E04217530794F42881AC01420F511D30
:1010600027FD5A959A01FA01EE0FFF1F2E0F3F1F21
:10107000F901EE5CFB4F208126FD19C088818F5F4E
:1010800088832CE02C9DC0012D9D900D112428817A
:10109000AC01420F511D27FD5A952091C20430E04A
:1010A00042175307B4F428812C303CF112C0288138
:1010B000820F911D27FD9A95FC01EE0FFF1F8E0FE9
:1010C0009F1FFC01EE5CFB4F808160E08F736FDF40
:1010D000D5CFF80180819181049680349C4918F421
:1010E00080E49CE904C0F801808191810496F701B5
:1010F000918380838FEF888344C0F80140815181C0
:101100002881BC01620F711D27FD7A959B01FB01AF
:10111000EE0FFF1F2E0F3F1FF901EE5CFB4F2181E9
:101120003281240F351FF701318320832881AC01E0
:10113000420F511D27FD5A959A01FA01EE0FFF1F2C
:101140002E0F3F1FF901EE5CFB4F208126FF19C0D7
:101150002881820F911D27FD9A95FC01EE0FFF1F3C
:101160008E0F9F1FFC01EE5CFB4F808161E08F734F
:10117000DF91CF911F910F91FF90EF90DF90CF9073
:1011800016CFDF91CF911F910F91FF90EF90DF90DD
:10119000CF900895CF93DF9390E0FC01EA55FE4F86
:1011A0002491FC01EA5FFD4F8491882361F190E076
:1011B000880F991FFC01E45DFE4FC591D491FC019D
:1011C000EA5BFE4FA591B491611109C09FB7F894F5
:1011D0008881209582238883EC912E230BC0623076
:1011E00061F49FB7F8948881322F309583238883E8
:1011F000EC912E2B2C939FBF06C08FB7F894E881FB
:101200002E2B28838FBFDF91CF9108951F93CF930B
:10121000DF93182FEB0161E0BDDF209711F460E050
:1012200004C0CF3FD10531F461E0812FDF91CF9130
:101230001F91BDCEE12FF0E0E05AFE4FE4918E2FDA
:1012400090E0FC013197E231F10508F09DC088275C
:10125000EC57FF4F8F4F0C948B2184B5806884BD71
:10126000C7BD97C084B5806284BDC8BD92C080915F
:101270008000806880938000D0938900C0938800AC
:1012800088C080918000806280938000D0938B0022
:10129000C0938A007EC08091800088608093800027
:1012A000D0938D00C0938C0074C08091B000806892
:1012B0008093B000C093B3006CC08091B000806296
:1012C0008093B000C093B40064C0809190008068A7
:1012D00080939000D0939900C09398005AC0809159
:1012E0009000806280939000D0939B00C0939A00FE
:1012F00050C080919000886080939000D0939D00B2
:10130000C0939C0046C08091A00080688093A0009C
:101310008091A0008F7B8093A000D093A900C09300
:10132000A80037C08091A00080628093A000D09375
:10133000AB00C093AA002DC08091A000886080936C
:10134000A000D093AD00C093AC0023C080912001D9
:10135000806880932001D0932901C093280119C08F
:1013600080912001806280932001D0932B01C09353
:101370002A010FC080912001886080932001D093C2
:101380002D01C0932C0105C0C038D1050CF04CCF05
:1013900046CFDF91CF911F910895862F642FFACE0B
:1013A0008F929F92AF92BF92CF92DF92EF92FF9275
:1013B0006B017C0134DD4B015C01C114D104E104FB
:1013C000F104E9F02CDDDC01CB0188199909AA09A7
:1013D000BB09883E9340A105B10578F321E0C21A0C
:1013E000D108E108F10888EE880E83E0981EA11C60
:1013F000B11CC114D104E104F10421F7DECFFF9048
:10140000EF90DF90CF90BF90AF909F908F90089516
:10141000CF92DF92EF92FF920F931F93CF93DF93C0
:10142000DC011696CD90DC9017971896ED90FC9005
:101430001997CE14DF0481F4ED91FC910190F081B5
:10144000E02D62E070E0DF91CF911F910F91FF904E
:10145000EF90DF90CF90199411E0EC14FD040CF0A4
:1014600010E0EC01F89461E08E85A1DD6AE070E0A7
:1014700080E090E095DF612F8C8599DD61E08A85C1
:1014800096DD0BE91FE0C8010197F1F760E08A855E
:101490008EDDC8010197F1F760E08E8588DD7894D4
:1014A00088859985EC14FD0414F4019601C0019718
:1014B00099878887DF91CF911F910F91FF90EF90CF
:1014C000DF90CF9008952FB7F8946091D204709177
:1014D000D3048091D4049091D5042FBF08951F9216
:1014E0000F920FB60F9211242F933F938F939F93D8
:1014F000AF93BF938091D2049091D304A091D40470
:10150000B091D5043091D10423E0230F2D3720F47E
:101510000196A11DB11D05C026E8230F0296A11D4D
:10152000B11D2093D1048093D2049093D304A0934F
:10153000D404B093D5048091D6049091D704A0919F
:10154000D804B091D9040196A11DB11D8093D60491
:101550009093D704A093D804B093D904BF91AF91CE
:101560009F918F913F912F910F900FBE0F901F90E1
:1015700018951F920F920FB60F9211240BB60F926F
:101580002F933F934F935F936F937F938F939F938B
:10159000AF93BF93EF93FF93E0910E02F0910F0290
:1015A0001995FF91EF91BF91AF919F918F917F918D
:1015B0006F915F914F913F912F910F900BBE0F90C4
:1015C0000FBE0F901F9018951F920F920FB60F929B
:1015D00011240BB60F922F933F934F935F936F930A
:1015E0007F938F939F93AF93BF93EF93FF93E0917C
:1015F0000C02F0910D021995FF91EF91BF91AF91FF
:101600009F918F917F916F915F914F913F912F911A
:101610000F900BBE0F900FBE0F901F9018951F924A
:101620000F920FB60F9211240BB60F922F933F9388
:101630004F935F936F937F938F939F93AF93BF93DA
:10164000EF93FF93E0910202F09103021995FF914D
:10165000EF91BF91AF919F918F917F916F915F912A
:101660004F913F912F910F900BBE0F900FBE0F9097
:101670001F9018951F920F920FB60F9211240BB660
:101680000F922F933F934F935F936F937F938F931B
:101690009F93AF93BF93EF93FF93E0910002F0917C
:1016A00001021995FF91EF91BF91AF919F918F9199
:1016B0007F916F915F914F913F912F910F900BBE52
:1016C0000F900FBE0F901F9018951F920F920FB69C
:1016D0000F9211240BB60F922F933F934F935F936A
:1016E0006F937F938F939F93AF93BF93EF93FF93EA
:1016F000E0910A02F0910B021995FF91EF91BF91D1
:10170000AF919F918F917F916F915F914F913F9199
:101710002F910F900BBE0F900FBE0F901F9018953A
:101720001F920F920FB60F9211240BB60F922F93A8
:101730003F934F935F936F937F938F939F93AF9359
:10174000BF93EF93FF93E0910802F091090219957E
:10175000FF91EF91BF91AF919F918F917F916F9189
:101760005F914F913F912F910F900BBE0F900FBE45
:101770000F901F9018951F920F920FB60F92112481
:101780000BB60F922F933F934F935F936F937F937B
:101790008F939F93AF93BF93EF93FF93E0910602D4
:1017A000F09107021995FF91EF91BF91AF919F9131
:1017B0008F917F916F915F914F913F912F910F90FA
:1017C0000BBE0F900FBE0F901F9018951F920F9297
:1017D0000FB60F9211240BB60F922F933F934F9396
:1017E0005F936F937F938F939F93AF93BF93EF9389
:1017F000FF93E0910402F09105021995FF91EF919A
:10180000BF91AF919F918F917F916F915F914F9118
:101810003F912F910F900BBE0F900FBE0F901F9016
:1018200018950F931F93CF93DF938C0161308FEF47
:10183000780714F461E07FEFEB016F3F710519F059
:1018400014F0CFEFD0E0F80180819181009719F07A
:101850000197C1F030C0D7FD06C0BE01F8018281FA
:10186000D5DC60E008C0662777276C1B7D0BF8018C
:101870008281CCDC61E0F8018381DF91CF911F91FF
:101880000F9195CBD7FD07C0BE01F8018281BEDC68
:1018900060E070E009C060E070E0F8018281B6DCD1
:1018A000662777276C1B7D0BF8018381DF91CF9131
:1018B0001F910F91ABCCDF91CF911F910F910895A4
:1018C0008F929F92AF92BF92CF92DF92EF92FF9250
:1018D000FC01828128E532E06901C81AD10887FD40
:1018E000D394CC0CDD1CCC0CDD1C0D2C000CEE08B4
:1018F000FF08818128E830E04901881A910887FDB6
:101900009394880C991C880C991C092C000CAA082B
:10191000BB0880818F3FC1F090E0FC01EE0FFF1FFC
:101920008E0F9F1FFC01EE5CFB4F2181328143E053
:10193000220F331F4A95E1F754E0369527955A95C3
:10194000E1F72E5F3F4F02C020E030E02F5F3F4FB6
:10195000C901330FAA0BBB0B9C01AD012819390932
:101960004A095B09A4EBB0E00E942920A701960177
:10197000281939094A095B090E940D20C901FF9005
:10198000EF90DF90CF90BF90AF909F908F90089591
:10199000CF92DF92EF92FF92CF93DF93EC01603210
:1019A00082E078070CF03DC077FD06C0653B71050D
:1019B0002CF064EB70E002C060E070E0898128E800
:1019C00030E06901C81AD10887FDD394CC0CDD1C26
:1019D000CC0CDD1C0D2C000CEE08FF088A8128E5DC
:1019E00032E0281B310987FD3395220F331F220F68
:1019F000331FC901330FAA0BBB0B9C01AD012C197E
:101A00003D094E095F09DB010E94332024EB30E0E1
:101A100040E050E00E940D20C20ED31EE41EF51ED1
:101A2000B6013881303380F5298188E890E0821B47
:101A3000910927FD9395880F991F880F991F6817A3
:101A4000790784F08A8148E552E0481B510987FDF7
:101A50005395440F551F440F551FCB014617570789
:101A60000CF4CA010297880F991F4FB7F894232FDF
:101A700030E0F901EE0FFF1F2E0F3F1FF901EE5C62
:101A8000FB4F928381834FBFDF91CF91FF90EF9007
:101A9000DF90CF9008958130910581F410928000FD
:101AA00082E0809381001092850010928400B19AA8
:101AB00080916F00826080936F000895823091055D
:101AC00069F41092900082E080939100109295004A
:101AD0001092940088BB8093710008958330910523
:101AE00069F41092A00082E08093A1001092A500FA
:101AF0001092A40089BB809372000895892B61F431
:101B00001092200182E08093210110922501109211
:101B100024018ABB8093730008951F920F920FB621
:101B20000F9211240BB60F922F933F934F935F9315
:101B30006F937F938F939F93AF93BF93EF93FF9395
:101B400048E251E064E271E080E090E05EDAFF910B
:101B5000EF91BF91AF919F918F917F916F915F9125
:101B60004F913F912F910F900BBE0F900FBE0F9092
:101B70001F9018951F920F920FB60F9211240BB65B
:101B80000F922F933F934F935F936F937F938F9316
:101B90009F93AF93BF93EF93FF9348EA50E064EABB
:101BA00070E083E090E031DAFF91EF91BF91AF9167
:101BB0009F918F917F916F915F914F913F912F9165
:101BC0000F900BBE0F900FBE0F901F9018951F9295
:101BD0000F920FB60F9211240BB60F922F933F93D3
:101BE0004F935F936F937F938F939F93AF93BF9325
:101BF000EF93FF9348E950E064E970E082E090E001
:101C000004DAFF91EF91BF91AF919F918F917F91F6
:101C10006F915F914F913F912F910F900BBE0F905D
:101C20000FBE0F901F9018951F920F920FB60F9234
:101C300011240BB60F922F933F934F935F936F93A3
:101C40007F938F939F93AF93BF93EF93FF9348E856
:101C500050E064E870E081E090E0D7D9FF91EF9127
:101C6000BF91AF919F918F917F916F915F914F91B4
:101C70003F912F910F900BBE0F900FBE0F901F90B2
:101C800018950F931F93CF93DF93CDB7DEB72897A7
:101C90000FB6F894DEBF0FBECDBF01968C010E7F4C
:101CA000C8010E94A721AC01009729F0BC01600F78
:101CB000711FCB0104C060E070E080E090E05A83C7
:101CC00049835C834B837E836D83242F3A815C81BF
:101CD0007E8128960FB6F894DEBF0FBECDBFDF9190
:101CE000CF911F910F910895FC0190819078692BFD
:101CF00060830895CF93DF93EC0188819981461B1F
:101D0000570BDC01ED91FC910280F381E02D1995D8
:101D10002A813B81820F931F9B838A83DF91CF911E
:101D20000895CB01BA0120E030E044EB53E40E9477
:101D3000CF2027EC3BEC45E456E40E94591F0E945B
:101D40003721CB010895FC0175836483672B11F45F
:101D50001786168608951F93CF93DF93EC01CE016B
:101D600082D78B302CF48930FCF48823B1F02FC05B
:101D70008032D1F08F3219F08D3049F515C01886B8
:101D8000CE0171D78A3219F08F32C1F01DC018868A
:101D900010E0CE0168D7811103C081E090E019C046
:101DA0008F3221F4112311F01886D9CF11E08A3235
:101DB00009F010E01886EDCF8A3089F21886CE013E
:101DC00052D78111F9CFE9CF82E090E002C080E0E4
:101DD00090E0DF91CF911F9108950F931F93CF93C0
:101DE000DF93EC0188EA93E00E949B178C859D8528
:101DF0000097C9F0019719F50A891B89F8018385B5
:101E0000823028F4F894C8010E94DB0101C0F894E4
:101E1000F80187819085A185B28578942E813F81D4
:101E2000821793071CF46C897D8902C06E897F89B3
:101E3000CE01DF91CF911F910F910C94E518DF91A6
:101E4000CF911F910F9108958091E4049091E50442
:101E50000C94DB018091E2049091E3040C94DB018B
:101E60008091E0049091E1040C94DB018091DE0408
:101E70009091DF040C94DB018091DC049091DD04EF
:101E80000C94DB018091DA049091DB040C94DB016B
:101E9000CF93DF93FC0126853785232BB1F4EC012A
:101EA0008EEA93E00E949B176C897D8941E050E0A7
:101EB000CE010E94B618882341F085EB93E00E9482
:101EC0009B1781E090E09F878E87DF91CF910895E7
:101ED000CF92DF92EF92FF920F931F93CF93DF93F6
:101EE000CDB7DEB7A4970FB6F894DEBF0FBECDBF57
:101EF0006B01CE010E969A8389839C838B837E012E
:101F00008EE1E80EF11CFE82ED82F886EF8260E041
:101F1000CE010D96E9DE8D858F7741F460E2CE012A
:101F20000D96E2DE1A8619861C861B868D8585FF36
:101F300033C064EC73E089859A850E941D02009786
:101F400011F08C0112C0BE016F5F7F4FCE01099668
:101F50000E941504FC01892BF9F084818F7784831A
:101F600084EC93E0978386838F01DCA2CBA2BE0131
:101F70006F5F7F4FCE0183960E9448046C01C801B9
:101F80000496C114D10431F065E0AEDEF801D182CF
:101F9000C08202C060E0A8DE86EE94E09F8F8E8F44
:101FA00019A218A21AA2B701CE0109969CD382ECFD
:101FB00093E0C1D7A4960FB6F894DEBF0FBECDBF95
:101FC000DF91CF911F910F91FF90EF90DF90CF9015
:101FD0000895FC0180819181892B21F460E070E0FB
:101FE000CB01089568EA75E080E090E00895FC0177
:101FF00084819581009799F02281338146815781B0
:102000002417350718F0158214820895A9014F5F2F
:102010005F4F53834283FC01E20FF31F60830895F7
:102020008F929F92AF92BF92CF92DF92EF92FF92E8
:102030000F931F93CF93DF93CDB7DEB7CD54D10964
:102040000FB6F894DEBF0FBECDBF8C017B0183DEDF
:102050002E969FAF8EAF2E97CE01845B9F4FB9DF38
:10206000672B09F07FC080FD7DC0C801FCD5873299
:1020700081F4BE016F5B7F4FC80143D69A83898389
:10208000CE010196A6DF672B09F0A1C180FD9FC19B
:10209000A1C188329CF4823261F3C801E4D5C82E14
:1020A000CE0101965C01D12C4C018C2DC2D5882328
:1020B00009F49EC19FE3D9120BC29AC18B3529F551
:1020C00060E4C701049610DED70111961C921E929F
:1020D00013961C921E921297F8018681882341F173
:1020E000C801C1D58B3509F052C1D80118961C9290
:1020F000C80131DE9A838983CE0101966ADF672B9E
:1021000009F065C180FD63C134C08B3709F0C5CFCC
:1021100060E2C7010496E8DDD70111961C921E9279
:1021200013961C921E921297F8018681811102C0AB
:1021300085E05CC1C80197D58B3709F028C1D8016B
:1021400018961C92C80107DE2C969FAF8EAF2C9775
:10215000CE01865B9F4F3DDF672B09F031C180FDCB
:102160002FC168C02D968FAD2D972E969FAD2E97BF
:10217000B9C1C80178D58D3589F1D8016D917C91AF
:10218000C7010E941504BC01892B09F449C0F8015C
:10219000968191509683C80143DF9A838983D80141
:1021A00016968C9116978F5F16968C93CE0101969A
:1021B00010DF672B09F00BC180FD09C1C801CBDD21
:1021C0009A838983CE01019604DF672B09F0FFC053
:1021D00080FDFDC0C80147D58D3521F5F801108679
:1021E00004C1C80140D58C3209F0D1C0F801108675
:1021F000C801B1DD2C969FAF8EAF2C97CE01865BC8
:102200009F4FE7DE672B09F0DBC080FDD9C0D80106
:102210006D917C91C7010E9415046C01892B79F4A2
:1022200083E0E4C0C8011FD58C3209F0B0C0F801CA
:102230001086A3CFC80117D58D3749F7CFCFC80176
:1022400012D5873211F0823299F4BE016F5B7F4F55
:10225000C80157D52C969FAF8EAF2C97CE01865BC9
:102260009F4FB7DE672B09F0ABC080FF55C0A8C0F9
:10227000D8011496ED91FC911597228133818481C8
:10228000958193838283FA83E9831C821B823E8338
:102290002D83821B930B98878F83C801E4D4B82EBB
:1022A0008823B9F18B2DC5D4882369F1F8011086F4
:1022B0006B2DCE0101969BDEC801D5D4B82EB9D4C2
:1022C0008111F4CF60E0CE01019691DE8D819E8177
:1022D000892B71F0E981FA818B819C812F8138856E
:1022E000821B930B22813381820F931F93838283FE
:1022F0008D819E8123969FAF8EAF2397892B31F0DE
:1023000080E090E0A7CF82E090E0A4CF83E090E06F
:10231000A1CF81E090E09ECF23962EAD3FAD2397D5
:10232000F60184818068848337832683C80113DDA6
:102330002C969FAF8EAF2C97CE01865B9F4F49DEC8
:10234000672B09F03DC080FD3BC0C8018CD48A33A7
:10235000F1F4D80118961C92189716968C9116973E
:10236000815016968C93B601C8015ADE2C969FAF09
:102370008EAF2C97F80186818F5F8683CE01865BB6
:102380009F4F27DE672BE1F480FF03C019C082E076
:102390002DC0C801E0DC2C969FAF8EAF2C97CE01EC
:1023A000865B9F4F16DE672B59F480FD09C0C8017C
:1023B0005AD48D3709F015CFD80118961C9215C044
:1023C0002B968FAD2B972C969FAD2C978BC0898128
:1023D0009A8188C023960EAD1FAD239765E0C70193
:1023E000049682DCD7010D931C9380E090E07AC0C4
:1023F000F401ED0DF11D10828981843791F466E0BE
:10240000C701049671DC81E090E0A0E0B0E0F70144
:1024100080839183A283B38390E0F4E0DF1262C0F3
:1024200019C0863681F466E0C70104965DDCD701E9
:102430001D921D921D921C92139781E090E0B5E0D1
:10244000DB1250C007C08E3639F481E090E0E4E042
:10245000DE1248C080E046C0B401CE018F5B9F4FC2
:102460000E94460225968CAC9DACAEACBFAC2597C5
:102470002A968FAD2A978A3079F08C30C1F0883057
:1024800009F085CF68E0C70104962EDCF701808251
:102490009182A282B382A9CF6AE0C701049624DCAC
:1024A000D7018D929D92AD92BC9213979ECF2996A3
:1024B0008CAC9DACAEACBFAC29976CE0C701049668
:1024C00013DCD7018D929D92AD92BC9213978DCF64
:1024D000F8011086D394D501CD925D01C801C3D314
:1024E000C82EE3CDC35BDF4F0FB6F894DEBF0FBE3F
:1024F000CDBFDF91CF911F910F91FF90EF90DF90B3
:10250000CF90BF90AF909F908F900895CF93DF931F
:10251000EC0188819981DC01ED91FC910190F081C1
:10252000E02D19952A813B81820F931F9B838A831B
:10253000DF91CF910895EF92FF921F93CF93DF9396
:10254000CDB7DEB766970FB6F894DEBF0FBECDBF2E
:102550009C01CB01FE0177964E2F1F2F5AE0E52EEE
:10256000F12CB7010E947821805D8293CB01009706
:10257000C1F7512FBF01C901BDDB66960FB6F894B4
:10258000DEBF0FBECDBFDF91CF911F91FF90EF90C7
:1025900008958F929F92AF92BF92CF92DF92EF9267
:1025A000FF920F931F93CF93DF93CDB7DEB766975C
:1025B0000FB6F894DEBF0FBECDBF7C018E01095E61
:1025C0001F4F68018AE0882E912CA12CB12CCB01E1
:1025D000BA01A50194010E943920942F852F605DD6
:1025E000F80162938F01A901692F782F41155105D8
:1025F0006105710561F7A601BF01C7017BDB669626
:102600000FB6F894DEBF0FBECDBFDF91CF911F9103
:102610000F91FF90EF90DF90CF90BF90AF909F9081
:102620008F900895CF93DF93EC0188819981FB010E
:1026300001900020E9F73197AF01461B570BDC01F1
:10264000ED91FC910280F381E02D19952A813B8167
:10265000820F931F9B838A83DF91CF910895FF920E
:102660000F931F93CF93DF936115710541F46AEDCA
:1026700073E0DF91CF911F910F91FF90D3CF8B012A
:10268000EC0162E2CE0142DFF80161918F01662325
:1026900051F0EBECF3E0F080FF20A1F381816817AB
:1026A00051F03296F8CF62E2CE01DF91CF911F91C7
:1026B0000F91FF902BCF6CE5CE0128DF6F2DE2CF7D
:1026C0000F931F93CF938C01C0E0F8018481C8174A
:1026D00030F46FED73E0C801A5DFCF5FF6CFCF9187
:1026E0001F910F9108952F923F924F925F926F9298
:1026F0007F928F929F92AF92BF92CF92DF92EF9292
:10270000FF920F931F93CF93DF93CDB7DEB76697FA
:102710000FB6F894DEBF0FBECDBFFC018B019481D4
:102720009F77963009F4E9C058F4923008F4F3C06A
:10273000943008F4C5C060817181C80190DF60C227
:102740009C30B9F080F4983009F4D0C09A3009F088
:10275000E2C0C080D180E280F3806DE2C801D6DEA5
:10276000B701A601C7C0903209F465C0903431F1B9
:10277000D2C04080518062807380A3019201C30166
:10278000B2010E94F41E8111C6C020E030E0A90110
:10279000C301B2010E94F41E882309F4C1C0A30141
:1027A0009201C301B2010E946B209B01AC01C301E5
:1027B000B2010E94F41E8111B3C0ADC0E080F1806F
:1027C000E114F10419F469EE73E0A7C06CEE73E054
:1027D000C80128DFD80114968C9114978F5F149646
:1027E0008C93C8016DDFB801C7017DDFF7018581DA
:1027F000882349F0F8E08F02E00CF11C1124E11469
:10280000F10431F402C0E12CF12C63EE73E002C05C
:1028100062EE73E0C80106DFE114F10411F7D8019C
:1028200014968C911497815014968C93C80148DFAC
:102830006AEE73E072C0E080F180E114F10419F4F3
:1028400060EF73E06AC063EF73E0C801EBDEF8018C
:1028500084818F5F8483C80133DFD70116966D9121
:102860007C911797C801FBDE67EF73E0C801DADEE1
:10287000B801C70138DFF7018581882349F0F8E006
:102880008F02E00CF11C1124E114F10431F402C0B8
:10289000E12CF12C63EE73E002C062EE73E0C8013C
:1028A000C1DEE114F104B9F6D80114968C911497A5
:1028B000815014968C93C80103DF61EF73E02DC043
:1028C000DB018D919C914281538160817181DC019A
:1028D000ED91FC910280F381E02D1995F8012281A0
:1028E0003381820F931F938382838AC140815181F8
:1028F00062817381C8014DDE83C180819181A28193
:10290000B381892B8A2B8B2B19F06AEF73E005C0FA
:102910006FEF73E002C06AED73E0C80183DE70C13F
:1029200020E030E0A901C301B2010E94F41E87FF3C
:1029300007C06DE2C801EADD77FA709477F8709409
:1029400020E836E948E15BE4C301B2010E94682156
:1029500087FD33C064E6C62E62E0D62E74E3A72E50
:1029600072E0B72EE0E2EE2EF12C212C312CA301E7
:102970009201D6019E918E917E916E916D010E9481
:10298000F41E18166CF0F50124893589468957899B
:10299000C301B2010E94591F2B013C012E0C3F1CA8
:1029A000F594E794F4E0AF1AB1088CE4C81682E01D
:1029B000D806E9F6BB24BA9407C030E2E32EF12C26
:1029C00045E0B42E212C312C20E030E0A901C301D8
:1029D000B2010E946821181694F52CEA35EC47E202
:1029E00057E3C301B2010E94F41E181644F19FEF91
:1029F000B91629F1AB2DB4E0AB0260011124F60148
:102A0000EC59FD4FA3019201608171818281938114
:102A10000E94682118167CF4F601E45BFD4F2081CA
:102A2000318142815381C301B2010E94591F2B01A0
:102A30003C012E183F08F594E794BA94D8CFC3010F
:102A4000B2010E943C214B015C016B017C01E6E07C
:102A5000EE8B80E492E4AFE0B0E08A8B9B8BAC8B92
:102A6000BD8B9E89998BA92FA150AE8BBAE0CB1656
:102A7000D104E104F104C8F06A897B898C899D89BD
:102A80002AE030E040E050E00E9439202A8B3B8B66
:102A90004C8B5D8BC701B6012AE030E040E050E08E
:102AA0000E94392069017A01DCCFC501B4010E947E
:102AB000F81E9B01AC01C301B2010E946A206B01A8
:102AC0007C016A897B898C899D890E94F81E9B0103
:102AD000AC01C701B6010E94591F2B013C010E94A5
:102AE0003C216B017C010E94F81E9B01AC01C301DB
:102AF000B2010E946A209B01AC010E946B200E94DF
:102B00003C21C60ED71EE81EF91E8A899B89AC8916
:102B1000BD89C816D906EA06FB06E0F09FEF891AC0
:102B2000990AA90AB90A2114310489F0AAE08A167F
:102B30009104A104B10458F0BFEF2B1A3B0AC12C39
:102B4000D12C7601812C912C5401839403C0C12C8B
:102B5000D12C76018AE0482E512C612C712CC701B2
:102B6000B601A30192010E943920672B682B692BC3
:102B700041F4E9891E162CF469017A01E150E98BD0
:102B8000EECFB501A401C80104DDF989FF2321F1CD
:102B90005F2E5E0181E1A80EB11C35015A949FEFB2
:102BA000591679F0C701B6012AE030E040E050E064
:102BB0000E943920605DD5016E935D0169017A0143
:102BC000EDCFB301B9896B1B71098EE2FB018293D2
:102BD000BF01A301C8018ED837FE09C066EE73E0BD
:102BE000C80120DD662777276219730907C0211401
:102BF000310431F065E6C80189DCB101C8019BDC14
:102C000066960FB6F894DEBF0FBECDBFDF91CF91B1
:102C10001F910F91FF90EF90DF90CF90BF90AF90FA
:102C20009F908F907F906F905F904F903F902F90EC
:102C30000895982F80ED890F8A3020F081EA890F5E
:102C40008C3110F481E008958FEB890F8A31D0F335
:102C50009B32C1F381E09D3221F09E3219F080E079
:102C6000089508950895CF92DF92EF92FF920F9307
:102C70001F93CF93DF93EC018885811134C00A81C3
:102C80001B810E94630AD80118966D937D938D93E2
:102C90009C931B97D801ED91FC910284F385E02D64
:102CA000C801199597FF29C00E94630AF801C084E2
:102CB000D184E284F384DC01CB018C199D09AE0937
:102CC000BF09C480D580E680F7808C159D05AE05D0
:102CD000BF0500F38FEF9FEF97FF02C080E090E009
:102CE0008F8381E088878F81DF91CF911F910F9132
:102CF000FF90EF90DF90CF900895082E000C990B75
:102D0000EBCFDF92EF92FF920F931F93CF93DF935E
:102D1000CDB7DEB728970FB6F894DEBF0FBECDBF94
:102D20008C017B01DC011496ED91FC9115972281B9
:102D300033818481958193838283FA83E9831C8222
:102D40001B823E832D83821B930B98878F83C80140
:102D50008ADFD82EF8011086C80185DFD8011896C1
:102D60001C92D81639F1811103C081E090E044C073
:102D70008C35D9F4C80177DF8823B9F3853719F08A
:102D8000EFECF3E006C084E090E036C0891729F04C
:102D9000329690819111FACF06C08181811103C0D2
:102DA00082E090E029C0F8011086682FCE010196DC
:102DB0001ED9D2CF60E0CE01019619D98D819E81B6
:102DC000892B71F08B819C81E981FA812F81388573
:102DD000821B930B22813381820F931F9383828303
:102DE0008D819E81D7018D939C93892B19F483E06B
:102DF00090E002C080E090E028960FB6F894DEBF25
:102E00000FBECDBFDF91CF911F910F91FF90EF903B
:102E1000DF900895CF92DF92EF92FF920F931F936E
:102E2000CF93DF936C017A018B01C0E0D0E0CE1527
:102E3000DF0581F0D8016D918D01D601ED91FC91F6
:102E40000190F081E02DC6011995892B11F0219692
:102E5000EECF7E01C701DF91CF911F910F91FF90BF
:102E6000EF90DF90CF900895CF92DF92EF92FF9294
:102E70000F931F93CF93DF93EC0188858B7F888717
:102E8000CE010E943507182F888586958170181706
:102E900059F00E94630A6A837B838C839D839885A3
:102EA00082E0892788873AC00E94630ACA80DB8053
:102EB000EC80FD80AB01BC014C195D096E097F09F6
:102EC0008E819F81A0E0B0E0481759076A077B0711
:102ED00028F188858170181709F10E94630A6A83B6
:102EE0007B838C839D83988581E089278460888794
:102EF0000E94630A0A851B852C853D85DC01CB0178
:102F0000801B910BA20BB30B8E879F87A88BB98B6D
:102F10000E94630A6A877B878C879D87888582FBEE
:102F2000882780F9DF91CF911F910F91FF90EF904B
:102F3000DF90CF900895CF93DF93009771F0FC015D
:102F400001900020E9F73197AF01481B590BBC01F4
:102F500086EE94E05FDFEC0102C0C0E0D0E042E02A
:102F600050E063EE73E086EE94E054DF8C0F9D1F1B
:102F7000DF91CF910895CF93DF93EC0185E094E04A
:102F80009983888388E992E09B838A831C821D82CF
:102F90001E821F828AE090E0998788871A866B8755
:102FA000CE0102960E943507882319F08A85836036
:102FB0008A870E94630A6C837D838E839F8384E16A
:102FC00090E099878887DF91CF9108956F927F92E3
:102FD0008F929F92AF92BF92CF92DF92EF92FF9229
:102FE0000F931F93CF93DF93EC01762E642E49014C
:102FF00082E194E09B838A8382E090E09D838C83CE
:103000008CE892E0998388831D861C861F861E8625
:1030100084E090E00E94A7215C01DC0111961C92E3
:103020001E9212967C92129713966C9261E0872DF5
:103030000E94CA0861E0F50183810E94CA0860E02D
:10304000D50112968C910E94D70760E0F50183812B
:103050000E94D707B98AA88A8CE090E00E94A72135
:103060005C0162E0882D0E94CA0862E0802F0E9405
:10307000CA08A4015527FA01EA5FFD4FE491F0E088
:10308000EE0FFF1FE451FE4FA591B491F501B183FE
:10309000A083FA01EA55FE4F4491F5014483C8012B
:1030A0009927FC01EA5FFD4FE491F0E0EE0FFF1F6E
:1030B000E451FE4F25913491F50133832283FC01C5
:1030C000EA55FE4F8491F50185831782108611869B
:1030D0001286EBE3FFE13197F1F7EC914E2391E09B
:1030E00009F490E0D901EC91E82309F09260F50130
:1030F0009683B501882D0E945D01D5011B968C93A6
:10310000B501802F0E945D01F5019385890F8387AA
:10311000BB8AAA8A84E190E00E94A7218C01B701B2
:103120002ADF1D8B0C8BFFEFCF16DF0671F084E1D9
:1031300090E00E94A7218C01B6011DDF1F8B0E8B32
:1031400081E090E09D878C8702C01D861C86DF9100
:10315000CF911F910F91FF90EF90DF90CF90BF9094
:10316000AF909F908F907F906F900895EF92FF9215
:103170000F931F93CF93DF93EC017B018A01CB0167
:10318000029672DEF701928595702889398995300B
:1031900049F41B861A8660E070E0C9010E94110C98
:1031A00081E00CC089E1809FB001819F700D1124E6
:1031B0007B876A87C9010E94110C80E0DF91CF9163
:1031C0001F910F91FF90EF900895AF92BF92CF9211
:1031D000DF92EF92FF920F931F93CF93DF93EC0157
:1031E0008B01EA88FB88F7018385823028F4F89404
:1031F000C7010E94DB0101C0F894F7018781908527
:10320000A185B2857894AC012E813F81821B930BFE
:103210008C599F4F893C9105B0F483E294E08BDE9A
:10322000E881F9810190F081E02D62E070E0CE014B
:10323000DF91CF911F910F91FF90EF90DF90CF9092
:10324000BF90AF9019944217530724F0EE24EA94EC
:10325000FE2C03C0EE24E394F12C5801F2E0AF0EF3
:10326000B11CC50101DEF801828585708530B9F495
:10327000F1E0EF16F10409F5CC24CA94DC2CC50169
:10328000F3DDF80122858889998920FD1AC022FF83
:1032900018C01B861A8660E070E00E94110CA7011E
:1032A000B801CE01DF91CF911F910F91FF90EF9068
:1032B000DF90CF90BF90AF9059CFCC24C394D12C46
:1032C000DECF2AE02C9DB0012D9D700D11247B874F
:1032D0006A87DF91CF911F910F91FF90EF90DF9060
:1032E000CF90BF90AF900C94110CCF93DF93CDB7DC
:1032F000DEB7C754D1090FB6F894DEBF0FBECDBFFD
:10330000789484B5826084BD84B5816084BD85B5C0
:10331000826085BD85B5816085BD80916E008160CC
:1033200080936E0010928100809181008260809372
:103330008100809181008160809381008091800074
:103340008160809380008091B10084608093B1009F
:103350008091B00081608093B00080919100826084
:103360008093910080919100816080939100809181
:1033700090008160809390008091A1008260809392
:10338000A1008091A10081608093A1008091A000A4
:1033900081608093A000809121018260809321014F
:1033A00080912101816080932101809120018160C1
:1033B0008093200180917A00846080937A008091CC
:1033C0007A00826080937A0080917A008160809395
:1033D0007A0080917A00806880937A001092C10010
:1033E000E091F604F091F70482E08083E091F2042A
:1033F000F091F3041082E091F404F091F50480E17F
:1034000080831092FE04E091FA04F091FB0486E0C0
:103410008083E091F804F091F904808180618083D9
:10342000E091F804F091F904808188608083E09154
:10343000F804F091F904808180688083E091F804B9
:10344000F091F90480818F7D80838AE090E0A0E094
:10345000B0E08093EA049093EB04A093EC04B09363
:10346000ED0488E190E073D75C014DE0C42ED12CCF
:103470005CE0E52EF12C06E210E028E230E045E0C9
:1034800050E066E070E0A2DDB092CA04A092C904E8
:1034900088E190E05CD75C01CC24CA94DC2C77E016
:1034A000E72EF12C02E210E024E230E049E050E0A7
:1034B0006AE070E08BDDB092C804A092C70484E19A
:1034C00090E045D78C018CE992E0D80113969C934B
:1034D0008E93129782E090E015969C938E931497AA
:1034E0008AE192E011969C938E9388E190E01B967E
:1034F0009C938E931A9786E190E01D969C938E93F1
:103500001C978EE290E01F969C938E931E978CE200
:1035100090E051969C938E93509761E088E10E94D1
:10352000CA0861E086E10E94CA0861E08EE20E945A
:10353000CA0861E08CE20E94CA0860E088E10E944B
:10354000D70760E086E10E94D70760E08EE20E9424
:10355000D70761E08CE20E94D70784E190E0F7D6BC
:103560007C016AE170E007DDF801F38AE28A1782E4
:1035700016821093C6040093C50488E090E0E7D655
:103580008C018AEA92E0D80111969C938E938091E7
:10359000C2048033A0F491E0980F9093C204129675
:1035A0008C9390E0FC01EE0FFF1F8E0F9F1FFC011C
:1035B000EE5CFB4F88EB9BE09283818303C08FEF2F
:1035C000F80182838091C2048033A8F491E0980FBF
:1035D0009093C204D80115968C9390E0FC01EE0FF5
:1035E000FF1F8E0F9F1FFC01EE5CFB4F88EB9BE0E3
:1035F0009283818303C08FEFF8018583D8011296EF
:103600008C91803308F045C061E08BE10E94CA08CC
:10361000F8018281E82FF0E09F01220F331FE20FB3
:10362000F31FEE5CFB4F9081907C9B619083D801EF
:1036300013961C92139714961C926CE04DD690E052
:10364000BCE08B9FB001112440E050E09B01240FAF
:10365000351FF901EE0FFF1F2E0F3F1FF901EE5C22
:10366000FB4F208126FD07C04F5F5F4F4C30510557
:1036700069F70E944B0DD8011296EC91F0E0CF0152
:10368000880F991FE80FF91FEE5CFB4F8081806463
:103690008083F8018581803308F046C061E089E1CC
:1036A0000E94CA08D80115968C911597E82FF0E072
:1036B0009F01220F331FE20FF31FEE5CFB4F90813F
:1036C000907C9961908316961C92169717961C927F
:1036D0006CE002D690E0BCE08B9FB001112440E08A
:1036E00050E09B01240F351FF901EE0FFF1F2E0F35
:1036F0003F1FF901EE5CFB4F208126FD07C04F5FA5
:103700005F4F4C30510569F70E944B0DD80115965B
:10371000EC91F0E0CF01880F991FE80FF91FEE5CE4
:10372000FB4F8081806480831093C4040093C304A2
:103730008FE090E00CD67C018091C5049091C60486
:103740002091C7043091C8044091C9045091CA0423
:10375000F7015183408333832283958384831783C6
:10376000068381E090E0F3D5D70119969C938E9360
:103770001897F092CC04E092CB0487EB92E0DBDB6D
:10378000FE0170964F010091CB041091CC0484EFA0
:1037900091E00E94410E2EAB3FAB48AF59AF6AAFEC
:1037A0007BAF8CAF9DAF88E0FE01F696DE01DE9622
:1037B00001900D928A95E1F788E0FE01FE96D40112
:1037C00001900D928A95E1F760E0CE014C960E943F
:1037D000740E888999899B8B8A8B8E899F899D8B92
:1037E0008C8B60E0CE014C960E94740E9A82898286
:1037F00086EE94E09C838B839E828D829AE09F83E9
:103800001986BE01685E7F4FCE0101960E9410109E
:103810009E8F8D8FCE014D960E94E90F8C8D982F33
:103820009F7791F1A2C068EF72E0C601BED67C011D
:10383000892B09F439C165E073E0C601B6D6892B3E
:1038400009F0BAC16AE073E0C5010E949B030E94BF
:10385000FF037C01D8011D969C938E931C9763EF08
:1038600072E0A3D6892B09F090C1F8018081918183
:10387000DC01ED91FC910190F081E02D60E070E0C1
:1038800019958A819B81FBD588899989F8D5D801BA
:103890008D919C910E948E05F801828193810E94F6
:1038A0008E05D80114968D919C9115970E948E05D6
:1038B000F8018685882309F455C0E284F38463EF18
:1038C00072E0C70172D6892B21F4D801ED91FC91E9
:1038D00044C064E173E0C70168D6892B31F4D80194
:1038E0001296ED91FC91139738C06DE173E0C7011A
:1038F0005CD6892B69F165E073E0C70156D6892B48
:1039000089F5F801E484F58463EF72E0C7014DD6D0
:10391000892B41F4D801ED91FC9184819581029726
:1039200009F431C264E173E0C7013FD6892B51F439
:10393000D8011296ED91FC9113978481958102979D
:1039400009F421C26DE173E0C7012FD6892B51F430
:10395000D8011496ED91FC91159784819581029779
:1039600009F411C20E9481060ECF85FF06C261EDE7
:1039700072E0888D998D0E941D020E94FF037C01D8
:1039800069ED72E012D6892B19F46EED72E0B3C1C5
:1039900065EE72E0C70109D6892B09F0A4C18A89B6
:1039A0009B8928893989821B930B2E893F89820F35
:1039B000931F2C893D89821B930B0E94410E2EA3DD
:1039C0003FA348A759A76AA77BA78CA79DA788E014
:1039D000FE01B696DE019E9601900D928A95E1F762
:1039E00088E0FE01BE96DE01129601900D928A9546
:1039F000E1F760E0CE010E960E94740E8A819B81F1
:103A00009D838C83888599859F838E8360E0CE011A
:103A10000E960E94740E60E0CE010E960E94740E07
:103A2000AE014E5F5F4FBE01685E7F4FCE010A96CA
:103A30000E9476048E8585FFA3C169EE72E08A85B7
:103A40009B850E941D02009709F49AC1FC01248104
:103A500025FF96C15C016EEE72E0C5010E949B03DA
:103A60000E94FF036C01D8011B969C938E931A97BA
:103A700081E01E968C9363EF72E0C60196D5892B88
:103A800009F0D1CE6CE573E0C5010E949B030E9452
:103A9000A503AB01BC01F801808191810E947C05E6
:103AA000D8018D919C91A1C06EEF72E0C5010E947A
:103AB0009B03FC01892B09F463C094819F779630A6
:103AC00059F018F49430C0F45BC09A3051F09C3037
:103AD000E9F1983009F054C080819181A281B381CD
:103AE00028C080819181A281B3818130F0E89F0755
:103AF000A105B105C8F044C060817181CE014D9629
:103B00000E9446028D8D9E8DAF8DB8A12DA12A30C9
:103B100029F02C30B1F0283099F50BC0813020E825
:103B20009207A105B10560F5EE24FF24E81AF90A11
:103B300027C08115E0E89E07A105B10508F57C01C5
:103B40001FC049A05AA06BA07CA004C04080518037
:103B50006280738020E030E040E057ECC301B201A6
:103B6000B7D387FD0DC020E03EEF4FEF56E4C30111
:103B7000B2013AD1181624F0C301B20178D37B0107
:103B8000B701FF0C880B990BA4C064E173E0C70177
:103B90000CD5892B21F4F8018281938169CE6DE1E6
:103BA00073E0C70102D5892B21F4F8018481958146
:103BB0005FCE87E293E092C064E173E0C601F5D482
:103BC000892BE1F46CE573E0C5010E949B030E9420
:103BD000A503AB01BC01F801828193810E947C05A1
:103BE000D80112968D919C911397DC01ED91FC9177
:103BF0000190F081E02D61E070E042CE6DE173E074
:103C0000C601D3D4892BA1F46FE373E0C5010E94F0
:103C10009B030E94A503AB01BC01F801848195813F
:103C20000E947C05D80114968D919C911597DDCF4B
:103C30006AEA72E0C601B9D4892B09F04DC068E484
:103C400073E0C5010E949B030E94A5032B013C0168
:103C500064E573E0C5010E949B030E94A50307D39E
:103C60006B017C0128967FAF6EAF2897C301B2012C
:103C7000FED22B013C01F80126803780672B99F09A
:103C80005101F2E0AF0EB11CC5010E94600CBC01F5
:103C9000640D751DC5010E94C80C68EC70E080E0E1
:103CA00090E00E94D00928968EAD9FAD2897892B71
:103CB000B1F095E0290E311CC1010E94600CBC01DD
:103CC0006C0D7D1DC1010E94C80C68EC70E080E0A5
:103CD00090E00E94D00903C084E693E02CD9C8018B
:103CE0000E940D04CECD67E773E0C7015ED4892B37
:103CF00041F460E873E0D80118968D919C91199772
:103D000039C066E873E0C70150D4892B19F46BE819
:103D100073E02DC063E973E0C70147D4892B09F034
:103D2000B3CDD8018D919C91DC01ED91FC91019076
:103D3000F081E02D62E070E01995F80182819381B5
:103D4000DC01ED91FC910190F081E02D62E070E0EA
:103D50001995F80184819581DC01ED91FC91019028
:103D6000F081E02D62E070E0199569E973E0F801F7
:103D7000808591850E94680F87CD80E090E0FDCD21
:103D8000A12CB12C68CEC8010E940D04EBCDE6EE4B
:103D9000F4E01382128288EE93E0A0E0B0E0848326
:103DA0009583A683B78386E292E09183808385EC36
:103DB00090E09587848784EC90E09787868780ECF5
:103DC00090E0918B808B81EC90E0938B828B82ECE6
:103DD00090E0958B848B86EC90E0978B868B118E90
:103DE000128E138E148E089540D008F481E0089549
:103DF000E89409C097FB3EF4909580957095619585
:103E00007F4F8F4F9F4F9923A9F0F92F96E9BB273A
:103E10009395F695879577956795B795F111F8CFB6
:103E2000FAF4BB0F11F460FF1BC06F5F7F4F8F4F21
:103E30009F4F16C0882311F096E911C0772321F017
:103E40009EE8872F762F05C0662371F096E8862FAF
:103E500070E060E02AF09A95660F771F881FDAF706
:103E6000880F9695879597F90895990F0008550F33
:103E7000AA0BE0E8FEEF16161706E807F907C0F0F0
:103E800012161306E407F50798F0621B730B840BF8
:103E9000950B39F40A2661F0232B242B252B21F4D2
:103EA00008950A2609F4A140A6958FEF811D811D72
:103EB00008950BD078C069D028F06ED018F0952303
:103EC00009F05AC05FC01124A2C07ED0A0F3959F14
:103ED000D1F3950F50E0551F629FF001729FBB27F1
:103EE000F00DB11D639FAA27F00DB11DAA1F649F9D
:103EF0006627B00DA11D661F829F2227B00DA11D50
:103F0000621F739FB00DA11D621F839FA00D611DD5
:103F1000221F749F3327A00D611D231F849F600DF6
:103F2000211D822F762F6A2F11249F5750408AF02F
:103F3000E1F088234AF0EE0FFF1FBB1F661F771FBB
:103F4000881F91505040A9F79E3F510570F014C052
:103F50005EC05F3FECF3983EDCF3869577956795FE
:103F6000B795F795E7959F5FC1F7FE2B880F911DD9
:103F70009695879597F9089597F99F6780E870E07F
:103F800060E008959FEF80EC089500240A941616CF
:103F9000170618060906089500240A941216130637
:103FA000140605060895092E0394000C11F48823C5
:103FB00052F0BB0F40F4BF2B11F460FF04C06F5FE1
:103FC0007F4F8F4F9F4F089557FD9058440F551FB7
:103FD00059F05F3F71F04795880F97FB991F61F08B
:103FE0009F3F79F087950895121613061406551F02
:103FF000F2CF4695F1DF08C0161617061806991F6E
:10400000F1CF86957105610508940895E894BB2762
:1040100066277727CB0197F90895052E97FB16F4AD
:1040200000940FD057FD05D024D007FC02D046F4F1
:1040300008C050954095309521953F4F4F4F5F4FA9
:10404000089590958095709561957F4F8F4F9F4F04
:10405000089531D0A59F900DB49F900DA49F800D21
:10406000911D11240895B7FFF4CFF3DF821B930B4A
:104070000895A1E21A2EAA1BBB1BFD010DC0AA1FA9
:10408000BB1FEE1FFF1FA217B307E407F50720F0C1
:10409000A21BB30BE40BF50B661F771F881F991F3C
:1040A0001A9469F760957095809590959B01AC0185
:1040B000BD01CF010895A29FB001B39FC001A39F8E
:1040C000700D811D1124911DB29F700D811D112451
:1040D000911D08955058BB27AA270ED064CF55DFF5
:1040E00030F05ADF20F031F49F3F11F41EF44ACF34
:1040F0000EF4E095E7FB40CFE92F66DF80F3BA17B7
:10410000620773078407950718F071F49EF57ECF58
:104110000EF4E0950B2EBA2FA02D0B01B9019001E2
:104120000C01CA01A0011124FF27591B99F0593F26
:1041300050F4503E68F11A16F040A22F232F342F6E
:104140004427585FF3CF469537952795A795F040BC
:104150005395C9F77EF41F16BA0B620B730B840BD1
:10416000BAF09150A1F0FF0FBB1F661F771F881F89
:10417000C2F70EC0BA0F621F731F841F48F48795E1
:1041800077956795B795F7959E3F08F0B3CF9395D0
:10419000880F08F09927EE0F9795879508950CD012
:1041A00002CFFADE40F0F1DE30F021F45F3F19F08B
:1041B000E3CE51112CCFE6CE07DF98F39923C9F354
:1041C0005523B1F3951B550BBB27AA27621773071D
:1041D000840738F09F5F5F4F220F331F441FAA1FD1
:1041E000A9F333D00E2E3AF0E0E830D09150504091
:1041F000E695001CCAF729D0FE2F27D0660F771F3F
:10420000881FBB1F261737074807AB07B0E809F020
:10421000BB0B802DBF01FF2793585F4F2AF09E3FB5
:10422000510568F0A9CEF3CE5F3FECF3983EDCF386
:10423000869577956795B795F7959F5FC9F7880F2E
:10424000911D9695879597F90895E1E0660F771F80
:10425000881FBB1F621773078407BA0720F0621B11
:10426000730B840BBA0BEE1F88F7E095089504D00A
:104270006894B111CCCE0895AFDE88F09F5790F0CE
:10428000B92F9927B751A0F0D1F0660F771F881F7B
:10429000991F1AF0BA95C9F712C0B13081F0B6DE95
:1042A000B1E00895B3CE672F782F8827B85F39F033
:1042B000B93FCCF3869577956795B395D9F73EF4DA
:1042C00090958095709561957F4F8F4F9F4F089582
:1042D000CCDD08F48FEF0895991B79E004C0991F95
:1042E000961708F0961B881F7A95C9F78095089550
:1042F00097FB072E16F4009406D077FD08D013D054
:1043000007FC05D03EF4909581959F4F08957095D8
:1043100061957F4F0895EE0FFF1F881F8BBF079099
:10432000F691E02D1994AA1BBB1B51E107C0AA1FEF
:10433000BB1FA617B70710F0A61BB70B881F991F46
:104340005A95A9F780959095BC01CD0108950F93DA
:104350001F93CF93DF938230910510F482E090E0B9
:10436000E0918505F091860520E030E0A0E0B0E026
:10437000309719F140815181028113814817590703
:10438000C8F08417950769F4109731F012960C93D2
:10439000129713961C9327C00093850510938605EA
:1043A00022C02115310519F04217530718F49A015C
:1043B000BD01EF01DF01F801DBCF21153105F9F077
:1043C000281B390B2430310580F48A819B816115CB
:1043D000710521F0FB019383828304C090938605CD
:1043E00080938505FE01329644C0FE01E20FF31F63
:1043F0008193919322503109398328833AC02091C7
:10440000830530918405232B41F4209112023091D1
:10441000130230938405209383052091100230917C
:1044200011022115310541F42DB73EB74091140218
:1044300050911502241B350BE0918305F091840502
:10444000E217F307A0F42E1B3F0B2817390778F06B
:10445000AC014E5F5F4F2417350748F04E0F5F1FCA
:1044600050938405409383058193919302C0E0E0CB
:10447000F0E0CF01DF91CF911F910F910895CF937D
:10448000DF93009709F481C0FC01329713821282F6
:10449000A0918505B0918605109781F42081318126
:1044A000820F931F209183053091840528173907C7
:1044B00051F5F0938405E093830567C0ED0120E09A
:1044C00030E0CE17DF0740F44A815B819E01411541
:1044D0005105F1F0EA01F5CFD383C28340815181C8
:1044E000840F951FC817D90759F488819981840FC3
:1044F000951F0296918380838A819B819383828317
:104500002115310529F4F0938605E09385053DC01A
:10451000E901FB83EA8349915991C40FD51FEC1738
:10452000FD0761F480819181840F951F0296E90156
:1045300099838883828193819B838A83E0E0F0E082
:1045400012968D919C911397009719F0FD01DC0153
:10455000F7CF8D919C9111979D012E5F3F4F820F58
:10456000931F20918305309184052817390769F43A
:10457000309729F4109286051092850502C01382A7
:104580001282B0938405A0938305DF91CF910895A3
:1045900081E090E0F89412C0FB01DC0102C00190C0
:1045A0000D9241505040D8F70895FB01DC018D91E8
:1045B000019080190110D9F3990B0895F894FFCF59
:1045C0003407340734073407340734073407340713
:1045D0000000870580000000000059016407080AF8
:1045E0005B070000000014060A17AC056006DD0535
:1045F000BB05CF05CDCCCC3D0AD7233C17B7D1386E
:1046000077CC2B329595E6241FB14F0A000020414C
:104610000000C84200401C4620BCBE4CCA1B0E5ABB
:10462000AEC59D740000803FCDCCCC3D6F12833A67
:1046300095BFD6337D1D9026B3CE010C000000003F
:10464000590176077607760700000000A30E910E49
:10465000ED0E480F000000003507CD09537465705A
:10466000706572204D6F746F7200456E64204566F0
:10467000666563746F7200506F6C617220424541D1
:104680005220536574757020436F6D706C6574654E
:1046900000436F6D6D616E64004F70656E004F700A
:1046A000656E65640052756E0053746570005479D0
:1046B00070650054696C740044656C6179004C65E8
:1046C0006E67746800486F6D6500436F6D706F6E44
:1046D000656E7400526F746174696F6E0045787412
:1046E000656E73696F6E00556E6B6E6F776E2048E6
:1046F0006F6D6520436F6D706F6E656E743B004427
:10470000697374616E63650054696C7444656772A3
:1047100065657300526F746174696F6E446567728A
:1047200065657300556E6B6E6F776E2053746570A0
:1047300020547970653B0046696E69736865640052
:1047400052656164790053746F700053746F7070B8
:10475000656400436C6F736500436C6F7365640040
:1047600057616974696E67006D6F76653B005374BD
:104770006172743B0053746172742D50726573736F
:1047800065643B005374617475730022225C5C6243
:1047900008660C6E0A720D7409006E756C6C002050
:1047A00020002C0D0A00652D005B5D005B0D0A00EA
:1047B0007B7D007B0D0A003A2000747275650066EF
:1047C000616C7365004C696D69742053776974631B
:1047D000680051756164726174757265204D6F7403
:1047E0006F7200526F7567686C7920457175616CE6
:0247F0003B008C
:020000023000CC
:10E000000D9489F10D94B2F10D94B2F10D94B2F129
:10E010000D94B2F10D94B2F10D94B2F10D94B2F1F0
:10E020000D94B2F10D94B2F10D94B2F10D94B2F1E0
:10E030000D94B2F10D94B2F10D94B2F10D94B2F1D0
:10E040000D94B2F10D94B2F10D94B2F10D94B2F1C0
:10E050000D94B2F10D94B2F10D94B2F10D94B2F1B0
:10E060000D94B2F10D94B2F10D94B2F10D94B2F1A0
:10E070000D94B2F10D94B2F10D94B2F10D94B2F190
:10E080000D94B2F10D94B2F10D94B2F10D94B2F180
:10E090000D94B2F10D94B2F10D94B2F10D94B2F170
:10E0A0000D94B2F10D94B2F10D94B2F10D94B2F160
:10E0B0000D94B2F10D94B2F10D94B2F10D94B2F150
:10E0C0000D94B2F10D94B2F10D94B2F10D94B2F140
:10E0D0000D94B2F10D94B2F10D94B2F10D94B2F130
:10E0E0000D94B2F141546D656761323536300041AF
:10E0F000726475696E6F206578706C6F72657220DE
:10E1000073746B3530305632206279204D4C530099
:10E11000426F6F746C6F616465723E004875683F52
:10E1200000436F6D70696C6564206F6E203D200048
:10E130004350552054797065202020203D20005FF9
:10E140005F4156525F415243485F5F3D2000415658
:10E1500052204C696243205665723D20004743437C
:10E160002056657273696F6E203D20004350552024
:10E1700049442020202020203D20004C6F7720663D
:10E18000757365202020203D20004869676820665F
:10E190007573652020203D200045787420667573D6
:10E1A00065202020203D20004C6F636B2066757336
:10E1B000652020203D20004D617220203720323024
:10E1C000313300312E362E3800342E332E350056A2
:10E1D00023202020414444522020206F7020636F70
:10E1E00064652020202020696E73747275637469E1
:10E1F0006F6E2061646472202020496E74657272B3
:10E20000757074006E6F20766563746F7200726A49
:10E210006D702020006A6D70200057686174207056
:10E220006F72743A00506F7274206E6F7420737541
:10E2300070706F72746564004D7573742062652030
:10E2400061206C6574746572002000577269747483
:10E25000696E672045450052656164696E672045B7
:10E26000450045452065727220636E743D00504F35
:10E27000525400303D5A65726F2061646472003FF1
:10E280003D43505520737461747300403D454550C3
:10E29000524F4D207465737400423D426C696E6B41
:10E2A000204C454400453D44756D70204545505215
:10E2B0004F4D00463D44756D7020464C415348001B
:10E2C000483D48656C70004C3D4C69737420492F83
:10E2D0004F20506F72747300513D51756974005234
:10E2E0003D44756D702052414D00563D73686F7707
:10E2F00020696E7465727275707420566563746FF0
:10E30000727300593D506F727420626C696E6B00BD
:10E310002A0011241FBECFEFD1E2DEBFCDBF01E046
:10E320000CBF12E0A0E0B2E0EEE1FDEF03E00BBFB6
:10E3300002C007900D92A030B107D9F712E0A0E01B
:10E34000B2E001C01D92AE30B107E1F70F9460F367
:10E350000D948DFE01E20EBF0FEF0DBF11241FBE05
:10E360000D9460F30D9400F020E030E040ED57E0B4
:10E3700005C0FA013197F1F72F5F3F4F2817390792
:10E38000C0F308959C01260F311DC901A0E0B0E043
:10E390002F5F3F4FABBFFC018791882361F08093D3
:10E3A000C6008091C00086FFFCCF8091C0008064D1
:10E3B0008093C000EACF08958DE08093C6008091DD
:10E3C000C00086FFFCCF8091C00080648093C000B5
:10E3D0008AE08093C6008091C00086FFFCCF8091C8
:10E3E000C00080648093C00008950F94C2F10F9420
:10E3F000DCF10895FC019081992359F09093C600B7
:10E400008091C00086FFFCCF8091C0008064809323
:10E41000C0003196992379F70895282F982F929567
:10E420009F70892F805D8A3308F0895F8093C600D2
:10E430008091C00086FFFCCF8091C00080648093F3
:10E44000C000822F8F70982F905D9A3308F0995FEB
:10E450009093C6008091C00086FFFCCF8091C000E1
:10E4600080648093C00008959C01FB01853691056E
:10E470001CF46330710594F0C90164E670E00F94F8
:10E480002EFE605D7F4F6093C6008091C00086FFC6
:10E49000FCCF8091C00080648093C0002B30310598
:10E4A00014F43297B4F0C90164E670E00F942EFEC4
:10E4B0006AE070E00F942EFE605D7F4F6093C600AF
:10E4C0008091C00086FFFCCF8091C0008064809363
:10E4D000C000C9016AE070E00F942EFEC0968093E0
:10E4E000C6008091C00086FFFCCF8091C000806490
:10E4F0008093C00008951F93182F8EE692EE60E07F
:10E500000F94C2F11093C6008091C00086FFFCCF2B
:10E510008091C00080648093C0000F94DCF11F9153
:10E5200008952F923F924F925F926F927F928F92B7
:10E530009F92AF92BF92CF92DF92EF92FF920F9392
:10E540001F93DF93CF93CDB7DEB762970FB6F894E2
:10E55000DEBF0FBECDBF382E622ECA01DB015C01CB
:10E560006D01772420E2222E2E010894411C511CBB
:10E570008BC081E0A81680E0B80681E0C80680E084
:10E58000D80628F0C601AA27BB270F940DF2BB2797
:10E59000AD2D9C2D8B2D0F940DF28A2D0F940DF225
:10E5A0002092C6008091C00086FFFCCF8091C00001
:10E5B00080648093C0009DE29093C6008091C0006B
:10E5C00086FFFCCF8091C00080648093C0002092C1
:10E5D000C6008091C00086FFFCCF8091C00080649F
:10E5E0008093C00019828601750188249924A1E0D6
:10E5F0003A1651F03A1620F0B2E03B1661F409C029
:10E600000BBFF701779007C0C7010F9477FE782EF4
:10E6100002C0F7017080872D0F940DF22092C60082
:10E620008091C00086FFFCCF8091C0008064809301
:10E63000C000872D8052F401EF70F0708F3520F408
:10E64000E40DF51D708204C0E40DF51D8EE280839B
:10E650000894E11CF11C011D111D0894811C911CE2
:10E6600090E18916910409F0C2CF80E190E0A0E02A
:10E67000B0E0A80EB91ECA1EDB1E198AC2010F9493
:10E68000FAF10F94DCF16A94662009F072CF629679
:10E690000FB6F894DEBF0FBECDBFCF91DF911F91B3
:10E6A0000F91FF90EF90DF90CF90BF90AF909F9031
:10E6B0008F907F906F905F904F903F902F90089534
:10E6C0002F923F924F925F926F927F928F929F9282
:10E6D000AF92BF92CF92DF92EF92FF920F931F9370
:10E6E000DF93CF93CDB7DEB7CD53D1400FB6F894BB
:10E6F000DEBF0FBECDBF01E20EBF0FEF0DBF94B75F
:10E70000F894A89514BE80916000886180936000A1
:10E7100010926000789493FF05C0E0910002F091A0
:10E7200001021995279A2F9A8091C00082608093E8
:10E73000C00080E18093C40088E18093C1000000A4
:10E74000EE24FF24870144E0A42EB12CCC24DD2448
:10E7500024C0C5010197F1F70894E11CF11C011DCB
:10E76000111D21E2E2162EE4F20620E0020720E06D
:10E77000120718F031E0C32ED12CC801B70127ECE5
:10E780003BE140E050E00F9441FE611571058105C9
:10E79000910519F485B1805885B98091C00087FD35
:10E7A00003C0C114D104A9F2A6014F5F5F4FC25E3E
:10E7B000DE4F59834883CE51D140C25EDE4F8881FF
:10E7C0009981CE51D140019711F00D9410FEC05D9A
:10E7D000DE4F19821882C053D14060E0C15DDE4F28
:10E7E0001882CF52D14088249924C35DDE4F19820C
:10E7F0001882CD52D140C05EDE4F188219821A8233
:10E800001B82C052D140CE5CDE4F188219821A8220
:10E810001B82C253D140EE24FF2487010BBFF701B6
:10E8200007911691C45CDE4F19830883CC53D14005
:10E830000D940BFEC25EDE4F28813981CE51D1404E
:10E840002130310509F52091C600C25EDE4F1982E4
:10E850001882CE51D14022C02F5F3F4F4F4F5F4FA4
:10E86000213082E138078AE7480780E0580780F0C6
:10E87000C45CDE4FE881F981CC53D140EF5FFF4F9C
:10E8800019F0EE27FF27099420E030E040E050E047
:10E890008091C00087FFE0CF2091C600C35DDE4FAE
:10E8A00048815981CD52D1404F5F5F4FC35DDE4FEC
:10E8B00059834883CD52D140213209F063C64A3092
:10E8C000510508F05FC60894811C911C53E0851621
:10E8D000910409F059C600E010E018C081E280936D
:10E8E000C6008091C00086FFFCCF8091C00080648C
:10E8F0008093C0002F5F3F4F2931310579F70F9486
:10E90000DCF10F5F1F4F0530110519F020E030E0FA
:10E91000E5CF10920A0210920B0210920C02109294
:10E920000D02109206021092070210920802109235
:10E930000902109202021092030210920402109235
:10E9400005028FEE90EE60E00F94F5F180E191EE1C
:10E9500060E00F94C2F18091C00087FFFCCF9091DE
:10E96000C600903608F09F759032B8F09093C600BC
:10E970008091C00086FFFCCF8091C00080648093AE
:10E98000C000A0E2A093C6008091C00086FFFCCF2B
:10E990008091C00080648093C000983409F4D7C18E
:10E9A0009934B8F4923409F459C1933458F490333B
:10E9B00019F1903308F4E3C59F33A1F1903409F0C5
:10E9C000DEC5BDC0953409F470C1963409F0D7C5D1
:10E9D00098C1923509F42BC2933538F49C3409F46C
:10E9E000F5C1913509F0CBC518C2963509F445C279
:10E9F000993509F0C4C567C483E792EE62E00F94CD
:10EA0000F5F110920602109207021092080210927D
:10EA1000090210920A0210920B0210920C0210923C
:10EA20000D0213C18FE792EE62E00F94F5F18FEEC5
:10EA300090EE60E00F94F5F181E291EE60E00F94CA
:10EA4000C2F187EB91EE60E00F94F5F180E391EE77
:10EA500060E00F94C2F184EE90EE60E00F94F5F167
:10EA60008FE391EE60E00F94C2F186E090E061E008
:10EA700070E00F9434F20F94DCF18DE591EE60E0DC
:10EA80000F94C2F189EC91EE60E00F94F5F18EE401
:10EA900091EE60E00F94C2F183EC91EE60E00F9490
:10EAA000F5F18CE691EE60E00F94C2F18EE10F94E7
:10EAB0000DF288E90F940DF281E00F940DF20F949E
:10EAC000DCF18BE791EE60E00F94C2F119E0E0E039
:10EAD000F0E010935700E4918E2F0F940DF20F94F5
:10EAE000DCF18AE891EE60E00F94C2F1E3E0F0E03F
:10EAF00010935700E4918E2F0F940DF20F94DCF1D8
:10EB000089E991EE60E00F94C2F1E2E0F0E0109349
:10EB10005700E4918E2F0F940DF20F94DCF188EAE8
:10EB200091EE60E00F94C2F1E1E0F0E01093570045
:10EB30001491812F0F940DF20F94DCF107CF8BE825
:10EB400092EE62E00F94F5F18BE492EE60E00F94A8
:10EB5000F5F10F94DCF100E010E019C0C8016F2D51
:10EB60000F947FFEFF2031F489E492EE60E00F9471
:10EB7000C2F10BC0F092C6008091C00086FFFCCFAE
:10EB80008091C00080648093C0000F5F1F4FC80158
:10EB900081519F41A0E0B0E0ABBFFC01F790BAE229
:10EBA000FB1621F0E2E000301E07C1F60F94DCF105
:10EBB0000F94DCF187E592EE60E00F94F5F10F948D
:10EBC000DCF1CC24DD2400E010E01EC0C8010F946D
:10EBD00077FEF82E882331F489E492EE60E00F94FA
:10EBE000C2F10BC08093C6008091C00086FFFCCFAD
:10EBF0008091C00080648093C000FE1419F00894D6
:10EC0000C11CD11C0F5F1F4FC80181519F41A0E063
:10EC1000B0E0ABBFFC01E790FAE2EF1621F022E092
:10EC20000030120799F60F94DCF10F94DCF182E6C4
:10EC300092EE60E00F94C2F1C60161E070E00F94C3
:10EC400034F20F94DCF10F94DCF110920202109276
:10EC50000302109204021092050278CE89E992EE26
:10EC600062E00F94F5F1279A2F9A16C02F9880E052
:10EC700090E0E0EDF7E03197F1F7019684369105E9
:10EC8000C1F72F9A80E090E0E0EDF7E03197F1F7DF
:10EC9000019684369105C1F78091C00087FFE6CFC9
:10ECA0008091C00087FFFCCF64C485EA92EE62E0E9
:10ECB0000F94F5F140910202509103026091040219
:10ECC0007091050281E020E10F9491F2809102029F
:10ECD00090910302A0910402B091050280509F4FD1
:10ECE000AF4FBF4F8093020290930302A0930402A0
:10ECF000B093050280509041A040B04008F426CE69
:10ED0000A4CF83EB92EE62E00F94F5F140910602FE
:10ED100050910702609108027091090280E020E1A1
:10ED20000F9491F28091060290910702A09108023F
:10ED3000B091090280509F4FAF4FBF4F80930602A2
:10ED400090930702A0930802B0930902FFCD80ECD4
:10ED500092EE62E00F94F5F183E792EE60E00F949B
:10ED6000F5F18FE792EE60E00F94F5F18BE892EE0B
:10ED700060E00F94F5F189E992EE60E00F94F5F10F
:10ED800085EA92EE60E00F94F5F183EB92EE60E09D
:10ED90000F94F5F180EC92EE60E00F94F5F187ECC2
:10EDA00092EE60E00F94F5F188ED92EE60E00F9442
:10EDB000F5F18FED92EE60E00F94F5F18AEE92EEB0
:10EDC00060E00F94F5F183E093EEBDCD87EC92EE19
:10EDD00062E00F94F5F181E40F947BF282E40F94EA
:10EDE0007BF283E40F947BF284E40F947BF285E45E
:10EDF0000F947BF286E40F947BF287E40F947BF20E
:10EE000088E40F947BF28AE40F947BF28BE40F94F6
:10EE10007BF28CE40F947BF299CD88ED92EE62E068
:10EE20000F94F5F1772473948824992409C48FED05
:10EE300092EE62E00F94F5F140910A0250910B02BC
:10EE400060910C0270910D0282E020E10F9491F22A
:10EE500080910A0290910B02A0910C02B0910D02D8
:10EE600080509F4FAF4FBF4F80930A0290930B0289
:10EE7000A0930C02B0930D0269CD8AEE92EE62E08F
:10EE80000F94F5F184EE90EE60E00F94F5F18FECC5
:10EE900091EE60E00F94F5F1662477244301CC5D98
:10EEA000DE4F19821882C452D140D401C301B695F5
:10EEB000A79597958795CA5DDE4F88839983AA8326
:10EEC000BB83C652D140CC5DDE4FA881B981C4520C
:10EED000D1401196CC5DDE4FB983A883C452D14096
:10EEE000CD0162E070E00F9434F2B0E2B093C6005E
:10EEF0008091C00086FFFCCF8091C0008064809329
:10EF0000C000EDE2E093C6008091C00086FFFCCF18
:10EF10008091C00080648093C000F0E2F093C6004E
:10EF20008091C00086FFFCCF8091C00080648093F8
:10EF3000C000CA5DDE4FE880F9800A811B81C6529D
:10EF4000D140BB27A12F902F8F2D0F940DF2CA5DBA
:10EF5000DE4F8881C652D1400F940DF2B0E2FB2EF5
:10EF6000F092C6008091C00086FFFCCF8091C00067
:10EF700080648093C0000DE30093C6008091C000C0
:10EF800086FFFCCF8091C00080648093C00010E2B7
:10EF90001093C6008091C00086FFFCCF8091C00016
:10EFA00080648093C0008BBEF3012791C65DDE4F65
:10EFB0002883CA52D140A22EBB24CC24DD2408943D
:10EFC000611C711C811C911C8BBEF3018791282E42
:10EFD0003324442455240894611C711C811C911C09
:10EFE0008BBEF3013791C55DDE4F3883CB52D140E4
:10EFF0000894611C711C811C911C8BBEF30147910C
:10F00000C45DDE4F4883CC52D140ADEFEA2EAFEF66
:10F01000FA2EAFEF0A2FAFEF1A2F6E0C7F1C801E57
:10F02000911E142D032DF22CEE24EA0CFB1C0C1D5A
:10F030001D1D0F940DF220E22093C6008091C000A8
:10F0400086FFFCCF8091C00080648093C000C65DC5
:10F05000DE4F8881CA52D1400F940DF230E23093D6
:10F06000C6008091C00086FFFCCF8091C000806404
:10F070008093C000C45DDE4F8881CC52D1400F9494
:10F080000DF240E24093C6008091C00086FFFCCFA5
:10F090008091C00080648093C000C55DDE4F888190
:10F0A000CB52D1400F940DF250E25093C6008091A4
:10F0B000C00086FFFCCF8091C00080648093C000B8
:10F0C0008FEFE8168FEFF80680E0080780E018075A
:10F0D00031F484E092EE60E00F94C2F1DFC0D80119
:10F0E000C7018070907CA070B0708050904CA040A0
:10F0F000B040D1F52FEF3FE340E050E0E222F322B1
:10F1000004231523CA5DDE4FA880B980CA80DB8046
:10F11000C652D140AE0CBF1CC01ED11EAA0CBB1CD7
:10F12000CC1CDD1C8EE092EE60E00F94C2F1BB2798
:10F13000A12F902F8F2D0F940DF28E2D0F940DF285
:10F1400030E23093C6008091C00086FFFCCF8091F2
:10F15000C00080648093C0004EE34093C60080915D
:10F16000C00086FFFCCF87C08EE09EEFA0E0B0E03D
:10F17000E822F9220A231B239CE0E91694E9F90608
:10F1800090E0090790E0190709F088C0C45DDE4FE0
:10F19000A881CC52D140EA2EFF2400E010E0102FCD
:10F1A0000F2DFE2CEE24C55DDE4FB881CB52D14031
:10F1B000EB0EF11C011D111DD601C501817090706F
:10F1C000A070B070DC0199278827E80EF91E0A1F8D
:10F1D0001B1F20EF30E040E050E0A222B322C42207
:10F1E000D52241E1AA0CBB1CCC1CDD1C4A95D1F7F1
:10F1F000EA0CFB1C0C1D1D1D81E090E0A0E0B0E0BE
:10F20000282239224A225B2235E1220C331C441C7D
:10F21000551C3A95D1F7E20CF31C041D151D57013E
:10F220006801AA0CBB1CCC1CDD1C85E192EE60E0E1
:10F230000F94C2F1C801AA27BB270F940DF2BB2778
:10F24000A12F902F8F2D0F940DF28E2D0F940DF274
:10F2500090E29093C6008091C00086FFFCCF809121
:10F26000C00080648093C000AEE3A093C60080918C
:10F27000C00086FFFCCF8091C00080648093C000F6
:10F28000C601AA27BB270F940DF2BB27AD2D9C2DDD
:10F290008B2D0F940DF28A2D0F940DF20F94DCF14B
:10F2A000CC5DDE4FE881F981C452D140F99709F471
:10F2B0004DCBF4E0EF2EF12C012D112D6E0C7F1CA7
:10F2C000801E911EF2CD83E093EE62E00F94F5F183
:10F2D0008AE192EE60E00F94C2F18091C00087FF56
