:1000000026C10000EAC50000BDC5000090C5000083
:1000100063C5000036C5000009C50000DCC400004F
:10002000AFC4000045C1000043C1000041C1000051
:100030003FC100003DC100003BC1000039C10000CC
:1000400037C1000035C1000033C1000031C10000DC
:100050002FC100002DC100002BC1000047C40000CB
:1000600027C100000C94B8080C948F0821C100002F
:100070001FC100001DC100001BC1000019C100000C
:1000800017C1000015C1000013C1000011C100001C
:100090000FC100000DC100000BC1000009C100002C
:1000A00007C1000005C1000003C1000001C100003C
:1000B000FFC00000FDC00000FBC00000F9C0000050
:1000C000F7C00000F5C00000F3C00000F1C0000060
:1000D000EFC00000EDC00000EBC00000E9C0000070
:1000E000E7C00000B801BB01AA01AE01B401F201F2
:1000F000BF01C301C901CD01D101D701DB01DF017E
:10010000F201E501E901ED01C703CC03D103DB03F3
:10011000E5035E04EF03F703FF03090413041D0462
:100120002C0436045E0440044A04540400002000F9
:100130002300260029002C002F00320000010000BF
:1001400003010601090100002100240027002A0004
:100150002D003000330001010000040107010A01F5
:1001600000002200250028002B002E003100340062
:1001700002010000050108010B0105050505070541
:1001800008080808020202020A0A08080404040413
:10019000010101010101010103030303030303033F
:1001A000040707070C0C0C0C0C0C0C0C02020202CE
:1001B00006060606060606060B0B0B0B0B0B0B0BB7
:1001C0000102102020080810204010204080020169
:1001D000020108040201010204081020408080404E
:1001E000201008040201800402018040201008044D
:1001F00002010804020101020408102040800102EB
:1002000004081020408000000A0B02090C0D0E08A3
:1002100007030401000000000000000000000000CF
:1002200000000000000000000000000000000000CE
:10023000000012111000000000000000000000008B
:10024000000000000000000000000000210D11244B
:100250001FBECFEFD1E2DEBFCDBF00E00CBF23E079
:10026000A2ECB2E001C01D92AA3CB207E1F712E095
:10027000A0E0B2E0ECEAFDE100E00BBF02C00790B5
:100280000D92A23CB107D9F711E0C7E2D1E000E03E
:1002900006C021970109802FFE010E94A70DC632DA
:1002A000D10780E00807A9F70E94D80A0C94D40E61
:1002B000A7CEFC01918D228D892F90E0805C9F4F0D
:1002C000821B91098F739927089580E090E0892B14
:1002D00019F0AFD6811125C080E090E0892B41F064
:1002E00080E090E0892B21F00E94000081111CC069
:1002F00080E090E0892B41F080E090E0892B21F0B4
:100300000E940000811113C080E090E0892BA1F0D1
:1003100080E090E0892B81F00E94000081110AC0EA
:1003200008950E940000D8CF0E940000E1CF0E94F3
:100330000000EACF0C940000089590E0FC01319792
:10034000E231F10508F04EC08827EE58FF4F8F4F7D
:100350000C94A70D809180008F7703C0809180005E
:100360008F7D80938000089580918000877FF9CFF2
:1003700084B58F7702C084B58F7D84BD0895809148
:10038000B0008F7703C08091B0008F7D8093B00064
:100390000895809190008F7707C0809190008F7DA5
:1003A00003C080919000877F809390000895809192
:1003B000A0008F7707C08091A0008F7D03C080913F
:1003C000A000877F8093A0000895809120018F77FF
:1003D00007C0809120018F7D03C080912001877F1D
:1003E0008093200108950895CF93DF93FC01218528
:1003F00030E0F901EA5FFD4F8491F901E054FE4FCE
:10040000D491F901E658FE4FC491CC2371F08111CB
:1004100094DFEC2FF0E0EE0FFF1FE45DFE4FA5919F
:10042000B491EC91ED2381E009F480E08170DF91DB
:10043000CF910895DC01ED91FC910190F081E02DC8
:1004400062E070E01994FC01738362830895FC01FB
:1004500073836283672B11F41586148608958231A5
:1004600009F466C0B8F4823069F1833009F073C0D2
:100470007093C5026093C40286EF96E090930302E6
:100480008093020280916A00837F846080936A0077
:10049000ED9A5FC0843141F1C8F1853109F05BC04C
:1004A0007093C7026093C60281EF96E090930502B5
:1004B00080930402809169008C7F81608093690041
:1004C000E89A47C07093C3026093C2028BEF96E034
:1004D000909301028093000280916A008C7F81607A
:1004E00080936A00EC9A35C07093C9026093C80289
:1004F0008CEE96E09093070280930602809169004B
:10050000837F846080936900E99A23C07093CB0253
:100510006093CA0287EE96E09093090280930802E6
:10052000809169008F7C806180936900EA9A11C094
:100530007093CD026093CC0282EE96E090930B0212
:1005400080930A02809169008F73806480936900B0
:10055000EB9A81E0089580E008950E94D00ECF9339
:10056000DF93FC0124853585232B61F4EC0162893E
:10057000738941E050E0E5D6882321F081E090E0E6
:100580009D878C87DF91CF910895FC01848DDF01D9
:10059000A80FB11DA35ABF4F2C91848D90E00196F6
:1005A0008F739927848FA689B7892C93A089B189E5
:1005B0008C91837080648C93938D848D981306C086
:1005C0000288F389E02D80818F7D808308951F93B9
:1005D000CF93DF93282F30E0F901EA5FFD4F84913C
:1005E000F901E054FE4FD491F901E658FE4FC49151
:1005F000CC23B9F0162F8111A0DEEC2FF0E0EE0F26
:10060000FF1FE05AFE4FA591B4919FB7F8941111C6
:1006100004C08C91D095D82302C0EC91DE2BDC93E2
:100620009FBFDF91CF911F910895CF92DF92EF92FC
:10063000FF920F931F93CF93DF93DC011496CD901D
:10064000DC9015971A96ED90FC901B97CE14DF0462
:1006500081F4ED91FC910190F081E02D62E070E079
:10066000DF91CF911F910F91FF90EF90DF90CF908E
:100670001994F89461E0EC14FD040CF060E0EC01D6
:100680008885A5DF61E08E81A2DF0BE91FE0C8014C
:100690000197F1F760E08E819ADFC8010197F1F7C9
:1006A00078948A859B85EC14FD0414F4019601C0AE
:1006B00001979B878A87DF91CF911F910F91FF90C0
:1006C000EF90DF90CF900895CF93DF9390E0FC01FF
:1006D000E054FE4F2491FC01E658FE4F849188239C
:1006E00061F190E0880F991FFC01EA5BFE4FC59114
:1006F000D491FC01E05AFE4FA591B491611109C05B
:100700009FB7F8948881209582238883EC912E23CB
:100710000BC0623061F49FB7F8948881322F309516
:1007200083238883EC912E2B2C939FBF06C08FB719
:10073000F894E8812E2B28838FBFDF91CF91089505
:100740001F93CF93DF93182FEB0161E0BDDF20975C
:1007500011F460E004C0CF3FD10531F461E0812F96
:10076000DF91CF911F9133CFE12FF0E0EA5FFD4F92
:10077000E4918E2F90E0FC013197E231F10508F011
:100780009DC08827EC57FF4F8F4F0C94A70D84B561
:10079000806884BDC7BD97C084B5806284BDC8BD74
:1007A00092C080918000806880938000D0938900FF
:1007B000C093880088C08091800080628093800010
:1007C000D0938B00C0938A007EC0809180008860A7
:1007D00080938000D0938D00C0938C0074C0809172
:1007E000B00080688093B000C093B3006CC080916B
:1007F000B00080628093B000C093B40064C0809168
:100800009000806880939000D0939900C0939800E6
:100810005AC080919000806280939000D0939B009A
:10082000C0939A0050C0809190008860809390009F
:10083000D0939D00C0939C0046C08091A00080682A
:100840008093A0008091A0008F7B8093A000D09324
:10085000A900C093A80037C08091A0008062809357
:10086000A000D093AB00C093AA002DC08091A0003F
:1008700088608093A000D093AD00C093AC0023C0EB
:1008800080912001806880932001D0932901C0933A
:10089000280119C080912001806280932001D093AB
:1008A0002B01C0932A010FC08091200188608093A2
:1008B0002001D0932D01C0932C0105C0C038D10573
:1008C0000CF04CCF46CFDF91CF911F910895862F2A
:1008D000642FFACE2FB7F8946091D3027091D402AE
:1008E0008091D5029091D6022FBF08951F920F924A
:1008F0000FB60F9211242F933F938F939F93AF9333
:10090000BF938091D3029091D402A091D502B0916F
:10091000D6023091D20223E0230F2D3720F4019626
:10092000A11DB11D05C026E8230F0296A11DB11D12
:100930002093D2028093D3029093D402A093D50245
:10094000B093D6028091CE029091CF02A091D002B6
:10095000B091D1020196A11DB11D8093CE0290935A
:10096000CF02A093D002B093D102BF91AF919F91DB
:100970008F913F912F910F900FBE0F901F90189560
:100980001F920F920FB60F9211240BB60F922F9356
:100990003F934F935F936F937F938F939F93AF9307
:1009A000BF93EF93FF93E0910E02F0910F02199520
:1009B000FF91EF91BF91AF919F918F917F916F9137
:1009C0005F914F913F912F910F900BBE0F900FBEF3
:1009D0000F901F9018951F920F920FB60F9211242F
:1009E0000BB60F922F933F934F935F936F937F9329
:1009F0008F939F93AF93BF93EF93FF93E0910C027C
:100A0000F0910D021995FF91EF91BF91AF919F91D8
:100A10008F917F916F915F914F913F912F910F90A7
:100A20000BBE0F900FBE0F901F9018951F920F9244
:100A30000FB60F9211240BB60F922F933F934F9343
:100A40005F936F937F938F939F93AF93BF93EF9336
:100A5000FF93E0910202F09103021995FF91EF914B
:100A6000BF91AF919F918F917F916F915F914F91C6
:100A70003F912F910F900BBE0F900FBE0F901F90C4
:100A800018951F920F920FB60F9211240BB60F926A
:100A90002F933F934F935F936F937F938F939F9386
:100AA000AF93BF93EF93FF93E0910002F0910102A7
:100AB0001995FF91EF91BF91AF919F918F917F9188
:100AC0006F915F914F913F912F910F900BBE0F90BF
:100AD0000FBE0F901F9018951F920F920FB60F9296
:100AE00011240BB60F922F933F934F935F936F9305
:100AF0007F938F939F93AF93BF93EF93FF93E09177
:100B00000A02F0910B021995FF91EF91BF91AF91FD
:100B10009F918F917F916F915F914F913F912F9115
:100B20000F900BBE0F900FBE0F901F9018951F9245
:100B30000F920FB60F9211240BB60F922F933F9383
:100B40004F935F936F937F938F939F93AF93BF93D5
:100B5000EF93FF93E0910802F09109021995FF913C
:100B6000EF91BF91AF919F918F917F916F915F9125
:100B70004F913F912F910F900BBE0F900FBE0F9092
:100B80001F9018951F920F920FB60F9211240BB65B
:100B90000F922F933F934F935F936F937F938F9316
:100BA0009F93AF93BF93EF93FF93E0910602F09171
:100BB00007021995FF91EF91BF91AF919F918F918E
:100BC0007F916F915F914F913F912F910F900BBE4D
:100BD0000F900FBE0F901F9018951F920F920FB697
:100BE0000F9211240BB60F922F933F934F935F9365
:100BF0006F937F938F939F93AF93BF93EF93FF93E5
:100C0000E0910402F09105021995FF91EF91BF91D7
:100C1000AF919F918F917F916F915F914F913F9194
:100C20002F910F900BBE0F900FBE0F901F90189535
:100C30000F931F93CF93DF938C0161308FEF780771
:100C400014F461E07FEFEB016F3F710519F014F0D0
:100C5000CFEFD0E0F80180819181009719F00197E2
:100C6000C1F030C0D7FD06C0BE01F801828168DD49
:100C700060E008C0662777276C1B7D0BF801828136
:100C80005FDD61E0F8018381DF91CF911F910F91CA
:100C90009ECCD7FD07C0BE01F801828151DD60E026
:100CA00070E009C060E070E0F801828149DD6627EC
:100CB00077276C1B7D0BF8018381DF91CF911F910A
:100CC0000F913ECDDF91CF911F910F910895DC01DF
:100CD000ED91FD918081ED91FD919081ED91FD91DE
:100CE0006C9163708E2309F064609F2309F0686043
:100CF000E4E8F6E0E60FF11D659565956D936D915D
:100D00007D918D919D91099423C01AC012C016C087
:100D100010C01EC009C014C013C006C019C009C04D
:100D20000DC007C00DC014C062507040804090409C
:100D30000BC0615070408040904006C06E5F01C0A3
:100D40006F5F7F4F8F4F9F4F9E938E937E936E93D7
:100D500008950F931F93CF93DF93FC012285338572
:100D60002115310521F02130310529F026C0FC0183
:100D7000628973891DC0EC0100891189F80183859E
:100D8000823020F4F894C801A2DF01C0F894F80181
:100D900087819085A185B2857894288539858217C9
:100DA00093071CF46A897B8902C06C897D89CE0116
:100DB000DF91CF911F910F91F0C2DF91CF911F91E1
:100DC0000F9108958091CC029091CD0280CF8091B7
:100DD000CA029091CB027BCF8091C8029091C90248
:100DE00076CF8091C6029091C70271CF8091C402E4
:100DF0009091C5026CCF8091C2029091C30267CFDF
:100E0000CF93DF93EC018AE192E0998388831A8281
:100E10001B821C821D828AE090E09F838E8318864D
:100E20006987CE01E1DA882319F088858360888795
:100E300051DD6A837B838C839D8384E190E09F8373
:100E40008E83DF91CF9108956F927F928F929F92C0
:100E5000AF92BF92CF92DF92EF92FF920F931F93C8
:100E6000CF93DF93EC01762E642E490182E090E06F
:100E70009B838A8382E292E0998388831B861A8609
:100E80001D861C8684E090E06AD65C01DC01119628
:100E90001C921E9212967C92129713966C9261E0AD
:100EA000872D12DC61E0F50183810EDC60E0D50165
:100EB00012968C918CDB60E0F501838188DBBF8624
:100EC000AE868CE090E04BD65C0162E0882DFCDBC6
:100ED00062E0802FF9DBA4015527FA01E658FE4FA6
:100EE000E491F0E0EE0FFF1FE45DFE4FA591B49199
:100EF000F501B183A083FA01E054FE4F4491F5015E
:100F00004483C8019927FC01E658FE4FE491F0E0C4
:100F1000EE0FFF1FE45DFE4F25913491F501338301
:100F20002283FC01E054FE4F8491F50185831782F2
:100F3000108611861286EBE3FFE13197F1F7EC9111
:100F40004E2391E009F490E0D901EC91E82309F0F7
:100F50009260F5019683B501882D81DAD5011B9643
:100F60008C93B501802F7BDAF5019385890F8387F8
:100F7000B98AA88A82E190E0F2D58C01B70140DFFE
:100F80001B8B0A8BFFEFCF16DF0669F082E190E042
:100F9000E6D58C01B60134DF1D8B0C8B81E090E02F
:100FA0009B878A8702C01B861A86DF91CF911F918B
:100FB0000F91FF90EF90DF90CF90BF90AF909F90F8
:100FC0008F907F906F900895089580E090E008954D
:100FD000FC01538D448D252F30E0842F90E0821B3F
:100FE000930B541710F0CF96089501970895FC01C4
:100FF000918D828D981761F0828DDF01A80FB11D50
:101000005D968C91928D9F5F9F73928F90E0089573
:101010008FEF9FEF0895FC01918D828D981731F02D
:10102000828DE80FF11D858D90E008958FEF9FEF81
:1010300008958BED92E03DD921E0892B09F420E061
:10104000822F0895EF92FF920F931F93CF93DF9318
:10105000EC0181E0888F9B8D8C8D981305C0E88909
:10106000F989808185FD25C0F62E0B8D10E00F5F7C
:101070001F4F0F731127E02E8C8DE8120BC00FB697
:1010800007FCFACFE889F989808185FFF5CFCE0189
:101090007CDAF2CF8B8DFE01E80FF11DE35AFF4F92
:1010A000F0829FB7F8940B8FEA89FB898081806278
:1010B0000AC09FB7F894EE89FF896083E889F989AF
:1010C00080818370806480839FBF81E090E0DF91A6
:1010D000CF911F910F91FF90EF900895CF93DF93E1
:1010E000EC01888D8823C1F0EA89FB89808185FD28
:1010F00005C0A889B9898C9186FD0EC00FB607FC82
:10110000F5CF808185FFF2CFA889B9898C9185FFC1
:10111000EDCFCE013ADAE8CFDF91CF9108951F925B
:101120000F920FB60F9211240BB60F922F933F938D
:101130004F935F936F937F938F939F93AF93BF93DF
:10114000EF93FF938BED92E020DAFF91EF91BF9147
:10115000AF919F918F917F916F915F914F913F914F
:101160002F910F900BBE0F900FBE0F901F901895F0
:101170001F920F920FB60F9211240BB60F922F935E
:101180008F939F93EF93FF93E091EB02F091EC022A
:101190008081E091F102F091F20282FD12C0908113
:1011A0008091F4028F5F8F732091F502821751F0C6
:1011B000E091F402F0E0E552FD4F958F8093F40248
:1011C00001C08081FF91EF919F918F912F910F909E
:1011D0000BBE0F900FBE0F901F901895CF92DF920D
:1011E000EF92FF920F931F93CF93DF936C017A01DD
:1011F0008B01C0E0D0E0CE15DF0581F0D8016D9104
:101200008D01D601ED91FC910190F081E02DC60198
:101210001995892B11F02196EECF7E01C701DF9140
:10122000CF911F910F91FF90EF90DF90CF90089595
:10123000CF92DF92EF92FF920F931F93CF93DF93A2
:10124000EC0188858B7F8887CE01CED8182F8885C2
:1012500086958170181751F03DDB6A837B838C8300
:101260009D83988582E08927888736C033DBCA80D2
:10127000DB80EC80FD80AB01BC014C195D096E097F
:101280007F098E819F81A0E0B0E0481759076A0767
:101290007B0710F1888581701817F1F01BDB6A83DA
:1012A0007B838C839D83988581E0892784608887F0
:1012B00011DB0A851B852C853D85DC01CB01801B5C
:1012C000910BA20BB30B8E879F87A88BB98B02DB88
:1012D0006A877B878C879D87888582FB882780F932
:1012E000DF91CF911F910F91FF90EF90DF90CF9002
:1012F0000895EBEDF2E0A089B18982E08C93A4859A
:10130000B5851C92A685B7858FEC8C93108EA48929
:10131000B58986E08C93A289B3898C9180618C9386
:10132000A289B3898C9188608C93A289B3898C91AE
:1013300080688C930288F389E02D80818F7D808383
:101340000895EF92FF920F931F93CF93DF93EC01D9
:101350007B018A01CB016CDFF701908595702E85AA
:101360003F85953041F41F821E8260E070E0C90124
:101370005FDC81E00BC089E1809FB001819F700D2F
:1013800011247F836E83C90153DC80E0DF91CF910C
:101390001F910F91FF90EF900895CF92DF92EF92FF
:1013A000FF920F931F93CF93DF93EC018B01E8889B
:1013B000F988F7018385823020F4F894C70187DC2F
:1013C00001C0F894F70187819085A185B285789452
:1013D000AC0128853985821B930B0A96459788F4C2
:1013E000E881F9810190F081E02D62E070E0CE01AA
:1013F000DF91CF911F910F91FF90EF90DF90CF90F1
:1014000019944217530724F0EE24EA94FE2C03C0EB
:10141000EE24E394F12CC8010BDFF8018085857080
:101420008530B1F4F1E0EF16F104F1F4CC24CA9464
:10143000DC2CC801FDDEF80120858E859F8520FD0E
:1014400017C022FF15C01F821E8260E070E0F0DB33
:10145000A701B801CE01DF91CF911F910F91FF90AD
:10146000EF90DF90CF906DCFCC24C394D12CE1CFFF
:101470002AE02C9DB0012D9D700D11247F836E8379
:10148000DF91CF911F910F91FF90EF90DF90CF9060
:10149000CFCB6115710579F0FB0101900020E9F7D0
:1014A0003197AF01461B570BDC01ED91FC91028097
:1014B000F381E02D199480E090E008958F929F923F
:1014C000AF92BF92EF92FF920F931F93CF93DF9350
:1014D000CDB7DEB7A1970FB6F894DEBF0FBECDBF74
:1014E0007C01FA01CB0119A2223008F42AE08E0116
:1014F0000F5D1F4F822E912CA12CB12CBF01A50195
:10150000940103D3F901CA01015011096A3014F49E
:10151000605D01C0695CD8016C93232B242B252BC3
:1015200069F7B801C701B5DFA1960FB6F894DEBF21
:101530000FBECDBFDF91CF911F910F91FF90EF9024
:10154000BF90AF909F908F9008950F931F93CF936C
:10155000DF93EC019EDF8C016DE572E0CE0199DF37
:10156000800F911FDF91CF911F910F9108950F93DD
:101570001F93CF93DF93EC018B015ADE882399F000
:10158000B8018BED92E085DF888580FF03C067EAB4
:1015900072E002C064EB72E08BED92E0DF91CF91DC
:1015A0001F910F91D2CFDF91CF911F910F9108958D
:1015B000789484B5826084BD84B5816084BD85B52E
:1015C000826085BD85B5816085BD80916E0081603A
:1015D00080936E00109281008091810082608093E0
:1015E00081008091810081608093810080918000E2
:1015F0008160809380008091B10084608093B1000D
:101600008091B00081608093B000809191008260F1
:1016100080939100809191008160809391008091EE
:1016200090008160809390008091A10082608093FF
:10163000A1008091A10081608093A1008091A00011
:1016400081608093A00080912101826080932101BC
:10165000809121018160809321018091200181602E
:101660008093200180917A00846080937A00809139
:101670007A00826080937A0080917A008160809302
:101680007A0080917A00806880937A001092C1007D
:101690001092BC031092BD031092BE031092BF03C0
:1016A00010927A0310927B0310927C0310927D03B8
:1016B00011D96B017C014B015C0128EB820E2BE000
:1016C000921EA11CB11C06D96C157D058E059F05C7
:1016D00028F086169706A806B906A8F78BED92E0C3
:1016E0009093BB038093BA0304DEF4D860937A032B
:1016F00070937B0380937C0390937D036EE472E090
:101700008091BA039091BB03C4DEE4D86B017C01E5
:101710004B015C013AE0830E911CA11CB11CDAD88C
:101720006C157D058E059F0528F086169706A80680
:10173000B906A8F781E080938E03DBDD86E190E0B7
:101740000ED22DE0C22ED12C3CE0E32EF12C06E28D
:1017500010E028E230E045E050E066E070E074DB45
:1017600086E190E0FCD1CC24CA94DC2C57E0E52E35
:10177000F12C02E210E024E230E049E050E06AE0BF
:1017800070E062DB8EE090E0EAD1EC0182E090E074
:101790009B838A838CE292E09983888388E190E03E
:1017A0009F838E8386E190E09987888761E088E156
:1017B0000E94640361E086E10E94640360E088E1C6
:1017C0000E94E70260E086E10E94E70282E190E089
:1017D000C6D17C016AE170E013DBFD86EC861D82D8
:1017E0001C8260E672E08BED92E0AFDE64EF862E45
:1017F00099249394A12CB12C6DD8672B682B692B5D
:1018000039F468D8623071058105910508F4FBC090
:1018100061D8C090D702D090D802E090D902F09061
:10182000DA026C157D058E059F0540F46093D702A2
:101830007093D8028093D9029093DA02C090D702B5
:10184000D090D802E090D902F090DA029B01AC016E
:101850002C193D094E095F0969017A013AEFC31657
:10186000D104E104F10408F4CEC06093D702709370
:10187000D8028093D9029093DA02809286039092E4
:101880008703A0928803B092890310928A03109272
:101890008B0310928C0310928D0380917E039091A4
:1018A0007F03A0918003B091810380938203909382
:1018B0008303A0938403B09385030CD860937E03C5
:1018C00070937F03809380039093810303D8609388
:1018D0007A0370937B0380937C0390937D030E9433
:1018E0006A046B017C016FE672E08091BA0390910B
:1018F000BB03CFDD2AE041E050E060E070E0809182
:10190000BA039091BB03DADD66E772E08091BA0317
:101910009091BB03BEDD2AE0B701A6018091BA0316
:101920009091BB03CBDD68E772E08091BA039091A0
:10193000BB03AFDD80917E0390917F03A091800374
:10194000B0918103B701A601481B590B6A0B7B0BB1
:101950002AE08091BA039091BB03B0DD68E772E0A2
:101960008091BA039091BB0394DD40917E03509126
:101970007F03609180037091810380918203909135
:101980008303A0918403B0918503481B590B6A0B14
:101990007B0B2AE08091BA039091BB038FDD6AE74D
:1019A00072E08091BA039091BB0373DD0E946A04D8
:1019B000AB01BC012AE08091BA039091BB037EDDAC
:1019C0006CE772E08091BA039091BB03BEDD0E9488
:1019D0006A046B017C012B013C0145E0440E511C63
:1019E000611C711C0E946A046C157D058E059F05A3
:1019F00010F50E946A0460937E0370937F038093C6
:101A000080039093810363E872E08091C403909116
:101A1000C503ADDD60E972E08091C2039091C3031C
:101A2000A6DD6EE972E08091C0039091C1039FDD55
:101A30000E946501E1CE461657066806790690F6C3
:101A4000D8CFCF93DF93EBEDF2E01382128288EED2
:101A500093E0A0E0B0E084839583A683B78380E41D
:101A600092E09183808385EC90E09587848784EC75
:101A700090E09787868780EC90E0918B808B81EC5B
:101A800090E0938B828B82EC90E0958B848B86EC3C
:101A900090E0978B868B118E128E138E148EE8E752
:101AA000F3E016821782108611861286138614863A
:101AB000158616861786108A118A128A138A148A46
:101AC000158A82E190E04BD0EC016CE070E098D98F
:101AD000D093C503C093C40382E190E040D0EC01F1
:101AE0006DE070E08DD9D093C303C093C20382E14F
:101AF00090E035D0EC0167E070E082D9D093C1036B
:101B0000C093C003DF91CF910895A1E21A2EAA1BC2
:101B1000BB1BFD010DC0AA1FBB1FEE1FFF1FA2179D
:101B2000B307E407F50720F0A21BB30BE40BF50B9A
:101B3000661F771F881F991F1A9469F76095709523
:101B4000809590959B01AC01BD01CF010895EE0FEA
:101B5000FF1F881F8BBF0790F691E02D19940F93FC
:101B60001F93CF93DF938230910510F482E090E0D1
:101B7000E091C803F091C90320E030E0A0E0B0E0BC
:101B8000309719F14081518102811381481759071B
:101B9000C8F08417950769F4109731F012960C93EA
:101BA000129713961C9327C00093C8031093C90380
:101BB00022C02115310519F04217530718F49A0174
:101BC000BD01EF01DF01F801DBCF21153105F9F08F
:101BD000281B390B2430310580F48A819B816115E3
:101BE000710521F0FB019383828304C09093C903A4
:101BF0008093C803FE01329644C0FE01E20FF31F3A
:101C00008193919322503109398328833AC02091DE
:101C1000C6033091C703232B41F420911202309167
:101C200013023093C7032093C60320911002309112
:101C300011022115310541F42DB73EB74091140230
:101C400050911502241B350BE091C603F091C70398
:101C5000E217F307A0F42E1B3F0B2817390778F083
:101C6000AC014E5F5F4F2417350748F04E0F5F1FE2
:101C70005093C7034093C6038193919302C0E0E061
:101C8000F0E0CF01DF91CF911F910F910895CF9395
:101C9000DF93009709F481C0FC013297138212820E
:101CA000A091C803B091C903109781F420813181BC
:101CB000820F931F2091C6033091C703281739075D
:101CC00051F5F093C703E093C60367C0ED0120E030
:101CD00030E0CE17DF0740F44A815B819E01411559
:101CE0005105F1F0EA01F5CFD383C28340815181E0
:101CF000840F951FC817D90759F488819981840FDB
:101D0000951F0296918380838A819B81938382832E
:101D10002115310529F4F093C903E093C8033DC0B0
:101D2000E901FB83EA8349915991C40FD51FEC1750
:101D3000FD0761F480819181840F951F0296E9016E
:101D400099838883828193819B838A83E0E0F0E09A
:101D500012968D919C911397009719F0FD01DC016B
:101D6000F7CF8D919C9111979D012E5F3F4F820F70
:101D7000931F2091C6033091C7032817390769F4D0
:101D8000309729F41092C9031092C80302C013823D
:101D90001282B093C703A093C603DF91CF91089539
:0C1DA00081E090E0F89400C0F894FFCFC0
:101DAC00F301F301F301F301F301F301F301F30187
:101DBC000000CA03800000000000F401670400006A
:101DCC0000002702A906AF02000000002302150341
:101DDC001A02000000002302AD02AD020000000058
:101DEC002208EE08E8076E085901F7070B08564D54
:101DFC004450565F317C315F564D4450560D0A00AD
:101E0C00536574757020436F6D706C657465005606
:101E1C004D4450455F003A323A007C005F564D44C9
:101E2C0050450054696C7420466F7277617264007F
:101E3C0054696C74204261636B7761726400526FF9
:101E4C00746174696F6E00207761732070726573B2
:101E5C0073656400207761732072656C65617365CE
:021E6C00640010
:00000001FF
