:1000000026C1000018C60000EBC50000BEC50000F8
:1000100091C5000064C5000037C500000AC5000096
:10002000DDC4000045C1000043C1000041C1000023
:100030003FC100003DC100003BC1000039C10000CC
:1000400037C10000AAC6000033C1000031C1000062
:100050002FC100002DC100002BC1000075C400009D
:1000600027C100000C9412090C94E90821C100007A
:100070001FC100001DC100001BC1000019C100000C
:100080005FC6000015C1000013C1000011C10000CF
:100090000FC100000DC100000BC1000009C100002C
:1000A00007C1000005C100001EC6000001C100001C
:1000B000FFC00000FDC00000FBC00000E7C500005D
:1000C000F7C00000F5C00000F3C00000F1C0000060
:1000D000EFC00000EDC00000EBC00000E9C0000070
:1000E000E7C00000DA01DD01CC01D001D601140225
:1000F000E101E501EB01EF01F301F901FD0101026D
:10010000140207020B020F02BD03C203C703D1038F
:10011000DB035404E503ED03F503FF0309041304B3
:1001200022042C045404360440044A040000210034
:10013000240027002A002D003000330001010000B8
:10014000040107010A0100002200250028002B00FD
:100150002E003100340002010000050108010B01EE
:1001600000000A0B02090C0D0E0807030401000031
:10017000000000000000000000000000000000007F
:10018000000000000000000000000000121110003C
:10019000000000000000000000000000000000005F
:1001A000000000000000010210202008081020407C
:1001B000102040800201020108040201010204082B
:1001C00010204080804020100804020180040201B9
:1001D0008040201008040201080402010102040802
:1001E0001020408001020408102040800000200000
:1001F0002300260029002C002F00320000010000FF
:100200000301060109010505050507050808080899
:10021000020202020A0A080804040404010101019E
:100220000101010103030303030303030407070799
:100230000C0C0C0C0C0C0C0C02020202060606063E
:10024000060606060B0B0B0B0B0B0B0BB60E112445
:100250001FBECFEFD1E2DEBFCDBF00E00CBF12E08A
:10026000A0E0B2E0ECE8F0E200E00BBF02C00790D3
:100270000D92A23FB107D9F724E0A2EFB2E001C08E
:100280001D92AC38B207E1F711E0C7E2D1E000E01F
:1002900006C021970109802FFE010E94170FC63268
:1002A000D10780E00807A9F70E94350C0C94441090
:1002B000A7CEFC01918D828D981761F0828DDF01B0
:1002C000A80FB11D5D968C91928D9F5F9F73928F49
:1002D00090E008958FEF9FEF0895FC01918D828D3E
:1002E000981731F0828DE80FF11D858D90E008950B
:1002F0008FEF9FEF0895FC01918D228D892F90E063
:10030000805C9F4F821B91098F739927089580E02D
:1003100090E0892B19F0E7D6811125C080E090E0AC
:10032000892B41F080E090E0892B21F00E940000B1
:1003300081111CC080E090E0892B41F080E090E0CA
:10034000892B21F00E940000811113C080E090E011
:10035000892BA1F080E090E0892B81F00E940000C1
:1003600081110AC008950E940000D8CF0E940000A9
:10037000E1CF0E940000EACF0C940000089590E0C5
:10038000FC013197E231F10508F04EC08827EE58A4
:10039000FF4F8F4F0C94170F809180008F7703C011
:1003A000809180008F7D80938000089580918000EF
:1003B000877FF9CF84B58F7702C084B58F7D84BDE8
:1003C00008958091B0008F7703C08091B0008F7D39
:1003D0008093B0000895809190008F7707C080913E
:1003E00090008F7D03C080919000877F8093900064
:1003F00008958091A0008F7707C08091A0008F7D25
:1004000003C08091A000877F8093A0000895809111
:1004100020018F7707C0809120018F7D03C08091DC
:100420002001877F8093200108953FB7F894809141
:10043000970390919803A0919903B0919A0326B5E0
:10044000A89B05C02F3F19F00196A11DB11D3FBF0C
:10045000BA2FA92F982F8827820F911DA11DB11D9A
:10046000BC01CD0142E0660F771F881F991F4A9596
:10047000D1F708950895CF93DF93FC01218530E0F3
:10048000F901E05AFE4F8491F901EA55FE4FD491EB
:10049000F901EA5FFD4FC491CC2371F081116FDF48
:1004A000EC2FF0E0EE0FFF1FE451FE4FA591B49149
:1004B000EC91ED2381E009F480E08170DF91CF9130
:1004C0000895DC01ED91FC910190F081E02D62E056
:1004D00070E01994FC01758364830895FC017583B1
:1004E0006483672B11F41786168608950E944010C6
:1004F000DC0116964D915C91179750962D913C9189
:1005000051974217530741F4ED91FC910190F0810E
:10051000E02D62E070E0199461E070E02417350787
:1005200014F060E070E00C94440BCF93DF93FC0177
:1005300026853785232B69F4EC016489758941E0B0
:1005400050E00E94800B882321F081E090E09F879B
:100550008E87DF91CF910895FC01848DDF01A80F74
:10056000B11DA35ABF4F2C91848D90E001968F73DB
:100570009927848FA689B7892C93A089B1898C91FA
:10058000837080648C93938D848D981306C0028849
:10059000F389E02D80818F7D808308951F93CF9311
:1005A000DF93282F30E0F901E05AFE4F8491F901E2
:1005B000EA55FE4FD491F901EA5FFD4FC491CC2377
:1005C000B9F0162F8111DBDEEC2FF0E0EE0FFF1FEC
:1005D000EA5BFE4FA591B4919FB7F894111104C046
:1005E0008C91D095D82302C0EC91DE2BDC939FBF79
:1005F000DF91CF911F910895CF93DF93DB01EA0143
:10060000FC01E257FC4F208127FF04C011961C9289
:100610001E920DC040815CE0589F9001599F300DA3
:100620001124240F311D47FD3A9537FD208120818B
:100630002F5F20834CE0489F9001499F300D11248B
:100640008081A901480F511D87FD5A9557FF1EC093
:1006500080818C30DCF44D915C918081B901680F10
:10066000711D87FD7A95CB01DB01AA0FBB1F8A0F95
:100670009B1FDC01A250BD4F11968D919C9112974A
:10068000840F951F99838883808111C08D919C91DF
:100690001197049680349C4918F480E49CE903C0C7
:1006A0008D919C910496998388838FEF8083DF914D
:1006B000CF910895CF93DF9390E0FC01EA55FE4F70
:1006C0002491FC01EA5FFD4F8491882361F190E061
:1006D000880F991FFC01E45DFE4FC591D491FC0188
:1006E000EA5BFE4FA591B491611109C09FB7F894E0
:1006F0008881209582238883EC912E230BC0623061
:1007000061F49FB7F8948881322F309583238883D2
:10071000EC912E2B2C939FBF06C08FB7F894E881E5
:100720002E2B28838FBFDF91CF9108951F93CF93F6
:10073000DF93182FEB0161E0BDDF209711F460E03B
:1007400004C0CF3FD10531F461E0812FDF91CF911B
:100750001F9124CFE12FF0E0E05AFE4FE4918E2F5D
:1007600090E0FC013197E231F10508F09DC0882747
:10077000EC57FF4F8F4F0C94170F84B5806884BDE2
:10078000C7BD97C084B5806284BDC8BD92C080914A
:100790008000806880938000D0938900C093880097
:1007A00088C080918000806280938000D0938B000D
:1007B000C0938A007EC08091800088608093800012
:1007C000D0938D00C0938C0074C08091B00080687D
:1007D0008093B000C093B3006CC08091B000806281
:1007E0008093B000C093B40064C080919000806892
:1007F00080939000D0939900C09398005AC0809144
:100800009000806280939000D0939B00C0939A00E8
:1008100050C080919000886080939000D0939D009C
:10082000C0939C0046C08091A00080688093A00087
:100830008091A0008F7B8093A000D093A900C093EB
:10084000A80037C08091A00080628093A000D09360
:10085000AB00C093AA002DC08091A0008860809357
:10086000A000D093AD00C093AC0023C080912001C4
:10087000806880932001D0932901C093280119C07A
:1008800080912001806280932001D0932B01C0933E
:100890002A010FC080912001886080932001D093AD
:1008A0002D01C0932C0105C0C038D1050CF04CCFF0
:1008B00046CFDF91CF911F910895862F642FFACEF6
:1008C0008F929F92AF92BF92CF92DF92EF92FF9260
:1008D0006B017C01AADD4B015C01C114D104E10470
:1008E000F104E9F0A2DDDC01CB0188199909AA091C
:1008F000BB09883E9340A105B10578F321E0C21AF7
:10090000D108E108F10888EE880E83E0981EA11C4A
:10091000B11CC114D104E104F10421F7DECFFF9032
:10092000EF90DF90CF90BF90AF909F908F90089501
:100930002FB7F8946091930370919403809195037D
:10094000909196032FBF08951F920F920FB60F92AA
:1009500011242F933F938F939F93AF93BF938091D5
:10096000930390919403A0919503B09196033091D5
:10097000920323E0230F2D3720F40196A11DB11D12
:1009800005C026E8230F0296A11DB11D20939203F6
:100990008093930390939403A0939503B09396034D
:1009A0008091970390919803A0919903B0919A0335
:1009B0000196A11DB11D8093970390939803A09376
:1009C0009903B0939A03BF91AF919F918F913F91FB
:1009D0002F910F900FBE0F901F9018951F920F929E
:1009E0000FB60F9211240BB60F922F933F934F9394
:1009F0005F936F937F938F939F93AF93BF93EF9387
:100A0000FF93E0910E02F0910F021995FF91EF9183
:100A1000BF91AF919F918F917F916F915F914F9116
:100A20003F912F910F900BBE0F900FBE0F901F9014
:100A300018951F920F920FB60F9211240BB60F92BA
:100A40002F933F934F935F936F937F938F939F93D6
:100A5000AF93BF93EF93FF93E0910C02F0910D02DF
:100A60001995FF91EF91BF91AF919F918F917F91D8
:100A70006F915F914F913F912F910F900BBE0F900F
:100A80000FBE0F901F9018951F920F920FB60F92E6
:100A900011240BB60F922F933F934F935F936F9355
:100AA0007F938F939F93AF93BF93EF93FF93E091C7
:100AB0000202F09103021995FF91EF91BF91AF915E
:100AC0009F918F917F916F915F914F913F912F9166
:100AD0000F900BBE0F900FBE0F901F9018951F9296
:100AE0000F920FB60F9211240BB60F922F933F93D4
:100AF0004F935F936F937F938F939F93AF93BF9326
:100B0000EF93FF93E0910002F09101021995FF919C
:100B1000EF91BF91AF919F918F917F916F915F9175
:100B20004F913F912F910F900BBE0F900FBE0F90E2
:100B30001F9018951F920F920FB60F9211240BB6AB
:100B40000F922F933F934F935F936F937F938F9366
:100B50009F93AF93BF93EF93FF93E0910A02F091BD
:100B60000B021995FF91EF91BF91AF919F918F91DA
:100B70007F916F915F914F913F912F910F900BBE9D
:100B80000F900FBE0F901F9018951F920F920FB6E7
:100B90000F9211240BB60F922F933F934F935F93B5
:100BA0006F937F938F939F93AF93BF93EF93FF9335
:100BB000E0910802F09109021995FF91EF91BF9120
:100BC000AF919F918F917F916F915F914F913F91E5
:100BD0002F910F900BBE0F900FBE0F901F90189586
:100BE0001F920F920FB60F9211240BB60F922F93F4
:100BF0003F934F935F936F937F938F939F93AF93A5
:100C0000BF93EF93FF93E0910602F09107021995CD
:100C1000FF91EF91BF91AF919F918F917F916F91D4
:100C20005F914F913F912F910F900BBE0F900FBE90
:100C30000F901F9018951F920F920FB60F921124CC
:100C40000BB60F922F933F934F935F936F937F93C6
:100C50008F939F93AF93BF93EF93FF93E091040221
:100C6000F09105021995FF91EF91BF91AF919F917E
:100C70008F917F916F915F914F913F912F910F9045
:100C80000BBE0F900FBE0F901F9018951F920F92E2
:100C90000FB60F9211240BB60F922F933F934F93E1
:100CA0005F936F937F938F939F93AF93BF93EF93D4
:100CB000FF9348E251E064E271E080E090E09CDC68
:100CC000FF91EF91BF91AF919F918F917F916F9124
:100CD0005F914F913F912F910F900BBE0F900FBEE0
:100CE0000F901F9018951F920F920FB60F9211241C
:100CF0000BB60F922F933F934F935F936F937F9316
:100D00008F939F93AF93BF93EF93FF9348EA50E085
:100D100064EA70E083E090E06FDCFF91EF91BF91B7
:100D2000AF919F918F917F916F915F914F913F9183
:100D30002F910F900BBE0F900FBE0F901F90189524
:100D40001F920F920FB60F9211240BB60F922F9392
:100D50003F934F935F936F937F938F939F93AF9343
:100D6000BF93EF93FF9348E950E064E970E082E0BD
:100D700090E042DCFF91EF91BF91AF919F918F91F5
:100D80007F916F915F914F913F912F910F900BBE8B
:100D90000F900FBE0F901F9018951F920F920FB6D5
:100DA0000F9211240BB60F922F933F934F935F93A3
:100DB0006F937F938F939F93AF93BF93EF93FF9323
:100DC00048E850E064E870E081E090E015DCFF91D5
:100DD000EF91BF91AF919F918F917F916F915F91B3
:100DE0004F913F912F910F900BBE0F900FBE0F9020
:100DF0001F9018950F931F93CF93DF938C01613051
:100E00008FEF780714F461E07FEFEB016F3F71051E
:100E100019F014F0CFEFD0E0F801808191810097B4
:100E200019F00197C1F030C0D7FD06C0BE01F8012E
:100E300082817CDC60E008C0662777276C1B7D0B15
:100E4000F801828173DC61E0F8018381DF91CF9149
:100E50001F910F91A3CBD7FD07C0BE01F80182817E
:100E600065DC60E070E009C060E070E0F80182815C
:100E70005DDC662777276C1B7D0BF8018381DF9192
:100E8000CF911F910F9152CCDF91CF911F910F9174
:100E90000895823109F466C0B8F4823069F1833074
:100EA00009F073C07093F5026093F40286E598E050
:100EB000909303028093020280916A00837F846092
:100EC00080936A00ED9A5FC0843141F1C8F18531A9
:100ED00009F05BC07093F7026093F60281E598E039
:100EE0009093050280930402809169008C7F816059
:100EF00080936900E89A47C07093F3026093F2020E
:100F00008BE598E0909301028093000280916A0043
:100F10008C7F816080936A00EC9A35C07093F902EF
:100F20006093F8028CE498E09093070280930602A5
:100F300080916900837F846080936900E99A23C06F
:100F40007093FB026093FA0287E498E090930902A1
:100F500080930802809169008F7C80618093690092
:100F6000EA9A11C07093FD026093FC0282E498E05B
:100F700090930B0280930A02809169008F738064C2
:100F800080936900EB9A81E0089580E00895DC0188
:100F9000ED91FD918081ED91FD919081ED91FD911B
:100FA0006C9163708E2309F064609F2309F0686080
:100FB000E4EEF7E0E60FF11D659565956D936D9193
:100FC0007D918D919D91099423C01AC012C016C0C5
:100FD00010C01EC009C014C013C006C019C009C08B
:100FE0000DC007C00DC014C06250704080409040DA
:100FF0000BC0615070408040904006C06E5F01C0E1
:101000006F5F7F4F8F4F9F4F9E938E937E936E9314
:1010100008950F931F93CF93DF93FC0124853585AB
:101020002115310521F02130310529F026C0FC01C0
:10103000648975891DC0EC0102891389F8018385D3
:10104000823020F4F894C801A2DF01C0F894F801BE
:1010500087819085A185B28578942A853B85821702
:1010600093071CF46C897D8902C06E897F89CE014B
:10107000DF91CF911F910F9170C3DF91CF911F919D
:101080000F9108958091FC029091FD0280CF809194
:10109000FA029091FB027BCF8091F8029091F902C5
:1010A00076CF8091F6029091F70271CF8091F40291
:1010B0009091F5026CCF8091F2029091F30267CF8C
:1010C000089580E090E00895FC01538D448D252F14
:1010D00030E0842F90E0821B930B541710F0CF96D2
:1010E00008950197089585EA93E005D921E0892BB9
:1010F00009F420E0822F0895EF92FF920F931F933F
:10110000CF93DF93EC0181E0888F9B8D8C8D9813BA
:1011100005C0E889F989808185FD25C0F62E0B8DF3
:1011200010E00F5F1F4F0F731127E02E8C8DE81218
:101130000BC00FB607FCFACFE889F989808185FFDB
:10114000F5CFCE0109DAF2CF8B8DFE01E80FF11D4C
:10115000E35AFF4FF0829FB7F8940B8FEA89FB891F
:10116000808180620AC09FB7F894EE89FF8960830E
:10117000E889F98980818370806480839FBF81E0E2
:1011800090E0DF91CF911F910F91FF90EF90089524
:10119000CF93DF93EC01888D8823C1F0EA89FB8926
:1011A000808185FD05C0A889B9898C9186FD0EC016
:1011B0000FB607FCF5CF808185FFF2CFA889B989EA
:1011C0008C9185FFEDCFCE01C7D9E8CFDF91CF91CC
:1011D00008951F920F920FB60F9211240BB60F9223
:1011E0002F933F934F935F936F937F938F939F932F
:1011F000AF93BF93EF93FF9385EA93E0ADD9FF914F
:10120000EF91BF91AF919F918F917F916F915F917E
:101210004F913F912F910F900BBE0F900FBE0F90EB
:101220001F9018951F920F920FB60F9211240BB6B4
:101230000F922F938F939F93EF93FF93E091B503BA
:10124000F091B6038081E091BB03F091BC0382FD75
:1012500012C090818091BE038F5F8F732091BF0376
:10126000821751F0E091BE03F0E0EB55FC4F958FF3
:101270008093BE0301C08081FF91EF919F918F9178
:101280002F910F900BBE0F900FBE0F901F901895CF
:10129000CF92DF92EF92FF920F931F93CF93DF9342
:1012A0006C017A018B01C0E0D0E0CE15DF0581F042
:1012B000D8016D918D01D601ED91FC910190F081E5
:1012C000E02DC6011995892B11F02196EECF7E01F4
:1012D000C701DF91CF911F910F91FF90EF90DF90A9
:1012E000CF900895CF92DF92EF92FF920F931F93CA
:1012F000CF93DF93EC0188858B7F8887CE01BBD8A5
:10130000182F888586958170181751F011DB6A8334
:101310007B838C839D83988582E08927888736C06C
:1013200007DBCA80DB80EC80FD80AB01BC014C197F
:101330005D096E097F098E819F81A0E0B0E04817AA
:1013400059076A077B0710F1888581701817F1F03B
:10135000EFDA6A837B838C839D83988581E089277C
:1013600084608887E5DA0A851B852C853D85DC014C
:10137000CB01801B910BA20BB30B8E879F87A88B91
:10138000B98BD6DA6A877B878C879D87888582FBB5
:10139000882780F9DF91CF911F910F91FF90EF90F7
:1013A000DF90CF900895E5EAF3E0A089B18982E06B
:1013B0008C93A485B5851C92A685B7858FEC8C93FC
:1013C000108EA489B58986E08C93A289B3898C910B
:1013D00080618C93A289B3898C9188608C93A28957
:1013E000B3898C9180688C930288F389E02D808189
:1013F0008F7D80830895009761F0FC0101900020AB
:10140000E9F73197AF01481B590BBC0185EA93E01E
:101410003FCF80E090E00895CF93DF93ECDFEC01C5
:101420008DE592E0E8DF8C0F9D1FDF91CF9108954D
:10143000CF93DF93EC0184ED92E09983888388E376
:1014400092E09B838A831C821D821E821F828AE017
:1014500090E0998788871A866B87CE0102960BD811
:10146000882319F08A8583608A8762DA6C837D839A
:101470008E839F8384E190E099878887DF91CF9165
:1014800008956F927F928F929F92AF92BF92CF9268
:10149000DF92EF92FF920F931F93CF93DF93EC01B4
:1014A000762E642E490181EE92E09B838A8382E04E
:1014B00090E09D838C838EE292E0998388831D86E1
:1014C0001C861F861E8684E090E0B9D45C01DC0196
:1014D00011961C921E9212967C92129713966C9201
:1014E00061E0872DE7D861E0F5018381E3D860E012
:1014F000D50112968C9152D860E0F50183814ED8C7
:10150000B98AA88A8CE090E09AD45C0162E0882DC8
:10151000D1D862E0802FCED8A4015527FA01EA5F26
:10152000FD4FE491F0E0EE0FFF1FE451FE4FA59157
:10153000B491F501B183A083FA01EA55FE4F4491BD
:10154000F5014483C8019927FC01EA5FFD4FE4914E
:10155000F0E0EE0FFF1FE451FE4F25913491F501AD
:1015600033832283FC01EA55FE4F8491F501858384
:101570001782108611861286EBE3FFE13197F1F7AF
:10158000EC914E2391E009F490E0D901EC91E8232D
:1015900009F09260F5019683B501882D7ADCD501BA
:1015A0001B968C93B501802F74DCF5019385890F10
:1015B0008387BB8AAA8A84E190E041D48C01B70179
:1015C00037DF1D8B0C8BFFEFCF16DF0669F084E150
:1015D00090E035D48C01B6012BDF1F8B0E8B81E0A0
:1015E00090E09D878C8702C01D861C86DF91CF917D
:1015F0001F910F91FF90EF90DF90CF90BF90AF9031
:101600009F908F907F906F9008958F929F92AF924E
:10161000BF920F931F93CF93DF93CDB7DEB7A19700
:101620000FB6F894DEBF0FBECDBF19A2423008F44A
:101630004AE08E010F5D1F4F842E912CA12CB12CFE
:10164000A5019401D2D3E62FB901CA0101501109B5
:10165000EA3014F4E05D01C0E95CD801EC93232B7F
:10166000242B252B69F7C801C6DEA1960FB6F89486
:10167000DEBF0FBECDBFDF91CF911F910F91BF9005
:10168000AF909F908F900895EF92FF920F931F93CA
:10169000CF93DF93EC017B01F89461E08C850E948D
:1016A000CE026AE070E080E090E00AD96E2D8A8573
:1016B0000E94CE0261E088850E94CE020BE91FE005
:1016C000C8010197F1F760E088850E94CE02C80149
:1016D0000197F1F760E08C850E94CE0278948889AA
:1016E0009989EA94EF2811F4019601C00197998B2A
:1016F000888BDF91CF911F910F91FF90EF9008950C
:10170000EF92FF920F931F93CF93DF93EC017B0136
:101710008A01CB010296E6DDF70192859570288952
:101720003989953041F41986188660E070E0C90166
:1017300061DB81E00BC089E1809FB001819F700D6A
:10174000112479876887C90155DB80E0DF91CF914B
:101750001F910F91FF90EF900895AF92BF92CF929B
:10176000DF92EF92FF920F931F93CF93DF93EC01E1
:101770008B01EA88FB88F7018385823020F4F89496
:10178000C70105DC01C0F894F70187819085A18528
:10179000B2857894AC012A853B85821B930B0A960F
:1017A000459798F4E881F9810190F081E02D62E09D
:1017B00070E0CE01DF91CF911F910F91FF90EF90DC
:1017C000DF90CF90BF90AF9019944217530724F049
:1017D000EE24EA94FE2C03C0EE24E394F12C58018D
:1017E000F2E0AF0EB11CC5017DDDF8018285857088
:1017F0008530B1F4F1E0EF16F10401F5CC24CA9480
:10180000DC2CC5016FDDF80122858889998920FDCE
:1018100019C022FF17C01986188660E070E0EADA66
:10182000A701B801CE01DF91CF911F910F91FF90D9
:10183000EF90DF90CF90BF90AF9062CFCC24C39455
:10184000D12CDFCF2AE02C9DB0012D9D700D1124ED
:1018500079876887DF91CF911F910F91FF90EF906B
:10186000DF90CF90BF90AF90C5CA789484B5826066
:1018700084BD84B5816084BD85B5826085BD85B534
:10188000816085BD80916E00816080936E001092B2
:10189000810080918100826080938100809181002D
:1018A00081608093810080918000816080938000BE
:1018B0008091B10084608093B1008091B00081601C
:1018C0008093B0008091910082608093910080911C
:1018D000910081608093910080919000816080935D
:1018E00090008091A10082608093A1008091A1006E
:1018F00081608093A1008091A00081608093A0000E
:101900008091210182608093210180912101816079
:10191000809321018091200181608093200180913A
:101920007A00846080937A0080917A00826080934C
:101930007A0080917A00816080937A0080917A00A9
:10194000806880937A001092C100109284041092F3
:101950008504109286041092870410924404109219
:10196000450410924604109247040E9498046B01AB
:101970007C014B015C0128EB820E2BE0921EA11C26
:10198000B11C0E9498046C157D058E059F0528F0FA
:1019900086169706A806B906A0F760ED77E080E006
:1019A00090E00E946004FFDC0E949804609344046D
:1019B0007093450480934604909347048EE492E02C
:1019C0001ADD0E9498046B017C014B015C013AE036
:1019D000830E911CA11CB11C0E9498046C157D05FE
:1019E0008E059F0528F086169706A806B906A0F76B
:1019F00081E080935804D7DC88E190E020D24C014C
:101A00008DE0C82ED12C9CE0E92EF12C06E210E0EE
:101A100028E230E045E050E066E070E0C40131DDEE
:101A200090929E0380929D0388E190E008D25C0131
:101A3000CC24CA94DC2C37E0E32EF12C02E210E037
:101A400024E230E049E050E06AE070E01ADDB09254
:101A50009C03A0929B0384E190E0F1D1EC0180E62D
:101A600092E09B838A8382E090E09D838C838AE16D
:101A700092E09983888388E190E09987888786E15E
:101A800090E09B878A878EE290E09D878C878CE22E
:101A900090E09F878E8761E088E10E945A0361E0B1
:101AA00086E10E945A0361E08EE20E945A0361E0DF
:101AB0008CE20E945A0360E088E10E94CE0260E05E
:101AC00086E10E94CE0260E08EE20E94CE0261E0DA
:101AD0008CE20E94CE0284E190E0B1D18C016AE1F7
:101AE00070E0A6DC1B8B0A8B1F821E82D093A003A2
:101AF000C0939F0386E090E0A2D1FC019182808296
:101B0000B382A282D583C4838EE692E085DC44EF63
:101B1000842E99249394A12CB12C0E949804672BB5
:101B2000682B692B41F40E9498046230710581058D
:101B3000910508F4D4C00E9498040091A10310916B
:101B4000A2032091A3033091A403601771078207B9
:101B5000930740F46093A1037093A2038093A303BF
:101B60009093A4030091A1031091A2032091A303D9
:101B70003091A4036B017C01C01AD10AE20AF30A76
:101B8000970186010A3F11052105310508F4A7C018
:101B90006093A1037093A2038093A3039093A40383
:101BA0008092500490925104A0925204B092530437
:101BB0001092540410925504109256041092570437
:101BC0008091480490914904A0914A04B0914B043B
:101BD00080934C0490934D04A0934E04B0934F0413
:101BE0000E949804609348047093490480934A04C7
:101BF00090934B040E9498046093440470934504AE
:101C000080934604909347040E9498046B017C01E2
:101C10008DE792E0F0DB4AE061E070E080E090E088
:101C2000F4DC84E892E0E7DB4AE0C701B601EDDCD2
:101C300086E892E0E0DB8091480490914904A0910D
:101C40004A04B0914B04A7019601281B390B4A0B9B
:101C50005B0BCA01B9014AE0D8DC86E892E0CBDB35
:101C60008091480490914904A0914A04B0914B049A
:101C700000914C0410914D0420914E0430914F047A
:101C8000BC01CD01601B710B820B930B4AE0BDDCE4
:101C900088E892E0B0DB0E9498044AE0B6DC8AE86B
:101CA00092E0BADB0E9498046B017C012B013C019D
:101CB00035E0430E511C611C711C0E9498046C1588
:101CC0007D058E059F0508F04AC00E949804609328
:101CD00048047093490480934A0490934B04E09025
:101CE0009F03F090A00385EA93E00E947B01892B7B
:101CF00099F185EA93E00E945901C82F81E992E0A9
:101D00007ADBF7018281938187DBC63631F480EA82
:101D100092E082DB05E610E008C0C23619F48FEAD3
:101D200092E0F7CF8FEB92E016C0C63619F461E06F
:101D300070E004C0C23621F460E070E0C701A4DCAA
:101D40000150110991F764EF71E080E090E00E948A
:101D500060048FEC92E060DB0E948701DECE4616C5
:101D600057066806790608F0A8CFAFCFE5EAF3E09A
:101D70001382128288EE93E0A0E0B0E08483958322
:101D8000A683B78380E492E09183808385EC90E022
:101D90009587848784EC90E09787868780EC90E035
:101DA000918B808B81EC90E0938B828B82EC90E026
:101DB000958B848B86EC90E0978B868B118E128EA0
:101DC000138E148EE2E4F4E01682178210861186D8
:101DD000128613861486158616861786108A118A2F
:101DE000128A138A148A158A0895A1E21A2EAA1B50
:101DF000BB1BFD010DC0AA1FBB1FEE1FFF1FA217BB
:101E0000B307E407F50720F0A21BB30BE40BF50BB7
:101E1000661F771F881F991F1A9469F76095709540
:101E2000809590959B01AC01BD01CF010895EE0F07
:101E3000FF1F881F8BBF0790F691E02D19940F9319
:101E40001F93CF93DF938230910510F482E090E0EE
:101E5000E0918A04F0918B0420E030E0A0E0B0E053
:101E6000309719F140815181028113814817590738
:101E7000C8F08417950769F4109731F012960C9307
:101E8000129713961C9327C000938A0410938B0417
:101E900022C02115310519F04217530718F49A0191
:101EA000BD01EF01DF01F801DBCF21153105F9F0AC
:101EB000281B390B2430310580F48A819B81611500
:101EC000710521F0FB019383828304C090938B04FE
:101ED00080938A04FE01329644C0FE01E20FF31F94
:101EE0008193919322503109398328833AC02091FC
:101EF000880430918904232B41F4209112023091FF
:101F000013023093890420938804209110023091A9
:101F100011022115310541F42DB73EB7409114024D
:101F200050911502241B350BE0918804F09189042F
:101F3000E217F307A0F42E1B3F0B2817390778F0A0
:101F4000AC014E5F5F4F2417350748F04E0F5F1FFF
:101F500050938904409388048193919302C0E0E0F8
:101F6000F0E0CF01DF91CF911F910F910895CF93B2
:101F7000DF93009709F481C0FC013297138212822B
:101F8000A0918A04B0918B04109781F42081318153
:101F9000820F931F209188043091890428173907F4
:101FA00051F5F0938904E093880467C0ED0120E0C7
:101FB00030E0CE17DF0740F44A815B819E01411576
:101FC0005105F1F0EA01F5CFD383C28340815181FD
:101FD000840F951FC817D90759F488819981840FF8
:101FE000951F0296918380838A819B81938382834C
:101FF0002115310529F4F0938B04E0938A043DC048
:10200000E901FB83EA8349915991C40FD51FEC176D
:10201000FD0761F480819181840F951F0296E9018B
:1020200099838883828193819B838A83E0E0F0E0B7
:1020300012968D919C911397009719F0FD01DC0188
:10204000F7CF8D919C9111979D012E5F3F4F820F8D
:10205000931F20918804309189042817390769F467
:10206000309729F410928B0410928A0402C01382D4
:102070001282B0938904A0938804DF91CF910895D0
:0C20800081E090E0F89400C0F894FFCFDD
:10208C003A023A023A023A023A023A023A023A0264
:10209C0000008C048000000000006A0278026102DB
:1020AC00000000006A0276027602000000006E0258
:1020BC0009089502000000003B025D0400000000CE
:1020CC007C0848096408C8087B0159016D01564D0C
:1020DC004450565F317C315F564D4450560D0A00CA
:1020EC0053746570706572204D6F746F7200536518
:1020FC0074757020436F6D706C65746500564D443B
:10210C0050455F003A323A007C005F564D445045D2
:10211C00004D616E75616C204D6F76696E672000A5
:10212C004D6F76696E6720466F7277617264004DF1
:10213C006F76696E67204261636B776172640055DC
:10214C006E6B6E6F776E20436F6D6D616E640044C5
:10215C006F6E65004C696D697420537769746368A0
:10216C000051756164726174757265204D6F746F86
:02217C007200EF
:00000001FF
