:1000000026C100000C94E80B0C94BD0B0C94920BD1
:100010000C94670B0C943C0B0C94110B0C94E60A9B
:100020000C94BB0A45C1000043C1000041C100005F
:100030003FC100003DC100003BC1000039C10000CC
:1000400037C100000C94160E33C1000031C100000E
:100050002FC100002DC100002BC100000C94710ABB
:1000600027C1000070C7000045C7000021C1000083
:100070001FC100001DC100001BC1000019C100000C
:100080000C94E90D15C1000013C1000011C100005E
:100090000FC100000DC100000BC1000009C100002C
:1000A00007C1000005C100000C94BC0D01C1000097
:1000B000FFC00000FDC00000FBC000000C948F0DCD
:1000C000F7C00000F5C00000F3C00000F1C0000060
:1000D000EFC00000EDC00000EBC00000E9C0000070
:1000E000E7C00000D506D806C706CB06D1060F0725
:1000F000DC06E006E606EA06EE06F406F806FC066E
:100100000F07020706070A072F09340939094309AF
:100110004D09C60957095F09670971097B098509F6
:1001200094099E09C609A809B209BC09000021006A
:10013000240027002A002D003000330001010000B8
:10014000040107010A0100002200250028002B00FD
:100150002E003100340002010000050108010B01EE
:1001600000000A0B02090C0D0E0807030401000031
:10017000000000000000000000000000000000007F
:10018000000000000000000000000000121110003C
:10019000000000000000000000000000000000005F
:1001A000000000000000010210202008081020407C
:1001B000102040800201020108040201010204082B
:1001C00010204080804020100804020180040201B9
:1001D0008040201008040201080402010102040802
:1001E0001020408001020408102040800000200000
:1001F0002300260029002C002F00320000010000FF
:100200000301060109010505050507050808080899
:10021000020202020A0A080804040404010101019E
:100220000101010103030303030303030407070799
:100230000C0C0C0C0C0C0C0C02020202060606063E
:10024000060606060B0B0B0B0B0B0B0BBA1E112431
:100250001FBECFEFD1E2DEBFCDBF00E00CBF14E088
:10026000A0E0B2E0E6EAF5E400E00BBF02C00790D0
:100270000D92A232B107D9F725E0A2E2B4E001C0A5
:100280001D92A737B207E1F711E0C7E2D1E000E025
:1002900006C021970109802FFE010E947E21C632EF
:1002A000D10780E00807A9F70E94D5190C94D12244
:1002B000A7CEFC01758364830895823109F466C07A
:1002C000B8F4823069F1833009F073C07093CD04C3
:1002D0006093CC048AE89FE090930302809302022B
:1002E00080916A00837F846080936A00ED9A5FC08A
:1002F000843141F1C8F1853109F05BC07093CF04BE
:100300006093CE0484E89FE09093050280930402FA
:10031000809169008C7F816080936900E89A47C072
:100320007093CB046093CA0480E99FE0909301022C
:100330008093000280916A008C7F816080936A00C4
:10034000EC9A35C07093D1046093D0048EE79FE09F
:10035000909307028093060280916900837F8460F6
:1003600080936900E99A23C07093D3046093D20408
:1003700088E79FE0909309028093080280916900CA
:100380008F7C806180936900EA9A11C07093D504D4
:100390006093D40482E79FE090930B0280930A025B
:1003A000809169008F73806480936900EB9A81E08B
:1003B000089580E00895DC01ED91FD918081ED913B
:1003C000FD919081ED91FD916C9163708E2309F008
:1003D00064609F2309F06860E8EFF1E0E60FF11D2B
:1003E000659565956D936D917D918D919D91099424
:1003F00023C01AC012C016C010C01EC009C014C04D
:1004000013C006C019C009C00DC007C00DC014C07C
:1004100062507040804090400BC0615070408040FE
:10042000904006C06E5F01C06F5F7F4F8F4F9F4F40
:100430009E938E937E936E930895CF93DF93EC01FA
:100440008B85823020F4F894CE01B5DF01C0F8949A
:100450006F81788589859A857894DF91CF91089509
:100460000F931F93CF93DF93EC018B012097D9F06B
:100470006E817F8160177107B1F00115110541F0A0
:100480006115710529F0C8010E94C822882359F01E
:100490008D81882331F098E08902C00DD11D11248F
:1004A000E5CFC0E0D0E0CE01DF91CF911F910F9159
:1004B00008954F925F926F927F928F929F92AF9228
:1004C000BF92DF92EF92FF920F931F93CF93DF9330
:1004D0008C01EB0188818B3231F08D3229F4219629
:1004E000EE24E39402C02196E12C888190ED980FD0
:1004F0009A3018F08E3209F0D4C060E070E0CB0181
:10050000FE012191A0ED8A2E820E39E0381508F106
:100510006A3929E97207820729E19207E0F4AAE023
:10052000B0E09B01AC010E941C20912CA12CB12CAD
:1005300024013501409450946094709446165706F7
:100540006806790640F0680D791D8A1D9B1DEF0134
:10055000D7CF222339F0F12CEAE08E2E912CA12C5A
:10056000B12C13C0F80160837183828393830E944E
:10057000EB1EF8016483758386839783EE2011F068
:100580008AE001C088E0F801D7C061157105F0E884
:100590008F07910540F0A50194010E942C20CA010B
:1005A000B901F394F2CFFE01299130ED320F3A30C8
:1005B00010F4F394F8CF2E32F1F4EF012196FE01FE
:1005C0002196208150EDD52ED20E29E02D1598F0E0
:1005D0006C3C3CEC73073CE08307910580F7AAE094
:1005E000B0E09B01AC010E941C206D0D711D811DAE
:1005F000911DFA94E4CF20812F7D253409F04CC061
:1006000021812D3221F43296BB24B39406C02B32C3
:1006100011F0319601C03296B12CDF01C0E0D0E07C
:100620004AE0A42E2F2D0F2C000C330BFD01DD9082
:1006300040ED4D0D4A3050F5AC9EA001AD9E500DE1
:100640001124CD2DDD0CDD0BE097C40FD51FA901C2
:100650004C0F5D1F473251054CF3BB2059F0EE2083
:1006600029F080E090E0A0E0B0E860C080E090E099
:10067000DC015CC0E11005C080E090E0A0E8BFE7CD
:1006800055C080E090E0A0E8BFEF50C0BB2031F043
:10069000D195C195D10902C0C0E0D0E020812223CC
:1006A00059F0F8011082118212821382148215828D
:1006B00016821782108641C0CF0DD11DF7FCDA9546
:1006C0000E94EB1E1C161D06ACF4F12CC0FF0CC0E2
:1006D00024E0F29EF0011124E25BFD4F2081318184
:1006E000428153810E944C1FD595C795F394209762
:1006F00069F718C0D195C195D109F12C209791F0D7
:10070000C0FF0CC024E0F29EF0011124EA5CFD4F12
:1007100020813181428153810E944C1FD595C7951C
:10072000F394ECCFDC01CB01E110B058F8018483E5
:100730009583A683B7838CE08087C801DF91CF9132
:100740001F910F91FF90EF90DF90BF90AF909F901F
:100750008F907F906F905F904F900895009729F051
:10076000FC01808191817CCE089580E090E0089525
:10077000CF93DF93CDB7DEB729970FB6F894DEBFDE
:100780000FBECDBF009709F441C0FC0184818F7773
:10079000863051F018F48430A0F438C08A3049F023
:1007A0008C3079F1883091F56081718182819381FB
:1007B00020C060817181828193810E94EB1E9058DC
:1007C00028C060817181CE01019673DE69817A81D2
:1007D0008B819C8129852A3029F02C3069F02830C2
:1007E000A9F407C090958095709561957F4F8F4FC4
:1007F0009F4F0E94EB1E0DC06D817E818F81988579
:1008000008C0608171818281938103C060E070E0E3
:10081000CB0129960FB6F894DEBF0FBECDBFDF9196
:10082000CF910895FC01892B41F094819F779450DA
:10083000923018F480819181089580E090E00895CD
:10084000FC01168666EA73E0808591850C94960F0C
:10085000CF93DF93DC01EB01EC81FD818A819B81E9
:100860000896E817F90718F480E090E021C038975F
:10087000FD83EC833097C1F31296CD91DC911397F1
:10088000209751F0CF018C1B9D0B23E09595879508
:100890002A95E1F78D8303C01196FC93EE9313968E
:1008A000FC93EE9312971582148217821682CF0161
:1008B000DF91CF910895CF93DF93DB01FC0160813D
:1008C000718161157105F9F0FB0101900020E9F7D4
:1008D000AF01461B570B1296CD91DC911397CE01B9
:1008E000840F951F14962D913C9115972817390761
:1008F00050F013969C938E931297209731F0CE016F
:100900000E94BF2202C0C0E0D0E0CE01DF91CF91B3
:1009100008958F929F92AF92BF92CF92DF92EF9203
:10092000FF920F931F93CF93DF931F921F92CDB728
:10093000DEB78C017B015A01FB0164816F7704965D
:100940006C016530B9F018F4633041F159C0603280
:1009500019F0603411F054C060E2C6010E94760EB6
:10096000F8011182108213821282A501B701C80119
:1009700064D054C0F701808191819A838983BA0140
:10098000CE01019698DF7C01892BA1F165E0C601BB
:100990000E94760EF801F182E0823FC0F70182806A
:1009A00093806081718161157105A9F0FA01E2807F
:1009B000F380C701880D991D2481358128173907D7
:1009C00050F093838283E114F10439F0A401C7014C
:1009D0000E94BF2202C0E12CF12CE114F10451F07D
:1009E00063E0C6010E94760EF801F182E0829382F4
:1009F000828213C060E0C6010E94760E80E00EC0C5
:100A0000C6010E94760EF70180819181A281B38197
:100A1000F80180839183A283B38381E00F900F90CC
:100A2000DF91CF911F910F91FF90EF90DF90CF90CA
:100A3000BF90AF909F908F9008958F929F92AF92AA
:100A4000BF92CF92DF92EF92FF920F931F93CF93BB
:100A5000DF931F921F92CDB7DEB77C016A01FC01C4
:100A60001182108213821282FB0100811181011513
:100A7000110509F442C0F801A680B780A114B104A1
:100A800029F18481B60187FF16C0C701E1DE4C0160
:100A9000BA82A982892B99F1B601CE0101960BDFAA
:100AA0009C01892B61F1F4019481906894833783D0
:100AB0002683C40110C0C701CBDE009751F0FC01B2
:100AC00024812F772483B782A68203C0B601C70191
:100AD000BFDE0097A1F0A601B8011BDF882379F0E3
:100AE000F8018581811103C000E010E0C0CFF8E07B
:100AF0008F02000D111D1124BACF81E001C080E0EA
:100B00000F900F90DF91CF911F910F91FF90EF9079
:100B1000DF90CF90BF90AF909F908F900895DC01B1
:100B200014962D913C9115972115310521F0213016
:100B3000310541F00895DC01ED91FC910084F185CF
:100B4000E02D06C0DC01ED91FC910680F781E02DDF
:100B50001994089580E090E00895FC01538D448D30
:100B6000252F30E0842F90E0821B930B541710F058
:100B7000CF96089501970895FC01918D828D981765
:100B800061F0828DDF01A80FB11D5D968C91928D71
:100B90009F5F9F73928F90E008958FEF9FEF08956E
:100BA000FC01918D828D981731F0828DE80FF11D37
:100BB000858D90E008958FEF9FEF0895FC01918D52
:100BC000228D892F90E0805C9F4F821B91098F734B
:100BD0009927089586ED94E0F1DF21E0892B09F44F
:100BE00020E0822F0895FC01848DDF01A80FB11D44
:100BF000A35ABF4F2C91848D90E001968F73992753
:100C0000848FA689B7892C93A089B1898C91837030
:100C100080648C93938D848D981306C00288F38929
:100C2000E02D80818F7D80830895EF92FF920F9356
:100C30001F93CF93DF93EC0181E0888F9B8D8C8D88
:100C4000981305C0E889F989808185FD25C0F62EB5
:100C50000B8D10E00F5F1F4F0F731127E02E8C8D4F
:100C6000E8120BC00FB607FCFACFE889F98980813A
:100C700085FFF5CFCE01B7DFF2CF8B8DFE01E80FF8
:100C8000F11DE35AFF4FF0829FB7F8940B8FEA896A
:100C9000FB89808180620AC09FB7F894EE89FF8942
:100CA0006083E889F98980818370806480839FBF35
:100CB00081E090E0DF91CF911F910F91FF90EF9035
:100CC0000895CF93DF93EC01888D8823C1F0EA89E2
:100CD000FB89808185FD05C0A889B9898C9186FD35
:100CE0000EC00FB607FCF5CF808185FFF2CFA88933
:100CF000B9898C9185FFEDCFCE0175DFE8CFDF910B
:100D0000CF91089580E090E0892B19F063DF811185
:100D100025C080E090E0892B41F080E090E0892BB5
:100D200021F00E94000081111CC080E090E0892B1E
:100D300041F080E090E0892B21F00E9400008111B9
:100D400013C080E090E0892BA1F080E090E0892B37
:100D500081F00E94000081110AC008950E940000E5
:100D6000D8CF0E940000E1CF0E940000EACF0C948F
:100D70000000089590E0FC013197E231F10508F0A0
:100D80004EC08827EE58FF4F8F4F0C947E218091E4
:100D900080008F7703C0809180008F7D80938000DA
:100DA000089580918000877FF9CF84B58F7702C046
:100DB00084B58F7D84BD08958091B0008F7703C086
:100DC0008091B0008F7D8093B00008958091900055
:100DD0008F7707C0809190008F7D03C08091900035
:100DE000877F8093900008958091A0008F7707C03F
:100DF0008091A0008F7D03C08091A000877F8093A9
:100E0000A0000895809120018F7707C08091200174
:100E10008F7D03C080912001877F809320010895FA
:100E20003FB7F8948091C6049091C704A091C8047C
:100E3000B091C90426B5A89B05C02F3F19F00196B3
:100E4000A11DB11D3FBFBA2FA92F982F8827820F50
:100E5000911DA11DB11DBC01CD0142E0660F771FA0
:100E6000881F991F4A95D1F708950895CF93DF936E
:100E7000FC01218530E0F901E05AFE4F8491F9012F
:100E8000EA55FE4FD491F901EA5FFD4FC491CC239E
:100E900071F081116FDFEC2FF0E0EE0FFF1FE451D6
:100EA000FE4FA591B491EC91ED2381E009F480E02F
:100EB0008170DF91CF910895DC01ED91FC9101905B
:100EC000F081E02D62E070E019940895CB01BA0141
:100ED00020E030E044EB53E40E94C22020E030E008
:100EE00048E453E40E944C1F0E942A21CB0108953C
:100EF0000E94BB221F920F920FB60F9211240BB6C5
:100F00000F922F933F934F935F936F937F938F93A2
:100F10009F93AF93BF93EF93FF9386ED94E063DECF
:100F2000FF91EF91BF91AF919F918F917F916F91C1
:100F30005F914F913F912F910F900BBE0F900FBE7D
:100F40000F901F9018951F920F920FB60F921124B9
:100F50000BB60F922F938F939F93EF93FF93E09194
:100F6000E604F091E7048081E091EC04F091ED0457
:100F700082FD12C090818091EF048F5F8F7320916A
:100F8000F004821751F0E091EF04F0E0EA52FB4FD9
:100F9000958F8093EF0401C08081FF91EF919F9125
:100FA0008F912F910F900BBE0F900FBE0F901F903F
:100FB00018951F93CF93DF93282F30E0F901E05A63
:100FC000FE4F8491F901EA55FE4FD491F901EA5F91
:100FD000FD4FC491CC23B9F0162F8111CBDEEC2F3D
:100FE000F0E0EE0FFF1FEA5BFE4FA591B4919FB7B3
:100FF000F894111104C08C91D095D82302C0EC91C3
:10100000DE2BDC939FBFDF91CF911F910895CF928C
:10101000DF92EF92FF920F931F93CF93DF936C01B8
:101020008B017A01EC01C354DB4F888187FF04C038
:10103000FB011182108224C02CE02C9DC0012D9D4B
:10104000900D11242881AC01420F511D27FD5A95A6
:101050002091B20430E04217530794F42881AC0188
:10106000420F511D27FD5A959A01FA01EE0FFF1FFD
:101070002E0F3F1FF901EE5DFB4F208126FD19C0A9
:1010800088818F5F88832CE02C9DC0012D9D900D61
:1010900011242881AC01420F511D27FD5A95209142
:1010A000B20430E042175307B4F428812C303CF1ED
:1010B00012C02881820F911D27FD9A95FC01EE0F29
:1010C000FF1F8E0F9F1FFC01EE5DFB4F808160E0D4
:1010D0008F736FDFD5CFF8018081918104968034C2
:1010E0009C4918F480E49CE904C0F8018081918156
:1010F0000496F701918380838FEF888344C0F801C1
:10110000408151812881BC01620F711D27FD7A95B4
:101110009B01FB01EE0FFF1F2E0F3F1FF901EE5D3C
:10112000FB4F21813281240F351FF701318320834A
:101130002881AC01420F511D27FD5A959A01FA01F1
:10114000EE0FFF1F2E0F3F1FF901EE5DFB4F2081B9
:1011500026FF19C02881820F911D27FD9A95FC0159
:10116000EE0FFF1F8E0F9F1FFC01EE5DFB4F808176
:1011700061E08F73DF91CF911F910F91FF90EF90FE
:10118000DF90CF9016CFDF91CF911F910F91FF90FD
:10119000EF90DF90CF900895CF93DF9390E0FC0124
:1011A000EA55FE4F2491FC01EA5FFD4F84918823AC
:1011B00061F190E0880F991FFC01E45DFE4FC5913D
:1011C000D491FC01EA5BFE4FA591B491611109C075
:1011D0009FB7F8948881209582238883EC912E23F1
:1011E0000BC0623061F49FB7F8948881322F30953C
:1011F00083238883EC912E2B2C939FBF06C08FB73F
:10120000F894E8812E2B28838FBFDF91CF9108952A
:101210001F93CF93DF93182FEB0161E0BDDF209781
:1012200011F460E004C0CF3FD10531F461E0812FBB
:10123000DF91CF911F91BDCEE12FF0E0E05AFE4F3C
:10124000E4918E2F90E0FC013197E231F10508F036
:101250009DC08827EC57FF4F8F4F0C947E2184B59B
:10126000806884BDC7BD97C084B5806284BDC8BD99
:1012700092C080918000806880938000D093890024
:10128000C093880088C08091800080628093800035
:10129000D0938B00C0938A007EC0809180008860CC
:1012A00080938000D0938D00C0938C0074C0809197
:1012B000B00080688093B000C093B3006CC0809190
:1012C000B00080628093B000C093B40064C080918D
:1012D0009000806880939000D0939900C09398000C
:1012E0005AC080919000806280939000D0939B00C0
:1012F000C0939A0050C080919000886080939000C5
:10130000D0939D00C0939C0046C08091A00080684F
:101310008093A0008091A0008F7B8093A000D09349
:10132000A900C093A80037C08091A000806280937C
:10133000A000D093AB00C093AA002DC08091A00064
:1013400088608093A000D093AD00C093AC0023C010
:1013500080912001806880932001D0932901C0935F
:10136000280119C080912001806280932001D093D0
:101370002B01C0932A010FC08091200188608093C7
:101380002001D0932D01C0932C0105C0C038D10598
:101390000CF04CCF46CFDF91CF911F910895862F4F
:1013A000642FFACE8F929F92AF92BF92CF92DF922C
:1013B000EF92FF926B017C0133DD4B015C01C114A4
:1013C000D104E104F104E9F02BDDDC01CB01881943
:1013D0009909AA09BB09883E9340A105B10578F394
:1013E00021E0C21AD108E108F10888EE880E83E0F6
:1013F000981EA11CB11CC114D104E104F10421F711
:10140000DECFFF90EF90DF90CF90BF90AF909F9096
:101410008F900895CF92DF92EF92FF920F931F93D8
:10142000CF93DF93DC011696CD90DC90179718963A
:10143000ED90FC901997CE14DF0481F4ED91FC91AE
:101440000190F081E02D62E070E0DF91CF911F917B
:101450000F91FF90EF90DF90CF90199411E0EC1472
:10146000FD040CF010E0EC01F89461E08E85A1DD44
:101470006AE070E080E090E095DF612F8C8599DD77
:1014800061E08A8596DD0BE91FE0C8010197F1F75D
:1014900060E08A858EDDC8010197F1F760E08E85F6
:1014A00088DD789488859985EC14FD0414F4019600
:1014B00001C0019799878887DF91CF911F910F9184
:1014C000FF90EF90DF90CF9008952FB7F894609140
:1014D000C2047091C3048091C4049091C5042FBFCD
:1014E00008951F920F920FB60F9211242F933F93DE
:1014F0008F939F93AF93BF938091C2049091C30445
:10150000A091C404B091C5043091C10423E0230F1D
:101510002D3720F40196A11DB11D05C026E8230F2B
:101520000296A11DB11D2093C1048093C204909323
:10153000C304A093C404B093C5048091C6049091E1
:10154000C704A091C804B091C9040196A11DB11DA2
:101550008093C6049093C704A093C804B093C904B1
:10156000BF91AF919F918F913F912F910F900FBE9F
:101570000F901F9018951F920F920FB60F92112483
:101580000BB60F922F933F934F935F936F937F937D
:101590008F939F93AF93BF93EF93FF93E0910E02CE
:1015A000F0910F021995FF91EF91BF91AF919F912B
:1015B0008F917F916F915F914F913F912F910F90FC
:1015C0000BBE0F900FBE0F901F9018951F920F9299
:1015D0000FB60F9211240BB60F922F933F934F9398
:1015E0005F936F937F938F939F93AF93BF93EF938B
:1015F000FF93E0910C02F0910D021995FF91EF918C
:10160000BF91AF919F918F917F916F915F914F911A
:101610003F912F910F900BBE0F900FBE0F901F9018
:1016200018951F920F920FB60F9211240BB60F92BE
:101630002F933F934F935F936F937F938F939F93DA
:10164000AF93BF93EF93FF93E0910202F0910302F7
:101650001995FF91EF91BF91AF919F918F917F91DC
:101660006F915F914F913F912F910F900BBE0F9013
:101670000FBE0F901F9018951F920F920FB60F92EA
:1016800011240BB60F922F933F934F935F936F9359
:101690007F938F939F93AF93BF93EF93FF93E091CB
:1016A0000002F09101021995FF91EF91BF91AF9166
:1016B0009F918F917F916F915F914F913F912F916A
:1016C0000F900BBE0F900FBE0F901F9018951F929A
:1016D0000F920FB60F9211240BB60F922F933F93D8
:1016E0004F935F936F937F938F939F93AF93BF932A
:1016F000EF93FF93E0910A02F0910B021995FF918D
:10170000EF91BF91AF919F918F917F916F915F9179
:101710004F913F912F910F900BBE0F900FBE0F90E6
:101720001F9018951F920F920FB60F9211240BB6AF
:101730000F922F933F934F935F936F937F938F936A
:101740009F93AF93BF93EF93FF93E0910802F091C3
:1017500009021995FF91EF91BF91AF919F918F91E0
:101760007F916F915F914F913F912F910F900BBEA1
:101770000F900FBE0F901F9018951F920F920FB6EB
:101780000F9211240BB60F922F933F934F935F93B9
:101790006F937F938F939F93AF93BF93EF93FF9339
:1017A000E0910602F09107021995FF91EF91BF9128
:1017B000AF919F918F917F916F915F914F913F91E9
:1017C0002F910F900BBE0F900FBE0F901F9018958A
:1017D0001F920F920FB60F9211240BB60F922F93F8
:1017E0003F934F935F936F937F938F939F93AF93A9
:1017F000BF93EF93FF93E0910402F09105021995D6
:10180000FF91EF91BF91AF919F918F917F916F91D8
:101810005F914F913F912F910F900BBE0F900FBE94
:101820000F901F9018950F931F93CF93DF938C0108
:1018300061308FEF780714F461E07FEFEB016F3FC9
:10184000710519F014F0CFEFD0E0F801808191819B
:10185000009719F00197C1F030C0D7FD06C0BE0156
:10186000F8018281D5DC60E008C0662777276C1B11
:101870007D0BF8018281CCDC61E0F8018381DF918E
:10188000CF911F910F9195CBD7FD07C0BE01F801F5
:101890008281BEDC60E070E009C060E070E0F801C9
:1018A0008281B6DC662777276C1B7D0BF80183816C
:1018B000DF91CF911F910F91ABCCDF91CF911F9111
:1018C0000F9108958F929F92AF92BF92CF92DF9225
:1018D000EF92FF92FC01828128E532E06901C81A8B
:1018E000D10887FDD394CC0CDD1CCC0CDD1C0D2C59
:1018F000000CEE08FF08818128E830E04901881AD1
:10190000910887FD9394880C991C880C991C092CCC
:10191000000CAA08BB0880818F3FC1F090E0FC0159
:10192000EE0FFF1F8E0F9F1FFC01EE5DFB4F21810D
:10193000328143E0220F331F4A95E1F754E0369598
:1019400027955A95E1F72E5F3F4F02C020E030E027
:101950002F5F3F4FC901330FAA0BBB0B9C01AD0199
:10196000281939094A095B09A4EBB0E00E941C2040
:10197000A7019601281939094A095B090E9400202C
:10198000C901FF90EF90DF90CF90BF90AF909F90F4
:101990008F900895CF92DF92EF92FF92CF93DF93D3
:1019A000EC01603282E078070CF03DC077FD06C0A4
:1019B000653B71052CF064EB70E002C060E070E004
:1019C000898128E830E06901C81AD10887FDD394DD
:1019D000CC0CDD1CCC0CDD1C0D2C000CEE08FF0823
:1019E0008A8128E532E0281B310987FD3395220FD3
:1019F000331F220F331FC901330FAA0BBB0B9C01EE
:101A0000AD012C193D094E095F09DB010E9426201A
:101A100024EB30E040E050E00E940020C20ED31ED4
:101A2000E41EF51EB6013881303380F5298188E83F
:101A300090E0821B910927FD9395880F991F880FCD
:101A4000991F6817790784F08A8148E552E0481B9E
:101A5000510987FD5395440F551F440F551FCB0166
:101A6000461757070CF4CA010297880F991F4FB702
:101A7000F894232F30E0F901EE0FFF1F2E0F3F1FC8
:101A8000F901EE5DFB4F928381834FBFDF91CF91D0
:101A9000FF90EF90DF90CF9008958130910581F411
:101AA0001092800082E08093810010928500109255
:101AB0008400B19A80916F00826080936F000895D6
:101AC0008230910569F41092900082E08093910039
:101AD000109295001092940088BB80937100089535
:101AE0008330910569F41092A00082E08093A100F8
:101AF0001092A5001092A40089BB809372000895F3
:101B0000892B61F41092200182E0809321011092D0
:101B10002501109224018ABB8093730008951F92BF
:101B20000F920FB60F9211240BB60F922F933F9383
:101B30004F935F936F937F938F939F93AF93BF93D5
:101B4000EF93FF9348E251E064E271E080E090E0BF
:101B50005EDAFF91EF91BF91AF919F918F917F914D
:101B60006F915F914F913F912F910F900BBE0F900E
:101B70000FBE0F901F9018951F920F920FB60F92E5
:101B800011240BB60F922F933F934F935F936F9354
:101B90007F938F939F93AF93BF93EF93FF9348EA05
:101BA00050E064EA70E083E090E031DAFF91EF9179
:101BB000BF91AF919F918F917F916F915F914F9165
:101BC0003F912F910F900BBE0F900FBE0F901F9063
:101BD00018951F920F920FB60F9211240BB60F9209
:101BE0002F933F934F935F936F937F938F939F9325
:101BF000AF93BF93EF93FF9348E950E064E970E03F
:101C000082E090E004DAFF91EF91BF91AF919F9154
:101C10008F917F916F915F914F913F912F910F9095
:101C20000BBE0F900FBE0F901F9018951F920F9232
:101C30000FB60F9211240BB60F922F933F934F9331
:101C40005F936F937F938F939F93AF93BF93EF9324
:101C5000FF9348E850E064E870E081E090E0D7D975
:101C6000FF91EF91BF91AF919F918F917F916F9174
:101C70005F914F913F912F910F900BBE0F900FBE30
:101C80000F901F9018950F931F93CF93DF93CDB7AD
:101C9000DEB728970FB6F894DEBF0FBECDBF019612
:101CA0008C010E7FC8010E949A21AC01009729F097
:101CB000BC01600F711FCB0104C060E070E080E0E8
:101CC00090E05A8349835C834B837E836D83242F0A
:101CD0003A815C817E8128960FB6F894DEBF0FBEF4
:101CE000CDBFDF91CF911F910F910895FC0190819D
:101CF0009078692B60830895CF93DF93EC018881FE
:101D00009981461B570BDC01ED91FC910280F38118
:101D1000E02D19952A813B81820F931F9B838A8333
:101D2000DF91CF910895EF92FF921F93CF93DF93AE
:101D3000CDB7DEB766970FB6F894DEBF0FBECDBF46
:101D40009C01CB01FE0177964E2F1F2F5AE0E52E06
:101D5000F12CB7010E946B21805D8293CB0100972B
:101D6000C1F7512FBF01C901C7DF66960FB6F894BE
:101D7000DEBF0FBECDBFDF91CF911F91FF90EF90DF
:101D80000895CF93DF93EC0188819981DC01ED9177
:101D9000FC910190F081E02D19952A813B81820F01
:101DA000931F9B838A83DF91CF910895CB01BA0162
:101DB00020E030E044EB53E40E94C22027EC3BECEF
:101DC00045E456E40E944C1F0E942A21CB0108954D
:101DD000FC0175836483672B11F4178616860895BA
:101DE0001F93CF93DF93EC01CE0128D78B302CF4D7
:101DF0008930FCF48823B1F02FC08032D1F08F32CB
:101E000019F08D3049F515C01886CE0117D78A32E2
:101E100019F08F32C1F01DC0188610E0CE010ED728
:101E2000811103C081E090E019C08F3221F41123A9
:101E300011F01886D9CF11E08A3209F010E0188627
:101E4000EDCF8A3089F21886CE01F8D68111F9CF0C
:101E5000E9CF82E090E002C080E090E0DF91CF9196
:101E60001F910895CF93DF93EC018EEA93E00E94D7
:101E7000B4178C859D85009759F0019799F48A894C
:101E80009B890E941D022E813F81621773071CF4FB
:101E90006C897D8902C06E897F89CE01DF91CF91E7
:101EA0000C947C19DF91CF910895CF93DF93FC01BF
:101EB00026853785232B69F4EC016489758941E017
:101EC00050E00E94CF18882321F081E090E09F87A6
:101ED0008E87DF91CF91089560E070E0FC018089EA
:101EE0009189A1CC8091D4049091D5040C94DB010C
:101EF0008091D2049091D3040C94DB018091D004A2
:101F00009091D1040C94DB018091CE049091CF0488
:101F10000C94DB018091CC049091CD040C94DB01F6
:101F20008091CA049091CB040C94DB01CF92DF9294
:101F3000EF92FF920F931F93CF93DF93CDB7DEB74E
:101F4000A4970FB6F894DEBF0FBECDBF6B01CE01D4
:101F50000E969A8389839C838B837E018EE1E80EA3
:101F6000F11CFE82ED82F886EF8260E0CE010D96D4
:101F7000BDDE8D858F7741F460E2CE010D96B6DE31
:101F80001A8619861C861B868D8585FF33C064EBF7
:101F900073E089859A850E943002009711F08C01C8
:101FA00012C0BE016F5F7F4FCE0109960E942804C8
:101FB000FC01892BF9F084818F77848384EB93E093
:101FC000978386838F01DCA2CBA2BE016F5F7F4F18
:101FD000CE0183960E945B046C01C8010496C11473
:101FE000D10431F065E082DEF801D182C08202C006
:101FF00060E07CDE86ED94E09F8F8E8F19A218A2A0
:102000001AA2B701CE01099659D38BE793E0ACD75A
:10201000A4960FB6F894DEBF0FBECDBFDF91CF916F
:102020001F910F91FF90EF90DF90CF900895FC01EA
:1020300080819181892B21F460E070E0CB010895CB
:1020400069EA75E080E090E00895FC018481958163
:10205000009799F0228133814681578124173507F3
:1020600018F0158214820895A9014F5F5F4F5383C2
:102070004283FC01E20FF31F608308958F929F92C9
:10208000AF92BF92CF92DF92EF92FF920F931F9386
:10209000CF93DF93CDB7DEB7CD54D1090FB6F89407
:1020A000DEBF0FBECDBF8C017B019ADE2E969FAFA7
:1020B0008EAF2E97CE01845B9F4FB9DF672B09F05F
:1020C0007FC080FD7DC0C801B9D5873281F4BE01D3
:1020D0006F5B7F4FC80100D69A838983CE0101963A
:1020E000A6DF672B09F0A1C180FD9FC1A1C1883285
:1020F0009CF4823261F3C801A1D5C82ECE010196AD
:102100005C01D12C4C018C2D7FD5882309F49EC114
:102110009FE3D9120BC29AC18B3529F560E4C70140
:102120000496E4DDD70111961C921E9213961C9220
:102130001E921297F8018681882341F1C8017ED54D
:102140008B3509F052C1D80118961C92C80148DE9F
:102150009A838983CE0101966ADF672B09F065C1F6
:1021600080FD63C134C08B3709F0C5CF60E2C70181
:102170000496BCDDD70111961C921E9213961C92F8
:102180001E921297F8018681811102C085E05CC120
:10219000C80154D58B3709F028C1D80118961C9274
:1021A000C8011EDE2C969FAF8EAF2C97CE01865BAA
:1021B0009F4F3DDF672B09F031C180FD2FC168C003
:1021C0002D968FAD2D972E969FAD2E97B9C1C80134
:1021D00035D58D3589F1D8016D917C91C7010E946B
:1021E0002804BC01892B09F449C0F801968191505B
:1021F0009683C80143DF9A838983D80116968C9110
:1022000016978F5F16968C93CE01019610DF672B81
:1022100009F00BC180FD09C1C801E2DD9A83898301
:10222000CE01019604DF672B09F0FFC080FDFDC0E1
:10223000C80104D58D3521F5F801108604C1C80107
:10224000FDD48C3209F0D1C0F8011086C801C8DD78
:102250002C969FAF8EAF2C97CE01865B9F4FE7DE0B
:10226000672B09F0DBC080FDD9C0D8016D917C914E
:10227000C7010E9428046C01892B79F483E0E4C033
:10228000C801DCD48C3209F0B0C0F8011086A3CFAD
:10229000C801D4D48D3749F7CFCFC801CFD4873206
:1022A00011F0823299F4BE016F5B7F4FC80114D5E3
:1022B0002C969FAF8EAF2C97CE01865B9F4FB7DEDB
:1022C000672B09F0ABC080FF55C0A8C0D801149699
:1022D000ED91FC91159722813381848195819383BF
:1022E0008283FA83E9831C821B823E832D83821BB7
:1022F000930B98878F83C801A1D4B82E8823B9F196
:102300008B2D82D4882369F1F80110866B2DCE01C4
:1023100001969BDEC80192D4B82E76D48111F4CFF9
:1023200060E0CE01019691DE8D819E81892B71F056
:10233000E981FA818B819C812F813885821B930BE7
:1023400022813381820F931F938382838D819E81AB
:1023500023969FAF8EAF2397892B31F080E090E0DA
:10236000A7CF82E090E0A4CF83E090E0A1CF81E00E
:1023700090E09ECF23962EAD3FAD2397F60184814A
:102380008068848337832683C8012ADD2C969FAF1B
:102390008EAF2C97CE01865B9F4F49DE672B09F0ED
:1023A0003DC080FD3BC0C80149D48A33F1F4D80157
:1023B00018961C92189716968C911697815016961F
:1023C0008C93B601C8015ADE2C969FAF8EAF2C9726
:1023D000F80186818F5F8683CE01865B9F4F27DE63
:1023E000672BE1F480FF03C019C082E02DC0C80153
:1023F000F7DC2C969FAF8EAF2C97CE01865B9F4F5C
:1024000016DE672B59F480FD09C0C80117D48D373B
:1024100009F015CFD80118961C9215C02B968FADD8
:102420002B972C969FAD2C978BC089819A8188C061
:1024300023960EAD1FAD239765E0C701049656DCC9
:10244000D7010D931C9380E090E07AC0F401ED0D6C
:10245000F11D10828981843791F466E0C7010496EA
:1024600045DC81E090E0A0E0B0E0F701808391835B
:10247000A283B38390E0F4E0DF1262C019C0863615
:1024800081F466E0C701049631DCD7011D921D92EC
:102490001D921C92139781E090E0B5E0DB1250C0D2
:1024A00007C08E3639F481E090E0E4E0DE1248C0E7
:1024B00080E046C0B401CE018F5B9F4F0E9459025D
:1024C00025968CAC9DACAEACBFAC25972A968FAD53
:1024D0002A978A3079F08C30C1F0883009F085CFA6
:1024E00068E0C701049602DCF70180829182A28233
:1024F000B382A9CF6AE0C7010496F8DBD7018D92B9
:102500009D92AD92BC9213979ECF29968CAC9DACB8
:10251000AEACBFAC29976CE0C7010496E7DBD701EE
:102520008D929D92AD92BC9213978DCFF80110863B
:10253000D394D501CD925D01C80180D3C82EE3CDDF
:10254000C35BDF4F0FB6F894DEBF0FBECDBFDF9188
:10255000CF911F910F91FF90EF90DF90CF90BF90A0
:10256000AF909F908F9008958F929F92AF92BF925D
:10257000CF92DF92EF92FF920F931F93CF93DF934F
:10258000CDB7DEB766970FB6F894DEBF0FBECDBFEE
:102590007C018E01095E1F4F68018AE0882E912C14
:1025A000A12CB12CCB01BA01A50194010E942C20D1
:1025B000942F852F605DF80162938F01A901692F27
:1025C000782F411551056105710561F7A601BF011D
:1025D000C70192DB66960FB6F894DEBF0FBECDBF83
:1025E000DF91CF911F910F91FF90EF90DF90CF90EF
:1025F000BF90AF909F908F900895CF93DF93EC01A1
:1026000088819981FB0101900020E9F73197AF01A2
:10261000461B570BDC01ED91FC910280F381E02D0C
:1026200019952A813B81820F931F9B838A83DF91B7
:10263000CF910895FF920F931F93CF93DF9361156E
:10264000710541F46AEC73E0DF91CF911F910F9116
:10265000FF90D3CF8B01EC0162E2CE0192DBF80157
:1026600061918F01662351F0EBEBF3E0F080FF20E6
:10267000A1F38181681751F03296F8CF62E2CE0162
:10268000DF91CF911F910F91FF907BCB6CE5CE0135
:1026900078DB6F2DE2CF0F931F93CF938C01C0E0B7
:1026A000F8018481C81730F46FEC73E0C801A5DF2E
:1026B000CF5FF6CFCF911F910F9108952F923F9248
:1026C0004F925F926F927F928F929F92AF92BF9242
:1026D000CF92DF92EF92FF920F931F93CF93DF93EE
:1026E000CDB7DEB766970FB6F894DEBF0FBECDBF8D
:1026F000FC018B0194819F77963009F4E9C058F46E
:10270000923008F4F3C0943008F4C5C06081718140
:10271000C80190DF60C29C30B9F080F4983009F4B1
:10272000D0C09A3009F0E2C0C080D180E280F3804E
:102730006DE2C80126DBB701A601C7C0903209F4DB
:1027400065C0903431F1D2C0408051806280738086
:10275000A3019201C301B2010E94E71E8111C6C00C
:1027600020E030E0A901C301B2010E94E71E8823E6
:1027700009F4C1C0A3019201C301B2010E945E200D
:102780009B01AC01C301B2010E94E71E8111B3C0DD
:10279000ADC0E080F180E114F10419F469ED73E05B
:1027A000A7C06CED73E0C80128DFD80114968C91A6
:1027B00014978F5F14968C93C8016DDFB801C70121
:1027C0007DDFF7018581882349F0F8E08F02E00C76
:1027D000F11C1124E114F10431F402C0E12CF12CBC
:1027E00063ED73E002C062ED73E0C80106DFE1143F
:1027F000F10411F7D80114968C9114978150149616
:102800008C93C80148DF6AED73E072C0E080F1800C
:10281000E114F10419F460EE73E06AC063EE73E052
:10282000C801EBDEF80184818F5F8483C80133DF48
:10283000D70116966D917C911797C801FBDE67EE64
:1028400073E0C801DADEB801C70138DFF70185811E
:10285000882349F0F8E08F02E00CF11C1124E11408
:10286000F10431F402C0E12CF12C63ED73E002C0FD
:1028700062ED73E0C801C1DEE114F104B9F6D801DC
:1028800014968C911497815014968C93C80103DF91
:1028900061EE73E02DC0DB018D919C9142815381EB
:1028A00060817181DC01ED91FC910280F381E02D6A
:1028B0001995F80122813381820F931F93838283BC
:1028C0008AC14081518162817381C8014DDE83C11B
:1028D00080819181A281B381892B8A2B8B2B19F066
:1028E0006AEE73E005C06FEE73E002C06AEC73E05D
:1028F000C80183DE70C120E030E0A901C301B2014C
:102900000E94E71E87FF07C06DE2C8013ADA77FA36
:10291000709477F8709420E836E948E15BE4C301ED
:10292000B2010E945B2187FD33C066E6C62E62E0DD
:10293000D62E76E3A72E72E0B72EE0E2EE2EF12C33
:10294000212C312CA3019201D6019E918E917E9172
:102950006E916D010E94E71E18166CF0F501248936
:10296000358946895789C301B2010E944C1F2B014A
:102970003C012E0C3F1CF594E794F4E0AF1AB1082B
:102980008EE4C81682E0D806E9F6BB24BA9407C0E4
:1029900030E2E32EF12C45E0B42E212C312C20E046
:1029A00030E0A901C301B2010E945B21181694F521
:1029B0002CEA35EC47E257E3C301B2010E94E71E5F
:1029C000181644F19FEFB91629F1AB2DB4E0AB0214
:1029D00060011124F601EA59FD4FA30192016081C3
:1029E0007181828193810E945B2118167CF4F6012B
:1029F000E25BFD4F2081318142815381C301B201ED
:102A00000E944C1F2B013C012E183F08F594E794BF
:102A1000BA94D8CFC301B2010E942F214B015C01AF
:102A20006B017C01E6E0EE8B80E492E4AFE0B0E085
:102A30008A8B9B8BAC8BBD8B9E89998BA92FA150C8
:102A4000AE8BBAE0CB16D104E104F104C8F06A8978
:102A50007B898C899D892AE030E040E050E00E942B
:102A60002C202A8B3B8B4C8B5D8BC701B6012AE057
:102A700030E040E050E00E942C2069017A01DCCF78
:102A8000C501B4010E94EB1E9B01AC01C301B20160
:102A90000E945D206B017C016A897B898C899D89FC
:102AA0000E94EB1E9B01AC01C701B6010E944C1FA6
:102AB0002B013C010E942F216B017C010E94EB1E27
:102AC0009B01AC01C301B2010E945D209B01AC01DE
:102AD0000E945E200E942F21C60ED71EE81EF91EFE
:102AE0008A899B89AC89BD89C816D906EA06FB0686
:102AF000E0F09FEF891A990AA90AB90A2114310452
:102B000089F0AAE08A169104A104B10458F0BFEF3D
:102B10002B1A3B0AC12CD12C7601812C912C54010B
:102B2000839403C0C12CD12C76018AE0482E512C0D
:102B3000612C712CC701B601A30192010E942C20C7
:102B4000672B682B692B41F4E9891E162CF4690167
:102B50007A01E150E98BEECFB501A401C80104DD93
:102B6000F989FF2321F15F2E5E0181E1A80EB11CDE
:102B700035015A949FEF591679F0C701B6012AE042
:102B800030E040E050E00E942C20605DD5016E9363
:102B90005D0169017A01EDCFB301B9896B1B710940
:102BA0008EE2FB018293BF01A301C801A5D837FEC5
:102BB00009C066ED73E0C80120DD6627772762193A
:102BC000730907C02114310431F065E6C801D9D872
:102BD000B101C801A8D866960FB6F894DEBF0FBE43
:102BE000CDBFDF91CF911F910F91FF90EF90DF90BC
:102BF000CF90BF90AF909F908F907F906F905F909D
:102C00004F903F902F900895982F80ED890F8A3034
:102C100020F081EA890F8C3110F481E008958FEB68
:102C2000890F8A31D0F39B32C1F381E09D3221F0CC
:102C30009E3219F080E0089508950895CF92DF92B2
:102C4000EF92FF920F931F93CF93DF93EC01888550
:102C5000811134C00A811B810E94650AD80118962F
:102C60006D937D938D939C931B97D801ED91FC916F
:102C70000284F385E02DC801199597FF29C00E94B1
:102C8000650AF801C084D184E284F384DC01CB01BD
:102C90008C199D09AE09BF09C480D580E680F780F4
:102CA0008C159D05AE05BF0500F38FEF9FEF97FFD5
:102CB00002C080E090E08F8381E088878F81DF9180
:102CC000CF911F910F91FF90EF90DF90CF900895DB
:102CD000082E000C990BEBCFDF92EF92FF920F932F
:102CE0001F93CF93DF93CDB7DEB728970FB6F89435
:102CF000DEBF0FBECDBF8C017B01DC011496ED91D0
:102D0000FC911597228133818481958193838283FD
:102D1000FA83E9831C821B823E832D83821B930BE3
:102D200098878F83C8018ADFD82EF8011086C801E2
:102D300085DFD80118961C92D81639F1811103C08D
:102D400081E090E044C08C35D9F4C80177DF882356
:102D5000B9F3853719F0EFEBF3E006C084E090E0BB
:102D600036C0891729F0329690819111FACF06C0AA
:102D70008181811103C082E090E029C0F8011086B2
:102D8000682FCE01019661D9D2CF60E0CE010196C5
:102D90005CD98D819E81892B71F08B819C81E98129
:102DA000FA812F813885821B930B22813381820F18
:102DB000931F938382838D819E81D7018D939C93F2
:102DC000892B19F483E090E002C080E090E028961F
:102DD0000FB6F894DEBF0FBECDBFDF91CF911F912C
:102DE0000F91FF90EF90DF900895CF92DF92EF92D6
:102DF000FF920F931F93CF93DF936C017A018B01A6
:102E0000C0E0D0E0CE15DF0581F0D8016D918D01D5
:102E1000D601ED91FC910190F081E02DC60119954C
:102E2000892B11F02196EECF7E01C701DF91CF9162
:102E30001F910F91FF90EF90DF90CF900895CF9268
:102E4000DF92EF92FF920F931F93CF93DF93EC01EA
:102E500088858B7F8887CE010E943607182F88854A
:102E600086958170181759F00E94650A6A837B83E2
:102E70008C839D83988582E0892788873AC00E9449
:102E8000650ACA80DB80EC80FD80AB01BC014C1977
:102E90005D096E097F098E819F81A0E0B0E048172F
:102EA00059076A077B0728F188858170181709F18F
:102EB0000E94650A6A837B838C839D83988581E069
:102EC0008927846088870E94650A0A851B852C856E
:102ED0003D85DC01CB01801B910BA20BB30B8E87D0
:102EE0009F87A88BB98B0E94650A6A877B878C872E
:102EF0009D87888582FB882780F9DF91CF911F917C
:102F00000F91FF90EF90DF90CF900895EF92FF9296
:102F10000F931F93CF93DF93EC018B017A01CB01C9
:102F200002968DDFF80122858889998920FD0AC0E3
:102F300022FF08C01B861A8660E070E00E94130C16
:102F400081E00BC029E12E9DB0012F9D700D112451
:102F50007B876A870E94130C80E0DF91CF911F91DD
:102F60000F91FF90EF900895CF93DF93009771F04A
:102F7000FC0101900020E9F73197AF01481B590B84
:102F8000BC0186ED94E031DFEC0102C0C0E0D0E08E
:102F900042E050E063ED73E086ED94E026DF8C0FB5
:102FA0009D1FDF91CF910895CF93DF93EC0185EFC3
:102FB00093E0998388838EE992E09B838A831C82C5
:102FC0001D821E821F828AE090E0998788871A8678
:102FD0006B87CE0102960E943607882319F08A85F6
:102FE00083608A870E94650A6C837D838E839F83BA
:102FF00084E190E099878887DF91CF9108956F925F
:103000007F928F929F92AF92BF92CF92DF92EF9278
:10301000FF920F931F93CF93DF93EC01762E642ED4
:10302000490182E094E09B838A8382E090E09D8363
:103030008C8380E992E0998388831D861C861F8695
:103040001E8684E090E00E949A215C01DC011196CA
:103050001C921E9212967C92129713966C9261E0CB
:10306000872D0E94CC0861E0F50183810E94CC0885
:1030700060E0D50112968C910E94D90760E0F501BD
:1030800083810E94D907B98AA88A8CE090E00E94C7
:103090009A215C0162E0882D0E94CC0862E0802FBA
:1030A0000E94CC08A4015527FA01EA5FFD4FE49184
:1030B000F0E0EE0FFF1FE451FE4FA591B491F50132
:1030C000B183A083FA01EA55FE4F4491F501448390
:1030D000C8019927FC01EA5FFD4FE491F0E0EE0F93
:1030E000FF1FE451FE4F25913491F5013383228374
:1030F000FC01EA55FE4F8491F50185831782108605
:1031000011861286EBE3FFE13197F1F7EC914E2344
:1031100091E009F490E0D901EC91E82309F0926084
:10312000F5019683B501882D0E945D01D5011B969E
:103130008C93B501802F0E945D01F5019385890F65
:103140008387BB8AAA8A84E190E00E949A218C013D
:10315000B7012ADF1D8B0C8BFFEFCF16DF0671F056
:1031600084E190E00E949A218C01B6011DDF1F8B43
:103170000E8B81E090E09D878C8702C01D861C86A7
:10318000DF91CF911F910F91FF90EF90DF90CF9043
:10319000BF90AF909F908F907F906F900895EF9227
:1031A000FF920F931F93CF93DF93EC017B018A0172
:1031B000CB01029644DEF701928595702889398902
:1031C000953049F41B861A8660E070E0C9010E94C0
:1031D000130C81E00CC089E1809FB001819F700DCC
:1031E00011247B876A87C9010E94130C80E0DF915C
:1031F000CF911F910F91FF90EF900895BF92CF92C2
:10320000DF92EF92FF920F931F93CF93DF93EC0126
:10321000E881F9810280F381E02D19957C018A898A
:103220009B890E941D02E60EF71EE616F7060CF0BB
:1032300040C08C859D85892B19F4CC88DD8802C01F
:10324000CE88DF880FEF1FEFA801B601CE01A7DF00
:10325000B82E8A899B890E941D02B1101BC00130C3
:103260001105A1F4E616F7067CF71B861A8660E0C6
:1032700070E088899989DF91CF911F910F91FF901C
:10328000EF90DF90CF90BF900C94130C6E157F05DC
:10329000DCF6EBCF0130110519F40FEF1FEF02C080
:1032A00001E010E0A801B601CE0130DE8823D1F3A1
:1032B000DCCFCC88DD8801E010E0C6CFCF93DF9370
:1032C000EC016C897D8941E050E0CE0168DF882304
:1032D000C1F36C897D894FEF5FEFCE0117DE882344
:1032E000C1F3EA89FB89F894178210861186128649
:1032F0007894DF91CF910895EF92FF920F931F93EF
:10330000CF93DF93EC018B018A899B890E941D0278
:10331000AB012E813F81621B730B6C597F4F693C5F
:10332000710590F483E194E01FDEE881F98101905A
:10333000F081E02D62E070E0CE01DF91CF911F912E
:103340000F91FF90EF9019944217530724F0EE2449
:10335000EA94FE2C03C0EE24E394F12CC8010296FB
:103360006EDDF80182858570853051F0A701B801C6
:10337000CE01DF91CF911F910F91FF90EF900FCF72
:10338000F1E0EF16F10471F44FEF5FEFB801CE01F9
:10339000BDDD8111EBCFDF91CF911F910F91FF9098
:1033A000EF90089541E050E0F1CFCF93DF93CDB798
:1033B000DEB7C754D1090FB6F894DEBF0FBECDBF3C
:1033C000789484B5826084BD84B5816084BD85B500
:1033D000826085BD85B5816085BD80916E0081600C
:1033E00080936E00109281008091810082608093B2
:1033F00081008091810081608093810080918000B4
:103400008160809380008091B10084608093B100DE
:103410008091B00081608093B000809191008260C3
:1034200080939100809191008160809391008091C0
:1034300090008160809390008091A10082608093D1
:10344000A1008091A10081608093A1008091A000E3
:1034500081608093A000809121018260809321018E
:103460008091210181608093210180912001816000
:103470008093200180917A00846080937A0080910B
:103480007A00826080937A0080917A0081608093D4
:103490007A0080917A00806880937A001092C1004F
:1034A000E091E604F091E70482E08083E091E20499
:1034B000F091E3041082E091E404F091E50480E1EE
:1034C00080831092EE04E091EA04F091EB0486E030
:1034D0008083E091E804F091E90480818061808339
:1034E000E091E804F091E904808188608083E091B4
:1034F000E804F091E904808180688083E091E80429
:10350000F091E90480818F7D80838AE090E0A0E0E3
:10351000B0E08093DA049093DB04A093DC04B093D2
:10352000DD0488E190E006D75C014DE0C42ED12C8B
:103530005CE0E52EF12C06E210E028E230E045E008
:1035400050E066E070E05BDDB092BA04A092B9048E
:1035500088E190E0EFD65C01CC24CA94DC2C77E0C3
:10356000E72EF12C02E210E024E230E049E050E0E6
:103570006AE070E044DDB092B804A092B70484E140
:1035800090E0D8D68C0182EA92E0D80113969C9301
:103590008E93129782E090E015969C938E931497E9
:1035A0008AE192E011969C938E9388E190E01B96BD
:1035B0009C938E931A9786E190E01D969C938E9330
:1035C0001C978EE290E01F969C938E931E978CE240
:1035D00090E051969C938E93509761E088E10E9411
:1035E000CC0861E086E10E94CC0861E08EE20E9496
:1035F000CC0861E08CE20E94CC0860E088E10E9487
:10360000D90760E086E10E94D90760E08EE20E945F
:10361000D90761E08CE20E94D90784E190E08AD664
:103620007C016AE170E0C0DCF801F38AE28A17826B
:1036300016821093B6040093B50488E090E07AD621
:103640008C0180EB92E0D80111969C938E9380912F
:10365000B2048033A0F491E0980F9093B2041296D4
:103660008C9390E0FC01EE0FFF1F8E0F9F1FFC015B
:10367000EE5DFB4F88EB9BE09283818303C08FEF6D
:10368000F80182838091B2048033A8F491E0980F0E
:103690009093B204D80115968C9390E0FC01EE0F44
:1036A000FF1F8E0F9F1FFC01EE5DFB4F88EB9BE021
:1036B0009283818303C08FEFF8018583D80112962E
:1036C0008C91803308F045C061E08BE10E94CC080A
:1036D000F8018281E82FF0E09F01220F331FE20FF3
:1036E000F31FEE5DFB4F9081907C9B619083D8012E
:1036F00013961C92139714961C926CE0E0D590E000
:10370000BCE08B9FB001112440E050E09B01240FEE
:10371000351FF901EE0FFF1F2E0F3F1FF901EE5D60
:10372000FB4F208126FD07C04F5F5F4F4C30510596
:1037300069F70E944D0DD8011296EC91F0E0CF018F
:10374000880F991FE80FF91FEE5DFB4F80818064A1
:103750008083F8018581803308F046C061E089E10B
:103760000E94CC08D80115968C911597E82FF0E0AF
:103770009F01220F331FE20FF31FEE5DFB4F90817D
:10378000907C9961908316961C92169717961C92BE
:103790006CE095D590E0BCE08B9FB001112440E037
:1037A00050E09B01240F351FF901EE0FFF1F2E0F74
:1037B0003F1FF901EE5DFB4F208126FD07C04F5FE3
:1037C0005F4F4C30510569F70E944D0DD801159699
:1037D000EC91F0E0CF01880F991FE80FF91FEE5D23
:1037E000FB4F8081806480831093B4040093B30402
:1037F0008FE090E09FD57C018091B5049091B60454
:103800002091B7043091B8044091B9045091BA04A2
:10381000F701518340833383228395838483178305
:10382000068381E090E086D5D70119969C938E930C
:103830001897F092BC04E092BB048DEB92E094DB0D
:1038400068EE73E080E090E00E94D209FE0170967D
:103850004F010091BB041091BC0484EF91E00E94E1
:10386000430E2EAB3FAB48AF59AF6AAF7BAF8CAFC7
:103870009DAF88E0FE01F696DE01DE9601900D9286
:103880008A95E1F788E0FE01FE96D40101900D9241
:103890008A95E1F760E0CE014C960E94760E888909
:1038A00099899B8B8A8B8E899F899D8B8C8B60E0FD
:1038B000CE014C960E94760E9A82898286ED94E023
:1038C0009C838B839E828D829AE09F831986BE01A2
:1038D000685E7F4FCE0101960E943E109E8F8D8FB5
:1038E000CE014D960E9417108C8D982F9F77B1F1C5
:1038F0004CC063E273E0C6014BD6892B09F09FC12F
:1039000065E473E0C5010E94AE030E94B803AB01F9
:10391000BC01D8011496ED90FC901597D701ED915C
:10392000FC910280F381E02DC7011995F7012085F4
:103930003185820F931F97838683D80114968D91CA
:103940009C911597DC01ED91FC910190F081E02DA7
:1039500061E070E019958A819B8184D58889998975
:1039600081D5D8018D919C910E948F05F8018281AB
:1039700093810E948F05D80114968D919C91159783
:103980000E948F050E94820664CF85FFEDC167ED1E
:1039900072E0888D998D0E9430020E9412047C0191
:1039A0006FED72E0F5D5892B19F464EE72E0AAC1CF
:1039B0006BEE72E0C701ECD5892B09F09BC18A89B7
:1039C0009B8928893989821B930B2E893F89820F15
:1039D000931F2C893D89821B930B0E94430E2EA3BB
:1039E0003FA348A759A76AA77BA78CA79DA788E0F4
:1039F000FE01B696DE019E9601900D928A95E1F742
:103A000088E0FE01BE96DE01129601900D928A9525
:103A1000E1F760E0CE010E960E94760E8A819B81CE
:103A20009D838C83888599859F838E8360E0CE01FA
:103A30000E960E94760E60E0CE010E960E94760EE3
:103A4000AE014E5F5F4FBE01685E7F4FCE010A96AA
:103A50000E9489048E8585FF8AC16FEE72E08A8597
:103A60009B850E943002009709F481C1FC012481EA
:103A700025FF7DC15C0164EF72E0C5010E94AE03C9
:103A80000E9412046C01D8011B969C938E931A9786
:103A900081E01E968C9369EF72E0C60179D5892B7F
:103AA00069F462E673E0C5010E94AE030E94B803A8
:103AB000AB01BC01F80180819181BFC06EEF72E063
:103AC000C60166D57C01892B09F071C064E073E002
:103AD000C5010E94AE03FC01892B09F463C09481E7
:103AE0009F77963059F018F49430C0F45BC09A3048
:103AF00051F09C30E9F1983009F054C080819181F7
:103B0000A281B38128C080819181A281B38181305B
:103B100020E89207A105B105C8F044C06081718119
:103B2000CE014D960E9459028D8D9E8DAF8DB8A10C
:103B30002DA12A3029F02C30B1F0283099F50BC096
:103B40008130E0E89E07A105B10560F5EE24FF2471
:103B5000E81AF90A27C08115F0E89F07A105B10509
:103B600008F57C011FC049A05AA06BA07CA004C02E
:103B7000408051806280738020E030E040E057EC6C
:103B8000C301B20198D387FD0DC020E03EEF4FEF97
:103B900056E4C301B2011BD1181624F0C301B201CF
:103BA00059D37B01B701FF0C880B990B99C06BE0CF
:103BB00073E0C601EDD4892B69F560E173E0C501BE
:103BC0000E94AE030E9412047C01D8011D969C93B2
:103BD0008E931C9769EF72E0DBD4892B21F4F801F6
:103BE000808191810BC06AE173E0C701D1D4892B38
:103BF00039F4D80112968D919C9113975FDB76C0B2
:103C000063E273E0C701C4D4892B09F46FC08DE26D
:103C100093E06BC06AE173E0C601BAD4892B09F066
:103C200068CE62E673E0C5010E94AE030E94B8034D
:103C3000AB01BC01F80182819381E0DA57C060EBEF
:103C400072E0C601A5D4892B09F04DC06EE473E083
:103C5000C5010E94AE030E94B8032B013C016AE536
:103C600073E0C5010E94AE030E94B803F3D26B015A
:103C70007C0128967FAF6EAF2897C301B201EAD2CC
:103C80002B013C01F80126803780672B99F0510108
:103C9000F2E0AF0EB11CC5010E94620CBC01640DC4
:103CA000751DC5010E94CA0C68EC70E080E090E0D0
:103CB0000E94D20928968EAD9FAD2897892BB1F02E
:103CC00095E0290E311CC1010E94620CBC016C0DF3
:103CD0007D1DC1010E94CA0C68EC70E080E090E09C
:103CE0000E94D20903C08AE693E03ED9C8010E942F
:103CF000200431CE6DE773E0C7014AD4892B41F42B
:103D000066E873E0D80118968D919C91199729C0A7
:103D10006CE873E0C7013CD4892B19F461E973E0C6
:103D20001DC069E973E0C70133D4892B09F016CEB1
:103D3000D8018D919C91DC01ED91FC910480F5817D
:103D4000E02D1995F80182819381DC01ED91FC91C0
:103D50000480F581E02D19956FE973E0F801808505
:103D600091850E94960FFACD80E090E016CEA12CAE
:103D7000B12C81CEE6EDF4E01382128288EE93E05E
:103D8000A0E0B0E084839583A683B78388E292E0C5
:103D90009183808385EC90E09587848784EC90E024
:103DA0009787868780EC90E0918B808B81EC90E008
:103DB000938B828B82EC90E0958B848B86EC90E0E9
:103DC000978B868B118E128E138E148E089540D091
:103DD00008F481E00895E89409C097FB3EF49095BB
:103DE0008095709561957F4F8F4F9F4F9923A9F0D4
:103DF000F92F96E9BB279395F69587957795679563
:103E0000B795F111F8CFFAF4BB0F11F460FF1BC0A6
:103E10006F5F7F4F8F4F9F4F16C0882311F096E939
:103E200011C0772321F09EE8872F762F05C06623E7
:103E300071F096E8862F70E060E02AF09A95660FA0
:103E4000771F881FDAF7880F9695879597F9089559
:103E5000990F0008550FAA0BE0E8FEEF161617069B
:103E6000E807F907C0F012161306E407F50798F003
:103E7000621B730B840B950B39F40A2661F0232B1C
:103E8000242B252B21F408950A2609F4A140A69598
:103E90008FEF811D811D08950BD078C069D028F067
:103EA0006ED018F0952309F05AC05FC01124A2C04B
:103EB0007ED0A0F3959FD1F3950F50E0551F629FE0
:103EC000F001729FBB27F00DB11D639FAA27F00D73
:103ED000B11DAA1F649F6627B00DA11D661F829F9A
:103EE0002227B00DA11D621F739FB00DA11D621F7F
:103EF000839FA00D611D221F749F3327A00D611D9C
:103F0000231F849F600D211D822F762F6A2F11247D
:103F10009F5750408AF0E1F088234AF0EE0FFF1FD0
:103F2000BB1F661F771F881F91505040A9F79E3F07
:103F3000510570F014C05EC05F3FECF3983EDCF3B7
:103F4000869577956795B795F795E7959F5FC1F744
:103F5000FE2B880F911D9695879597F9089597F9EF
:103F60009F6780E870E060E008959FEF80EC08951F
:103F700000240A9416161706180609060895002448
:103F80000A9412161306140605060895092E0394C2
:103F9000000C11F4882352F0BB0F40F4BF2B11F436
:103FA00060FF04C06F5F7F4F8F4F9F4F089557FD95
:103FB0009058440F551F59F05F3F71F04795880F97
:103FC00097FB991F61F09F3F79F08795089512162E
:103FD00013061406551FF2CF4695F1DF08C01616DA
:103FE00017061806991FF1CF86957105610508948B
:103FF0000895E894BB2766277727CB0197F90895A2
:10400000052E97FB16F400940FD057FD05D024D051
:1040100007FC02D046F408C0509540953095219594
:104020003F4F4F4F5F4F08959095809570956195E4
:104030007F4F8F4F9F4F089531D0A59F900DB49F14
:10404000900DA49F800D911D11240895B7FFF4CF0A
:10405000F3DF821B930B0895A1E21A2EAA1BBB1B50
:10406000FD010DC0AA1FBB1FEE1FFF1FA217B30744
:10407000E407F50720F0A21BB30BE40BF50B661F5A
:10408000771F881F991F1A9469F76095709580951E
:1040900090959B01AC01BD01CF010895A29FB00195
:1040A000B39FC001A39F700D811D1124911DB29F6C
:1040B000700D811D1124911D08955058BB27AA270A
:1040C0000ED064CF55DF30F05ADF20F031F49F3F3F
:1040D00011F41EF44ACF0EF4E095E7FB40CFE92F30
:1040E00066DF80F3BA17620773078407950718F035
:1040F00071F49EF57ECF0EF4E0950B2EBA2FA02D15
:104100000B01B90190010C01CA01A0011124FF2784
:10411000591B99F0593F50F4503E68F11A16F0407F
:10412000A22F232F342F4427585FF3CF469537957E
:104130002795A795F0405395C9F77EF41F16BA0B43
:10414000620B730B840BBAF09150A1F0FF0FBB1FF1
:10415000661F771F881FC2F70EC0BA0F621F731F3A
:10416000841F48F4879577956795B795F7959E3F97
:1041700008F0B3CF9395880F08F09927EE0F979525
:10418000879508950CD002CFFADE40F0F1DE30F0D2
:1041900021F45F3F19F0E3CE51112CCFE6CE07DFBB
:1041A00098F39923C9F35523B1F3951B550BBB27FE
:1041B000AA2762177307840738F09F5F5F4F220FAB
:1041C000331F441FAA1FA9F333D00E2E3AF0E0E8A4
:1041D00030D091505040E695001CCAF729D0FE2FF0
:1041E00027D0660F771F881FBB1F26173707480782
:1041F000AB07B0E809F0BB0B802DBF01FF27935838
:104200005F4F2AF09E3F510568F0A9CEF3CE5F3F85
:10421000ECF3983EDCF3869577956795B795F7951F
:104220009F5FC9F7880F911D9695879597F9089517
:10423000E1E0660F771F881FBB1F621773078407B3
:10424000BA0720F0621B730B840BBA0BEE1F88F7C2
:10425000E095089504D06894B111CCCE0895AFDEF6
:1042600088F09F5790F0B92F9927B751A0F0D1F05F
:10427000660F771F881F991F1AF0BA95C9F712C0E9
:10428000B13081F0B6DEB1E00895B3CE672F782F5C
:104290008827B85F39F0B93FCCF386957795679555
:1042A000B395D9F73EF490958095709561957F4FC1
:1042B0008F4F9F4F0895CCDD08F48FEF0895991B21
:1042C00079E004C0991F961708F0961B881F7A950D
:1042D000C9F78095089597FB072E16F4009406D031
:1042E00077FD08D013D007FC05D03EF4909581955A
:1042F0009F4F0895709561957F4F0895EE0FFF1FB2
:10430000881F8BBF0790F691E02D1994AA1BBB1B49
:1043100051E107C0AA1FBB1FA617B70710F0A61BC5
:10432000B70B881F991F5A95A9F780959095BC01E6
:10433000CD0108950F931F93CF93DF9382309105A2
:1043400010F482E090E0E0917505F091760520E0B0
:1043500030E0A0E0B0E0309719F140815181028156
:10436000138148175907C8F08417950769F4109707
:1043700031F012960C93129713961C9327C000935A
:1043800075051093760522C02115310519F04217E5
:10439000530718F49A01BD01EF01DF01F801DBCFEB
:1043A00021153105F9F0281B390B2430310580F433
:1043B0008A819B816115710521F0FB0193838283C2
:1043C00004C09093760580937505FE01329644C033
:1043D000FE01E20FF31F819391932250310939833B
:1043E00028833AC02091730530917405232B41F442
:1043F00020911202309113023093740520937305BB
:1044000020911002309111022115310541F42DB790
:104410003EB74091140250911502241B350BE091D8
:104420007305F0917405E217F307A0F42E1B3F0B00
:104430002817390778F0AC014E5F5F4F2417350716
:1044400048F04E0F5F1F509374054093730581939E
:10445000919302C0E0E0F0E0CF01DF91CF911F9196
:104460000F910895CF93DF93009709F481C0FC0169
:10447000329713821282A0917505B091760510973C
:1044800081F420813181820F931F20917305309137
:1044900074052817390751F5F0937405E0937305F7
:1044A00067C0ED0120E030E0CE17DF0740F44A811D
:1044B0005B819E0141155105F1F0EA01F5CFD383EF
:1044C000C28340815181840F951FC817D90759F4C1
:1044D00088819981840F951F0296918380838A81B8
:1044E0009B81938382832115310529F4F09376050E
:1044F000E09375053DC0E901FB83EA834991599139
:10450000C40FD51FEC17FD0761F480819181840FE2
:10451000951F0296E90199838883828193819B8309
:104520008A83E0E0F0E012968D919C9113970097BA
:1045300019F0FD01DC01F7CF8D919C9111979D0140
:104540002E5F3F4F820F931F2091730530917405AA
:104550002817390769F4309729F4109276051092DC
:10456000750502C013821282B0937405A09373057F
:10457000DF91CF91089581E090E0F89412C0FB01A3
:10458000DC0102C001900D9241505040D8F70895CF
:10459000FB01DC018D91019080190110D9F3990B79
:0645A0000895F894FFCF1E
:1045A6003507350735073507350735073507350725
:1045B60000007705800000000000590166076507C6
:1045C6000A0A5C07000000001506F516AD0561062F
:1045D600DE05BC05D005CDCCCC3D0AD7233C17B7AC
:1045E600D13877CC2B329595E6241FB14F0A0000BF
:1045F60020410000C84200401C4620BCBE4CCA1BDD
:104606000E5AAEC59D740000803FCDCCCC3D6F12D6
:10461600833A95BFD6337D1D9026B3CE010C00009C
:10462600000059017807780778077807000000002E
:10463600E80ED60E6C0F320F550F0000000036073D
:10464600CF0953746570706572204D6F746F720078
:10465600456E64204566666563746F7200506F6CC4
:104666006172204245415220536574757020436F34
:104676006D706C65746500436F6D6D616E64004F9F
:1046860070656E004F70656E65640052756E0053FE
:1046960074657000547970650054696C74004465E3
:1046A6006C6179004C656E67746800486F6D6500D3
:1046B600436F6D706F6E656E7400526F74617469CE
:1046C6006F6E00457874656E73696F6E00556E6B1C
:1046D6006E6F776E20486F6D6520436F6D706F6EDD
:1046E600656E743B0044697374616E63650054695A
:1046F6006C744465677265657300526F74617469A2
:104706006F6E4465677265657300556E6B6E6F7785
:104716006E205374657020547970653B0046696E4F
:1047260069736865640052656164790053746F70DB
:104736000053746F7070656400436C6F736500435B
:104746006C6F7365640057616974696E67006D6F9D
:1047560076653B005374617475730022225C5C625B
:1047660008660C6E0A720D7409006E756C6C00207A
:1047760020002C0D0A00652D005B5D005B0D0A0014
:104786007B7D007B0D0A003A200074727565006619
:10479600616C7365004C696D697420537769746345
:1047A600680051756164726174757265204D6F742D
:1047B6006F7200526F7567686C7920457175616C10
:0247C6003B00B6
:020000023000CC
:10E000000D9489F10D94B2F10D94B2F10D94B2F129
:10E010000D94B2F10D94B2F10D94B2F10D94B2F1F0
:10E020000D94B2F10D94B2F10D94B2F10D94B2F1E0
:10E030000D94B2F10D94B2F10D94B2F10D94B2F1D0
:10E040000D94B2F10D94B2F10D94B2F10D94B2F1C0
:10E050000D94B2F10D94B2F10D94B2F10D94B2F1B0
:10E060000D94B2F10D94B2F10D94B2F10D94B2F1A0
:10E070000D94B2F10D94B2F10D94B2F10D94B2F190
:10E080000D94B2F10D94B2F10D94B2F10D94B2F180
:10E090000D94B2F10D94B2F10D94B2F10D94B2F170
:10E0A0000D94B2F10D94B2F10D94B2F10D94B2F160
:10E0B0000D94B2F10D94B2F10D94B2F10D94B2F150
:10E0C0000D94B2F10D94B2F10D94B2F10D94B2F140
:10E0D0000D94B2F10D94B2F10D94B2F10D94B2F130
:10E0E0000D94B2F141546D656761323536300041AF
:10E0F000726475696E6F206578706C6F72657220DE
:10E1000073746B3530305632206279204D4C530099
:10E11000426F6F746C6F616465723E004875683F52
:10E1200000436F6D70696C6564206F6E203D200048
:10E130004350552054797065202020203D20005FF9
:10E140005F4156525F415243485F5F3D2000415658
:10E1500052204C696243205665723D20004743437C
:10E160002056657273696F6E203D20004350552024
:10E1700049442020202020203D20004C6F7720663D
:10E18000757365202020203D20004869676820665F
:10E190007573652020203D200045787420667573D6
:10E1A00065202020203D20004C6F636B2066757336
:10E1B000652020203D20004D617220203720323024
:10E1C000313300312E362E3800342E332E350056A2
:10E1D00023202020414444522020206F7020636F70
:10E1E00064652020202020696E73747275637469E1
:10E1F0006F6E2061646472202020496E74657272B3
:10E20000757074006E6F20766563746F7200726A49
:10E210006D702020006A6D70200057686174207056
:10E220006F72743A00506F7274206E6F7420737541
:10E2300070706F72746564004D7573742062652030
:10E2400061206C6574746572002000577269747483
:10E25000696E672045450052656164696E672045B7
:10E26000450045452065727220636E743D00504F35
:10E27000525400303D5A65726F2061646472003FF1
:10E280003D43505520737461747300403D454550C3
:10E29000524F4D207465737400423D426C696E6B41
:10E2A000204C454400453D44756D70204545505215
:10E2B0004F4D00463D44756D7020464C415348001B
:10E2C000483D48656C70004C3D4C69737420492F83
:10E2D0004F20506F72747300513D51756974005234
:10E2E0003D44756D702052414D00563D73686F7707
:10E2F00020696E7465727275707420566563746FF0
:10E30000727300593D506F727420626C696E6B00BD
:10E310002A0011241FBECFEFD1E2DEBFCDBF01E046
:10E320000CBF12E0A0E0B2E0EEE1FDEF03E00BBFB6
:10E3300002C007900D92A030B107D9F712E0A0E01B
:10E34000B2E001C01D92AE30B107E1F70F9460F367
:10E350000D948DFE01E20EBF0FEF0DBF11241FBE05
:10E360000D9460F30D9400F020E030E040ED57E0B4
:10E3700005C0FA013197F1F72F5F3F4F2817390792
:10E38000C0F308959C01260F311DC901A0E0B0E043
:10E390002F5F3F4FABBFFC018791882361F08093D3
:10E3A000C6008091C00086FFFCCF8091C0008064D1
:10E3B0008093C000EACF08958DE08093C6008091DD
:10E3C000C00086FFFCCF8091C00080648093C000B5
:10E3D0008AE08093C6008091C00086FFFCCF8091C8
:10E3E000C00080648093C00008950F94C2F10F9420
:10E3F000DCF10895FC019081992359F09093C600B7
:10E400008091C00086FFFCCF8091C0008064809323
:10E41000C0003196992379F70895282F982F929567
:10E420009F70892F805D8A3308F0895F8093C600D2
:10E430008091C00086FFFCCF8091C00080648093F3
:10E44000C000822F8F70982F905D9A3308F0995FEB
:10E450009093C6008091C00086FFFCCF8091C000E1
:10E4600080648093C00008959C01FB01853691056E
:10E470001CF46330710594F0C90164E670E00F94F8
:10E480002EFE605D7F4F6093C6008091C00086FFC6
:10E49000FCCF8091C00080648093C0002B30310598
:10E4A00014F43297B4F0C90164E670E00F942EFEC4
:10E4B0006AE070E00F942EFE605D7F4F6093C600AF
:10E4C0008091C00086FFFCCF8091C0008064809363
:10E4D000C000C9016AE070E00F942EFEC0968093E0
:10E4E000C6008091C00086FFFCCF8091C000806490
:10E4F0008093C00008951F93182F8EE692EE60E07F
:10E500000F94C2F11093C6008091C00086FFFCCF2B
:10E510008091C00080648093C0000F94DCF11F9153
:10E5200008952F923F924F925F926F927F928F92B7
:10E530009F92AF92BF92CF92DF92EF92FF920F9392
:10E540001F93DF93CF93CDB7DEB762970FB6F894E2
:10E55000DEBF0FBECDBF382E622ECA01DB015C01CB
:10E560006D01772420E2222E2E010894411C511CBB
:10E570008BC081E0A81680E0B80681E0C80680E084
:10E58000D80628F0C601AA27BB270F940DF2BB2797
:10E59000AD2D9C2D8B2D0F940DF28A2D0F940DF225
:10E5A0002092C6008091C00086FFFCCF8091C00001
:10E5B00080648093C0009DE29093C6008091C0006B
:10E5C00086FFFCCF8091C00080648093C0002092C1
:10E5D000C6008091C00086FFFCCF8091C00080649F
:10E5E0008093C00019828601750188249924A1E0D6
:10E5F0003A1651F03A1620F0B2E03B1661F409C029
:10E600000BBFF701779007C0C7010F9477FE782EF4
:10E6100002C0F7017080872D0F940DF22092C60082
:10E620008091C00086FFFCCF8091C0008064809301
:10E63000C000872D8052F401EF70F0708F3520F408
:10E64000E40DF51D708204C0E40DF51D8EE280839B
:10E650000894E11CF11C011D111D0894811C911CE2
:10E6600090E18916910409F0C2CF80E190E0A0E02A
:10E67000B0E0A80EB91ECA1EDB1E198AC2010F9493
:10E68000FAF10F94DCF16A94662009F072CF629679
:10E690000FB6F894DEBF0FBECDBFCF91DF911F91B3
:10E6A0000F91FF90EF90DF90CF90BF90AF909F9031
:10E6B0008F907F906F905F904F903F902F90089534
:10E6C0002F923F924F925F926F927F928F929F9282
:10E6D000AF92BF92CF92DF92EF92FF920F931F9370
:10E6E000DF93CF93CDB7DEB7CD53D1400FB6F894BB
:10E6F000DEBF0FBECDBF01E20EBF0FEF0DBF94B75F
:10E70000F894A89514BE80916000886180936000A1
:10E7100010926000789493FF05C0E0910002F091A0
:10E7200001021995279A2F9A8091C00082608093E8
:10E73000C00080E18093C40088E18093C1000000A4
:10E74000EE24FF24870144E0A42EB12CCC24DD2448
:10E7500024C0C5010197F1F70894E11CF11C011DCB
:10E76000111D21E2E2162EE4F20620E0020720E06D
:10E77000120718F031E0C32ED12CC801B70127ECE5
:10E780003BE140E050E00F9441FE611571058105C9
:10E79000910519F485B1805885B98091C00087FD35
:10E7A00003C0C114D104A9F2A6014F5F5F4FC25E3E
:10E7B000DE4F59834883CE51D140C25EDE4F8881FF
:10E7C0009981CE51D140019711F00D9410FEC05D9A
:10E7D000DE4F19821882C053D14060E0C15DDE4F28
:10E7E0001882CF52D14088249924C35DDE4F19820C
:10E7F0001882CD52D140C05EDE4F188219821A8233
:10E800001B82C052D140CE5CDE4F188219821A8220
:10E810001B82C253D140EE24FF2487010BBFF701B6
:10E8200007911691C45CDE4F19830883CC53D14005
:10E830000D940BFEC25EDE4F28813981CE51D1404E
:10E840002130310509F52091C600C25EDE4F1982E4
:10E850001882CE51D14022C02F5F3F4F4F4F5F4FA4
:10E86000213082E138078AE7480780E0580780F0C6
:10E87000C45CDE4FE881F981CC53D140EF5FFF4F9C
:10E8800019F0EE27FF27099420E030E040E050E047
:10E890008091C00087FFE0CF2091C600C35DDE4FAE
:10E8A00048815981CD52D1404F5F5F4FC35DDE4FEC
:10E8B00059834883CD52D140213209F063C64A3092
:10E8C000510508F05FC60894811C911C53E0851621
:10E8D000910409F059C600E010E018C081E280936D
:10E8E000C6008091C00086FFFCCF8091C00080648C
:10E8F0008093C0002F5F3F4F2931310579F70F9486
:10E90000DCF10F5F1F4F0530110519F020E030E0FA
:10E91000E5CF10920A0210920B0210920C02109294
:10E920000D02109206021092070210920802109235
:10E930000902109202021092030210920402109235
:10E9400005028FEE90EE60E00F94F5F180E191EE1C
:10E9500060E00F94C2F18091C00087FFFCCF9091DE
:10E96000C600903608F09F759032B8F09093C600BC
:10E970008091C00086FFFCCF8091C00080648093AE
:10E98000C000A0E2A093C6008091C00086FFFCCF2B
:10E990008091C00080648093C000983409F4D7C18E
:10E9A0009934B8F4923409F459C1933458F490333B
:10E9B00019F1903308F4E3C59F33A1F1903409F0C5
:10E9C000DEC5BDC0953409F470C1963409F0D7C5D1
:10E9D00098C1923509F42BC2933538F49C3409F46C
:10E9E000F5C1913509F0CBC518C2963509F445C279
:10E9F000993509F0C4C567C483E792EE62E00F94CD
:10EA0000F5F110920602109207021092080210927D
:10EA1000090210920A0210920B0210920C0210923C
:10EA20000D0213C18FE792EE62E00F94F5F18FEEC5
:10EA300090EE60E00F94F5F181E291EE60E00F94CA
:10EA4000C2F187EB91EE60E00F94F5F180E391EE77
:10EA500060E00F94C2F184EE90EE60E00F94F5F167
:10EA60008FE391EE60E00F94C2F186E090E061E008
:10EA700070E00F9434F20F94DCF18DE591EE60E0DC
:10EA80000F94C2F189EC91EE60E00F94F5F18EE401
:10EA900091EE60E00F94C2F183EC91EE60E00F9490
:10EAA000F5F18CE691EE60E00F94C2F18EE10F94E7
:10EAB0000DF288E90F940DF281E00F940DF20F949E
:10EAC000DCF18BE791EE60E00F94C2F119E0E0E039
:10EAD000F0E010935700E4918E2F0F940DF20F94F5
:10EAE000DCF18AE891EE60E00F94C2F1E3E0F0E03F
:10EAF00010935700E4918E2F0F940DF20F94DCF1D8
:10EB000089E991EE60E00F94C2F1E2E0F0E0109349
:10EB10005700E4918E2F0F940DF20F94DCF188EAE8
:10EB200091EE60E00F94C2F1E1E0F0E01093570045
:10EB30001491812F0F940DF20F94DCF107CF8BE825
:10EB400092EE62E00F94F5F18BE492EE60E00F94A8
:10EB5000F5F10F94DCF100E010E019C0C8016F2D51
:10EB60000F947FFEFF2031F489E492EE60E00F9471
:10EB7000C2F10BC0F092C6008091C00086FFFCCFAE
:10EB80008091C00080648093C0000F5F1F4FC80158
:10EB900081519F41A0E0B0E0ABBFFC01F790BAE229
:10EBA000FB1621F0E2E000301E07C1F60F94DCF105
:10EBB0000F94DCF187E592EE60E00F94F5F10F948D
:10EBC000DCF1CC24DD2400E010E01EC0C8010F946D
:10EBD00077FEF82E882331F489E492EE60E00F94FA
:10EBE000C2F10BC08093C6008091C00086FFFCCFAD
:10EBF0008091C00080648093C000FE1419F00894D6
:10EC0000C11CD11C0F5F1F4FC80181519F41A0E063
:10EC1000B0E0ABBFFC01E790FAE2EF1621F022E092
:10EC20000030120799F60F94DCF10F94DCF182E6C4
:10EC300092EE60E00F94C2F1C60161E070E00F94C3
:10EC400034F20F94DCF10F94DCF110920202109276
:10EC50000302109204021092050278CE89E992EE26
:10EC600062E00F94F5F1279A2F9A16C02F9880E052
:10EC700090E0E0EDF7E03197F1F7019684369105E9
:10EC8000C1F72F9A80E090E0E0EDF7E03197F1F7DF
:10EC9000019684369105C1F78091C00087FFE6CFC9
:10ECA0008091C00087FFFCCF64C485EA92EE62E0E9
:10ECB0000F94F5F140910202509103026091040219
:10ECC0007091050281E020E10F9491F2809102029F
:10ECD00090910302A0910402B091050280509F4FD1
:10ECE000AF4FBF4F8093020290930302A0930402A0
:10ECF000B093050280509041A040B04008F426CE69
:10ED0000A4CF83EB92EE62E00F94F5F140910602FE
:10ED100050910702609108027091090280E020E1A1
:10ED20000F9491F28091060290910702A09108023F
:10ED3000B091090280509F4FAF4FBF4F80930602A2
:10ED400090930702A0930802B0930902FFCD80ECD4
:10ED500092EE62E00F94F5F183E792EE60E00F949B
:10ED6000F5F18FE792EE60E00F94F5F18BE892EE0B
:10ED700060E00F94F5F189E992EE60E00F94F5F10F
:10ED800085EA92EE60E00F94F5F183EB92EE60E09D
:10ED90000F94F5F180EC92EE60E00F94F5F187ECC2
:10EDA00092EE60E00F94F5F188ED92EE60E00F9442
:10EDB000F5F18FED92EE60E00F94F5F18AEE92EEB0
:10EDC00060E00F94F5F183E093EEBDCD87EC92EE19
:10EDD00062E00F94F5F181E40F947BF282E40F94EA
:10EDE0007BF283E40F947BF284E40F947BF285E45E
:10EDF0000F947BF286E40F947BF287E40F947BF20E
:10EE000088E40F947BF28AE40F947BF28BE40F94F6
:10EE10007BF28CE40F947BF299CD88ED92EE62E068
:10EE20000F94F5F1772473948824992409C48FED05
:10EE300092EE62E00F94F5F140910A0250910B02BC
:10EE400060910C0270910D0282E020E10F9491F22A
:10EE500080910A0290910B02A0910C02B0910D02D8
:10EE600080509F4FAF4FBF4F80930A0290930B0289
:10EE7000A0930C02B0930D0269CD8AEE92EE62E08F
:10EE80000F94F5F184EE90EE60E00F94F5F18FECC5
:10EE900091EE60E00F94F5F1662477244301CC5D98
:10EEA000DE4F19821882C452D140D401C301B695F5
:10EEB000A79597958795CA5DDE4F88839983AA8326
:10EEC000BB83C652D140CC5DDE4FA881B981C4520C
:10EED000D1401196CC5DDE4FB983A883C452D14096
:10EEE000CD0162E070E00F9434F2B0E2B093C6005E
:10EEF0008091C00086FFFCCF8091C0008064809329
:10EF0000C000EDE2E093C6008091C00086FFFCCF18
:10EF10008091C00080648093C000F0E2F093C6004E
:10EF20008091C00086FFFCCF8091C00080648093F8
:10EF3000C000CA5DDE4FE880F9800A811B81C6529D
:10EF4000D140BB27A12F902F8F2D0F940DF2CA5DBA
:10EF5000DE4F8881C652D1400F940DF2B0E2FB2EF5
:10EF6000F092C6008091C00086FFFCCF8091C00067
:10EF700080648093C0000DE30093C6008091C000C0
:10EF800086FFFCCF8091C00080648093C00010E2B7
:10EF90001093C6008091C00086FFFCCF8091C00016
:10EFA00080648093C0008BBEF3012791C65DDE4F65
:10EFB0002883CA52D140A22EBB24CC24DD2408943D
:10EFC000611C711C811C911C8BBEF3018791282E42
:10EFD0003324442455240894611C711C811C911C09
:10EFE0008BBEF3013791C55DDE4F3883CB52D140E4
:10EFF0000894611C711C811C911C8BBEF30147910C
:10F00000C45DDE4F4883CC52D140ADEFEA2EAFEF66
:10F01000FA2EAFEF0A2FAFEF1A2F6E0C7F1C801E57
:10F02000911E142D032DF22CEE24EA0CFB1C0C1D5A
:10F030001D1D0F940DF220E22093C6008091C000A8
:10F0400086FFFCCF8091C00080648093C000C65DC5
:10F05000DE4F8881CA52D1400F940DF230E23093D6
:10F06000C6008091C00086FFFCCF8091C000806404
:10F070008093C000C45DDE4F8881CC52D1400F9494
:10F080000DF240E24093C6008091C00086FFFCCFA5
:10F090008091C00080648093C000C55DDE4F888190
:10F0A000CB52D1400F940DF250E25093C6008091A4
:10F0B000C00086FFFCCF8091C00080648093C000B8
:10F0C0008FEFE8168FEFF80680E0080780E018075A
:10F0D00031F484E092EE60E00F94C2F1DFC0D80119
:10F0E000C7018070907CA070B0708050904CA040A0
:10F0F000B040D1F52FEF3FE340E050E0E222F322B1
:10F1000004231523CA5DDE4FA880B980CA80DB8046
:10F11000C652D140AE0CBF1CC01ED11EAA0CBB1CD7
:10F12000CC1CDD1C8EE092EE60E00F94C2F1BB2798
:10F13000A12F902F8F2D0F940DF28E2D0F940DF285
:10F1400030E23093C6008091C00086FFFCCF8091F2
:10F15000C00080648093C0004EE34093C60080915D
:10F16000C00086FFFCCF87C08EE09EEFA0E0B0E03D
:10F17000E822F9220A231B239CE0E91694E9F90608
:10F1800090E0090790E0190709F088C0C45DDE4FE0
:10F19000A881CC52D140EA2EFF2400E010E0102FCD
:10F1A0000F2DFE2CEE24C55DDE4FB881CB52D14031
:10F1B000EB0EF11C011D111DD601C501817090706F
:10F1C000A070B070DC0199278827E80EF91E0A1F8D
:10F1D0001B1F20EF30E040E050E0A222B322C42207
:10F1E000D52241E1AA0CBB1CCC1CDD1C4A95D1F7F1
:10F1F000EA0CFB1C0C1D1D1D81E090E0A0E0B0E0BE
:10F20000282239224A225B2235E1220C331C441C7D
:10F21000551C3A95D1F7E20CF31C041D151D57013E
:10F220006801AA0CBB1CCC1CDD1C85E192EE60E0E1
:10F230000F94C2F1C801AA27BB270F940DF2BB2778
:10F24000A12F902F8F2D0F940DF28E2D0F940DF274
:10F2500090E29093C6008091C00086FFFCCF809121
:10F26000C00080648093C000AEE3A093C60080918C
:10F27000C00086FFFCCF8091C00080648093C000F6
:10F28000C601AA27BB270F940DF2BB27AD2D9C2DDD
:10F290008B2D0F940DF28A2D0F940DF20F94DCF14B
:10F2A000CC5DDE4FE881F981C452D140F99709F471
:10F2B0004DCBF4E0EF2EF12C012D112D6E0C7F1CA7
:10F2C000801E911EF2CD83E093EE62E00F94F5F183
:10F2D0008AE192EE60E00F94C2F18091C00087FF56
:10F2E000FCCF1091C6001F751093C6008091C0001E
:10F2F00086FFFCCF8091C00080648093C0000F9493
:10F30000DCF1812F81548A3108F036C1163409F4BA
