:1000000026C10000A4C6000077C600004AC6000052
:100010001DC60000F0C50000C3C5000096C5000065
:1000200069C5000045C1000043C1000041C1000096
:100030003FC100003DC100003BC1000039C10000CC
:1000400037C10000CDC7000033C1000031C100003E
:100050002FC100002DC100002BC1000001C5000010
:1000600027C100000C94E1090C94B80921C10000DB
:100070001FC100001DC100001BC1000019C100000C
:1000800082C7000015C1000013C1000011C10000AB
:100090000FC100000DC100000BC1000009C100002C
:1000A00007C1000005C1000041C7000001C10000F8
:1000B000FFC00000FDC00000FBC000000AC7000038
:1000C000F7C00000F5C00000F3C00000F1C0000060
:1000D000EFC00000EDC00000EBC00000E9C0000070
:1000E000E7C00000DA01DD01CC01D001D601140225
:1000F000E101E501EB01EF01F301F901FD0101026D
:10010000140207020B020F0249044E0453045D045B
:100110006704E0047104790481048B0495049F044E
:10012000AE04B804E004C204CC04D60400002100EC
:10013000240027002A002D003000330001010000B8
:10014000040107010A0100002200250028002B00FD
:100150002E003100340002010000050108010B01EE
:1001600000000A0B02090C0D0E0807030401000031
:10017000000000000000000000000000000000007F
:10018000000000000000000000000000121110003C
:10019000000000000000000000000000000000005F
:1001A000000000000000010210202008081020407C
:1001B000102040800201020108040201010204082B
:1001C00010204080804020100804020180040201B9
:1001D0008040201008040201080402010102040802
:1001E0001020408001020408102040800000200000
:1001F0002300260029002C002F00320000010000FF
:100200000301060109010505050507050808080899
:10021000020202020A0A080804040404010101019E
:100220000101010103030303030303030407070799
:100230000C0C0C0C0C0C0C0C02020202060606063E
:10024000060606060B0B0B0B0B0B0B0B7410112485
:100250001FBECFEFD1E2DEBFCDBF00E00CBF13E089
:10026000A0E0B2E0EAEBF6E200E00BBF02C00790CC
:100270000D92AC32B107D9F724E0ACE2B3E001C093
:100280001D92A93CB207E1F711E0C7E2D1E000E01E
:1002900006C021970109802FFE010E942E12C6324E
:1002A000D10780E00807A9F70E940D0D0C945B139D
:1002B000A7CEFC01918D828D981761F0828DDF01B0
:1002C000A80FB11D5D968C91928D9F5F9F73928F49
:1002D00090E008958FEF9FEF0895FC01918D828D3E
:1002E000981731F0828DE80FF11D858D90E008950B
:1002F0008FEF9FEF0895FC01918D228D892F90E063
:10030000805C9F4F821B91098F739927089580E02D
:1003100090E0892B19F0B6D7811125C080E090E0DC
:10032000892B41F080E090E0892B21F00E940000B1
:1003300081111CC080E090E0892B41F080E090E0CA
:10034000892B21F00E940000811113C080E090E011
:10035000892BA1F080E090E0892B81F00E940000C1
:1003600081110AC008950E940000D8CF0E940000A9
:10037000E1CF0E940000EACF0C940000089590E0C5
:10038000FC013197E231F10508F04EC08827EE58A4
:10039000FF4F8F4F0C942E12809180008F7703C0F7
:1003A000809180008F7D80938000089580918000EF
:1003B000877FF9CF84B58F7702C084B58F7D84BDE8
:1003C00008958091B0008F7703C08091B0008F7D39
:1003D0008093B0000895809190008F7707C080913E
:1003E00090008F7D03C080919000877F8093900064
:1003F00008958091A0008F7707C08091A0008F7D25
:1004000003C08091A000877F8093A0000895809111
:1004100020018F7707C0809120018F7D03C08091DC
:100420002001877F8093200108953FB7F894809141
:10043000410390914203A0914303B091440326B538
:10044000A89B05C02F3F19F00196A11DB11D3FBF0C
:10045000BA2FA92F982F8827820F911DA11DB11D9A
:10046000BC01CD0142E0660F771F881F991F4A9596
:10047000D1F708950895CF93DF93FC01218530E0F3
:10048000F901E05AFE4F8491F901EA55FE4FD491EB
:10049000F901EA5FFD4FC491CC2371F081116FDF48
:1004A000EC2FF0E0EE0FFF1FE451FE4FA591B49149
:1004B000EC91ED2381E009F480E08170DF91CF9130
:1004C0000895DC01ED91FC910190F081E02D62E056
:1004D00070E019940895CB01BA0120E030E044EBBC
:1004E00053E40E94891120E030E048E453E40E9484
:1004F000B3100E94F111CB010895CB01BA0120E0A5
:1005000030E044EB53E40E94891127EC3BEC45E4D6
:1005100056E40E94B3100E94F111CB010895FC0132
:10052000758364830895FC0175836483672B11F4DC
:100530001786168608950E945713DC0116964D9172
:100540005C91179718962D913C9119974217530774
:1005500041F4ED91FC910190F081E02D62E070E0BA
:10056000199461E070E02417350714F060E070E042
:100570000C94170CCF93DF93FC0126853785232B32
:1005800069F4EC016489758941E050E00E94530CE4
:10059000882321F081E090E09F878E87DF91CF91C3
:1005A0000895FC01848DDF01A80FB11DA35ABF4F30
:1005B0002C91848D90E001968F739927848FA68962
:1005C000B7892C93A089B1898C91837080648C93B6
:1005D000938D848D981306C00288F389E02D808165
:1005E0008F7D808308951F93CF93DF93282F30E072
:1005F000F901E05AFE4F8491F901EA55FE4FD4917A
:10060000F901EA5FFD4FC491CC23B9F0162F811197
:10061000B6DEEC2FF0E0EE0FFF1FEA5BFE4FA59178
:10062000B4919FB7F894111104C08C91D095D82340
:1006300002C0EC91DE2BDC939FBFDF91CF911F9125
:100640000895CF92DF92EF92FF920F931F93CF9373
:10065000DF936C018B017A01EC01C85CDC4F88816F
:1006600087FF04C0FB011182108224C02CE02C9D66
:10067000C0012D9D900D11242881AC01420F511D08
:1006800027FD5A952091D50330E04217530794F483
:100690002881AC01420F511D27FD5A959A01FA019C
:1006A000EE0FFF1F2E0F3F1FF901EB5BFC4F208168
:1006B00026FD19C088818F5F88832CE02C9DC001A6
:1006C0002D9D900D11242881AC01420F511D27FD55
:1006D0005A952091D50330E042175307B4F428818E
:1006E0002C303CF112C02881820F911D27FD9A9574
:1006F000FC01EE0FFF1F8E0F9F1FFC01EB5BFC4FF9
:10070000808160E08F736FDFD5CFF80180819181A8
:10071000049680349C4918F480E49CE904C0F801F4
:10072000808191810496F701918380838FEF888384
:1007300044C0F801408151812881BC01620F711DC4
:1007400027FD7A959B01FB01EE0FFF1F2E0F3F1F28
:10075000F901EB5BFC4F21813281240F351FF7013A
:10076000318320832881AC01420F511D27FD5A950A
:100770009A01FA01EE0FFF1F2E0F3F1FF901EB5BED
:10078000FC4F208126FF19C02881820F911D27FD73
:100790009A95FC01EE0FFF1F8E0F9F1FFC01EB5B74
:1007A000FC4F808161E08F73DF91CF911F910F919A
:1007B000FF90EF90DF90CF9016CFDF91CF911F91F8
:1007C0000F91FF90EF90DF90CF900895CF93DF933C
:1007D00090E0FC01EA55FE4F2491FC01EA5FFD4FD9
:1007E0008491882361F190E0880F991FFC01E45DFA
:1007F000FE4FC591D491FC01EA5BFE4FA591B491E7
:10080000611109C09FB7F89488812095822388835D
:10081000EC912E230BC0623061F49FB7F89488816D
:10082000322F309583238883EC912E2B2C939FBFFE
:1008300006C08FB7F894E8812E2B28838FBFDF91F5
:10084000CF9108951F93CF93DF93182FEB0161E0B1
:10085000BDDF209711F460E004C0CF3FD10531F433
:1008600061E0812FDF91CF911F91BDCEE12FF0E0AC
:10087000E05AFE4FE4918E2F90E0FC013197E23177
:10088000F10508F09DC08827EC57FF4F8F4F0C945F
:100890002E1284B5806884BDC7BD97C084B58062C0
:1008A00084BDC8BD92C08091800080688093800024
:1008B000D0938900C093880088C0809180008062B6
:1008C00080938000D0938B00C0938A007EC080917B
:1008D0008000886080938000D0938D00C0938C004E
:1008E00074C08091B00080688093B000C093B30062
:1008F0006CC08091B00080628093B000C093B4005F
:1009000064C080919000806880939000D09399009B
:10091000C09398005AC080919000806280939000AC
:10092000D0939B00C0939A0050C080919000886043
:1009300080939000D0939D00C0939C0046C080910E
:10094000A00080688093A0008091A0008F7B80939E
:10095000A000D093A900C093A80037C08091A00048
:1009600080628093A000D093AB00C093AA002DC0FA
:100970008091A00088608093A000D093AD00C093C8
:10098000AC0023C080912001806880932001D09327
:100990002901C093280119C08091200180628093B1
:1009A0002001D0932B01C0932A010FC08091200118
:1009B000886080932001D0932D01C0932C0105C045
:1009C000C038D1050CF04CCF46CFDF91CF911F91AD
:1009D0000895862F642FFACE8F929F92AF92BF9286
:1009E000CF92DF92EF92FF926B017C011EDD4B01F3
:1009F0005C01C114D104E104F104E9F016DDDC016D
:100A0000CB0188199909AA09BB09883E9340A10521
:100A1000B10578F321E0C21AD108E108F10888EEA7
:100A2000880E83E0981EA11CB11CC114D104E104FE
:100A3000F10421F7DECFFF90EF90DF90CF90BF90D1
:100A4000AF909F908F9008952FB7F89460913D03D9
:100A500070913E0380913F03909140032FBF089512
:100A60001F920F920FB60F9211242F933F938F93E3
:100A70009F93AF93BF9380913D0390913E03A091CC
:100A80003F03B091400330913C0323E0230F2D3707
:100A900020F40196A11DB11D05C026E8230F029682
:100AA000A11DB11D20933C0380933D0390933E0311
:100AB000A0933F03B0934003809141039091420380
:100AC000A0914303B09144030196A11DB11D8093F1
:100AD000410390934203A0934303B0934403BF9117
:100AE000AF919F918F913F912F910F900FBE0F90DB
:100AF0001F9018951F920F920FB60F9211240BB6EC
:100B00000F922F933F934F935F936F937F938F93A6
:100B10009F93AF93BF93EF93FF93E0910E02F091F9
:100B20000F021995FF91EF91BF91AF919F918F9116
:100B30007F916F915F914F913F912F910F900BBEDD
:100B40000F900FBE0F901F9018951F920F920FB627
:100B50000F9211240BB60F922F933F934F935F93F5
:100B60006F937F938F939F93AF93BF93EF93FF9375
:100B7000E0910C02F0910D021995FF91EF91BF9158
:100B8000AF919F918F917F916F915F914F913F9125
:100B90002F910F900BBE0F900FBE0F901F901895C6
:100BA0001F920F920FB60F9211240BB60F922F9334
:100BB0003F934F935F936F937F938F939F93AF93E5
:100BC000BF93EF93FF93E0910202F0910302199516
:100BD000FF91EF91BF91AF919F918F917F916F9115
:100BE0005F914F913F912F910F900BBE0F900FBED1
:100BF0000F901F9018951F920F920FB60F9211240D
:100C00000BB60F922F933F934F935F936F937F9306
:100C10008F939F93AF93BF93EF93FF93E091000265
:100C2000F09101021995FF91EF91BF91AF919F91C2
:100C30008F917F916F915F914F913F912F910F9085
:100C40000BBE0F900FBE0F901F9018951F920F9222
:100C50000FB60F9211240BB60F922F933F934F9321
:100C60005F936F937F938F939F93AF93BF93EF9314
:100C7000FF93E0910A02F0910B021995FF91EF9119
:100C8000BF91AF919F918F917F916F915F914F91A4
:100C90003F912F910F900BBE0F900FBE0F901F90A2
:100CA00018951F920F920FB60F9211240BB60F9248
:100CB0002F933F934F935F936F937F938F939F9364
:100CC000AF93BF93EF93FF93E0910802F091090275
:100CD0001995FF91EF91BF91AF919F918F917F9166
:100CE0006F915F914F913F912F910F900BBE0F909D
:100CF0000FBE0F901F9018951F920F920FB60F9274
:100D000011240BB60F922F933F934F935F936F93E2
:100D10007F938F939F93AF93BF93EF93FF93E09154
:100D20000602F09107021995FF91EF91BF91AF91E3
:100D30009F918F917F916F915F914F913F912F91F3
:100D40000F900BBE0F900FBE0F901F9018951F9223
:100D50000F920FB60F9211240BB60F922F933F9361
:100D60004F935F936F937F938F939F93AF93BF93B3
:100D7000EF93FF93E0910402F09105021995FF9122
:100D8000EF91BF91AF919F918F917F916F915F9103
:100D90004F913F912F910F900BBE0F900FBE0F9070
:100DA0001F9018950F931F93CF93DF938C016130A1
:100DB0008FEF780714F461E07FEFEB016F3F71056F
:100DC00019F014F0CFEFD0E0F80180819181009705
:100DD00019F00197C1F030C0D7FD06C0BE01F8017F
:100DE000828130DD60E008C0662777276C1B7D0BB1
:100DF000F801828127DD61E0F8018381DF91CF91E5
:100E00001F910F91F0CBD7FD07C0BE01F801828181
:100E100019DD60E070E009C060E070E0F8018281F7
:100E200011DD662777276C1B7D0BF8018381DF912D
:100E3000CF911F910F9106CDDF91CF911F910F910F
:100E4000089560E070E0FC0180899189ABCF81302A
:100E5000910581F41092800082E0809381001092CD
:100E6000850010928400B19A80916F008260809317
:100E70006F0008958230910569F41092900082E02D
:100E800080939100109295001092940088BB8093FB
:100E9000710008958330910569F41092A00082E0FA
:100EA0008093A1001092A5001092A40089BB8093AA
:100EB00072000895892B61F41092200182E08093E2
:100EC000210110922501109224018ABB80937300A6
:100ED00008951F920F920FB60F9211240BB60F9226
:100EE0002F933F934F935F936F937F938F939F9332
:100EF000AF93BF93EF93FF9348E251E064E271E058
:100F000080E090E09EDBFF91EF91BF91AF919F91C8
:100F10008F917F916F915F914F913F912F910F90A2
:100F20000BBE0F900FBE0F901F9018951F920F923F
:100F30000FB60F9211240BB60F922F933F934F933E
:100F40005F936F937F938F939F93AF93BF93EF9331
:100F5000FF9348EA50E064EA70E083E090E071DBE0
:100F6000FF91EF91BF91AF919F918F917F916F9181
:100F70005F914F913F912F910F900BBE0F900FBE3D
:100F80000F901F9018951F920F920FB60F92112479
:100F90000BB60F922F933F934F935F936F937F9373
:100FA0008F939F93AF93BF93EF93FF9348E950E0E4
:100FB00064E970E082E090E044DBFF91EF91BF9143
:100FC000AF919F918F917F916F915F914F913F91E1
:100FD0002F910F900BBE0F900FBE0F901F90189582
:100FE0001F920F920FB60F9211240BB60F922F93F0
:100FF0003F934F935F936F937F938F939F93AF93A1
:10100000BF93EF93FF9348E850E064E870E081E01D
:1010100090E017DBFF91EF91BF91AF919F918F917E
:101020007F916F915F914F913F912F910F900BBEE8
:101030000F900FBE0F901F901895823109F466C073
:10104000B8F4823069F1833009F073C070932F03D4
:1010500060932E0385E299E090930302809302024D
:1010600080916A00837F846080936A00ED9A5FC0FC
:10107000843141F1C8F1853109F05BC070933103CF
:101080006093300380E299E090930502809304021C
:10109000809169008C7F816080936900E89A47C0E5
:1010A00070932D0360932C038AE299E090930102E0
:1010B0008093000280916A008C7F816080936A0037
:1010C000EC9A35C070933303609332038BE199E05F
:1010D000909307028093060280916900837F846069
:1010E00080936900E99A23C07093350360933403B9
:1010F00086E199E09093090280930802809169004B
:101100008F7C806180936900EA9A11C070933703E5
:101110006093360381E199E090930B0280930A0279
:10112000809169008F73806480936900EB9A81E0FD
:10113000089580E00895DC01ED91FD918081ED91AD
:10114000FD919081ED91FD916C9163708E2309F07A
:1011500064609F2309F06860E8EBF8E0E60FF11D9A
:10116000659565956D936D917D918D919D91099496
:1011700023C01AC012C016C010C01EC009C014C0BF
:1011800013C006C019C009C00DC007C00DC014C0EF
:1011900062507040804090400BC061507040804071
:1011A000904006C06E5F01C06F5F7F4F8F4F9F4FB3
:1011B0009E938E937E936E9308950F931F93CF9378
:1011C000DF93EC018AE592E0F7D18C859D8500974D
:1011D000C1F0019709F50A891B89F80183858230DE
:1011E00020F4F894C801A7DF01C0F894F8018781C2
:1011F0009085A185B28578942E813F8182179307CF
:101200001CF46C897D8902C06E897F89CE01DF91D3
:10121000CF911F910F9174C3DF91CF911F910F91C7
:101220000895809136039091370385CF80913403E0
:101230009091350380CF80913203909133037BCF1F
:10124000809130039091310376CF80912E0390915D
:101250002F0371CF80912C0390912D036CCF0895B3
:1012600080E090E00895FC01538D448D252F30E0FF
:10127000842F90E0821B930B541710F0CF960895A3
:101280000197089582EE93E036D821E0892B09F486
:1012900020E0822F0895EF92FF920F931F93CF9338
:1012A000DF93EC0181E0888F9B8D8C8D981305C0B6
:1012B000E889F989808185FD25C0F62E0B8D10E027
:1012C0000F5F1F4F0F731127E02E8C8DE8120BC09C
:1012D0000FB607FCFACFE889F989808185FFF5CF41
:1012E000CE015FD9F2CF8B8DFE01E80FF11DE35ADD
:1012F000FF4FF0829FB7F8940B8FEA89FB898081BA
:1013000080620AC09FB7F894EE89FF896083E889FC
:10131000F98980818370806480839FBF81E090E041
:10132000DF91CF911F910F91FF90EF900895CF9390
:10133000DF93EC01888D8823C1F0EA89FB898081E5
:1013400085FD05C0A889B9898C9186FD0EC00FB6B0
:1013500007FCF5CF808185FFF2CFA889B9898C91F0
:1013600085FFEDCFCE011DD9E8CFDF91CF91089554
:101370001F920F920FB60F9211240BB60F922F935C
:101380003F934F935F936F937F938F939F93AF930D
:10139000BF93EF93FF9382EE93E003D9FF91EF9118
:1013A000BF91AF919F918F917F916F915F914F917D
:1013B0003F912F910F900BBE0F900FBE0F901F907B
:1013C00018951F920F920FB60F9211240BB60F9221
:1013D0002F938F939F93EF93FF93E091F203F091FC
:1013E000F3038081E091F803F091F90382FD12C0CC
:1013F00090818091FB038F5F8F732091FC03821794
:1014000051F0E091FB03F0E0EE51FC4F958F80939B
:10141000FB0301C08081FF91EF919F918F912F91EC
:101420000F900BBE0F900FBE0F901F901895CF928C
:10143000DF92EF92FF920F931F93CF93DF936C0194
:101440007A018B01C0E0D0E0CE15DF0581F0D80134
:101450006D918D01D601ED91FC910190F081E02D0F
:10146000C6011995892B11F02196EECF7E01C70197
:10147000DF91CF911F910F91FF90EF90DF90CF9070
:101480000895CF92DF92EF92FF920F931F93CF9325
:10149000DF93EC0188858B7F8887CE010E943B0219
:1014A000182F888586958170181751F0CDDA6A83D8
:1014B0007B838C839D83988582E08927888736C0CB
:1014C000C3DACA80DB80EC80FD80AB01BC014C1923
:1014D0005D096E097F098E819F81A0E0B0E0481709
:1014E00059076A077B0710F1888581701817F1F09A
:1014F000ABDA6A837B838C839D83988581E089271F
:1015000084608887A1DA0A851B852C853D85DC01EE
:10151000CB01801B910BA20BB30B8E879F87A88BEF
:10152000B98B92DA6A877B878C879D87888582FB57
:10153000882780F9DF91CF911F910F91FF90EF9055
:10154000DF90CF900895E2EEF3E0A089B18982E0C8
:101550008C93A485B5851C92A685B78580E18C9374
:10156000108EA489B58986E08C93A289B3898C9169
:1015700080618C93A289B3898C9188608C93A289B5
:10158000B3898C9180688C930288F389E02D8081E7
:101590008F7D80830895009761F0FC010190002009
:1015A000E9F73197AF01481B590BBC0182EE93E07C
:1015B0003ECF80E090E00895CF93DF93ECDFEC0125
:1015C0008FE692E0E8DF8C0F9D1FDF91CF910895A9
:1015D000CF93DF93EC018EEF92E09983888384E4CC
:1015E00092E09B838A831C821D821E821F828AE076
:1015F00090E0998788871A866B87CE0102960E94B1
:101600003B02882319F08A8583608A871DDA6C8300
:101610007D838E839F8384E190E099878887DF9123
:10162000CF9108956F927F928F929F92AF92BF92C7
:10163000CF92DF92EF92FF920F931F93CF93DF939E
:10164000EC01762E642E49018BE093E09B838A8324
:1016500082E090E09D838C8386E392E09983888387
:101660001D861C861F861E8684E090E0FFD65C01E6
:10167000DC0111961C921E9212967C921297139680
:101680006C9261E0872DA2D861E0F50183819ED83C
:1016900060E0D50112968C910E94F30260E0F501A2
:1016A00083810E94F302B98AA88A8CE090E0DED69A
:1016B0005C0162E0882D8AD862E0802F87D8A4017F
:1016C0005527FA01EA5FFD4FE491F0E0EE0FFF1FAE
:1016D000E451FE4FA591B491F501B183A083FA01C5
:1016E000EA55FE4F4491F5014483C8019927FC0156
:1016F000EA5FFD4FE491F0E0EE0FFF1FE451FE4F73
:1017000025913491F50133832283FC01EA55FE4F84
:101710008491F50185831782108611861286EBE38A
:10172000FFE13197F1F7EC914E2391E009F490E05D
:10173000D901EC91E82309F09260F5019683B50197
:10174000882D7BDCD5011B968C93B501802F75DC31
:10175000F5019385890F8387BB8AAA8A84E190E08B
:1017600085D68C01B70134DF1D8B0C8BFFEFCF16B4
:10177000DF0669F084E190E079D68C01B60128DFBC
:101780001F8B0E8B81E090E09D878C8702C01D86A9
:101790001C86DF91CF911F910F91FF90EF90DF900A
:1017A000CF90BF90AF909F908F907F906F90089553
:1017B0008F929F92AF92BF920F931F93CF93DF931D
:1017C000CDB7DEB7A1970FB6F894DEBF0FBECDBF81
:1017D00019A2423008F44AE08E010F5D1F4F842E9B
:1017E000912CA12CB12CA501940171D5E62FB90142
:1017F000CA0101501109EA3014F4E05D01C0E95C4E
:10180000D801EC93232B242B252B69F7C801C3DEC9
:10181000A1960FB6F894DEBF0FBECDBFDF91CF917A
:101820001F910F91BF90AF909F908F900895EF926E
:10183000FF920F931F93CF93DF93EC017B01F894FA
:1018400061E08E850E94F3026AE070E080E090E043
:10185000C3D86E2D8C850E94F30261E08A850E94B8
:10186000F3020BE91FE0C8010197F1F760E08A85F8
:101870000E94F302C8010197F1F760E08E850E9493
:10188000F302789488859985EA94EF2811F40196FB
:1018900001C0019799878887DF91CF911F910F91A0
:1018A000FF90EF900895EF92FF920F931F93CF93C5
:1018B000DF93EC017B018A01CB010296E2DDF701A7
:1018C0009285957028893989953041F41B861A864E
:1018D00060E070E0C90166DA81E00BC089E1809FB9
:1018E000B001819F700D11247B876A87C9015ADA84
:1018F00080E0DF91CF911F910F91FF90EF900895BD
:10190000AF92BF92CF92DF92EF92FF920F931F930D
:10191000CF93DF93EC018B01EA88FB88F701838585
:10192000823020F4F894C70106DC01C0F894F70176
:1019300087819085A185B2857894AC012E813F8105
:10194000821B930B8C599F4F893C9105B0F48CE11D
:1019500093E032DEE881F9810190F081E02D62E0D0
:1019600070E0CE01DF91CF911F910F91FF90EF902A
:10197000DF90CF90BF90AF9019944217530724F097
:10198000EE24EA94FE2C03C0EE24E394F12C5801DB
:10199000F2E0AF0EB11CC50174DDF80182858570DF
:1019A0008530B1F4F1E0EF16F10401F5CC24CA94CE
:1019B000DC2CC50166DDF80122858889998920FD26
:1019C00019C022FF17C01B861A8660E070E0EAD9B2
:1019D000A701B801CE01DF91CF911F910F91FF9028
:1019E000EF90DF90CF90BF90AF905DCFCC24C394A9
:1019F000D12CDFCF29E12C9DB0012D9D700D11243C
:101A00007B876A87DF91CF911F910F91FF90EF90B5
:101A1000DF90CF90BF90AF90C5C9789484B58260B5
:101A200084BD84B5816084BD85B5826085BD85B582
:101A3000816085BD80916E00816080936E00109200
:101A4000810080918100826080938100809181007B
:101A5000816080938100809180008160809380000C
:101A60008091B10084608093B1008091B00081606A
:101A70008093B0008091910082608093910080916A
:101A800091008160809391008091900081608093AB
:101A900090008091A10082608093A1008091A100BC
:101AA00081608093A1008091A00081608093A0005C
:101AB00080912101826080932101809121018160C8
:101AC0008093210180912001816080932001809189
:101AD0007A00846080937A0080917A00826080939B
:101AE0007A0080917A00816080937A0080917A00F8
:101AF000806880937A001092C1001092C104109205
:101B0000C2041092C3041092C40410928104109273
:101B1000820410928304109284040E9424056B01B5
:101B20007C014B015C0128EB820E2BE0921EA11C74
:101B3000B11C0E9424056C157D058E059F0528F0BB
:101B400086169706A806B906A0F760ED77E080E054
:101B500090E00E94EC04F7DC0E942405609381046D
:101B600070938204809383049093840480E692E0CF
:101B700012DD0E9424056B017C014B015C013AE0FF
:101B8000830E911CA11CB11C0E9424056C157D05BF
:101B90008E059F0528F086169706A806B906A0F7B9
:101BA00081E080939504CFDC8AE090E0A0E0B0E093
:101BB0008093E6039093E703A093E803B093E903CF
:101BC00088E190E053D4EC014DE0C42ED12C5CE0D0
:101BD000E52EF12C06E210E028E230E045E050E08E
:101BE00066E070E01FDDD093DB03C093DA0388E189
:101BF00090E03CD4EC01CC24CA94DC2C77E0E72EB6
:101C0000F12C02E210E024E230E049E050E06AE02A
:101C100070E008DDD093D903C093D80384E190E04D
:101C200025D4EC0182E792E09B838A8382E090E0F6
:101C30009D838C838AE192E09983888388E190E098
:101C40009B878A8786E190E09D878C878EE290E073
:101C50009F878E878CE290E0998B888B61E088E18A
:101C60000E94E60361E086E10E94E60361E08EE205
:101C70000E94E60361E08CE20E94E60360E088E1F6
:101C80000E94F30260E086E10E94F30260E08EE2CF
:101C90000E94F30261E08CE20E94F30284E190E092
:101CA000E5D38C016AE170E093DC1B8B0A8B1F8209
:101CB0001E82D093DD03C093DC0388E090E0D6D38E
:101CC000EC0180E892E0998388838091D50380338A
:101CD00098F491E0980F9093D5038A8390E0FC01EB
:101CE000EE0FFF1F8E0F9F1FFC01EB5BFC4F88EB7D
:101CF0009BE09283818302C08FEF8A838091D5031A
:101D0000803398F491E0980F9093D5038D8390E001
:101D1000FC01EE0FFF1F8E0F9F1FFC01EB5BFC4FC2
:101D200088EB9BE09283818302C08FEF8D838A8151
:101D3000803308F03DC061E08BE10E94E6038A81B8
:101D4000E82FF0E09F01220F331FE20FF31FEB5B40
:101D5000FC4F9081907C9B6190831B821C826CE085
:101D600071D390E04CE0849FB001112440E050E03A
:101D70009B01240F351FF901EE0FFF1F2E0F3F1F90
:101D8000F901EB5BFC4F208126FD06C04F5F5F4FE2
:101D90004C30510569F75BD8EA81F0E0CF01880F3C
:101DA000991FE80FF91FEB5BFC4F808180648083F3
:101DB0008D81803308F03DC061E089E10E94E60337
:101DC0008D81E82FF0E09F01220F331FE20FF31FF8
:101DD000EB5BFC4F9081907C996190831E821F8207
:101DE0006CE030D390E05CE0859FB001112440E0CE
:101DF00050E09B01240F351FF901EE0FFF1F2E0F3E
:101E00003F1FF901EB5BFC4F208126FD06C04F5FB1
:101E10005F4F4C30510569F71AD8ED81F0E0CF01E2
:101E2000880F991FE80FF91FEB5BFC4F80818064DE
:101E30008083D093D703C093D6038FE090E016D36E
:101E40008C018091DC039091DD032091D8033091C7
:101E5000D9034091DA035091DB03F80151834083A9
:101E60003383228395838483D783C68381E090E084
:101E7000FDD2F801918780878DE892E09DDB68EEC6
:101E800073E080E090E00E94EC0484EF882E9924B7
:101E90009394A12CB12C0E942405672B682B692BED
:101EA00041F40E942405623071058105910508F412
:101EB000D4C00E9424050091DE031091DF0320911D
:101EC000E0033091E103601771078207930740F444
:101ED0006093DE037093DF038093E0039093E1034C
:101EE0000091DE031091DF032091E0033091E103C4
:101EF0006B017C01C01AD10AE20AF30A970186013C
:101F00000A3F11052105310508F4A7C06093DE03DF
:101F10007093DF038093E0039093E10380928D043C
:101F200090928E04A0928F04B0929004109291042B
:101F3000109292041092930410929404809185045C
:101F400090918604A0918704B091880480938904BD
:101F500090938A04A0938B04B0938C040E94240570
:101F6000609385047093860480938704909388041B
:101F70000E942405609381047093820480938304FB
:101F8000909384040E9424056B017C0187EA92E00F
:101F900002DB4AE061E070E080E090E009DC8EEA7C
:101FA00092E0F9DA4AE0C701B60102DC80EB92E088
:101FB000F2DA8091850490918604A0918704B09113
:101FC0008804A7019601281B390B4A0B5B0BCA0139
:101FD000B9014AE0EDDB80EB92E0DDDA8091850427
:101FE00090918604A0918704B0918804009189049F
:101FF00010918A0420918B0430918C04BC01CD0196
:10200000601B710B820B930B4AE0D2DB82EB92E0F8
:10201000C2DA0E9424054AE0CBDB84EB92E0CCDA02
:102020000E9424056B017C012B013C0135E0430E2D
:10203000511C611C711C0E9424056C157D058E05C8
:102040009F0508F04AC00E942405609385047093A0
:1020500086048093870490938804E090DC03F090DA
:10206000DD0382EE93E00E947B01892B99F182EEE1
:1020700093E00E945901C82F8BEB92E08CDAF701B4
:102080008281938199DAC63631F48AEC92E094DA4F
:1020900005E610E008C0C23619F489ED92E0F7CFEA
:1020A00089EE92E016C0C63619F461E070E004C013
:1020B000C23621F460E070E0C701B9DB01501109BC
:1020C00091F764EF71E080E090E00E94EC0489EF0A
:1020D00092E072DA0E948701DECE46165706680645
:1020E000790608F0A8CFAFCFE2EEF3E013821282B8
:1020F00088EE93E0A0E0B0E084839583A683B78365
:102100008CE492E09183808385EC90E095878487CE
:1021100084EC90E09787868780EC90E0918B808BB1
:1021200081EC90E0938B828B82EC90E0958B848B9A
:1021300086EC90E0978B868B118E128E138E148E08
:10214000EFE7F4E016821782108611861286138656
:102150001486158616861786108A118A128A138AA3
:10216000148A158A08950BD078C069D028F06ED0F3
:1021700018F0952309F05AC05FC01124A2C07ED088
:10218000A0F3959FD1F3950F50E0551F629FF0018A
:10219000729FBB27F00DB11D639FAA27F00DB11DE3
:1021A000AA1F649F6627B00DA11D661F829F22276C
:1021B000B00DA11D621F739FB00DA11D621F839FF3
:1021C000A00D611D221F749F3327A00D611D231FC9
:1021D000849F600D211D822F762F6A2F11249F5717
:1021E00050408AF0E1F088234AF0EE0FFF1FBB1F3A
:1021F000661F771F881F91505040A9F79E3F5105D9
:1022000070F014C05EC05F3FECF3983EDCF386953F
:1022100077956795B795F795E7959F5FC1F7FE2B83
:10222000880F911D9695879597F9089597F99F675F
:1022300080E870E060E008959FEF80EC089500244E
:102240000A941616170618060906089500240A941B
:1022500012161306140605060895092E0394000CA1
:1022600011F4882352F0BB0F40F4BF2B11F460FF30
:1022700004C06F5F7F4F8F4F9F4F089557FD905859
:10228000440F551F59F05F3F71F04795880F97FB3A
:10229000991F61F09F3F79F08795089512161306F4
:1022A0001406551FF2CF4695F1DF08C01616170623
:1022B0001806991FF1CF8695710561050894089558
:1022C000E894BB2766277727CB0197F90895A1E209
:1022D0001A2EAA1BBB1BFD010DC0AA1FBB1FEE1FA0
:1022E000FF1FA217B307E407F50720F0A21BB30BEB
:1022F000E40BF50B661F771F881F991F1A9469F767
:1023000060957095809590959B01AC01BD01CF01C2
:1023100008950CD0A2CF9ADF40F091DF30F021F485
:102320005F3F19F083CF5111CCCF86CFA7DF98F351
:102330009923C9F35523B1F3951B550BBB27AA2746
:1023400062177307840738F09F5F5F4F220F331FB8
:10235000441FAA1FA9F333D00E2E3AF0E0E830D084
:1023600091505040E695001CCAF729D0FE2F27D087
:10237000660F771F881FBB1F261737074807AB0755
:10238000B0E809F0BB0B802DBF01FF2793585F4FCA
:102390002AF09E3F510568F049CF93CF5F3FECF3A1
:1023A000983EDCF3869577956795B795F7959F5F8F
:1023B000C9F7880F911D9695879597F90895E1E0E3
:1023C000660F771F881FBB1F621773078407BA0742
:1023D00020F0621B730B840BBA0BEE1F88F7E0959D
:1023E000089504D06894B1116CCF08954FDF88F040
:1023F0009F5790F0B92F9927B751A0F0D1F0660FF1
:10240000771F881F991F1AF0BA95C9F712C0B1300B
:1024100081F056DFB1E0089553CF672F782F8827DA
:10242000B85F39F0B93FCCF3869577956795B3954A
:10243000D9F73EF490958095709561957F4F8F4FB9
:102440009F4F0895991B79E004C0991F961708F0D3
:10245000961B881F7A95C9F780950895EE0FFF1F88
:10246000881F8BBF0790F691E02D19940F931F934F
:10247000CF93DF938230910510F482E090E0E091F9
:10248000C704F091C80420E030E0A0E0B0E030974D
:1024900019F1408151810281138148175907C8F011
:1024A0008417950769F4109731F012960C931297E0
:1024B00013961C9327C00093C7041093C80422C02E
:1024C0002115310519F04217530718F49A01BD017F
:1024D000EF01DF01F801DBCF21153105F9F0281BF1
:1024E000390B2430310580F48A819B816115710597
:1024F00021F0FB019383828304C09093C8048093EE
:10250000C704FE01329644C0FE01E20FF31F81931F
:10251000919322503109398328833AC02091C50410
:102520003091C604232B41F4209112023091130202
:102530003093C6042093C5042091100230911102FB
:102540002115310541F42DB73EB740911402509149
:102550001502241B350BE091C504F091C604E21767
:10256000F307A0F42E1B3F0B2817390778F0AC01B6
:102570004E5F5F4F2417350748F04E0F5F1F509393
:10258000C6044093C5048193919302C0E0E0F0E05B
:10259000CF01DF91CF911F910F910895CF93DF93DA
:1025A000009709F481C0FC01329713821282A09136
:1025B000C704B091C804109781F420813181820F43
:1025C000931F2091C5043091C6042817390751F58F
:1025D000F093C604E093C50467C0ED0120E030E04D
:1025E000CE17DF0740F44A815B819E0141155105FA
:1025F000F1F0EA01F5CFD383C28340815181840F8A
:10260000951FC817D90759F488819981840F951FA0
:102610000296918380838A819B8193838283211593
:10262000310529F4F093C804E093C7043DC0E901E3
:10263000FB83EA8349915991C40FD51FEC17FD071D
:1026400061F480819181840F951F0296E90199833D
:102650008883828193819B838A83E0E0F0E01296F5
:102660008D919C911397009719F0FD01DC01F7CF34
:102670008D919C9111979D012E5F3F4F820F931F6B
:102680002091C5043091C6042817390769F43097A2
:1026900029F41092C8041092C70402C01382128257
:1026A000B093C604A093C504DF91CF91089581E053
:0A26B00090E0F89400C0F894FFCF0A
:1026BA003A023A023A023A023A023A023A023A0230
:1026CA000000C9048000000000008F026B026A0249
:1026DA009D026102000000008F029B029B029B0286
:1026EA009B020000000093027D022107DD08BA0266
:1026FA00000000003B02E904000000004B09170A31
:10270A00330997097B0159016D016D6F76653B00AD
:10271A00564D4450565F317C315F564D4450560DEC
:10272A000A0053746570706572204D6F746F720081
:10273A00456E64204566666563746F7200506F6CFF
:10274A006172204245415220536574757020436F6F
:10275A006D706C65746500564D4450455F003A32A1
:10276A003A007C005F564D445045004D616E7561DC
:10277A006C204D6F76696E6720004D6F76696E67C3
:10278A0020466F7277617264004D6F76696E6720BA
:10279A004261636B7761726400556E6B6E6F776E20
:1027AA0020436F6D6D616E6400446F6E65004C6905
:1027BA006D69742053776974636800517561647236
:1027CA006174757265204D6F746F7200526F756710
:0C27DA00686C7920457175616C3B000053
:00000001FF
