:100000000C9462000C94600E0C94390E0C948A00CF
:100010000C948A000C948A000C948A000C948A0038
:100020000C948A000C948A000C948A000C94EE0EB6
:100030000C948A000C948A000C948A000C948A0018
:100040000C94EF0D0C948A000C945B060C9435060E
:100050000C948A000C948A000C948A000C948A00F8
:100060000C948A000C948A000000000024002700F1
:100070002A0000000000250028002B0000000008D6
:10008000000201000003040700000000000000005F
:10009000010204081020408001020408102001021F
:1000A000040810200000000023002600290004049A
:1000B0000404040404040202020202020303030310
:1000C0000303BD1511241FBECFEFD8E0DEBFCDBFA7
:1000D00012E0A0E0B1E0EEEBF2E302C005900D9279
:1000E000A236B107D9F723E0A2E6B2E001C01D9223
:1000F000A034B207E1F710E0C2E6D0E004C02197D7
:10010000FE010E941F18C136D107C9F70E94CB1209
:100110000C945D190C940000CF92DF92EF92FF9245
:100120000F931F93CF93DF93EC018885811134C027
:100130000A811B810E94E30DD80118966D937D936F
:100140008D939C931B97D801ED91FC910284F385CC
:10015000E02DC801099597FF29C00E94E30DF80121
:10016000C084D184E284F384DC01CB018C199D0925
:10017000AE09BF09C480D580E680F7808C159D0547
:10018000AE05BF0500F38FEF9FEF97FF02C080E041
:1001900090E08F8381E088878F81DF91CF911F91DD
:1001A0000F91FF90EF90DF90CF900895082E000CF4
:1001B000990BEBCF1F93CF93DF93EC01CE010E94FD
:1001C0008C008B302CF489300CF58823C1F032C0C0
:1001D0008032E1F08F3219F08D3061F517C018864A
:1001E000CE010E948C008A3219F08F32C9F01FC0F4
:1001F000188610E0CE010E948C00811103C081E0BE
:1002000090E01AC08F3221F4112311F01886D6CF56
:1002100011E08A3209F010E01886ECCF8A3071F2D2
:100220001886CE010E948C008111F8CFE8CF82E0C1
:1002300090E002C080E090E0DF91CF911F9108959F
:100240008F929F92AF92BF92CF92DF92EF92FF92E6
:100250000F931F93CF93DF93CDB7DEB7A2970FB65F
:10026000F894DEBF0FBECDBF7B01CE010E969A8300
:1002700089839C838B835E018EE1A80EB11CBE82B4
:10028000AD82B886AF8260E0CE010D960E94AF0FBE
:100290008D858F7749F460E2CE010D960E94AF0FF5
:1002A0001A8619861C861B868D8585FF44C06AE8E0
:1002B00071E089859A850E943C08009711F08C01B5
:1002C00012C0BE016F5F7F4FCE0109960E94550795
:1002D000FC01892B81F184818F7784838AE891E006
:1002E000978386838F01F80134964F01E114F1045E
:1002F00009F444C0F70101900020E9F7AF014E195D
:100300005F09CB80DC80C601840F951F2D813E8163
:100310002817390798F19C838B83C114D10471F19C
:10032000B701C6010E944B1965E0C4010E94AF0FDE
:10033000F801D182C0828FE992E09F8F8E8F19A23F
:1003400018A21AA2B501CE0109960E941B0981E9E3
:1003500091E00E94EE10A2960FB6F894DEBF0FBE99
:10036000CDBFDF91CF911F910F91FF90EF90DF9064
:10037000CF90BF90AF909F908F90089560E0C401A0
:100380000E94AF0FD8CFFC0180819181892B21F48D
:1003900060E070E0CB01089568EB75E080E090E0EC
:1003A0000895FC0184819581009799F02281338121
:1003B000468157812417350718F015821482089555
:1003C000A9014F5F5F4F53834283FC01E20FF31F8C
:1003D000608308954F925F926F927F928F929F9267
:1003E000AF92BF92CF92DF92EF92FF920F931F9343
:1003F000CF93DF93CDB7DEB7C654D1090FB6F894CB
:10040000DEBF0FBECDBF8C017B010E94DA002796B4
:100410009FAF8EAF2797CE018B5B9F4F0E94C3018A
:10042000672B09F08CC080FD8AC0C8010E948C0037
:10043000873291F4BE016F5B7F4FC8010E94CF0FDE
:100440009A838983CE0101960E94C301672B09F02C
:10045000EBC180FDE9C1EBC18832ACF4823251F3CB
:10046000C8010E948C00C82ECE0101964C01D12CEF
:100470005C018C2D0E94B50F882309F490C19FE385
:10048000D9123DC38CC18B3549F560E4C701049690
:100490000E94AF0FD70111961C921E9213961C92C8
:1004A0001E921297F8018681882361F1C8010E948B
:1004B0008C008B3509F095C1D80118961C92C801A3
:1004C0000E94DA009A838983CE0101960E94C301BB
:1004D000672B09F0A9C180FDA7C138C08B3709F08F
:1004E000BFCF60E2C70104960E94AF0FD7011196FB
:1004F0001C921E9213961C921E921297F8018681EE
:10050000811102C085E01BC3C8010E948C008B379B
:1005100009F067C1D80118961C92C8010E94DA0040
:1005200025969FAF8EAF2597CE018D5B9F4F0E9482
:10053000C301672B09F071C180FD6FC172C026969F
:100540008FAD269727969FAD2797FAC2C8010E94C4
:100550008C008D35B1F1D8016D917C91C7010E945D
:100560005507BC01892B09F451C0F80196819150BF
:100570009683C8010E94EA019A838983D80116965E
:100580008C9116978F5F16968C93CE0101960E94E0
:10059000C301672B09F048C180FD46C1C8010E9414
:1005A000DA009A838983CE0101960E94C301672BEA
:1005B00009F03AC180FD38C1C8010E948C008D3518
:1005C00039F5F8011086BAC2C8010E948C008C323D
:1005D00009F007C1F8011086C8010E94DA002596CB
:1005E0009FAF8EAF2597CE018D5B9F4F0E94C301B9
:1005F000672B09F012C180FD10C1D8016D917C916B
:10060000C7010E9455076C01892B89F483E097C2CA
:10061000C8010E948C008C3209F0E3C0F8011086FA
:100620009ACFC8010E948C008D3739F7CACFC80114
:100630000E948C00873211F08232A9F4BE016F5BF8
:100640007F4FC8010E94CF0F25969FAF8EAF259791
:10065000CE018D5B9F4F0E94C301672B09F0DDC067
:1006600080FF5BC0DAC0D8011496ED91FC9115971C
:10067000228133818481958193838283FA83E98304
:100680001C821B823E832D83821B930B98878F8352
:10069000C8010E948C00B82E8823E1F18B2D0E94A6
:1006A000B50F882389F1F80110866B2DCE010196D4
:1006B0000E94D101C8010E948C00B82E0E94B50F83
:1006C0008111F1CF60E0CE0101960E94D1018D81B0
:1006D0009E81892B71F0E981FA818B819C812F8128
:1006E0003885821B930B22813381820F931F938362
:1006F00082838D819E8123969FAF8EAF2397892B16
:1007000031F483E090E0A0CF82E090E09DCF80E0E4
:1007100090E09ACF81E090E097CF23962EAD3FAD49
:100720002397F60184818068848337832683C801F8
:100730000E94DA0025969FAF8EAF2597CE018D5B84
:100740009F4F0E94C301672B09F067C080FD65C001
:10075000C8010E948C008A3309F043C0D801189662
:100760001C92189716968C911697815016968C931A
:10077000B601C8010E94EA0125969FAF8EAF25976A
:10078000F80186818F5F8683CE018D5B9F4F0E942B
:10079000C301672B09F041C080FF25C03EC0F501B1
:1007A000ED0DF11D10828981843709F44DC0863624
:1007B00009F45DC08E3609F46BC08B3209F46FC04A
:1007C0008D3209F06FC08A81DD24D3948E010E5FD3
:1007D0001F4F90ED980F9A3008F467C08E3209F4DD
:1007E00064C082E0ACC1C8010E94DA0025969FAFC8
:1007F0008EAF2597CE018D5B9F4F0E94C301672B63
:1008000061F480FD0AC0C8010E948C008D3709F098
:10081000DBCED80118961C9291C124968FAD2497F7
:1008200025969FAD25978CC189819A8189C1239690
:100830000EAD1FAD239765E0C70104960E94AF0F70
:10084000D7010D931C937AC166E0C70104960E94FC
:10085000AF0F81E090E0A0E0B0E0F70180839183EA
:10086000A283B38390E0F4E0DF126AC116C066E0B1
:10087000C70104960E94AF0FD7011D921D921D92D1
:100880001C92139781E090E0B5E0DB1259C105C0DE
:1008900081E090E0E4E0DE1253C180E051C18A8142
:1008A000D12C94CFD12C850194CF812C912C540143
:1008B000F801819170EDC72EC80E29E02C1528F1A2
:1008C0008AE9881689E99806A80689E1B806F8F445
:1008D000AAE0B0E0A50194010E940E174B015C0153
:1008E0008C2D90E0A0E0B0E0AC01BD0140955095AA
:1008F00060957095481559056A057B0540F0880E8E
:10090000991EAA1EBB1E8F01D3CF882339F0C12C9C
:100910006AE0462E512C612C712C0EC0C701049642
:10092000DD2009F4F7C06AE00E94AF0FF701808272
:100930009182A282B38202C18114910490E8A90637
:10094000B10450F0C501B401A30192010E9419172E
:1009500049015A01C394F0CFF801D8018D918D015E
:1009600090ED980F9A3010F4C394F6CF8E3211F5B3
:100970008F010F5F1F4FF8010F5F1F4F808150EDF8
:10098000752E780EB9E0B715A8F0ECEC8E169E0621
:10099000ECE0AE06B10478F7AAE0B0E0A50194015E
:1009A0000E940E174B015C01870C911CA11CB11C0D
:1009B000CA94E1CF80818F7D853409F050C0818158
:1009C0008D3219F4329681E006C08B3211F03196E7
:1009D00001C0329680E0DF0100E010E06AE02C2DDB
:1009E0000C2C000C330BFD019D9140ED490F4A305A
:1009F00080F5609FA001619F500D1124092F990F70
:100A0000110B00531109040F151FA901400F511FAD
:100A10004732510544F3882361F0DD2031F0812C09
:100A2000912CA12C40E8B42E7FC0812C912C540134
:100A30007BC0D11007C0812C912C30E8A32E3FE75A
:100A4000B32E72C0812C912C20E8A22EBB24BA9424
:100A50006BC0882331F011950195110902C000E0A7
:100A600010E080818111BDCE0C0D111DC7FC1A95BF
:100A7000C501B4010E94EF154B015C01101611066F
:100A8000D4F4C12C00FF10C024E0C29EF001112458
:100A9000EE5DFE4F2081318142815381C501B40159
:100AA0000E9450164B015C0115950795C3940115E2
:100AB000110541F71DC0119501951109C12C0115B2
:100AC0001105B1F000FF10C084E0C89EF0011124B0
:100AD000E65FFE4F2081318142815381C501B4011F
:100AE0000E9450164B015C0115950795C394E7CF02
:100AF000DD20D1F0B7FAB094B7F8B09415C0F80182
:100B00001086D394D401CD924D01C8010E948C006F
:100B1000C82EAFCC68E00E94AF0FD7018D929D9296
:100B2000AD92BC9213970AC06CE0C70104960E9474
:100B3000AF0FF70180829182A282B38280E090E0C1
:100B4000CA5BDF4F0FB6F894DEBF0FBECDBFDF919B
:100B5000CF911F910F91FF90EF90DF90CF90BF90BA
:100B6000AF909F908F907F906F905F904F9008957F
:100B7000089580E090E008958FE992E00E94C10B13
:100B800021E0892B09F420E0822F0895EF92FF9253
:100B90000F931F93CF93DF93EC0181E0888F9B8DA0
:100BA0008C8D981305C0E889F989808185FD26C060
:100BB000F62E0B8D10E00F5F1F4F0F731127E02EE5
:100BC0008C8DE8120CC00FB607FCFACFE889F989C2
:100BD000808185FFF5CFCE010E94580CF1CF8B8D1F
:100BE000FE01E80FF11DE35AFF4FF0829FB7F89422
:100BF0000B8FEA89FB89808180620AC09FB7F894D5
:100C0000EE89FF896083E889F98980818370806437
:100C100080839FBF81E090E0DF91CF911F910F9182
:100C2000FF90EF900895CF93DF93EC01888D882398
:100C3000C9F0EA89FB89808185FD05C0A889B98949
:100C40008C9186FD0FC00FB607FCF5CF808185FF24
:100C5000F2CFA889B9898C9185FFEDCFCE010E9492
:100C6000580CE7CFDF91CF9108951F920F920FB6E6
:100C70000F9211242F933F934F935F936F937F9322
:100C80008F939F93AF93BF93EF93FF938FE992E07E
:100C90000E94580CFF91EF91BF91AF919F918F915E
:100CA0007F916F915F914F913F912F910F900FBE68
:100CB0000F901F9018951F920F920FB60F9211244C
:100CC0002F938F939F93EF93FF93E091AF02F09157
:100CD000B0028081E091B502F091B60282FD12C0AF
:100CE00090818091B8028F5F8F732091B902821733
:100CF00051F0E091B802F0E0E156FD4F958F8093FE
:100D0000B80201C08081FF91EF919F918F912F9147
:100D10000F900FBE0F901F901895FC017583648390
:100D20000895FC0175836483672B11F4118A108A7E
:100D30000895CF93DF93EC0188819981461B570B6F
:100D4000DC01ED91FC910280F381E02D09952A816F
:100D50003B81820F931F9B838A83DF91CF910895FC
:100D6000EF92FF921F93CF93DF93CDB7DEB76697D5
:100D70000FB6F894DEBF0FBECDBF9C01CB01FE01C4
:100D800077964E2F1F2F5AE0E52EF12CB7010E94C7
:100D9000F717805D8293CB010097C1F7512FBF01F8
:100DA000C9010E94990666960FB6F894DEBF0FBE81
:100DB000CDBFDF91CF911F91FF90EF9008958F925B
:100DC0009F92AF92BF92CF92DF92EF92FF920F93DA
:100DD0001F93CF93DF93CDB7DEB766970FB6F89426
:100DE000DEBF0FBECDBF7C018E01095E1F4F6801C3
:100DF0008AE0882E912CA12CB12CCB01BA01A5013F
:100E000094010E941917942F852F605DF801629359
:100E10008F01A901692F782F4115510561057105D1
:100E200061F7A601BF01C7010E94990666960FB639
:100E3000F894DEBF0FBECDBFDF91CF911F910F9110
:100E4000FF90EF90DF90CF90BF90AF909F908F90EA
:100E50000895CF93DF93EC0188819981DC01ED91B6
:100E6000FC910190F081E02D09952A813B81820F50
:100E7000931F9B838A83DF91CF910895CF93DF9354
:100E8000FC0120893189232B69F4EC01668977897B
:100E900041E050E00E940D12882321F081E090E0B3
:100EA000998B888BDF91CF910895CF93DF93DC01ED
:100EB000EB01EC81FD818A819B810896E817F90797
:100EC00018F480E090E021C03897FD83EC833097E0
:100ED000C1F31296CD91DC911397209751F0CF0179
:100EE0008C1B9D0B23E0959587952A95E1F78D83C3
:100EF00003C01196FC93EE931396FC93EE93129716
:100F00001582148217821682CF01DF91CF91089546
:100F10008230A1F0833029F570939402609393029C
:100F200080E398E09093030180930201809169002F
:100F3000837F846080936900E99A11C07093920264
:100F40006093910286E398E0909301018093000101
:100F5000809169008C7F816080936900E89A81E0CC
:100F6000089580E00895DC01ED91FD918081ED917F
:100F7000FD919081ED91FD916C9163708E2309F04C
:100F800064609F2309F06860E0EDF7E0E60FF11D73
:100F9000659565956D936D917D918D919D91099468
:100FA00023C01AC012C016C010C01EC009C014C091
:100FB00013C006C019C009C00DC007C00DC014C0C1
:100FC00062507040804090400BC061507040804043
:100FD000904006C06E5F01C06F5F7F4F8F4F9F4F85
:100FE0009E938E937E936E9308950F931F93CF934A
:100FF000DF93FC01268537852115310521F021304D
:10100000310529F028C0FC01668977891EC0EC01F2
:1010100004891589F8018385823028F4F894C80181
:101020000E94B30701C0F894F80187819085A185DB
:10103000B28578942C853D85821793071CF46E89C0
:101040007F8902C0688D798DCE01DF91CF911F918C
:101050000F910C943D12DF91CF911F910F91089544
:1010600080919302909194020C94B3078091910225
:10107000909192020C94B3070F931F93CF93DF9339
:10108000EC018B012097D9F06E817F816017710789
:10109000B1F00115110541F06115710529F0C80184
:1010A0000E945419882359F08D81882331F098E0EB
:1010B0008902C00DD11D1124E5CFC0E0D0E0CE01E2
:1010C000DF91CF911F910F910895CF93DF93EC01A2
:1010D00088819981FB0101900020E9F73197AF01E8
:1010E000461B570BDC01ED91FC910280F381E02D52
:1010F00009952A813B81820F931F9B838A83DF910D
:10110000CF910895FF920F931F93CF93DF936115B3
:10111000710549F465EE71E0DF91CF911F910F9158
:10112000FF900C9465088B01EC0162E2CE010E94F5
:101130002907F80161918F01662351F0EEE0F2E09A
:10114000F080FF2099F38181681759F03296F8CF2B
:1011500062E2CE01DF91CF911F910F91FF900C942D
:1011600029076CE5CE010E9429076F2DDFCF0F9371
:101170001F93CF938C01C0E0F8018481C81738F425
:101180006DE172E0C8010E946508CF5FF5CFCF9195
:101190001F910F9108950F931F93CF93DF93FB013E
:1011A000008111810115110519F464E272E03DC05E
:1011B000EC0167E272E00E9465088C818F5F8C838E
:1011C000CE010E94B708F80166817781CE010E94A6
:1011D00082086BE272E0CE010E946508BE01C80180
:1011E0000E941B09F8018581882349F0F8E08F02ED
:1011F000000D111D11240115110531F402C000E08C
:1012000010E061E272E002C060E272E0CE010E9492
:10121000650801151105A1F68C8181508C83CE01E2
:101220000E94B70865E272E0CE01DF91CF911F9175
:101230000F910C9465082F923F924F925F926F929C
:101240007F928F929F92AF92BF92CF92DF92EF9256
:10125000FF920F931F93CF93DF93CDB7DEB76697BF
:101260000FB6F894DEBF0FBECDBFFC018B01948199
:101270009F77963009F4B1C060F4923008F4BBC097
:10128000943008F48CC060817181C8010E9482088A
:101290002EC29C30C1F088F4983009F496C09A3080
:1012A00009F0A9C0C080D180E280F3806DE2C8015E
:1012B0000E942907B701A6018CC0903209F46AC0C8
:1012C000903431F198C04080518062807380A301D6
:1012D0009201C301B2010E94EA1581118CC020E085
:1012E00030E0A901C301B2010E94EA15882309F484
:1012F00088C0A3019201C301B2010E944B179B0158
:10130000AC01C301B2010E94EA1581117AC073C019
:10131000E080F180E114F10419F461E372E06DC042
:1013200064E372E0C8010E946508D80114968C91AC
:1013300014978F5F14968C93C8010E94B708B80168
:10134000C7010E941B09F7018581882349F0F8E055
:101350008F02E00CF11C1124E114F10431F402C0FD
:10136000E12CF12C61E272E002C060E272E0C8019F
:101370000E946508E114F104F9F6D80114968C91E5
:101380001497815014968C93C8010E94B70862E3A9
:1013900072E033C0BF01C8010E94CB08A8C1DB01C5
:1013A0008D919C914281538160817181DC01ED912D
:1013B000FC910280F381E02D0995F80122813381AF
:1013C000820F931F9383828392C1408151816281F6
:1013D0007381C8010E94DF068AC180819181A28148
:1013E000B381892B8A2B8B2B19F068E372E005C03F
:1013F0006DE372E002C065EE71E0C8010E9465080D
:1014000076C120E030E0A901C301B2010E94EA15D3
:1014100087FF08C06DE2C8010E94290777FA70941F
:1014200077F8709420E836E948E15BE4C301B20143
:101430000E94E61787FD33C06AE3C62E61E0D62E10
:101440007AE0A72E71E0B72EE0E2EE2EF12C212CEF
:10145000312CA3019201D6019E918E917E916E91C5
:101460006D010E94EA1518166CF0F5012489358982
:1014700046895789C301B2010E9450162B013C01D5
:101480002E0C3F1CF594E794F4E0AF1AB10882E209
:10149000C81681E0D806E9F6BB24BA9407C030E24A
:1014A000E32EF12C45E0B42E212C312C20E030E04D
:1014B000A901C301B2010E94E617181694F52CEA9F
:1014C00035EC47E257E3C301B2010E94EA15181652
:1014D00044F19FEFB91629F1AB2DB4E0AB026001E6
:1014E0001124F601EA5AFE4FA30192016081718135
:1014F000828193810E94E61718167CF4F601EE5D56
:10150000FE4F2081318142815381C301B2010E948B
:1015100050162B013C012E183F08F594E794BA941D
:10152000D8CFC301B2010E94B7174B015C016B0118
:101530007C01E6E0EE8B80E492E4AFE0B0E08A8BE1
:101540009B8BAC8BBD8B9E89998BA92FA150AE8BA9
:10155000BAE0CB16D104E104F104C8F06A897B89B2
:101560008C899D892AE030E040E050E00E94191704
:101570002A8B3B8B4C8B5D8BC701B6012AE030E098
:1015800040E050E00E94191769017A01DCCFC501E3
:10159000B4010E94EF159B01AC01C301B2010E948E
:1015A0004A176B017C016A897B898C899D890E941D
:1015B000EF159B01AC01C701B6010E9450162B012B
:1015C0003C010E94B7176B017C010E94EF159B0143
:1015D000AC01C301B2010E944A179B01AC010E94F9
:1015E0004B170E94B717C60ED71EE81EF91E8A8930
:1015F0009B89AC89BD89C816D906EA06FB06E0F0CE
:101600009FEF891A990AA90AB90A2114310489F0AD
:10161000AAE08A169104A104B10458F0BFEF2B1A76
:101620003B0AC12CD12C7601812C912C540183943E
:1016300003C0C12CD12C76018AE0482E512C612C9C
:10164000712CC701B601A30192010E941917672BE3
:10165000682B692B41F4E9891E162CF469017A0183
:10166000E150E98BEECFB501A401C8010E94DF066D
:10167000F989FF2329F15F2E5E0181E1A80EB11CDB
:1016800035015A949FEF591679F0C701B6012AE047
:1016900030E040E050E00E941917605DD5016E9384
:1016A0005D0169017A01EDCFB301B9896B1B710945
:1016B0008EE2FB018293BF01A301C8010E9499063B
:1016C00037FE0AC06EE272E0C8010E946508662714
:1016D00077276219730908C02114310441F065E6C7
:1016E000C8010E942907B101C8010E94B006669690
:1016F0000FB6F894DEBF0FBECDBFDF91CF911F9123
:101700000F91FF90EF90DF90CF90BF90AF909F90A0
:101710008F907F906F905F904F903F902F900895A3
:10172000FC01538D448D252F30E0842F90E0821BE7
:10173000930B541710F0CF96089501970895FC016C
:10174000918D828D981761F0828DDF01A80FB11DF8
:101750005D968C91928D9F5F9F73928F90E008951C
:101760008FEF9FEF0895FC01918D828D981731F0D6
:10177000828DE80FF11D858D90E008958FEF9FEF2A
:101780000895FC01918D228D892F90E0805C9F4F00
:10179000821B91098F739927089580E090E0892B2F
:1017A00029F00E94BC0581110C940000089583303B
:1017B00081F028F4813099F08230A1F008958730CB
:1017C000A9F08830B9F08430D1F4809180008F7D09
:1017D00003C0809180008F7780938000089584B546
:1017E0008F7702C084B58F7D84BD08958091B0004D
:1017F0008F7703C08091B0008F7D8093B0000895F3
:101800003FB7F89480919B0290919C02A0919D0219
:10181000B0919E0226B5A89B05C02F3F19F00196F6
:10182000A11DB11D3FBFBA2FA92F982F8827820F66
:10183000911DA11DB11DBC01CD0142E0660F771FB6
:10184000881F991F4A95D1F708950895CF93DF9384
:10185000FC01218530E0F901E458FF4F8491F90142
:10186000E057FF4FD491F901E255FF4FC491CC23CB
:1018700079F081110E94D70BEC2FF0E0EE0FFF1FE3
:10188000EC55FF4FA591B491EC91ED2381E009F463
:1018900080E08170DF91CF910895DC01ED91FC91A2
:1018A0000190F081E02D62E070E009940E944619F9
:1018B000FC01848DDF01A80FB11DA35ABF4F2C91ED
:1018C000848D90E001968F739927848FA689B789BC
:1018D0002C93A089B1898C91837080648C93938DB3
:1018E000848D981306C00288F389E02D80818F7D56
:1018F000808308951F93CF93DF93282F30E0F90161
:10190000E458FF4F8491F901E057FF4FD491F9015A
:10191000E255FF4FC491CC23C1F0162F81110E94D4
:10192000D70BEC2FF0E0EE0FFF1FEE58FF4FA59105
:10193000B4919FB7F894111104C08C91D095D8231D
:1019400002C0EC91DE2BDC939FBFDF91CF911F9102
:101950000895CF93DF9390E0FC01E057FF4F24916F
:10196000FC01E255FF4F8491882361F190E0880FDC
:10197000991FFC01E859FF4FC591D491FC01EE5825
:10198000FF4FA591B491611109C09FB7F894888168
:10199000209582238883EC912E230BC0623061F462
:1019A0009FB7F8948881322F309583238883EC91F8
:1019B0002E2B2C939FBF06C08FB7F894E8812E2B57
:1019C00028838FBFDF91CF9108951F93CF93DF932B
:1019D000182FEB0161E00E94A90C209711F460E040
:1019E00004C0CF3FD10539F461E0812FDF91CF9161
:1019F0001F910C947A0CE12FF0E0E458FF4FE49132
:101A0000E330F9F048F4E130B9F0E230A1F584B503
:101A1000806284BDC8BD34C0E730E9F0E83019F118
:101A2000E43049F580918000806280938000D093FB
:101A30008B00C0938A0024C084B5806884BDC7BD74
:101A40001FC080918000806880938000D0938900BF
:101A5000C093880015C08091B00080688093B0006A
:101A6000C093B3000DC08091B00080628093B0003D
:101A7000C093B40005C0C038D1050CF0B5CFAFCFCE
:101A8000DF91CF911F910895862F642F0C94A90C9C
:101A90008F929F92AF92BF92CF92DF92EF92FF927E
:101AA0006B017C010E94000C4B015C01C114D1044C
:101AB000E104F104F1F00E94000CDC01CB01881973
:101AC0009909AA09BB09883E9340A105B10570F3A5
:101AD00021E0C21AD108E108F10888EE880E83E0FF
:101AE000981EA11CB11CC114D104E104F10419F722
:101AF000DDCFFF90EF90DF90CF90BF90AF909F90A1
:101B00008F900895CF92DF92EF92FF920F931F93E1
:101B1000CF93DF93DC011696CD90DC901797189643
:101B2000ED90FC901997CE14DF0481F4ED91FC91B7
:101B30000190F081E02D62E070E0DF91CF911F9184
:101B40000F91FF90EF90DF90CF90099411E0EC148B
:101B5000FD040CF010E0EC01F89461E08E850E9429
:101B60007A0C6AE070E080E090E00E94480D612FFE
:101B70008C850E947A0C61E08A850E947A0C0BE9C0
:101B80001FE0C8010197F1F760E08A850E947A0C96
:101B9000C8010197F1F760E08E850E947A0C789475
:101BA00088859985EC14FD0414F4019601C0019711
:101BB00099878887DF91CF911F910F91FF90EF90C8
:101BC000DF90CF9008952FB7F894609197027091AD
:101BD00098028091990290919A022FBF08951F92C6
:101BE0000F920FB60F9211242F933F938F939F93D1
:101BF000AF93BF938091970290919802A091990220
:101C0000B0919A023091960223E0230F2D3720F4F1
:101C10000196A11DB11D05C026E8230F0296A11D46
:101C2000B11D209396028093970290939802A093FF
:101C30009902B0939A0280919B0290919C02A0918C
:101C40009D02B0919E020196A11DB11D80939B0241
:101C500090939C02A0939D02B0939E02BF91AF917E
:101C60009F918F913F912F910F900FBE0F901F90DA
:101C700018951F920F920FB60F9211242F933F9336
:101C80004F935F936F937F938F939F93AF93BF9384
:101C9000EF93FF93E0910201F09103010995FF9109
:101CA000EF91BF91AF919F918F917F916F915F91D4
:101CB0004F913F912F910F900FBE0F901F9018954D
:101CC0001F920F920FB60F9211242F933F934F93B1
:101CD0005F936F937F938F939F93AF93BF93EF9394
:101CE000FF93E0910001F09101010995FF91EF91BF
:101CF000BF91AF919F918F917F916F915F914F9124
:101D00003F912F910F900FBE0F901F9018950F933A
:101D10001F93CF93DF938C0161308FEF780714F41A
:101D200061E07FEFEB016F3F710519F014F0CFEF29
:101D3000D0E0F80180819181009719F00197D9F0E6
:101D400036C0D7FD07C0BE01F80182810E94E50CB4
:101D500060E009C0662777276C1B7D0BF801828144
:101D60000E94E50C61E0F8018381DF91CF911F9122
:101D70000F910C947A0CD7FD08C0BE01F801828146
:101D80000E94E50C60E070E00AC060E070E0F801DD
:101D900082810E94E50C662777276C1B7D0BF8017A
:101DA0008381DF91CF911F910F910C94E50CDF910E
:101DB000CF911F910F910895892B79F41092800093
:101DC00082E0809381001092850010928400B19A85
:101DD00080916F00826080936F0008951F920F9230
:101DE0000FB60F9211242F933F934F935F936F93EE
:101DF0007F938F939F93AF93BF93EF93FF938091C4
:101E0000950287FF05C010928500109284001BC0C8
:101E100020919502022E000C330B8091860290E0F7
:101E20002817390784F480919502082E000C990B2D
:101E3000FC01EE0FFF1F8E0F9F1FFC01EE59FD4F9F
:101E4000808186FD15C0809195028F5F80939502F9
:101E500020919502022E000C330B8091860290E0B7
:101E600028173907C4F4809195028C3064F113C0AF
:101E700080919502082E000C990BFC01EE0FFF1FBC
:101E80008E0F9F1FFC01EE59FD4F808160E08F7324
:101E90000E947A0CD8CF809184009091850004969E
:101EA00080349C4918F480E49CE905C0809184004A
:101EB00090918500049690938900809388008FEF1D
:101EC000809395023BC020918400309185008091E1
:101ED0009502082E000C990BFC01EE0FFF1F8E0FD0
:101EE0009F1FFC01EE59FD4F81819281820F931F4C
:101EF000909389008093880080919502082E000CB1
:101F0000990BFC01EE0FFF1F8E0F9F1FFC01EE5976
:101F1000FD4F808186FF12C080919502082E000C33
:101F2000990BFC01EE0FFF1F8E0F9F1FFC01EE5956
:101F3000FD4F808161E08F730E947A0CFF91EF91D9
:101F4000BF91AF919F918F917F916F915F914F91D1
:101F50003F912F910F900FBE0F901F901895FC018D
:101F600090819078692B60830895982F80ED890F78
:101F70008A3020F081EA890F8C3110F481E00895D5
:101F80008FEB890F8A31D0F39B32C1F381E09D3210
:101F900021F09E3219F080E0089508950895DF92AF
:101FA000EF92FF920F931F93CF93DF93CDB7DEB7DE
:101FB00028970FB6F894DEBF0FBECDBF8C017B0112
:101FC000DC011496ED91FC91159722813381848177
:101FD000958193838283FA83E9831C821B823E83EB
:101FE0002D83821B930B98878F83C8010E948C00DE
:101FF000D82EF8011086C8010E948C00D8011896CE
:102000001C92D81649F1811103C081E090E047C0CD
:102010008C35E1F4C8010E948C008823B1F3853728
:1020200019F0E2E1F2E006C084E090E038C08917E0
:1020300029F0329690819111FACF06C081818111E9
:1020400003C082E090E02BC0F8011086682FCE011B
:1020500001960E94D101CFCF60E0CE0101960E948F
:10206000D1018D819E81892B71F08B819C81E981C9
:10207000FA812F813885821B930B22813381820F55
:10208000931F938382838D819E81D7018D939C932F
:10209000892B19F483E090E002C080E090E028965C
:1020A0000FB6F894DEBF0FBECDBFDF91CF911F9169
:1020B0000F91FF90EF90DF900895CF92DF92EF9213
:1020C000FF920F931F93CF93DF936C017A018B01E3
:1020D000C0E0D0E0CE15DF0581F0D8016D918D0113
:1020E000D601ED91FC910190F081E02DC60109959A
:1020F000892B11F02196EECF7E01C701DF91CF91A0
:102100001F910F91FF90EF90DF90CF900895CF92A5
:10211000DF92EF92FF920F931F93CF93DF93EC0127
:1021200088858B7F8887CE010E94260C182F888592
:1021300086958170181759F00E94E30D6A837B839E
:102140008C839D83988582E0892788873AC00E9486
:10215000E30DCA80DB80EC80FD80AB01BC014C1933
:102160005D096E097F098E819F81A0E0B0E048176C
:1021700059076A077B0728F188858170181709F1CC
:102180000E94E30D6A837B838C839D83988581E025
:102190008927846088870E94E30D0A851B852C852A
:1021A0003D85DC01CB01801B910BA20BB30B8E870D
:1021B0009F87A88BB98B0E94E30D6A877B878C87EA
:1021C0009D87888582FB882780F9DF91CF911F91B9
:1021D0000F91FF90EF90DF90CF900895CF93DF9312
:1021E000009779F0FC0101900020E9F73197AF01E9
:1021F000481B590BBC018FE992E00E945D10EC0175
:1022000002C0C0E0D0E042E050E061E272E08FE95D
:1022100092E00E945D108C0F9D1FDF91CF91089579
:10222000CF93DF93EC0183E492E09983888386E87F
:1022300091E09B838A831C821D821E821F828AE01A
:1022400090E0998788871A866B87CE0102960E9454
:10225000260C882319F08A8583608A870E94E30D03
:102260006C837D838E839F8384E190E09987888748
:10227000DF91CF9108956F927F928F929F92AF924C
:10228000BF92CF92DF92EF92FF920F931F93CF9363
:10229000DF93EC01762E642E490180E592E09B836A
:1022A0008A8382E090E09D838C838CE791E0998320
:1022B00088831F861E86198A188A84E090E00E940F
:1022C00025185C01DC0111961C921E9212967C92DC
:1022D000129713966C9261E0872D0E94A90C61E021
:1022E000F50183810E94A90C60E0D50112968C91C2
:1022F0000E947A0C60E0F50183810E947A0CBB8A0F
:10230000AA8A8CE090E00E9425185C0162E0882D8A
:102310000E94A90C62E0802F0E94A90CA4015527FD
:10232000FA01E255FF4FE491F0E0EE0FFF1FEC558C
:10233000FF4FA591B491F501B183A083FA01E05755
:10234000FF4F4491F5014483C8019927FC01E255F0
:10235000FF4FE491F0E0EE0FFF1FEC55FF4F25918A
:102360003491F50133832283FC01E057FF4F8491C0
:10237000F50185831782108611861286EBE3FFE153
:102380003197F1F7EC914E2391E009F490E0D901F7
:10239000EC91E82309F09260F5019683B501882D50
:1023A0000E948807D5011B968C93B501802F0E944F
:1023B0008807F5019385890F8387BD8AAC8A84E1FC
:1023C00090E00E9425188C01B7010E9410111F8B0C
:1023D0000E8BFFEFCF16DF0679F084E190E00E94CC
:1023E00025188C01B6010E941011198F088F81E009
:1023F00090E09F878E8702C01F861E86DF91CF9157
:102400001F910F91FF90EF90DF90CF90BF90AF9012
:102410009F908F907F906F900895EF92FF920F930F
:102420001F93CF93DF93EC017B018A01CB010296CE
:102430000E948710F701928595702A893B89953013
:1024400049F41B861A8660E070E0C9010E94870E7D
:1024500081E00CC089E1809FB001819F700D112443
:102460007B876A87C9010E94870E80E0DF91CF9148
:102470001F910F91FF90EF900895AF92BF92CF926E
:10248000DF92EF92FF920F931F93CF93DF93EC01B4
:102490008B01EC88FD88F7018385823028F4F8945D
:1024A000C7010E94B30701C0F894F70187819085A6
:1024B000A185B2857894AC012C853D85821B930B58
:1024C0000A96459798F4E881F9810190F081E02D12
:1024D00062E070E0CE01DF91CF911F910F91FF90EC
:1024E000EF90DF90CF90BF90AF90099442175307C1
:1024F00024F0EE24EA94FE2C03C0EE24E394F12CA5
:102500005801F2E0AF0EB11CC5010E948710F8011E
:10251000828585708530C1F4F1E0EF16F10419F57C
:10252000CC24CA94DC2CC5010E948710F8012285B6
:102530008A899B8920FD1BC022FF19C01B861A8631
:1025400060E070E00E94870EA701B801CE01DF9124
:10255000CF911F910F91FF90EF90DF90CF90BF90A0
:10256000AF900C940D12CC24C394D12CDCCF2AE074
:102570002C9DB0012D9D700D11247B876A87DF9102
:10258000CF911F910F91FF90EF90DF90CF90BF9070
:10259000AF900C94870ECF93DF93CDB7DEB76997DA
:1025A0000FB6F894DEBF0FBECDBF789484B58260BD
:1025B00084BD84B5816084BD85B5826085BD85B5E7
:1025C000816085BD80916E00816080936E00109265
:1025D00081008091810082608093810080918100E0
:1025E0008160809381008091800081608093800071
:1025F0008091B10084608093B1008091B0008160CF
:102600008093B00080917A00846080937A008091FA
:102610007A00826080937A0080917A008160809352
:102620007A0080917A00806880937A001092C100CD
:10263000E091AF02F091B00282E08083E091AB02C2
:10264000F091AC021082E091AD02F091AE028FECFD
:1026500080831092B702E091B302F091B40286E059
:102660008083E091B102F091B20280818061808329
:10267000E091B102F091B202808188608083E091A4
:10268000B102F091B202808180688083E091B10252
:10269000F091B20280818F7D80838AE190E00E9478
:1026A00025185C014DE0C42ED12C5CE0E52EF12C08
:1026B00006E210E028E230E045E050E066E070E03D
:1026C0000E943B11B0928E02A0928D028AE190E0AE
:1026D0000E9425185C01CC24CA94DC2C77E0E72EFC
:1026E000F12C02E210E024E230E049E050E06AE040
:1026F00070E00E943B11B0928C02A0928B0284E1A8
:1027000090E00E9425188C0183E991E0D80113968E
:102710009C938E93129782E090E015969C938E93F3
:10272000149780E591E011969C938E9388E190E058
:102730001B969C938E931A9786E190E01D969C932E
:102740008E931C978EE290E01F969C938E931E971B
:102750008CE290E051969C938E93509761E088E1D3
:102760000E94A90C61E086E10E94A90C61E08EE262
:102770000E94A90C61E08CE20E94A90C60E088E153
:102780000E947A0C60E086E10E947A0C60E08EE2A2
:102790000E947A0C61E08CE20E947A0C84E190E065
:1027A0000E9425187C016AE170E00E941011F80176
:1027B000F38AE28A1782168210938A0200938902B2
:1027C00088E090E00E9425188C0181EA91E0D80110
:1027D00011969C938E93809186028C30A0F491E0A8
:1027E000980F9093860212968C9390E0FC01EE0F66
:1027F000FF1F8E0F9F1FFC01EE59FD4F88EB9BE0E2
:102800009283818303C08FEFF801828380918602D7
:102810008C30A8F491E0980F90938602D801159619
:102820008C9390E0FC01EE0FFF1F8E0F9F1FFC01A9
:10283000EE59FD4F88EB9BE09283818303C08FEFBD
:10284000F8018583D80112968C918C3008F046C02F
:1028500061E08DE10E94A90CF8018281E82FF0E08F
:102860009F01220F331FE20FF31FEE59FD4F90819E
:10287000907C9D619083D80113961C9213971496B7
:102880001C926CE00E94EB1790E0BCE08B9FB001C3
:10289000112440E050E09B01240F351FF901EE0F99
:1028A000FF1F2E0F3F1FF901EE59FD4F208126FD1E
:1028B00007C04F5F5F4F4C30510569F70E94DC0E37
:1028C000D8011296EC91F0E0CF01880F991FE80F24
:1028D000F91FEE59FD4F808180648083F801858166
:1028E0008C3008F047C061E08FE10E94A90CD8014C
:1028F00015968C911597E82FF0E09F01220F331F5A
:10290000E20FF31FEE59FD4F9081907C9F61908301
:1029100016961C92169717961C926CE00E94EB1765
:1029200090E0BCE08B9FB001112440E050E09B019F
:10293000240F351FF901EE0FFF1F2E0F3F1FF90166
:10294000EE59FD4F208126FD07C04F5F5F4F4C3091
:10295000510569F70E94DC0ED8011596EC91F0E064
:10296000CF01880F991FE80FF91FEE59FD4F8081A5
:102970008064808310938802009387028AE090E04D
:102980000E9425187C018091890290918A022091F1
:102990008B0230918C0240918D0250918E02F70192
:1029A00051834083338322839583848317830683F3
:1029B00081E090E00E942518D70119969C938E9390
:1029C0001897F0929002E0928F028EEA91E00E94B6
:1029D000EE107E01B2E0EB0EF11C8FE9C82E82E012
:1029E000D82E9AE0992E00918F021091900284EFD8
:1029F00091E00E942518009731F09C012C503E4F29
:102A0000522F432F04C020E030E050E040E09B8391
:102A10008A839D838C833F832E835887498760E018
:102A2000CE010E960E94AF0F8A819B819D838C837D
:102A3000888599859F838E8360E0CE010E960E94E3
:102A4000AF0FF88AEF86DA8AC98AFC8AEB8A9D8AF8
:102A50001F8ABE01665F7F4FCE010F960E94EA017A
:102A6000998F888FCE0148960E94C3018E85982F3A
:102A70009F77C9F01FC06CED71E0C5010E94541929
:102A8000892BD1F162EF71E0C5010E945419892BA5
:102A900009F062C06BEF71E0D80118968D919C919E
:102AA00019970E9420018A819B810E94BD180E9473
:102AB000CD0B99CFF82FF0728F2E85FF11C068ECE7
:102AC00071E08A859B850E943C08FC01892B41F0BE
:102AD00094819F779450923018F4A080B18002C006
:102AE000A12CB12C60ED71E0C5010E945419892B15
:102AF00011F665ED71E03AC08820E1F160EE71E019
:102B00008A859B850E943C080097A1F1DC01149600
:102B10002C9125FF2FC0BC01D88ACF861A8A198A2A
:102B20001B8A6115710529F0CE010F960E94CB0812
:102B300006C065EE71E0CE010F960E94650881E93E
:102B400091E00E94EE1060ED77E080E090E00E945E
:102B5000480D6AEE71E00AC061E072E0C5010E94B2
:102B60005419892B09F09FCF66E072E0F801808547
:102B7000918597CF60E070E0CFCFEFE9F2E013826C
:102B8000128288EE93E0A0E0B0E084839583A68370
:102B9000B7838EE391E09183808385EC90E0958705
:102BA000848784EC90E09787868780EC90E0918B17
:102BB000808B81EC90E0938B828B82EC90E0958B04
:102BC000848B86EC90E0978B868B118E128E138E01
:102BD000148E08950E942C1608F481E00895E8945C
:102BE00009C097FB3EF490958095709561957F4F55
:102BF0008F4F9F4F9923A9F0F92F96E9BB27939503
:102C0000F695879577956795B795F111F8CFFAF412
:102C1000BB0F11F460FF1BC06F5F7F4F8F4F9F4F43
:102C200016C0882311F096E911C0772321F09EE8A1
:102C3000872F762F05C0662371F096E8862F70E007
:102C400060E02AF09A95660F771F881FDAF7880FE1
:102C50009695879597F90895990F0008550FAA0B37
:102C6000E0E8FEEF16161706E807F907C0F012169F
:102C70001306E407F50798F0621B730B840B950BA2
:102C800039F40A2661F0232B242B252B21F40895F7
:102C90000A2609F4A140A6958FEF811D811D089594
:102CA0000E9463160C94D4160E94C61638F00E9437
:102CB000CD1620F0952311F00C94BD160C94C3167C
:102CC00011240C9408170E94E51670F3959FC1F328
:102CD000950F50E0551F629FF001729FBB27F00DCA
:102CE000B11D639FAA27F00DB11DAA1F649F66271F
:102CF000B00DA11D661F829F2227B00DA11D621F6E
:102D0000739FB00DA11D621F839FA00D611D221F27
:102D1000749F3327A00D611D231F849F600D211D0B
:102D2000822F762F6A2F11249F5750409AF0F1F08E
:102D300088234AF0EE0FFF1FBB1F661F771F881FF7
:102D400091505040A9F79E3F510580F00C94BD165C
:102D50000C9408175F3FE4F3983ED4F3869577957B
:102D60006795B795F795E7959F5FC1F7FE2B880F9D
:102D7000911D9695879597F9089597F99F6780E833
:102D800070E060E008959FEF80EC089500240A94BD
:102D90001616170618060906089500240A94121636
:102DA0001306140605060895092E0394000C11F469
:102DB000882352F0BB0F40F4BF2B11F460FF04C016
:102DC0006F5F7F4F8F4F9F4F089557FD9058440F6F
:102DD000551F59F05F3F71F04795880F97FB991F7A
:102DE00061F09F3F79F08795089512161306140637
:102DF000551FF2CF4695F1DF08C0161617061806C4
:102E0000991FF1CF86957105610508940895E8949E
:102E1000BB2766277727CB0197F908950E943B17B8
:102E2000A59F900DB49F900DA49F800D911D11241E
:102E30000895A1E21A2EAA1BBB1BFD010DC0AA1FFB
:102E4000BB1FEE1FFF1FA217B307E407F50720F013
:102E5000A21BB30BE40BF50B661F771F881F991F8E
:102E60001A9469F760957095809590959B01AC01D7
:102E7000BD01CF010895A29FB001B39FC001A39FE0
:102E8000700D811D1124911DB29F700D811D1124A3
:102E9000911D08955058BB27AA270E9462170C94D1
:102EA000D4160E94C61638F00E94CD1620F039F4D0
:102EB0009F3F19F426F40C94C3160EF4E095E7FB3B
:102EC0000C94BD16E92F0E94E51658F3BA17620755
:102ED00073078407950720F079F4A6F50C9407177B
:102EE0000EF4E0950B2EBA2FA02D0B01B901900125
:102EF0000C01CA01A0011124FF27591B99F0593F69
:102F000050F4503E68F11A16F040A22F232F342FB0
:102F10004427585FF3CF469537952795A795F040FE
:102F20005395C9F77EF41F16BA0B620B730B840B13
:102F3000BAF09150A1F0FF0FBB1F661F771F881FCB
:102F4000C2F70EC0BA0F621F731F841F48F4879523
:102F500077956795B795F7959E3F08F0B0CF939515
:102F6000880F08F09927EE0F9795879508950E948E
:102F7000ED1688F09F5798F0B92F9927B751B0F008
:102F8000E1F0660F771F881F991F1AF0BA95C9F7ED
:102F900014C0B13091F00E940717B1E008950C946D
:102FA0000717672F782F8827B85F39F0B93FCCF320
:102FB000869577956795B395D9F73EF4909580956A
:102FC000709561957F4F8F4F9F4F08950E942C16EB
:102FD00008F48FEF0895991B79E004C0991F9617A4
:102FE00008F0961B881F7A95C9F78095089597FB7E
:102FF000072E16F4009407D077FD09D00E940B1815
:1030000007FC05D03EF4909581959F4F08957095EB
:1030100061957F4F0895AA1BBB1B51E107C0AA1FF2
:10302000BB1FA617B70710F0A61BB70B881F991F69
:103030005A95A9F780959095BC01CD010895EE0FA2
:10304000FF1F0590F491E02D09940F931F93CF93E8
:10305000DF938230910510F482E090E0E0913E032E
:10306000F0913F0320E030E0A0E0B0E0309719F1AC
:10307000408151810281138148175907C8F0841794
:10308000950769F4109731F012960C9312971396E6
:103090001C9327C000933E0310933F0322C02115C9
:1030A000310519F04217530718F49A01BD01EF01D9
:1030B000DF01F801DBCF21153105F9F0281B390BB1
:1030C0002430310580F48A819B816115710521F0DE
:1030D000FB019383828304C090933F0380933E035C
:1030E000FE01329644C0FE01E20FF31F81939193DB
:1030F00022503109398328833AC020913C03309112
:103100003D03232B41F420910601309107013093B8
:103110003D0320933C0320910401309105012115CA
:10312000310541F42DB73EB7409108015091090196
:10313000241B350BE0913C03F0913D03E217F307AC
:10314000A0F42E1B3F0B2817390778F0AC014E5F17
:103150005F4F2417350748F04E0F5F1F50933D0314
:1031600040933C038193919302C0E0E0F0E0CF01F3
:10317000DF91CF911F910F910895CF93DF93009727
:1031800009F481C0FC01329713821282A0913E03A0
:10319000B0913F03109781F420813181820F931FFA
:1031A00020913C0330913D032817390751F5F093E6
:1031B0003D03E0933C0367C0ED0120E030E0CE1713
:1031C000DF0740F44A815B819E0141155105F1F012
:1031D000EA01F5CFD383C28340815181840F951FCB
:1031E000C817D90759F488819981840F951F0296D1
:1031F000918380838A819B8193838283211531050A
:1032000029F4F0933F03E0933E033DC0E901FB83C3
:10321000EA8349915991C40FD51FEC17FD0761F45A
:1032200080819181840F951F0296E901998388839B
:10323000828193819B838A83E0E0F0E012968D91F6
:103240009C911397009719F0FD01DC01F7CF8D9148
:103250009C9111979D012E5F3F4F820F931F2091EC
:103260003C0330913D032817390769F4309729F45E
:1032700010923F0310923E0302C013821282B09359
:103280003D03A0933C03DF91CF91089581E090E04E
:10329000F8940C945D19FB01DC0102C001900D92C1
:1032A00041505040D8F70895FB01DC018D91019009
:0E32B00080190110D9F3990B0895F894FFCFFF
:1032BE00250C250C000040038000CDCCCC3D0AD758
:1032CE00233C17B7D13877CC2B329595E6241FB116
:1032DE004F0A000020410000C84200401C4620BC9E
:1032EE00BE4CCA1B0E5AAEC59D7400000000C6052A
:1032FE005D10900B1306C10B9F0BB30B000000006B
:10330E008D06820D4D0C0000803FCDCCCC3D6F1252
:10331E00833A95BFD6337D1D9026B3CE010C0000A7
:10332E0000008D06560C560C000000009106F507A5
:10333E003E0700000000260C440D53746174757333
:10334E00003B0053746570706572204D6F746F7220
:10335E0000456E64204566666563746F7200506F3B
:10336E006C61722042454152205365747570204342
:10337E006F6D706C65746500436F6D6D616E64008A
:10338E004F70656E004F70656E65640052756E000D
:10339E0053746570006E756C6C0057616974696E5C
:1033AE00670046696E697368656400526561647989
:1033BE000053746F700053746F7070656400222236
:1033CE005C5C6208660C6E0A720D740900202000A7
:1033DE002C0D0A007B7D007B0D0A003A2000652D26
:1033EE00005B5D005B0D0A00747275650066616CB2
:1033FE007365004C696D6974205377697463680056
:10340E0051756164726174757265204D6F746F725F
:02341E000000AC
:107E0000112484B714BE81FFF0D085E080938100F7
:107E100082E08093C00088E18093C10086E0809377
:107E2000C20080E18093C4008EE0C9D0259A86E02C
:107E300020E33CEF91E0309385002093840096BBD3
:107E4000B09BFECF1D9AA8958150A9F7CC24DD24C4
:107E500088248394B5E0AB2EA1E19A2EF3E0BF2EE7
:107E6000A2D0813461F49FD0082FAFD0023811F036
:107E7000013811F484E001C083E08DD089C08234E0
:107E800011F484E103C0853419F485E0A6D080C0E4
:107E9000853579F488D0E82EFF2485D0082F10E0AE
:107EA000102F00270E291F29000F111F8ED06801E7
:107EB0006FC0863521F484E090D080E0DECF843638
:107EC00009F040C070D06FD0082F6DD080E0C81688
:107ED00080E7D80618F4F601B7BEE895C0E0D1E017
:107EE00062D089930C17E1F7F0E0CF16F0E7DF06D8
:107EF00018F0F601B7BEE89568D007B600FCFDCFD4
:107F0000A601A0E0B1E02C9130E011968C91119780
:107F100090E0982F8827822B932B1296FA010C0160
:107F200087BEE89511244E5F5F4FF1E0A038BF0790
:107F300051F7F601A7BEE89507B600FCFDCF97BE46
:107F4000E89526C08437B1F42ED02DD0F82E2BD052
:107F50003CD0F601EF2C8F010F5F1F4F84911BD097
:107F6000EA94F801C1F70894C11CD11CFA94CF0C13
:107F7000D11C0EC0853739F428D08EE10CD085E9AC
:107F80000AD08FE07ACF813511F488E018D01DD067
:107F900080E101D065CF982F8091C00085FFFCCF94
:107FA0009093C60008958091C00087FFFCCF809118
:107FB000C00084FD01C0A8958091C6000895E0E648
:107FC000F0E098E1908380830895EDDF803219F02E
:107FD00088E0F5DFFFCF84E1DECF1F93182FE3DFCA
:107FE0001150E9F7F2DF1F91089580E0E8DFEE27F6
:047FF000FF270994CA
:027FFE00040479
:0400000300007E007B
:00000001FF