:1000000073C000009FC000009DC000009BC00000A6
:1000100099C0000097C0000095C0000093C0000088
:1000200091C000008FC000008DC000008BC0000098
:1000300089C0000087C0000085C0000083C00000A8
:1000400081C000007FC000007DC000007BC00000B8
:1000500079C0000077C0000075C0000022C3000016
:1000600071C00000E8C20000BDC200006BC000000B
:1000700069C0000067C0000065C0000063C00000E8
:1000800061C000005FC000005DC000005BC00000F8
:1000900059C0000057C0000055C0000053C0000008
:1000A00051C000004FC000004DC000004BC0000018
:1000B00049C0000047C0000045C0000043C0000028
:1000C00041C000003FC000003DC000003BC0000038
:1000D00039C0000037C0000035C0000033C0000048
:1000E00031C000009B034F0611241FBECFEFD1E2A9
:1000F000DEBFCDBF00E00CBF23E0A8E4B2E001C04A
:100100001D92A035B207E1F712E0A0E0B2E0E6E50B
:10011000F1E100E00BBF02C007900D92A834B107D7
:10012000D9F710E0C3E7D0E000E005C0219701094E
:10013000802FFE01E2D5C237D10780E00807B1F772
:100140005ED3F8C75DCFE6E5F2E0A089B18982E031
:100150008C93A485B5851C92A685B78580E18C9388
:10016000108EA489B58986E08C93A289B3898C917D
:1001700080618C93A289B3898C9188608C93A289C9
:10018000B3898C9180688C930288F389E02D8081FB
:100190008F7D80830895E0914203F091430331976E
:1001A0008091400390914103E817F90730F4809162
:1001B0003C0390913D03009729F410925502E5E528
:1001C000F2E002C0E80FF91F81E0208190913B032B
:1001D000291380E00895CF92DF92EF92FF920F9360
:1001E0001F93CF93DF936C017A018B01C0E0D0E0C5
:1001F000CE15DF0581F0D8016D918D01D601ED910D
:10020000FC910190F081E02DC6011995892B11F028
:100210002196EECF7E01C701DF91CF911F910F9103
:10022000FF90EF90DF90CF900895089580E090E0E8
:100230000895FC01538D448D252F30E0842F90E0EC
:10024000821B930B541710F0CF96089501970895D1
:10025000FC01918D828D981761F0828DDF01A80FCE
:10026000B11D5D968C91928D9F5F9F73928F90E0F0
:1002700008958FEF9FEF0895FC01918D828D98175F
:1002800031F0828DE80FF11D858D90E008958FEF9C
:100290009FEF0895FC01918D228D892F90E0805C65
:1002A0009F4F821B91098F739927089586E592E0ED
:1002B000F1DF21E0892B09F420E0822F0895FC0171
:1002C000848DDF01A80FB11DA35ABF4F2C91848DDF
:1002D00090E001968F739927848FA689B7892C9314
:1002E000A089B1898C91837080648C93938D848D67
:1002F000981306C00288F389E02D80818F7D80836A
:100300000895EF92FF920F931F93CF93DF93EC0129
:1003100081E0888F9B8D8C8D981305C0E889F989C1
:10032000808185FD25C0F62E0B8D10E00F5F1F4FDD
:100330000F731127E02E8C8DE8120BC00FB607FC4F
:10034000FACFE889F989808185FFF5CFCE01B7DF43
:10035000F2CF8B8DFE01E80FF11DE35AFF4FF082C3
:100360009FB7F8940B8FEA89FB89808180620AC06D
:100370009FB7F894EE89FF896083E889F9898081C5
:100380008370806480839FBF81E090E0DF91CF9194
:100390001F910F91FF90EF900895CF93DF93EC01A1
:1003A000888D8823C1F0EA89FB89808185FD05C09D
:1003B000A889B9898C9186FD0EC00FB607FCF5CFD0
:1003C000808185FFF2CFA889B9898C9185FFEDCF17
:1003D000CE0175DFE8CFDF91CF91089580E090E006
:1003E000892B19F063DF811125C080E090E0892B13
:1003F00041F080E090E0892B21F00E940000811103
:100400001CC080E090E0892B41F080E090E0892BD7
:1004100021F00E940000811113C080E090E0892B40
:10042000A1F080E090E0892B81F00E940000811112
:100430000AC008950E940000D8CF0E940000E1CFBA
:100440000E940000EACF0C94000008952FB7F894A2
:1004500060914D0270914E0280914F029091500236
:100460002FBF08956115710579F0FB0101900020FF
:10047000E9F73197AF01461B570BDC01ED91FC9179
:100480000280F381E02D199480E090E008958F922E
:100490009F92AF92BF92EF92FF920F931F93CF93D1
:1004A000DF93CDB7DEB7A1970FB6F894DEBF0FBECE
:1004B000CDBF7C01FA01CB0119A2223008F42AE059
:1004C0008E010F5D1F4F822E912CA12CB12CBF01EC
:1004D000A5019401F0D3F901CA01015011096A3054
:1004E00014F4605D01C0695CD8016C93232B242B4C
:1004F000252B69F7B801C701B5DFA1960FB6F894AF
:10050000DEBF0FBECDBFDF91CF911F910F91FF9046
:10051000EF90BF90AF909F908F900895CF93DF930F
:10052000FC01448155816081718186E592E053DE52
:10053000EC0161E372E086E592E094DF8C0F9D1F91
:10054000DF91CF910895E2D50F931F93CF93DF935F
:10055000EC0188819981009729F02A813B81261737
:10056000370780F48B016F5F7F4FF0D4009761F005
:10057000998388831B830A832C813D81232B11F46B
:10058000FC01108281E001C080E0DF91CF911F91DA
:100590000F910895EF92FF920F931F93CF93DF93E4
:1005A000EC017B018A01BA01CFDF288139818111F9
:1005B0000CC02115310511F0C9013FD419821882F0
:1005C0001D821C821B821A8205C01D830C83B70109
:1005D000C901A9D5CE01DF91CF911F910F91FF9055
:1005E000EF9008951F920F920FB60F9211240BB641
:1005F0000F922F933F934F935F936F937F938F93BC
:100600009F93AF93BF93EF93FF9386E592E057DEFE
:10061000FF91EF91BF91AF919F918F917F916F91DA
:100620005F914F913F912F910F900BBE0F900FBE96
:100630000F901F9018951F920F920FB60F921124D2
:100640000BB60F922F938F939F93EF93FF93E091AD
:100650006602F09167028081E0916C02F0916D0278
:1006600082FD12C0908180916F028F5F8F73209105
:100670007002821751F0E0916F02F0E0EA5AFD4FEC
:10068000958F80936F0201C08081FF91EF919F91C0
:100690008F912F910F900BBE0F900FBE0F901F9058
:1006A00018951F920F920FB60F9211242F933F931C
:1006B0008F939F93AF93BF9380914D0290914E0281
:1006C000A0914F02B091500230914C0223E0230FD1
:1006D0002D3720F40196A11DB11D05C026E8230F7A
:1006E0000296A11DB11D20934C0280934D02909360
:1006F0004E02A0934F02B093500280914802909115
:100700004902A0914A02B0914B020196A11DB11D70
:100710008093480290934902A0934A02B0934B02FF
:10072000BF91AF919F918F913F912F910F900FBEED
:100730000F901F901895CF93DF93E6E5F2E01382B8
:10074000128288EE93E0A0E0B0E084839583A683D4
:10075000B7838AE092E09183808385EC90E095876F
:10076000848784EC90E09787868780EC90E0918B7B
:10077000808B81EC90E0938B828B82EC90E0958B68
:10078000848B86EC90E0978B868B118E128E138E65
:10079000148EE3EFF2E0168217821086118612861D
:1007A00013861486158616861786108A118A128A71
:1007B000138A148A158ACBE3D3E08BE388831A82E9
:1007C00019821C821B821E821D8240E050E063E37E
:1007D00072E08CE393E0DEDE1F82188619861A86AB
:1007E0001C861B861E861D86188A1F8649E050E0DF
:1007F00068E172E086E493E0DF91CF91CBCECF93B6
:10080000DF9300D000D0CDB7DEB7789484B5826096
:1008100084BD84B5816084BD85B5826085BD85B5A4
:10082000816085BD80916E00816080936E00109222
:10083000810080918100826080938100809181009D
:10084000816080938100809180008160809380002E
:100850008091B10084608093B1008091B00081608C
:100860008093B0008091910082608093910080918C
:1008700091008160809391008091900081608093CD
:1008800090008091A10082608093A1008091A100DE
:1008900081608093A1008091A00081608093A0007E
:1008A00080912101826080932101809121018160EA
:1008B00080932101809120018160809320018091AB
:1008C0007A00846080937A0080917A0082608093BD
:1008D0007A0080917A00816080937A0080917A001A
:1008E000806880937A001092C100109237031092B2
:1008F00038031092390310923A031092F5021092C5
:10090000F6021092F7021092F802A0DD6B017C0152
:100910004B015C0188EB880E8BE0981EA11CB11C7A
:1009200095DD6C157D058E059F0528F086169706CA
:10093000A806B906A8F786E592E09093360380935F
:10094000350301DC83DD6093F5027093F60280933A
:10095000F7029093F80262E272E080913503909181
:10096000360380DD73DD6B017C014B015C018AE0A5
:10097000880E911CA11CB11C69DD6C157D058E05CE
:100980009F0528F086169706A806B906A8F781E005
:1009900080930903D8DB84EF882E99249394A12CAB
:1009A000B12C54DD672B682B692B39F44FDD623095
:1009B00071058105910508F4FBC048DD00915102E5
:1009C0001091520220915302309154026017710726
:1009D0008207930740F46093510270935202809310
:1009E00053029093540200915102109152022091AF
:1009F0005302309154026B017C01C01AD10AE20A01
:100A0000F30A970186010A3F11052105310508F413
:100A1000CFC060935102709352028093530290931F
:100A200054028092010390920203A0920303B092B9
:100A3000040310920503109206031092070310920C
:100A400008038091F9029091FA02A091FB02B09103
:100A5000FC028093FD029093FE02A093FF02B093EC
:100A60000003F4DC6093F9027093FA028093FB02B6
:100A70009093FC02EBDC6093F5027093F602809396
:100A8000F7029093F802E2DC6B017C0164E372E010
:100A90008091350390913603E5DC2AE041E050E097
:100AA00060E070E08091350390913603F0DC6BE3F9
:100AB00072E08091350390913603D4DC2AE0B701CF
:100AC000A6018091350390913603E1DC6DE372E07D
:100AD0008091350390913603C5DC8091F9029091A5
:100AE000FA02A091FB02B091FC02B701A601481BDB
:100AF000590B6A0B7B0B2AE08091350390913603EA
:100B0000C6DC6DE372E08091350390913603AADC78
:100B10004091F9025091FA026091FB027091FC023F
:100B20008091FD029091FE02A091FF02B09100031E
:100B3000481B590B6A0B7B0B2AE08091350390917F
:100B40003603A5DC6FE372E08091350390913603A4
:100B500089DC7CDCAB01BC012AE0809135039091FB
:100B6000360395DC009135031091360361E472E0A1
:100B7000C80178DC61E372E0C80174DC67DC6B01FA
:100B80007C012B013C0185E0480E511C611C711C4D
:100B90005DDC6C157D058E059F0508F079C056DC7F
:100BA0006093F9027093FA028093FB029093FC0227
:100BB00086E592E06FDB892B09F468C086E592E058
:100BC00047DB89831A8200914003109141030F5F34
:100BD0001F4FB8018CE393E0B7DC882391F020919C
:100BE0003C0330913D038091400390914103BE014D
:100BF0006F5F7F4F820F931F96D210934103009334
:100C000040038091420390914303A0914403B0912B
:100C100045030196A11DB11D8093420390934303A8
:100C2000A0934403B0934503B6DA882319F086E411
:100C300093E074DCB0DA882349F11A8219821C82AD
:100C40001B821E821D8260913C0370913D036115E1
:100C5000710539F04091400350914103CE01019656
:100C600099DC40E050E063E372E08CE393E092DCD7
:100C700010924203109243031092440310924503D2
:100C8000CE0101964BDC89819A81D7D0A7DB89CE32
:100C9000461657066806790608F07ACF80CFCF93BC
:100CA000DF93CBE3D3E08B859C85C7D089819A8184
:100CB000DF91CF91C2C0A1E21A2EAA1BBB1BFD017E
:100CC0000DC0AA1FBB1FEE1FFF1FA217B307E4072B
:100CD000F50720F0A21BB30BE40BF50B661F771F83
:100CE000881F991F1A9469F7609570958095909563
:100CF0009B01AC01BD01CF010895EE0FFF1F881FBE
:100D00008BBF0790F691E02D19940F931F93CF930B
:100D1000DF938230910510F482E090E0E0914E0381
:100D2000F0914F0320E030E0A0E0B0E0309719F1FF
:100D3000408151810281138148175907C8F08417F7
:100D4000950769F4109731F012960C931297139649
:100D50001C9327C000934E0310934F0322C021150C
:100D6000310519F04217530718F49A01BD01EF013C
:100D7000DF01F801DBCF21153105F9F0281B390B14
:100D80002430310580F48A819B816115710521F041
:100D9000FB019383828304C090934F0380934E039F
:100DA000FE01329644C0FE01E20FF31F819391933E
:100DB00022503109398328833AC020914C03309165
:100DC0004D03232B41F42091020230910302309312
:100DD0004D0320934C032091000230910102211514
:100DE000310541F42DB73EB7409104025091050200
:100DF000241B350BE0914C03F0914D03E217F307F0
:100E0000A0F42E1B3F0B2817390778F0AC014E5F7A
:100E10005F4F2417350748F04E0F5F1F50934D0367
:100E200040934C038193919302C0E0E0F0E0CF0146
:100E3000DF91CF911F910F910895CF93DF9300978A
:100E400009F481C0FC01329713821282A0914E03F3
:100E5000B0914F03109781F420813181820F931F4D
:100E600020914C0330914D032817390751F5F09329
:100E70004D03E0934C0367C0ED0120E030E0CE1756
:100E8000DF0740F44A815B819E0141155105F1F075
:100E9000EA01F5CFD383C28340815181840F951F2E
:100EA000C817D90759F488819981840F951F029634
:100EB000918380838A819B8193838283211531056D
:100EC00029F4F0934F03E0934E033DC0E901FB8307
:100ED000EA8349915991C40FD51FEC17FD0761F4BE
:100EE00080819181840F951F0296E90199838883FF
:100EF000828193819B838A83E0E0F0E012968D915A
:100F00009C911397009719F0FD01DC01F7CF8D91AB
:100F10009C9111979D012E5F3F4F820F931F20914F
:100F20004C0330914D032817390769F4309729F4A1
:100F300010924F0310924E0302C013821282B0939C
:100F40004D03A0934C03DF91CF9108956F927F9250
:100F50008F929F92AF92BF92CF92DF92EF92FF92C9
:100F60000F931F93CF93DF93009781F4CB01DF9111
:100F7000CF911F910F91FF90EF90DF90CF90BF9096
:100F8000AF909F908F907F906F90BFCEFC01E60F47
:100F9000F71F9C0122503109E217F30708F4A5C09E
:100FA000EC01D9010D911C91119706171707A8F0B4
:100FB0000530110508F497C0C801049786179707F4
:100FC00008F491C002501109061B170B01931193ED
:100FD0006D937C93CF0131DF86C05B01A01AB10A0B
:100FE0004C01800E911EA0914E03B0914F03612CD5
:100FF000712CE12CF12C109709F446C08D919C9135
:101000001197A815B905B1F56C0142E0C40ED11CC9
:10101000CA14DB0478F14C018A189B08640142E091
:10102000C40ED11C1296BC9012971396AC91B5E0E9
:10103000CB16D10440F0B282A38391828082D90181
:101040006D937C9309C00E5F1F4F800F911FF901B4
:1010500091838083EB2DFA2FE114F10431F0D70155
:101060001396FC93EE9312973EC0F0934F03E093D8
:101070004E0339C06816790608F43C017D011296CA
:101080000D90BC91A02DB7CF80914C0390914D0352
:1010900088169906E1F466167706C8F48091000276
:1010A00090910102009741F48DB79EB740910402E0
:1010B00050910502841B950BE817F907B0F4F093E3
:1010C0004D03E0934C03F901718360830CC0CB01A5
:1010D0001CDE7C01009749F0A801BE011BD0CE01A7
:1010E000ACDEC70104C0CE0102C080E090E0DF9119
:1010F000CF911F910F91FF90EF90DF90CF90BF9015
:10110000AF909F908F907F906F90089581E090E0D6
:10111000F89410C0FB01DC0102C001900D92415017
:101120005040D8F70895FB01DC0101900D9200209A
:10113000E1F7089510E0C3E7D0E000E005C0802F9C
:10114000FE01DBDD2196011DC437D10780E00807D1
:06115000B1F7F894FFCF97
:10115600000050038000000000008101EB0019012F
:10116600CD014A0128013C017265636569766564B3
:101176003B00564D4450565F317C315F564D4450CE
:10118600560D0A00564D4450455F003A323A007CEF
:08119600005F564D4450450076
:00000001FF
