:1000000007C1000035C1000033C1000031C100004C
:100010002FC100002DC100002BC1000029C100002C
:1000200027C1000025C1000023C1000021C100003C
:100030001FC100001DC100001BC1000019C100004C
:1000400017C1000015C1000013C1000011C100005C
:100050000FC100000DC100000BC1000075C50000FC
:1000600007C100003BC5000010C5000001C1000031
:10007000FFC00000FDC00000FBC00000F9C0000090
:10008000F7C00000F5C00000F3C00000F1C00000A0
:10009000EFC00000EDC00000EBC00000E9C00000B0
:1000A000E7C00000E5C00000E3C00000E1C00000C0
:1000B000DFC00000DDC00000DBC00000D9C00000D0
:1000C000D7C00000D5C00000D3C00000D1C00000E0
:1000D000CFC00000CDC00000CBC00000C9C00000F0
:1000E000C7C00000CB02CE02BD02C102C50205039B
:1000F000D202D602DC02E002E402EA02EE02F202DE
:100100000503F802FC020003000021002400270080
:100110002A002D0030003300010100000401070116
:100120000A0100002200250028002B002E003100CB
:10013000340002010000050108010B010505050559
:10014000070508080808020202020A0A080804044F
:10015000040401010101010101010303030303037D
:100160000303040707070C0C0C0C0C0C0C0C02020C
:10017000020206060606060606060B0B0B0B0B0B09
:100180000B0B010210202008081020401020408096
:10019000020102010804020101020408102040804B
:1001A00080402010080402018004020180402010D9
:1001B0000804020108040201010204081020408022
:1001C000010204081020408000000A0B02090C0DF7
:1001D0000E080703040100000000000000000000FA
:1001E000000000000000000000000000000000000F
:1001F00000000000121110000000000000000000CC
:100200000000000000000000000000000000EE05FB
:1002100011241FBECFEFD1E2DEBFCDBF00E00CBF87
:1002200023E0A0EBB2E001C01D92A83AB207E1F7CB
:1002300012E0A0E0B2E0E8EBF8E100E00BBF02C0A2
:1002400007900D92A03BB107D9F711E0C8E0D1E0CB
:1002500000E006C021970109802FFE010E942D0BAE
:10026000C730D10780E00807A9F7F7D40C945A0CDF
:10027000C7CEEFEBF2E0A089B18982E08C93A48530
:10028000B5851C92A685B78580E18C93108EA489D4
:10029000B58986E08C93A289B3898C9180618C9317
:1002A000A289B3898C9188608C93A289B3898C913F
:1002B00080688C930288F389E02D80818F7D808314
:1002C0000895CF92DF92EF92FF920F931F93CF93F7
:1002D000DF936C017A018B01C0E0D0E0CE15DF0521
:1002E00081F0D8016D918D01D601ED91FC910190C5
:1002F000F081E02DC6011995892B11F02196EECFE2
:100300007E01C701DF91CF911F910F91FF90EF9078
:10031000DF90CF900895089580E090E00895FC016B
:10032000538D448D252F30E0842F90E0821B930B5A
:10033000541710F0CF96089501970895FC01918D00
:10034000828D981761F0828DDF01A80FB11D5D9637
:100350008C91928D9F5F9F73928F90E008958FEFA5
:100360009FEF0895FC01918D828D981731F0828D59
:10037000E80FF11D858D90E008958FEF9FEF0895B0
:10038000FC01918D228D892F90E0805C9F4F821B14
:1003900091098F73992708958FEB92E0F1DF21E0A7
:1003A000892B09F420E0822F0895FC01848DDF0160
:1003B000A80FB11DA35ABF4F2C91848D90E00196D8
:1003C0008F739927848FA689B7892C93A089B189C7
:1003D0008C91837080648C93938D848D981306C068
:1003E0000288F389E02D80818F7D80830895EF92CC
:1003F000FF920F931F93CF93DF93EC0181E0888FDF
:100400009B8D8C8D981305C0E889F989808185FDC5
:1004100025C0F62E0B8D10E00F5F1F4F0F731127B5
:10042000E02E8C8DE8120BC00FB607FCFACFE889DE
:10043000F989808185FFF5CFCE01B7DFF2CF8B8DB3
:10044000FE01E80FF11DE35AFF4FF0829FB7F894C9
:100450000B8FEA89FB89808180620AC09FB7F8947C
:10046000EE89FF896083E889F989808183708064DF
:1004700080839FBF81E090E0DF91CF911F910F912A
:10048000FF90EF900895CF93DF93EC01888D882340
:10049000C1F0EA89FB89808185FD05C0A889B989F9
:1004A0008C9186FD0EC00FB607FCF5CF808185FFCD
:1004B000F2CFA889B9898C9185FFEDCFCE0175DF88
:1004C000E8CFDF91CF91089580E090E0892B19F07B
:1004D00063DF811125C080E090E0892B41F080E04E
:1004E00090E0892B21F00E94000081111CC080E067
:1004F00090E0892B41F080E090E0892B21F00E9470
:100500000000811113C080E090E0892BA1F080E011
:1005100090E0892B81F00E94000081110AC00895AB
:100520000E940000D8CF0E940000E1CF0E9400008E
:10053000EACF0C9400000895362F90E0FC01E853B8
:10054000FE4F4491FC01EE57FE4F2491FC01E45C08
:10055000FE4F9491992309F46CC0442309F455C0CB
:1005600050E0FA013197E231F10508F04EC08827DA
:10057000EE58FF4F8F4F0C942D0B809180008F779A
:1005800007C0809180008F7D03C080918000877FAD
:10059000809380003AC084B58F7702C084B58F7D88
:1005A00084BD33C08091B0008F7703C08091B000CC
:1005B0008F7D8093B00029C0809190008F7707C015
:1005C000809190008F7D03C080919000877F809301
:1005D00090001BC08091A0008F7707C08091A00081
:1005E0008F7D03C08091A000877F8093A0000DC005
:1005F000809120018F7707C0809120018F7D03C0FB
:1006000080912001877F80932001E92FF0E0EE0F99
:10061000FF1FEE5DFE4FA591B4919FB7F894311185
:1006200004C08C912095282302C0EC912E2B2C9392
:100630009FBF0895CF93DF9390E0FC01EE57FE4FEC
:100640002491FC01E45CFE4F8491882361F190E0E9
:10065000880F991FFC01E85FFE4FC591D491FC0102
:10066000EE5DFE4FA591B491611109C09FB7F8945A
:100670008881209582238883EC912E230BC06230E1
:1006800061F49FB7F8948881322F30958323888353
:10069000EC912E2B2C939FBF06C08FB7F894E88166
:1006A0002E2B28838FBFDF91CF910895863308F0DA
:1006B000865390917B00282F2870977F922B9093E0
:1006C0007B008770806480937C0080917A008064D6
:1006D00080937A0080917A0086FDFCCF809178002B
:1006E0002091790090E0922B08953FB7F894809183
:1006F000B5029091B602A091B702B091B80226B5AA
:10070000A89B05C02F3F19F00196A11DB11D3FBF49
:10071000BA2FA92F982F8827820F911DA11DB11DD7
:10072000BC01CD0142E0660F771F881F991F4A95D3
:10073000D1F708958F929F92AF92BF92CF92DF929E
:10074000EF92FF92D2DF4B015C0184E6C82ED12CE0
:10075000E12CF12CCADFDC01CB0188199909AA0927
:10076000BB09883E9340A105B105A0F321E0C21A60
:10077000D108E108F10888EE880E83E0981EA11CDC
:10078000B11CC114D104E104F10421F7FF90EF90F2
:10079000DF90CF90BF90AF909F908F9008952FB72C
:1007A000F8946091B1027091B2028091B30290917D
:1007B000B4022FBF0895CF93DF93EC0161E08C81E9
:1007C000BBDE60E08881B8DE8BE798E30197F1F744
:1007D00060E08C81DF91CF91AFCE0E94560C611505
:1007E000710579F0FB0101900020E9F73197AF0125
:1007F000461B570BDC01ED91FC910280F381E02D4B
:10080000199480E090E008958F929F92AF92BF92EA
:10081000EF92FF920F931F93CF93DF93CDB7DEB785
:10082000A1970FB6F894DEBF0FBECDBF7C01FA01D1
:10083000CB0119A2223008F42AE08E010F5D1F4F70
:10084000822E912CA12CB12CBF01A5019401E2D5DF
:10085000F901CA01015011096A3014F4605D01C048
:10086000695CD8016C93232B242B252B69F7B801E5
:10087000C701B5DFA1960FB6F894DEBF0FBECDBF9E
:10088000DF91CF911F910F91FF90EF90BF90AF90AC
:100890009F908F9008958F929F92AF92BF92CF9228
:1008A000DF92EF92FF920F931F93CF93DF936B0131
:1008B0007C01142F9B01AC01CCD6882319F068E190
:1008C00072E024C046015701E894B7F82FEF3FEFDC
:1008D0004FE75FE7C501B401BCD681110CC02FEF13
:1008E0003FEF4FE75FE7C501B4017BD418161CF456
:1008F0006CE172E00BC02FEF3FEF4FE75FE4C70101
:10090000B601A3D618168CF460E272E08FEB92E089
:10091000DF91CF911F910F91FF90EF90DF90CF90DB
:10092000BF90AF909F908F905ACF2FEF3FEF4FE740
:100930005FECC701B60155D487FDE6CF20E030E07B
:10094000A901C701B6014DD487FF0AC06DE28FEB44
:1009500092E04DDDEC01F7FAF094F7F8F09402C064
:10096000C0E0D0E000E060E070E080E09FE31017BE
:1009700039F020E030E040E251E4D3D50F5FF7CF0B
:10098000A70196016AD56B017C0133D64B015C014E
:100990002AE0AB01BC018FEB92E036DFC80FD91F14
:1009A000112389F1C501B40120D49B01AC01C70119
:1009B000B60152D56B017C016EE28FEB92E017DD40
:1009C000C80FD91F20E030E040E251E4C701B60172
:1009D0006DD44B015C010DD66B01E12CF12C2AE0AA
:1009E000B701A6018FEB92E00FDFC80FD91FC70137
:1009F000B601FBD39B01AC01C501B4012DD56B0140
:100A00007C011150F9F6CE01DF91CF911F910F912A
:100A1000FF90EF90DF90CF90BF90AF909F908F901E
:100A20000895CF92DF92EF92FF92CF93DF936B0105
:100A30007C016DE28FEB92E0DADCEC014427552774
:100A4000BA014C195D096E097F092AE08FEB92E02B
:100A5000DBDE8C0F9D1FDF91CF91FF90EF90DF9039
:100A6000CF9008950F931F93CF93DF93EC01B7DEE0
:100A70008C0163E372E0CE01B2DE800F911FDF9143
:100A8000CF911F910F910895AACE1F920F920FB68A
:100A90000F9211240BB60F922F933F934F935F93B6
:100AA0006F937F938F939F93AF93BF93EF93FF9336
:100AB0008FEB92E07ADCFF91EF91BF91AF919F9124
:100AC0008F917F916F915F914F913F912F910F90F7
:100AD0000BBE0F900FBE0F901F9018951F920F9294
:100AE0000FB60F9211240BB60F922F938F939F93F3
:100AF000EF93FF93E091CF02F091D0028081E091DB
:100B0000D502F091D60282FD12C090818091D80268
:100B10008F5F8F732091D902821751F0E091D80234
:100B2000F0E0E154FD4F958F8093D80201C08081A1
:100B3000FF91EF919F918F912F910F900BBE0F908E
:100B40000FBE0F901F9018951F920F920FB60F9225
:100B500011242F933F938F939F93AF93BF938091D3
:100B6000B1029091B202A091B302B091B40230915F
:100B7000B00223E0230F2D3720F40196A11DB11DF3
:100B800005C026E8230F0296A11DB11D2093B002D7
:100B90008093B1029093B202A093B302B093B402D7
:100BA0008091B5029091B602A091B702B091B802BF
:100BB0000196A11DB11D8093B5029093B602A0933A
:100BC000B702B093B802BF91AF919F918F913F91BF
:100BD0002F910F900FBE0F901F901895EFEBF2E042
:100BE0001382128288EE93E0A0E0B0E084839583C4
:100BF000A683B7838AE092E09183808385EC90E0BE
:100C00009587848784EC90E09787868780EC90E0D6
:100C1000918B808B81EC90E0938B828B82EC90E0C7
:100C2000958B848B86EC90E0978B868B118E128E41
:100C3000138E148EECE5F3E016821782108611866F
:100C4000128613861486158616861786108A118AD0
:100C5000128A138A148A158A0895789484B582605A
:100C600084BD84B5816084BD85B5826085BD85B550
:100C7000816085BD80916E00816080936E001092CE
:100C80008100809181008260809381008091810049
:100C900081608093810080918000816080938000DA
:100CA0008091B10084608093B1008091B000816038
:100CB0008093B00080919100826080939100809138
:100CC0009100816080939100809190008160809379
:100CD00090008091A10082608093A1008091A1008A
:100CE00081608093A1008091A00081608093A0002A
:100CF0008091210182608093210180912101816096
:100D00008093210180912001816080932001809156
:100D10007A00846080937A0080917A008260809368
:100D20007A0080917A00816080937A0080917A00C5
:100D3000806880937A001092C1001092A0031092F4
:100D4000A1031092A2031092A30310925E031092CB
:100D50005F03109260031092610321DD6B017C013F
:100D60004B015C0188EB880E8BE0981EA11CB11C26
:100D700016DD6C157D058E059F0528F086169706F5
:100D8000A806B906A8F78FEB92E090939F03809393
:100D90009E036FDA04DD60935E0370935F038093BC
:100DA00060039093610364E272E080919E039091EE
:100DB0009F036ADEF4DC6B017C014B015C01EAE01D
:100DC0008E0E911CA11CB11CEADC6C157D058E05F4
:100DD0009F0528F086169706A806B906A8F781E0B1
:100DE0008093720346DA88E090E03FD4EC0188E219
:100DF00090E0998388838DE290E09B838A8382E3ED
:100E000090E09D838C8385E490E09F838E8361E0F6
:100E100088E210DC61E08DE20DDC61E082E30ADC57
:100E200060E085E407DC60E088E286DB60E08DE27C
:100E300083DB61E082E380DBD093BA02C093B90226
:100E400066E372E08FEB92E00DDE04E610E0E090E6
:100E5000B902F090BA02F701868128DCEC01F701B3
:100E6000868124DCBC01990F880B990BC0D120E04E
:100E700030E040EA50E41AD220E030EC4FE754E48E
:100E800050D36B017C0168E472E08FEB92E0FCDDF3
:100E9000AE01DD0F660B770B77FF04C0CB01BA0103
:100EA000C0DD04C02AE08FEB92E0AEDC63E372E0C9
:100EB0008FEB92E094DC67E572E08FEB92E0E4DD8B
:100EC00042E0C701B601E7DC63E372E08FEB92E03A
:100ED00086DC69E672E08FEB92E0C4DDC091B90276
:100EE000D091BA0260E08A8127DBCE0164DC66E73C
:100EF00072E08FEB92E0B6DD1DDC0150110909F0C4
:100F0000A6CF6DE772E08FEB92E0ACDD04E610E077
:100F1000E090B902F090BA02F7018681C7DBEC01DC
:100F2000F7018681C3DBBC01990F880B990B5FD158
:100F300020E030E040EA50E4B9D120E030EC4FE767
:100F400054E4EFD26B017C0168E472E08FEB92E035
:100F50009BDDAE01DD0F660B770B77FF04C0CB0185
:100F6000BA015FDD04C02AE08FEB92E04DDC63E361
:100F700072E08FEB92E033DC67E572E08FEB92E09A
:100F800083DD42E0C701B60186DC63E372E08FEBEC
:100F900092E025DC6FE872E08FEB92E063DDC091B8
:100FA000B902D091BA0261E08A81C6DACE0103DCCF
:100FB00066E772E08FEB92E055DDBCDB0150110972
:100FC00009F0A6CF84EF882E99249394A12CB12CFC
:100FD000E6DB672B682B692B39F4E1DB62307105A6
:100FE0008105910508F4F5C0DADB0091BB02109190
:100FF000BC022091BD023091BE02601771078207CA
:10100000930740F46093BB027093BC028093BD02CF
:101010009093BE020091BB021091BC022091BD02D0
:101020003091BE026B017C01C01AD10AE20AF30AB8
:10103000970186010A3F11052105310508F4C9C051
:101040006093BB027093BC028093BD029093BE027A
:1010500080926A0390926B03A0926C03B0926D032E
:1010600010926E0310926F0310927003109271032E
:101070008091620390916303A0916403B091650332
:101080008093660390936703A0936803B09369030A
:1010900086DB609362037093630380936403909391
:1010A00065037DDB60935E0370935F038093600351
:1010B0009093610374DB6B017C016CE972E08091B9
:1010C0009E0390919F03E0DC2AE041E050E060E065
:1010D00070E080919E0390919F0396DB63EA72E03B
:1010E00080919E0390919F03CFDC2AE0B701A60177
:1010F00080919E0390919F0387DB65EA72E0809167
:101100009E0390919F03C0DC8091620390916303E2
:10111000A0916403B0916503B701A601481B590B68
:101120006A0B7B0B2AE080919E0390919F036CDBFE
:1011300065EA72E080919E0390919F03A5DC409147
:101140006203509163036091640370916503809121
:10115000660390916703A0916803B0916903481BEF
:10116000590B6A0B7B0B2AE080919E0390919F03A1
:101170004BDB67EA72E080919E0390919F0384DCD1
:101180000EDBAB01BC012AE080919E0390919F038E
:101190003BDB69EA72E080919E0390919F0362DCE1
:1011A000FEDA6B017C012B013C0185E0480E511CED
:1011B000611C711CF4DA6C157D058E059F0558F4D1
:1011C000EEDA6093620370936303809364039093F9
:1011D00065037AD9FDCE461657066806790650F79C
:1011E000EFCF40D008F481E00895E89409C097FB60
:1011F0003EF490958095709561957F4F8F4F9F4FEE
:101200009923A9F0F92F96E9BB279395F695879531
:1012100077956795B795F111F8CFFAF4BB0F11F4F4
:1012200060FF1BC06F5F7F4F8F4F9F4F16C088239B
:1012300011F096E911C0772321F09EE8872F762FD1
:1012400005C0662371F096E8862F70E060E02AF012
:101250009A95660F771F881FDAF7880F96958795FE
:1012600097F90895990F0008550FAA0BE0E8FEEFD3
:1012700016161706E807F907C0F012161306E4075A
:10128000F50798F0621B730B840B950B39F40A2653
:1012900061F0232B242B252B21F408950A2609F431
:1012A000A140A6958FEF811D811D08950BD078C0B8
:1012B00069D028F06ED018F0952309F05AC05FC0AD
:1012C0001124A2C07ED0A0F3959FD1F3950F50E0DA
:1012D000551F629FF001729FBB27F00DB11D639FE8
:1012E000AA27F00DB11DAA1F649F6627B00DA11D8E
:1012F000661F829F2227B00DA11D621F739FB00D34
:10130000A11D621F839FA00D611D221F749F3327A3
:10131000A00D611D231F849F600D211D822F762F3C
:101320006A2F11249F5750408AF0E1F088234AF039
:10133000EE0FFF1FBB1F661F771F881F9150504085
:10134000A9F79E3F510570F014C05EC05F3FECF3FB
:10135000983EDCF3869577956795B795F795E79571
:101360009F5FC1F7FE2B880F911D9695879597F982
:10137000089597F99F6780E870E060E008959FEF17
:1013800080EC089500240A9416161706180609061C
:10139000089500240A9412161306140605060895EB
:1013A000092E0394000C11F4882352F0BB0F40F473
:1013B000BF2B11F460FF04C06F5F7F4F8F4F9F4FB3
:1013C000089557FD9058440F551F59F05F3F71F035
:1013D0004795880F97FB991F61F09F3F79F087959C
:1013E0000895121613061406551FF2CF4695F1DF25
:1013F00008C0161617061806991FF1CF86957105B5
:10140000610508940895E894BB2766277727CB01E8
:1014100097F90895A1E21A2EAA1BBB1BFD010DC06E
:10142000AA1FBB1FEE1FFF1FA217B307E407F50794
:1014300020F0A21BB30BE40BF50B661F771F881F70
:10144000991F1A9469F760957095809590959B0106
:10145000AC01BD01CF0108955058BB27AA270ED07B
:101460009FCF90DF30F095DF20F031F49F3F11F4F3
:101470001EF485CF0EF4E095E7FB7BCFE92FA1DFCB
:1014800080F3BA17620773078407950718F071F4A1
:101490009EF5B9CF0EF4E0950B2EBA2FA02D0B01BF
:1014A000B90190010C01CA01A0011124FF27591BA9
:1014B00099F0593F50F4503E68F11A16F040A22FAF
:1014C000232F342F4427585FF3CF46953795279520
:1014D000A795F0405395C9F77EF41F16BA0B620B1F
:1014E000730B840BBAF09150A1F0FF0FBB1F661F66
:1014F000771F881FC2F70EC0BA0F621F731F841FA9
:1015000048F4879577956795B795F7959E3F08F0CE
:10151000B3CF9395880F08F09927EE0F979587958D
:1015200008950CD03DCF35DF40F02CDF30F021F4B2
:101530005F3F19F01ECF511167CF21CF42DF98F3E3
:101540009923C9F35523B1F3951B550BBB27AA2744
:1015500062177307840738F09F5F5F4F220F331FB6
:10156000441FAA1FA9F333D00E2E3AF0E0E830D082
:1015700091505040E695001CCAF729D0FE2F27D085
:10158000660F771F881FBB1F261737074807AB0753
:10159000B0E809F0BB0B802DBF01FF2793585F4FC8
:1015A0002AF09E3F510568F0E4CE2ECF5F3FECF36A
:1015B000983EDCF3869577956795B795F7959F5F8D
:1015C000C9F7880F911D9695879597F90895E1E0E1
:1015D000660F771F881FBB1F621773078407BA0740
:1015E00020F0621B730B840BBA0BEE1F88F7E0959B
:1015F0000895EFDE88F09F5790F0B92F9927B751E3
:10160000A0F0D1F0660F771F881F991F1AF0BA95C6
:10161000C9F712C0B13081F0F6DEB1E00895F3CE23
:10162000672F782F8827B85F39F0B93FCCF38695BC
:1016300077956795B395D9F73EF490958095709519
:1016400061957F4F8F4F9F4F08950CDE08F48FEF09
:10165000089508DE880B990B0895EE0FFF1F881F71
:101660008BBF0790F691E02D19940F931F93CF93A2
:10167000DF938230910510F482E090E0E091A603C0
:10168000F091A70320E030E0A0E0B0E0309719F13E
:10169000408151810281138148175907C8F084178E
:1016A000950769F4109731F012960C9312971396E0
:1016B0001C9327C00093A6031093A70322C02115F3
:1016C000310519F04217530718F49A01BD01EF01D3
:1016D000DF01F801DBCF21153105F9F0281B390BAB
:1016E0002430310580F48A819B816115710521F0D8
:1016F000FB019383828304C09093A7038093A60386
:10170000FE01329644C0FE01E20FF31F81939193D4
:1017100022503109398328833AC02091A4033091A3
:10172000A503232B41F42091020230910302309350
:10173000A5032093A40320910002309101022115FA
:10174000310541F42DB73EB7409104025091050296
:10175000241B350BE091A403F091A503E217F307D6
:10176000A0F42E1B3F0B2817390778F0AC014E5F11
:101770005F4F2417350748F04E0F5F1F5093A503A6
:101780004093A4038193919302C0E0E0F0E0CF0185
:10179000DF91CF911F910F910895CF93DF93009721
:1017A00009F481C0FC01329713821282A091A60332
:1017B000B091A703109781F420813181820F931F8C
:1017C0002091A4033091A5032817390751F5F09310
:1017D000A503E093A40367C0ED0120E030E0CE173D
:1017E000DF0740F44A815B819E0141155105F1F00C
:1017F000EA01F5CFD383C28340815181840F951FC5
:10180000C817D90759F488819981840F951F0296CA
:10181000918380838A819B81938382832115310503
:1018200029F4F093A703E093A6033DC0E901FB83ED
:10183000EA8349915991C40FD51FEC17FD0761F454
:1018400080819181840F951F0296E9019983888395
:10185000828193819B838A83E0E0F0E012968D91F0
:101860009C911397009719F0FD01DC01F7CF8D9142
:101870009C9111979D012E5F3F4F820F931F2091E6
:10188000A4033091A5032817390769F4309729F488
:101890001092A7031092A60302C013821282B09383
:1018A000A503A093A403DF91CF91089581E090E078
:0818B000F89400C0F894FFCF8A
:1018B8000000A803800000000000F70161018F010B
:1018C8004302C0019E01B2016E616E00696E66003E
:1018D8006F766600564D4450565F317C315F564DE9
:1018E8004450560D0A0054657374696E6720446548
:1018F8006372656D656E740043757272656E7420EF
:10190800537465703A200043757272656E74205680
:101918006F6C746167653A200044656372656D6534
:101928006E74696E67002D2D2D2D2D2D0054657355
:1019380074696E6720496E6372656D656E740049DF
:101948006E6372656D656E74696E6700564D4450BE
:10195800455F003A323A007C005F564D44504500DE
:00000001FF
